{
  "abi": [
    {
      "inputs": [],
      "stateMutability": "payable",
      "type": "constructor"
    },
    {
      "anonymous": false,
      "inputs": [
        {
          "indexed": false,
          "internalType": "uint256",
          "name": "_id",
          "type": "uint256"
        },
        {
          "indexed": false,
          "internalType": "string",
          "name": "_metadata",
          "type": "string"
        },
        {
          "indexed": false,
          "internalType": "uint256",
          "name": "_taskReward",
          "type": "uint256"
        }
      ],
      "name": "Dispute",
      "type": "event"
    },
    {
      "stateMutability": "payable",
      "type": "fallback"
    },
    {
      "inputs": [],
      "name": "applicationCount",
      "outputs": [
        {
          "internalType": "uint256",
          "name": "",
          "type": "uint256"
        }
      ],
      "stateMutability": "view",
      "type": "function"
    },
    {
      "inputs": [
        {
          "internalType": "uint256",
          "name": "_applicationID",
          "type": "uint256"
        },
        {
          "internalType": "bool",
          "name": "_accepted",
          "type": "bool"
        }
      ],
      "name": "applicationDecision",
      "outputs": [],
      "stateMutability": "nonpayable",
      "type": "function"
    },
    {
      "inputs": [
        {
          "internalType": "uint256",
          "name": "",
          "type": "uint256"
        }
      ],
      "name": "applications",
      "outputs": [
        {
          "internalType": "string",
          "name": "metadata",
          "type": "string"
        },
        {
          "internalType": "address",
          "name": "applicant",
          "type": "address"
        },
        {
          "internalType": "bool",
          "name": "accepted",
          "type": "bool"
        },
        {
          "components": [
            {
              "internalType": "address payable",
              "name": "funder",
              "type": "address"
            },
            {
              "internalType": "uint256",
              "name": "funding",
              "type": "uint256"
            },
            {
              "internalType": "uint256",
              "name": "amountUsed",
              "type": "uint256"
            },
            {
              "internalType": "uint256",
              "name": "amountLocked",
              "type": "uint256"
            },
            {
              "internalType": "bool",
              "name": "fullyRefunded",
              "type": "bool"
            }
          ],
          "internalType": "struct FundingsManager.Fundings",
          "name": "enrolStake",
          "type": "tuple"
        },
        {
          "internalType": "uint256",
          "name": "parentProject",
          "type": "uint256"
        }
      ],
      "stateMutability": "view",
      "type": "function"
    },
    {
      "inputs": [
        {
          "internalType": "uint256",
          "name": "_projectID",
          "type": "uint256"
        },
        {
          "internalType": "string",
          "name": "_metadata",
          "type": "string"
        },
        {
          "internalType": "uint256",
          "name": "_stake",
          "type": "uint256"
        }
      ],
      "name": "applyToProject",
      "outputs": [
        {
          "internalType": "uint256",
          "name": "",
          "type": "uint256"
        }
      ],
      "stateMutability": "payable",
      "type": "function"
    },
    {
      "inputs": [],
      "name": "campaignCount",
      "outputs": [
        {
          "internalType": "uint256",
          "name": "",
          "type": "uint256"
        }
      ],
      "stateMutability": "view",
      "type": "function"
    },
    {
      "inputs": [
        {
          "internalType": "uint256",
          "name": "",
          "type": "uint256"
        }
      ],
      "name": "campaigns",
      "outputs": [
        {
          "internalType": "string",
          "name": "metadata",
          "type": "string"
        },
        {
          "internalType": "uint256",
          "name": "creationTime",
          "type": "uint256"
        },
        {
          "internalType": "enum CampaignManager.CampaignStatus",
          "name": "status",
          "type": "uint8"
        },
        {
          "internalType": "address payable",
          "name": "creator",
          "type": "address"
        },
        {
          "components": [
            {
              "internalType": "address payable",
              "name": "funder",
              "type": "address"
            },
            {
              "internalType": "uint256",
              "name": "funding",
              "type": "uint256"
            },
            {
              "internalType": "uint256",
              "name": "amountUsed",
              "type": "uint256"
            },
            {
              "internalType": "uint256",
              "name": "amountLocked",
              "type": "uint256"
            },
            {
              "internalType": "bool",
              "name": "fullyRefunded",
              "type": "bool"
            }
          ],
          "internalType": "struct FundingsManager.Fundings",
          "name": "stake",
          "type": "tuple"
        }
      ],
      "stateMutability": "view",
      "type": "function"
    },
    {
      "inputs": [],
      "name": "checkerMasterAddress",
      "outputs": [
        {
          "internalType": "address",
          "name": "",
          "type": "address"
        }
      ],
      "stateMutability": "view",
      "type": "function"
    },
    {
      "inputs": [
        {
          "internalType": "uint256",
          "name": "_projectID",
          "type": "uint256"
        }
      ],
      "name": "closeProject",
      "outputs": [],
      "stateMutability": "nonpayable",
      "type": "function"
    },
    {
      "inputs": [],
      "name": "contractMaster",
      "outputs": [
        {
          "internalType": "address",
          "name": "",
          "type": "address"
        }
      ],
      "stateMutability": "view",
      "type": "function"
    },
    {
      "inputs": [],
      "name": "contractMasterDrain",
      "outputs": [],
      "stateMutability": "nonpayable",
      "type": "function"
    },
    {
      "inputs": [],
      "name": "enrolStake",
      "outputs": [
        {
          "internalType": "uint256",
          "name": "",
          "type": "uint256"
        }
      ],
      "stateMutability": "view",
      "type": "function"
    },
    {
      "inputs": [
        {
          "internalType": "uint256",
          "name": "_projectId",
          "type": "uint256"
        },
        {
          "internalType": "uint256",
          "name": "_applicationId",
          "type": "uint256"
        }
      ],
      "name": "fireWorker",
      "outputs": [],
      "stateMutability": "nonpayable",
      "type": "function"
    },
    {
      "inputs": [
        {
          "internalType": "uint256",
          "name": "_campaignID",
          "type": "uint256"
        },
        {
          "internalType": "uint256",
          "name": "_funding",
          "type": "uint256"
        }
      ],
      "name": "fundCampaign",
      "outputs": [],
      "stateMutability": "payable",
      "type": "function"
    },
    {
      "inputs": [
        {
          "internalType": "uint256",
          "name": "_applicationID",
          "type": "uint256"
        }
      ],
      "name": "getApplication",
      "outputs": [
        {
          "components": [
            {
              "internalType": "string",
              "name": "metadata",
              "type": "string"
            },
            {
              "internalType": "address",
              "name": "applicant",
              "type": "address"
            },
            {
              "internalType": "bool",
              "name": "accepted",
              "type": "bool"
            },
            {
              "components": [
                {
                  "internalType": "address payable",
                  "name": "funder",
                  "type": "address"
                },
                {
                  "internalType": "uint256",
                  "name": "funding",
                  "type": "uint256"
                },
                {
                  "internalType": "uint256",
                  "name": "amountUsed",
                  "type": "uint256"
                },
                {
                  "internalType": "uint256",
                  "name": "amountLocked",
                  "type": "uint256"
                },
                {
                  "internalType": "bool",
                  "name": "fullyRefunded",
                  "type": "bool"
                }
              ],
              "internalType": "struct FundingsManager.Fundings",
              "name": "enrolStake",
              "type": "tuple"
            },
            {
              "internalType": "uint256",
              "name": "parentProject",
              "type": "uint256"
            }
          ],
          "internalType": "struct ProjectManager.Application",
          "name": "",
          "type": "tuple"
        }
      ],
      "stateMutability": "view",
      "type": "function"
    },
    {
      "inputs": [
        {
          "internalType": "uint256",
          "name": "_campaignID",
          "type": "uint256"
        }
      ],
      "name": "getCampaign",
      "outputs": [
        {
          "components": [
            {
              "internalType": "string",
              "name": "metadata",
              "type": "string"
            },
            {
              "internalType": "uint256",
              "name": "creationTime",
              "type": "uint256"
            },
            {
              "internalType": "enum CampaignManager.CampaignStatus",
              "name": "status",
              "type": "uint8"
            },
            {
              "internalType": "address payable",
              "name": "creator",
              "type": "address"
            },
            {
              "internalType": "address payable[]",
              "name": "owners",
              "type": "address[]"
            },
            {
              "internalType": "address payable[]",
              "name": "acceptors",
              "type": "address[]"
            },
            {
              "internalType": "address payable[]",
              "name": "allTimeStakeholders",
              "type": "address[]"
            },
            {
              "components": [
                {
                  "internalType": "address payable",
                  "name": "funder",
                  "type": "address"
                },
                {
                  "internalType": "uint256",
                  "name": "funding",
                  "type": "uint256"
                },
                {
                  "internalType": "uint256",
                  "name": "amountUsed",
                  "type": "uint256"
                },
                {
                  "internalType": "uint256",
                  "name": "amountLocked",
                  "type": "uint256"
                },
                {
                  "internalType": "bool",
                  "name": "fullyRefunded",
                  "type": "bool"
                }
              ],
              "internalType": "struct FundingsManager.Fundings",
              "name": "stake",
              "type": "tuple"
            },
            {
              "components": [
                {
                  "internalType": "address payable",
                  "name": "funder",
                  "type": "address"
                },
                {
                  "internalType": "uint256",
                  "name": "funding",
                  "type": "uint256"
                },
                {
                  "internalType": "uint256",
                  "name": "amountUsed",
                  "type": "uint256"
                },
                {
                  "internalType": "uint256",
                  "name": "amountLocked",
                  "type": "uint256"
                },
                {
                  "internalType": "bool",
                  "name": "fullyRefunded",
                  "type": "bool"
                }
              ],
              "internalType": "struct FundingsManager.Fundings[]",
              "name": "fundings",
              "type": "tuple[]"
            },
            {
              "internalType": "uint256[]",
              "name": "directChildProjects",
              "type": "uint256[]"
            },
            {
              "internalType": "uint256[]",
              "name": "allChildProjects",
              "type": "uint256[]"
            }
          ],
          "internalType": "struct CampaignManager.Campaign",
          "name": "",
          "type": "tuple"
        }
      ],
      "stateMutability": "view",
      "type": "function"
    },
    {
      "inputs": [],
      "name": "getDecisionTimes",
      "outputs": [
        {
          "internalType": "uint256",
          "name": "",
          "type": "uint256"
        },
        {
          "internalType": "uint256",
          "name": "",
          "type": "uint256"
        },
        {
          "internalType": "uint256",
          "name": "",
          "type": "uint256"
        },
        {
          "internalType": "uint256",
          "name": "",
          "type": "uint256"
        }
      ],
      "stateMutability": "view",
      "type": "function"
    },
    {
      "inputs": [
        {
          "internalType": "uint256",
          "name": "_projectID",
          "type": "uint256"
        }
      ],
      "name": "getProject",
      "outputs": [
        {
          "components": [
            {
              "internalType": "string",
              "name": "metadata",
              "type": "string"
            },
            {
              "internalType": "uint256",
              "name": "weight",
              "type": "uint256"
            },
            {
              "internalType": "uint256",
              "name": "reward",
              "type": "uint256"
            },
            {
              "internalType": "uint256",
              "name": "creationTime",
              "type": "uint256"
            },
            {
              "components": [
                {
                  "internalType": "uint256",
                  "name": "startStageTimestamp",
                  "type": "uint256"
                },
                {
                  "internalType": "uint256",
                  "name": "startGateTimestamp",
                  "type": "uint256"
                },
                {
                  "internalType": "uint256",
                  "name": "startSettledTimestamp",
                  "type": "uint256"
                }
              ],
              "internalType": "struct ProjectManager.NextMilestone",
              "name": "nextMilestone",
              "type": "tuple"
            },
            {
              "internalType": "enum ProjectManager.ProjectStatus",
              "name": "status",
              "type": "uint8"
            },
            {
              "internalType": "bool",
              "name": "applicationRequired",
              "type": "bool"
            },
            {
              "internalType": "uint256[]",
              "name": "applications",
              "type": "uint256[]"
            },
            {
              "internalType": "address[]",
              "name": "workers",
              "type": "address[]"
            },
            {
              "internalType": "address[]",
              "name": "pastWorkers",
              "type": "address[]"
            },
            {
              "internalType": "uint256",
              "name": "parentCampaign",
              "type": "uint256"
            },
            {
              "internalType": "uint256",
              "name": "parentProject",
              "type": "uint256"
            },
            {
              "internalType": "uint256[]",
              "name": "childProjects",
              "type": "uint256[]"
            },
            {
              "internalType": "uint256[]",
              "name": "childTasks",
              "type": "uint256[]"
            }
          ],
          "internalType": "struct ProjectManager.Project",
          "name": "",
          "type": "tuple"
        }
      ],
      "stateMutability": "view",
      "type": "function"
    },
    {
      "inputs": [
        {
          "internalType": "uint256",
          "name": "_taskID",
          "type": "uint256"
        }
      ],
      "name": "getTask",
      "outputs": [
        {
          "components": [
            {
              "internalType": "uint256",
              "name": "id",
              "type": "uint256"
            },
            {
              "internalType": "string",
              "name": "metadata",
              "type": "string"
            },
            {
              "internalType": "uint256",
              "name": "weight",
              "type": "uint256"
            },
            {
              "internalType": "bool",
              "name": "paid",
              "type": "bool"
            },
            {
              "internalType": "uint256",
              "name": "creationTime",
              "type": "uint256"
            },
            {
              "internalType": "uint256",
              "name": "deadline",
              "type": "uint256"
            },
            {
              "internalType": "address payable",
              "name": "worker",
              "type": "address"
            },
            {
              "internalType": "string",
              "name": "submission",
              "type": "string"
            },
            {
              "internalType": "enum TaskManager.SubmissionStatus",
              "name": "submissionStatus",
              "type": "uint8"
            },
            {
              "internalType": "uint256",
              "name": "parentProject",
              "type": "uint256"
            }
          ],
          "internalType": "struct TaskManager.Task",
          "name": "",
          "type": "tuple"
        }
      ],
      "stateMutability": "view",
      "type": "function"
    },
    {
      "inputs": [
        {
          "internalType": "uint256",
          "name": "_projectID",
          "type": "uint256"
        },
        {
          "internalType": "uint256",
          "name": "_nextStageStartTimestamp",
          "type": "uint256"
        },
        {
          "internalType": "uint256",
          "name": "_nextGateStartTimestamp",
          "type": "uint256"
        },
        {
          "internalType": "uint256",
          "name": "_nextSettledStartTimestamp",
          "type": "uint256"
        }
      ],
      "name": "goToSettledStatus",
      "outputs": [],
      "stateMutability": "nonpayable",
      "type": "function"
    },
    {
      "inputs": [
        {
          "internalType": "string",
          "name": "_metadata",
          "type": "string"
        },
        {
          "internalType": "address payable[]",
          "name": "_owners",
          "type": "address[]"
        },
        {
          "internalType": "address payable[]",
          "name": "_acceptors",
          "type": "address[]"
        },
        {
          "internalType": "uint256",
          "name": "_stake",
          "type": "uint256"
        },
        {
          "internalType": "uint256",
          "name": "_funding",
          "type": "uint256"
        }
      ],
      "name": "makeCampaign",
      "outputs": [
        {
          "internalType": "uint256",
          "name": "",
          "type": "uint256"
        }
      ],
      "stateMutability": "payable",
      "type": "function"
    },
    {
      "inputs": [
        {
          "internalType": "string",
          "name": "_metadata",
          "type": "string"
        },
        {
          "internalType": "bool",
          "name": "_applicationRequired",
          "type": "bool"
        },
        {
          "internalType": "uint256",
          "name": "_parentCampaignId",
          "type": "uint256"
        },
        {
          "internalType": "uint256",
          "name": "_parentProjectId",
          "type": "uint256"
        },
        {
          "internalType": "bool",
          "name": "_topLevel",
          "type": "bool"
        }
      ],
      "name": "makeProject",
      "outputs": [
        {
          "internalType": "uint256",
          "name": "",
          "type": "uint256"
        }
      ],
      "stateMutability": "nonpayable",
      "type": "function"
    },
    {
      "inputs": [
        {
          "internalType": "string",
          "name": "_metadata",
          "type": "string"
        },
        {
          "internalType": "uint256",
          "name": "weight",
          "type": "uint256"
        },
        {
          "internalType": "uint256",
          "name": "_deadline",
          "type": "uint256"
        },
        {
          "internalType": "uint256",
          "name": "_parentProjectID",
          "type": "uint256"
        }
      ],
      "name": "makeTask",
      "outputs": [
        {
          "internalType": "uint256",
          "name": "",
          "type": "uint256"
        }
      ],
      "stateMutability": "nonpayable",
      "type": "function"
    },
    {
      "inputs": [],
      "name": "minOpenCampaignStake",
      "outputs": [
        {
          "internalType": "uint256",
          "name": "",
          "type": "uint256"
        }
      ],
      "stateMutability": "view",
      "type": "function"
    },
    {
      "inputs": [],
      "name": "minStake",
      "outputs": [
        {
          "internalType": "uint256",
          "name": "",
          "type": "uint256"
        }
      ],
      "stateMutability": "view",
      "type": "function"
    },
    {
      "inputs": [],
      "name": "minimumGateTime",
      "outputs": [
        {
          "internalType": "uint256",
          "name": "",
          "type": "uint256"
        }
      ],
      "stateMutability": "view",
      "type": "function"
    },
    {
      "inputs": [],
      "name": "minimumSettledTime",
      "outputs": [
        {
          "internalType": "uint256",
          "name": "",
          "type": "uint256"
        }
      ],
      "stateMutability": "view",
      "type": "function"
    },
    {
      "inputs": [
        {
          "internalType": "uint256",
          "name": "_projectID",
          "type": "uint256"
        }
      ],
      "name": "new_statusFixer",
      "outputs": [
        {
          "internalType": "bool",
          "name": "updated",
          "type": "bool"
        }
      ],
      "stateMutability": "nonpayable",
      "type": "function"
    },
    {
      "inputs": [],
      "name": "projectCount",
      "outputs": [
        {
          "internalType": "uint256",
          "name": "",
          "type": "uint256"
        }
      ],
      "stateMutability": "view",
      "type": "function"
    },
    {
      "inputs": [
        {
          "internalType": "uint256",
          "name": "",
          "type": "uint256"
        }
      ],
      "name": "projects",
      "outputs": [
        {
          "internalType": "string",
          "name": "metadata",
          "type": "string"
        },
        {
          "internalType": "uint256",
          "name": "weight",
          "type": "uint256"
        },
        {
          "internalType": "uint256",
          "name": "reward",
          "type": "uint256"
        },
        {
          "internalType": "uint256",
          "name": "creationTime",
          "type": "uint256"
        },
        {
          "components": [
            {
              "internalType": "uint256",
              "name": "startStageTimestamp",
              "type": "uint256"
            },
            {
              "internalType": "uint256",
              "name": "startGateTimestamp",
              "type": "uint256"
            },
            {
              "internalType": "uint256",
              "name": "startSettledTimestamp",
              "type": "uint256"
            }
          ],
          "internalType": "struct ProjectManager.NextMilestone",
          "name": "nextMilestone",
          "type": "tuple"
        },
        {
          "internalType": "enum ProjectManager.ProjectStatus",
          "name": "status",
          "type": "uint8"
        },
        {
          "internalType": "bool",
          "name": "applicationRequired",
          "type": "bool"
        },
        {
          "internalType": "uint256",
          "name": "parentCampaign",
          "type": "uint256"
        },
        {
          "internalType": "uint256",
          "name": "parentProject",
          "type": "uint256"
        }
      ],
      "stateMutability": "view",
      "type": "function"
    },
    {
      "inputs": [
        {
          "internalType": "uint256",
          "name": "_taskID",
          "type": "uint256"
        },
        {
          "internalType": "string",
          "name": "_metadata",
          "type": "string"
        }
      ],
      "name": "raiseDeclinedSubmissionDispute",
      "outputs": [],
      "stateMutability": "nonpayable",
      "type": "function"
    },
    {
      "inputs": [
        {
          "internalType": "uint256",
          "name": "_campaignID",
          "type": "uint256"
        }
      ],
      "name": "refundAllCampaignFundings",
      "outputs": [],
      "stateMutability": "nonpayable",
      "type": "function"
    },
    {
      "inputs": [
        {
          "internalType": "uint256",
          "name": "_campaignID",
          "type": "uint256"
        },
        {
          "internalType": "uint256",
          "name": "_fundingID",
          "type": "uint256"
        }
      ],
      "name": "refundOwnFunding",
      "outputs": [],
      "stateMutability": "nonpayable",
      "type": "function"
    },
    {
      "inputs": [
        {
          "internalType": "address",
          "name": "_checkerMasterAddress",
          "type": "address"
        }
      ],
      "name": "setCheckerMasterAddress",
      "outputs": [],
      "stateMutability": "nonpayable",
      "type": "function"
    },
    {
      "inputs": [
        {
          "internalType": "address",
          "name": "_updateMasterAddress",
          "type": "address"
        }
      ],
      "name": "setUpdateMasterAddress",
      "outputs": [],
      "stateMutability": "nonpayable",
      "type": "function"
    },
    {
      "inputs": [
        {
          "internalType": "uint256",
          "name": "_taskID",
          "type": "uint256"
        },
        {
          "internalType": "bool",
          "name": "_accepted",
          "type": "bool"
        }
      ],
      "name": "submissionDecision",
      "outputs": [],
      "stateMutability": "nonpayable",
      "type": "function"
    },
    {
      "inputs": [
        {
          "internalType": "uint256",
          "name": "_taskID",
          "type": "uint256"
        },
        {
          "internalType": "string",
          "name": "_metadata",
          "type": "string"
        }
      ],
      "name": "submitSubmission",
      "outputs": [],
      "stateMutability": "nonpayable",
      "type": "function"
    },
    {
      "inputs": [],
      "name": "taskCount",
      "outputs": [
        {
          "internalType": "uint256",
          "name": "",
          "type": "uint256"
        }
      ],
      "stateMutability": "view",
      "type": "function"
    },
    {
      "inputs": [],
      "name": "taskSubmissionDecisionDisputeTime",
      "outputs": [
        {
          "internalType": "uint256",
          "name": "",
          "type": "uint256"
        }
      ],
      "stateMutability": "view",
      "type": "function"
    },
    {
      "inputs": [],
      "name": "taskSubmissionDecisionTime",
      "outputs": [
        {
          "internalType": "uint256",
          "name": "",
          "type": "uint256"
        }
      ],
      "stateMutability": "view",
      "type": "function"
    },
    {
      "inputs": [
        {
          "internalType": "uint256",
          "name": "",
          "type": "uint256"
        }
      ],
      "name": "tasks",
      "outputs": [
        {
          "internalType": "uint256",
          "name": "id",
          "type": "uint256"
        },
        {
          "internalType": "string",
          "name": "metadata",
          "type": "string"
        },
        {
          "internalType": "uint256",
          "name": "weight",
          "type": "uint256"
        },
        {
          "internalType": "bool",
          "name": "paid",
          "type": "bool"
        },
        {
          "internalType": "uint256",
          "name": "creationTime",
          "type": "uint256"
        },
        {
          "internalType": "uint256",
          "name": "deadline",
          "type": "uint256"
        },
        {
          "internalType": "address payable",
          "name": "worker",
          "type": "address"
        },
        {
          "internalType": "string",
          "name": "submission",
          "type": "string"
        },
        {
          "internalType": "enum TaskManager.SubmissionStatus",
          "name": "submissionStatus",
          "type": "uint8"
        },
        {
          "internalType": "uint256",
          "name": "parentProject",
          "type": "uint256"
        }
      ],
      "stateMutability": "view",
      "type": "function"
    },
    {
      "inputs": [
        {
          "internalType": "uint256",
          "name": "_campaignID",
          "type": "uint256"
        },
        {
          "internalType": "string",
          "name": "_metadata",
          "type": "string"
        },
        {
          "internalType": "enum CampaignManager.CampaignStatus",
          "name": "_status",
          "type": "uint8"
        },
        {
          "internalType": "address payable[]",
          "name": "_owners",
          "type": "address[]"
        },
        {
          "internalType": "address payable[]",
          "name": "_acceptors",
          "type": "address[]"
        }
      ],
      "name": "updateCampaign",
      "outputs": [],
      "stateMutability": "nonpayable",
      "type": "function"
    },
    {
      "inputs": [],
      "name": "updateMasterAddress",
      "outputs": [
        {
          "internalType": "address",
          "name": "",
          "type": "address"
        }
      ],
      "stateMutability": "view",
      "type": "function"
    },
    {
      "inputs": [
        {
          "internalType": "uint256",
          "name": "_projectId",
          "type": "uint256"
        },
        {
          "internalType": "uint256",
          "name": "_applicationId",
          "type": "uint256"
        }
      ],
      "name": "workerDropOut",
      "outputs": [],
      "stateMutability": "nonpayable",
      "type": "function"
    },
    {
      "inputs": [
        {
          "internalType": "uint256",
          "name": "_projectID",
          "type": "uint256"
        },
        {
          "internalType": "uint256",
          "name": "_stake",
          "type": "uint256"
        }
      ],
      "name": "workerEnrolNoApplication",
      "outputs": [],
      "stateMutability": "payable",
      "type": "function"
    },
    {
      "inputs": [
        {
          "internalType": "uint256",
          "name": "_taskID",
          "type": "uint256"
        }
      ],
      "name": "workerSelfAssignsTask",
      "outputs": [],
      "stateMutability": "nonpayable",
      "type": "function"
    },
    {
      "stateMutability": "payable",
      "type": "receive"
    }
  ],
  "bytecode": {
    "object": "0x6080604052600180546001600160a01b031990811682556002805482169055600482905560068290556008919091556608e1bc9bf04000600b8190556658d15e17628000600c55600d5562015180600e81905562034bc0600f556010556202a30060115560008054909116331790556161b38061007d6000396000f3fe6080604052600436106102025760003560e01c8062c374cd1461020b578063107046bd1461023e578063141961bc1461027357806314271492146102a457806318b952f6146102c45780631d65e77e146102fc5780631f2f4bfd1461032957806333e2f1e91461035657806336fbad2614610376578063375b3c0a1461038c5780634a25886b146103a25780634a502233146103c25780634fba1d13146103e25780635598f8cc146104125780635c30337a1461043f5780637274e30d1461045f57806373b9a5b314610475578063762f485b1461048b57806386e45559146104a15780638d977672146104c1578063915a4042146104f7578063918eab151461050a57806393dc12e61461051d57806394fe52a81461053d5780639688008d1461055057806397b1ede014610565578063982260cf146105855780639d709c5f146105a55780639eec3654146105c5578063a3e366f0146105d8578063a7be3ba0146105ee578063a87f224c1461060e578063aa15d5f01461062e578063b6cb58a514610667578063bcd6f7951461067d578063c4e60c331461069d578063d6200404146106b3578063db08fe76146106d3578063dfefadff146106f3578063e0a6926a14610724578063e2aad4a01461073a578063e3fc349914610750578063e4ffeeb614610770578063f0f3f2c814610790578063fa555842146107bd57005b3661020957005b005b34801561021757600080fd5b5061022b61022636600461522d565b6107d3565b6040519081526020015b60405180910390f35b34801561024a57600080fd5b5061025e610259366004615280565b610970565b60405161023599989796959493929190615322565b34801561027f57600080fd5b5061029361028e366004615280565b610a69565b6040516102359594939291906153dd565b3480156102b057600080fd5b506102096102bf366004615423565b610b6c565b3480156102d057600080fd5b506000546102e4906001600160a01b031681565b6040516001600160a01b039091168152602001610235565b34801561030857600080fd5b5061031c610317366004615280565b610ca8565b6040516102359190615455565b34801561033557600080fd5b50610349610344366004615280565b610e85565b604051610235919061550b565b34801561036257600080fd5b5061020961037136600461557e565b610fc1565b34801561038257600080fd5b5061022b60065481565b34801561039857600080fd5b5061022b600b5481565b3480156103ae57600080fd5b506102096103bd366004615280565b611331565b3480156103ce57600080fd5b5061022b6103dd3660046155ae565b611466565b3480156103ee57600080fd5b506104026103fd366004615280565b6116ac565b6040519015158152602001610235565b34801561041e57600080fd5b5061043261042d366004615280565b611fda565b60405161023591906156d3565b34801561044b57600080fd5b506001546102e4906001600160a01b031681565b34801561046b57600080fd5b5061022b60045481565b34801561048157600080fd5b5061022b600e5481565b34801561049757600080fd5b5061022b60115481565b3480156104ad57600080fd5b506102096104bc3660046157fe565b6123a0565b3480156104cd57600080fd5b506104e16104dc366004615280565b6123eb565b6040516102359a99989796959493929190615822565b61022b61050536600461593a565b612561565b610209610518366004615423565b612691565b34801561052957600080fd5b50610209610538366004615280565b612798565b61020961054b366004615423565b61290b565b34801561055c57600080fd5b50610209612f9b565b34801561057157600080fd5b506102096105803660046159d3565b61300a565b34801561059157600080fd5b506102096105a03660046159d3565b6131a7565b3480156105b157600080fd5b506102096105c036600461557e565b6132ee565b61022b6105d3366004615a19565b613595565b3480156105e457600080fd5b5061022b600c5481565b3480156105fa57600080fd5b50610209610609366004615a68565b613c25565b34801561061a57600080fd5b50610209610629366004615280565b6140d6565b34801561063a57600080fd5b50600f54601054601154600e54604080519485526020850193909352918301526060820152608001610235565b34801561067357600080fd5b5061022b60085481565b34801561068957600080fd5b506102096106983660046157fe565b61423d565b3480156106a957600080fd5b5061022b600d5481565b3480156106bf57600080fd5b506102096106ce366004615423565b614288565b3480156106df57600080fd5b506102096106ee366004615a9a565b61434f565b3480156106ff57600080fd5b5061071361070e366004615280565b6145e7565b604051610235959493929190615b44565b34801561073057600080fd5b5061022b60105481565b34801561074657600080fd5b5061022b600a5481565b34801561075c57600080fd5b5061020961076b366004615423565b6146ee565b34801561077c57600080fd5b506002546102e4906001600160a01b031681565b34801561079c57600080fd5b506107b06107ab366004615280565b614829565b6040516102359190615b91565b3480156107c957600080fd5b5061022b600f5481565b60025460405163eecaee6b60e01b8152600481018390526000916001600160a01b03169063eecaee6b9060240160006040518083038186803b15801561081857600080fd5b505afa15801561082c573d6000803e3d6000fd5b505060025460008581526005602052604090819020600b01549051630336ded560e11b81526001600160a01b03909216935063066dbdaa9250610873913390600401615cc3565b60006040518083038186803b15801561088b57600080fd5b505afa15801561089f573d6000803e3d6000fd5b505050504283116108dd5760405162461bcd60e51b815260206004820152600360248201526208a66760eb1b60448201526064015b60405180910390fd5b6008546000818152600760205260409020908155600181016108ff8782615d5a565b5060028101859055426004820155600580820185905560098201849055600084815260209182526040812060088054600e9092018054600181018255908452938320909301558154919061095283615e2f565b919050555060016008546109669190615e48565b9695505050505050565b60056020526000908152604090208054819061098b90615cda565b80601f01602080910402602001604051908101604052809291908181526020018280546109b790615cda565b8015610a045780601f106109d957610100808354040283529160200191610a04565b820191906000526020600020905b8154815290600101906020018083116109e757829003601f168201915b5050506001840154600285015460038601546040805160608101825260048901548152600589015460208201526006890154918101919091526007880154600b890154600c90990154979894979396509194509260ff80831693610100909304169189565b600360205260009081526040902080548190610a8490615cda565b80601f0160208091040260200160405190810160405280929190818152602001828054610ab090615cda565b8015610afd5780601f10610ad257610100808354040283529160200191610afd565b820191906000526020600020905b815481529060010190602001808311610ae057829003601f168201915b505050600184015460028501546040805160a08101825260068801546001600160a01b0390811682526007890154602083015260088901549282019290925260098801546060820152600a9097015460ff90811615156080890152959692958216945061010090910416915085565b600254604051628aee0160e21b8152600481018490526001600160a01b039091169063022bb8049060240160006040518083038186803b158015610baf57600080fd5b505afa158015610bc3573d6000803e3d6000fd5b505060025460405163206ca5a360e21b81526001600160a01b0390911692506381b2968c9150610bf99085903390600401615cc3565b60006040518083038186803b158015610c1157600080fd5b505afa158015610c25573d6000803e3d6000fd5b50505060008381526003602052604090819020905163427d15e760e01b815290915073__$700c4b692048d554c7f19e6c07dafefb0c$__9063427d15e790610c739084908690600401615e61565b60006040518083038186803b158015610c8b57600080fd5b505af4158015610c9f573d6000803e3d6000fd5b50505050505050565b610cb0614f8f565b600760008381526020019081526020016000206040518061014001604052908160008201548152602001600182018054610ce990615cda565b80601f0160208091040260200160405190810160405280929190818152602001828054610d1590615cda565b8015610d625780601f10610d3757610100808354040283529160200191610d62565b820191906000526020600020905b815481529060010190602001808311610d4557829003601f168201915b505050918352505060028201546020820152600382015460ff1615156040820152600482015460608201526005820154608082015260068201546001600160a01b031660a082015260078201805460c090920191610dbf90615cda565b80601f0160208091040260200160405190810160405280929190818152602001828054610deb90615cda565b8015610e385780601f10610e0d57610100808354040283529160200191610e38565b820191906000526020600020905b815481529060010190602001808311610e1b57829003601f168201915b5050509183525050600882015460209091019060ff166004811115610e5f57610e5f6152f8565b6004811115610e7057610e706152f8565b81526020016009820154815250509050919050565b610e8d614ffe565b60008281526009602052604090819020815160a08101909252805482908290610eb590615cda565b80601f0160208091040260200160405190810160405280929190818152602001828054610ee190615cda565b8015610f2e5780601f10610f0357610100808354040283529160200191610f2e565b820191906000526020600020905b815481529060010190602001808311610f1157829003601f168201915b505050918352505060018201546001600160a01b0380821660208085019190915260ff600160a01b90930483161515604080860191909152805160a081018252600287015490931683526003860154918301919091526004850154908201526005840154606082810191909152600685015490921615156080808301919091529183015260079092015491015292915050565b600254604051632ab0cc1160e01b8152600481018490526001600160a01b0390911690632ab0cc119060240160006040518083038186803b15801561100557600080fd5b505afa158015611019573d6000803e3d6000fd5b50506002546000858152600760205260409081902060090154905163bfc4eddd60e01b81526001600160a01b03909216935063bfc4eddd92506110629160040190815260200190565b60006040518083038186803b15801561107a57600080fd5b505afa15801561108e573d6000803e3d6000fd5b50506002546000858152600760209081526040808320600901548352600590915290819020600b0154905163208e2d5560e11b81526001600160a01b03909216935063411c5aaa92506110e5913390600401615cc3565b60006040518083038186803b1580156110fd57600080fd5b505afa158015611111573d6000803e3d6000fd5b50505060008381526007602090815260408083206009810154845260058352818420600b810154855260039093529220919250906001600884015460ff166004811115611160576111606152f8565b146111935760405162461bcd60e51b815260206004820152600360248201526245343160e81b60448201526064016108d4565b831561131a5760006064836002015485600201546111b19190615e6f565b6111bb9190615e86565b60088501805491925060039160ff1916600183021790555060038401805460ff191660011790556002830180548291906000906111f9908490615e48565b909155505060405163a6b4560b60e01b815273__$24c8841b96aa82c356d1ab35d4b0245100$__9063a6b4560b9061123a90600b8601908590600401615e61565b60006040518083038186803b15801561125257600080fd5b505af4158015611266573d6000803e3d6000fd5b50505060068501546040516001600160a01b03909116915082156108fc029083906000818181858888f193505050501580156112a6573d6000803e3d6000fd5b50835460405163781a6d4560e11b815273__$1e60a9b757f0cdba0eab1859d8e6de91e8$__9163f034da8a916112e49190600e880190600401615e61565b60006040518083038186803b1580156112fc57600080fd5b505af4158015611310573d6000803e3d6000fd5b505050505061132a565b60088301805460ff191660021790555b5050505050565b600254604051628aee0160e21b8152600481018390526001600160a01b039091169063022bb8049060240160006040518083038186803b15801561137457600080fd5b505afa158015611388573d6000803e3d6000fd5b5050600254604051630336ded560e11b81526001600160a01b03909116925063066dbdaa91506113be9084903390600401615cc3565b60006040518083038186803b1580156113d657600080fd5b505afa1580156113ea573d6000803e3d6000fd5b5050506000828152600360205260409081902090516355e4b38d60e11b81526004810182905290915073__$700c4b692048d554c7f19e6c07dafefb0c$__9063abc9671a9060240160006040518083038186803b15801561144a57600080fd5b505af415801561145e573d6000803e3d6000fd5b505050505050565b600254604051628aee0160e21b8152600481018590526000916001600160a01b03169063022bb8049060240160006040518083038186803b1580156114aa57600080fd5b505afa1580156114be573d6000803e3d6000fd5b5050600254604051630336ded560e11b81526001600160a01b03909116925063066dbdaa91506114f49087903390600401615cc3565b60006040518083038186803b15801561150c57600080fd5b505afa158015611520573d6000803e3d6000fd5b5050505060065460016115339190615ea8565b8311156115685760405162461bcd60e51b815260206004820152600360248201526245323160e81b60448201526064016108d4565b600654600090815260056020908152604080832087845260039092529182902091516343539c7d60e11b815290919073__$6a9ea02bf5ba89f52fb50f06ec914b14fc$__906386a738fa906115c79085908c908c908c90600401615ebb565b60006040518083038186803b1580156115df57600080fd5b505af41580156115f3573d6000803e3d6000fd5b505050508315611648576006805460008181526005602090815260408220600c908101849055850180546001818101835591845282842001939093559254600d8501805493840181558252929020015561167c565b6006805460009081526005602090815260408220600c018890559154600d8401805460018101825590835292909120909101555b6006805490600061168c83615e2f565b919050555060016006546116a09190615e48565b98975050505050505050565b60015460405163b2be86ad60e01b815260048101839052600091829182916001600160a01b03169063b2be86ad906024016040805180830381865afa1580156116f9573d6000803e3d6000fd5b505050506040513d601f19601f8201168201806040525081019061171d9190615ee7565b9150915081611730575060009392505050565b6001816005811115611744576117446152f8565b036117775761175284614b5a565b5050506000908152600560205260409020600701805460ff1916600190811790915590565b600281600581111561178b5761178b6152f8565b0361190257600154604051637521da2f60e01b8152600481018690526000916001600160a01b031690637521da2f90602401600060405180830381865afa1580156117da573d6000803e3d6000fd5b505050506040513d6000823e601f3d908101601f191682016040526118029190810190615f1a565b905060005b81518110156118dc5781818151811061182257611822615faa565b6020026020010151600003156118ca5773__$1e60a9b757f0cdba0eab1859d8e6de91e8$__63f034da8a83838151811061185e5761185e615faa565b6020026020010151600560008a8152602001908152602001600020600e016040518363ffffffff1660e01b8152600401611899929190615e61565b60006040518083038186803b1580156118b157600080fd5b505af41580156118c5573d6000803e3d6000fd5b505050505b806118d481615e2f565b915050611807565b50505060009283525050600560205260409020600701805460ff19166002179055600190565b6003816005811115611916576119166152f8565b03611bf457600154604051631e386c0f60e21b8152600481018690526000916001600160a01b0316906378e1b03c90602401600060405180830381865afa158015611965573d6000803e3d6000fd5b505050506040513d6000823e601f3d908101601f1916820160405261198d9190810190615f1a565b6000868152600560209081526040808320600b01548352600390915281209192505b8251811015611bcd578281815181106119ca576119ca615faa565b602002602001015160000315611bbb576000600760008584815181106119f2576119f2615faa565b602002602001015181526020019081526020016000209050600060648260020154600560008c815260200190815260200160002060020154611a349190615e6f565b611a3e9190615e86565b60038301805460ff1916600117905560008a815260056020526040812060020180549293508392909190611a73908490615e48565b909155505060405163a6b4560b60e01b815273__$24c8841b96aa82c356d1ab35d4b0245100$__9063a6b4560b90611ab490600b8801908590600401615e61565b60006040518083038186803b158015611acc57600080fd5b505af4158015611ae0573d6000803e3d6000fd5b50505060068301546040516001600160a01b03909116915082156108fc029083906000818181858888f19350505050158015611b20573d6000803e3d6000fd5b5073__$1e60a9b757f0cdba0eab1859d8e6de91e8$__63f034da8a868581518110611b4d57611b4d615faa565b6020026020010151600560008d8152602001908152602001600020600e016040518363ffffffff1660e01b8152600401611b88929190615e61565b60006040518083038186803b158015611ba057600080fd5b505af4158015611bb4573d6000803e3d6000fd5b5050505050505b80611bc581615e2f565b9150506119af565b5050506000938452505060056020525060409020600701805460ff19166003179055600190565b6004816005811115611c0857611c086152f8565b03611fd35760015460405163e32eaa5f60e01b8152600481018690526000916001600160a01b03169063e32eaa5f90602401600060405180830381865afa158015611c57573d6000803e3d6000fd5b505050506040513d6000823e601f3d908101601f19168201604052611c7f9190810190615f1a565b905060005b8151811015611d5957818181518110611c9f57611c9f615faa565b602002602001015160000315611d475773__$1e60a9b757f0cdba0eab1859d8e6de91e8$__63f034da8a838381518110611cdb57611cdb615faa565b6020026020010151600560008a8152602001908152602001600020600e016040518363ffffffff1660e01b8152600401611d16929190615e61565b60006040518083038186803b158015611d2e57600080fd5b505af4158015611d42573d6000803e3d6000fd5b505050505b80611d5181615e2f565b915050611c84565b50600154604051638b7b766f60e01b8152600481018790526000916001600160a01b031690638b7b766f90602401600060405180830381865afa158015611da4573d6000803e3d6000fd5b505050506040513d6000823e601f3d908101601f19168201604052611dcc9190810190615f1a565b905060005b8151811015611e9c57818181518110611dec57611dec615faa565b602002602001015160000315611e8a576000606460076000858581518110611e1657611e16615faa565b6020026020010151815260200190815260200160002060020154600560008b815260200190815260200160002060020154611e519190615e6f565b611e5b9190615e86565b905080600560008a81526020019081526020016000206002016000828254611e839190615e48565b9091555050505b80611e9481615e2f565b915050611dd1565b506000868152600560208181526040808420600b80820154865260038452828620958c9052939092526002909101549051635b35dc8d60e11b815273__$24c8841b96aa82c356d1ab35d4b0245100$__9263b66bb91a92611f039291860191600401615e61565b60006040518083038186803b158015611f1b57600080fd5b505af4158015611f2f573d6000803e3d6000fd5b505060015460405163a39ecd7160e01b8152600481018b90526001600160a01b03909116925063a39ecd719150602401602060405180830381865afa158015611f7c573d6000803e3d6000fd5b505050506040513d601f19601f82011682018060405250810190611fa09190615fc0565b60009788526005602052604090972060028101979097555050506007909301805460ff1916600417905550600192915050565b5050919050565b611fe2615031565b600082815260036020526040908190208151610160810190925280548290829061200b90615cda565b80601f016020809104026020016040519081016040528092919081815260200182805461203790615cda565b80156120845780601f1061205957610100808354040283529160200191612084565b820191906000526020600020905b81548152906001019060200180831161206757829003601f168201915b50505091835250506001828101546020830152600283015460409092019160ff16908111156120b5576120b56152f8565b60018111156120c6576120c66152f8565b8152600282015461010090046001600160a01b0316602080830191909152600383018054604080518285028101850182528281529401939283018282801561213757602002820191906000526020600020905b81546001600160a01b03168152600190910190602001808311612119575b505050505081526020016004820180548060200260200160405190810160405280929190818152602001828054801561219957602002820191906000526020600020905b81546001600160a01b0316815260019091019060200180831161217b575b50505050508152602001600582018054806020026020016040519081016040528092919081815260200182805480156121fb57602002820191906000526020600020905b81546001600160a01b031681526001909101906020018083116121dd575b50505091835250506040805160a08101825260068401546001600160a01b03168152600784015460208281019190915260088501548284015260098501546060830152600a85015460ff161515608083015280840191909152600b8401805483518184028101840185528181529390940193909160009084015b828210156122e15760008481526020908190206040805160a0810182526005860290920180546001600160a01b0316835260018082015484860152600282015492840192909252600381015460608401526004015460ff16151560808301529083529092019101612275565b505050508152602001600c820180548060200260200160405190810160405280929190818152602001828054801561233857602002820191906000526020600020905b815481526020019060010190808311612324575b50505050508152602001600d820180548060200260200160405190810160405280929190818152602001828054801561239057602002820191906000526020600020905b81548152602001906001019080831161237c575b5050505050815250509050919050565b6002546001600160a01b0316156123c95760405162461bcd60e51b81526004016108d490615fd9565b600280546001600160a01b0319166001600160a01b0392909216919091179055565b6007602052600090815260409020805460018201805491929161240d90615cda565b80601f016020809104026020016040519081016040528092919081815260200182805461243990615cda565b80156124865780601f1061245b57610100808354040283529160200191612486565b820191906000526020600020905b81548152906001019060200180831161246957829003601f168201915b50505050600283015460038401546004850154600586015460068701546007880180549798959760ff9095169650929491936001600160a01b0390911692906124ce90615cda565b80601f01602080910402602001604051908101604052809291908181526020018280546124fa90615cda565b80156125475780601f1061251c57610100808354040283529160200191612547565b820191906000526020600020905b81548152906001019060200180831161252a57829003601f168201915b505050506008830154600990930154919260ff169190508a565b6000828261256f8183615ea8565b34146125a35760405162461bcd60e51b815260206004820152600360248201526245313760e81b60448201526064016108d4565b600b548510156125db5760405162461bcd60e51b8152602060048201526003602482015262229a1b60e91b60448201526064016108d4565b60048054600090815260036020526040908190209051637a0f939b60e11b8152909173__$700c4b692048d554c7f19e6c07dafefb0c$__9163f41f27369161262f9185918e918e918e918e918e9101615ff6565b60006040518083038186803b15801561264757600080fd5b505af415801561265b573d6000803e3d6000fd5b50506004805492509050600061267083615e2f565b919050555060016004546126849190615e48565b9998505050505050505050565b8080341480156126a15750600081115b6126bd5760405162461bcd60e51b81526004016108d49061604b565b600254604051628aee0160e21b8152600481018590526001600160a01b039091169063022bb8049060240160006040518083038186803b15801561270057600080fd5b505afa158015612714573d6000803e3d6000fd5b5050506000848152600360205260409081902090516363790b1360e01b815290915073__$700c4b692048d554c7f19e6c07dafefb0c$__906363790b13906127629084908790600401615e61565b60006040518083038186803b15801561277a57600080fd5b505af415801561278e573d6000803e3d6000fd5b5050505050505050565b60025460405163eecaee6b60e01b8152600481018390526001600160a01b039091169063eecaee6b9060240160006040518083038186803b1580156127dc57600080fd5b505afa1580156127f0573d6000803e3d6000fd5b505060025460008481526005602052604090819020600b01549051630336ded560e11b81526001600160a01b03909216935063066dbdaa9250612837913390600401615cc3565b60006040518083038186803b15801561284f57600080fd5b505afa158015612863573d6000803e3d6000fd5b505060015460405163380a610b60e21b8152600481018590526001600160a01b03909116925063e029842c9150602401602060405180830381865afa1580156128b0573d6000803e3d6000fd5b505050506040513d601f19601f820116820180604052508101906128d49190616068565b6128f05760405162461bcd60e51b81526004016108d490616085565b6000908152600560205260409020600701805460ff19169055565b80803414801561291b5750600081115b6129375760405162461bcd60e51b81526004016108d49061604b565b81600d5481101561295a5760405162461bcd60e51b81526004016108d4906160a2565b60025460008581526005602052604090819020600b01549051628aee0160e21b81526001600160a01b039092169163022bb8049161299e9160040190815260200190565b60006040518083038186803b1580156129b657600080fd5b505afa1580156129ca573d6000803e3d6000fd5b505060025460405163eecaee6b60e01b8152600481018890526001600160a01b03909116925063eecaee6b915060240160006040518083038186803b158015612a1257600080fd5b505afa158015612a26573d6000803e3d6000fd5b505060025460008781526005602052604090819020600b0154905163094db58d60e11b81526001600160a01b03909216935063129b6b1a9250612a6f9160040190815260200190565b60006040518083038186803b158015612a8757600080fd5b505afa158015612a9b573d6000803e3d6000fd5b505060025460405163aefa90f160e01b8152600481018890526001600160a01b03909116925063aefa90f1915060240160006040518083038186803b158015612ae357600080fd5b505afa158015612af7573d6000803e3d6000fd5b50505050612b04846116ac565b612f95576000848152600560209081526040808320600b810154845260038352818420600a54855260099093529281902081516101c081019092528354909190849082908290612b5390615cda565b80601f0160208091040260200160405190810160405280929190818152602001828054612b7f90615cda565b8015612bcc5780601f10612ba157610100808354040283529160200191612bcc565b820191906000526020600020905b815481529060010190602001808311612baf57829003601f168201915b5050505050815260200160018201548152602001600282015481526020016003820154815260200160048201604051806060016040529081600082015481526020016001820154815260200160028201548152505081526020016007820160009054906101000a900460ff166005811115612c4957612c496152f8565b6005811115612c5a57612c5a6152f8565b81526007820154610100900460ff1615156020808301919091526008830180546040805182850281018501825282815294019392830182828015612cbd57602002820191906000526020600020905b815481526020019060010190808311612ca9575b5050505050815260200160098201805480602002602001604051908101604052809291908181526020018280548015612d1f57602002820191906000526020600020905b81546001600160a01b03168152600190910190602001808311612d01575b50505050508152602001600a8201805480602002602001604051908101604052809291908181526020018280548015612d8157602002820191906000526020600020905b81546001600160a01b03168152600190910190602001808311612d63575b50505050508152602001600b8201548152602001600c8201548152602001600d8201805480602002602001604051908101604052809291908181526020018280548015612ded57602002820191906000526020600020905b815481526020019060010190808311612dd9575b50505050508152602001600e8201805480602002602001604051908101604052809291908181526020018280548015612e4557602002820191906000526020600020905b815481526020019060010190808311612e31575b50505091909252505060405163bd97bd0f60e01b815273__$6a9ea02bf5ba89f52fb50f06ec914b14fc$__9263bd97bd0f9250612e8491600401615b91565b602060405180830381865af4158015612ea1573d6000803e3d6000fd5b505050506040513d601f19601f82011682018060405250810190612ec59190616068565b15612ef85760405162461bcd60e51b8152602060048201526003602482015262114ccd60ea1b60448201526064016108d4565b600a5460405163300d2e9560e11b815260048101859052602481018490526044810183905260648101899052608481019190915273__$6a9ea02bf5ba89f52fb50f06ec914b14fc$__9063601a5d2a9060a40160006040518083038186803b158015612f6357600080fd5b505af4158015612f77573d6000803e3d6000fd5b5050600a8054925090506000612f8c83615e2f565b91905055505050505b50505050565b6000546001600160a01b03163314612fdb5760405162461bcd60e51b815260206004820152600360248201526245343560e81b60448201526064016108d4565b60405133904780156108fc02916000818181858888f19350505050158015613007573d6000803e3d6000fd5b50565b600254604051632ab0cc1160e01b8152600481018490526001600160a01b0390911690632ab0cc119060240160006040518083038186803b15801561304e57600080fd5b505afa158015613062573d6000803e3d6000fd5b5050600254600085815260076020526040908190206009015490516336fe47b160e21b81526001600160a01b03909216935063dbf91ec492506130ab9160040190815260200190565b60006040518083038186803b1580156130c357600080fd5b505afa1580156130d7573d6000803e3d6000fd5b505060025460405163bcc31c2960e01b81526001600160a01b03909116925063bcc31c29915061310d9085903390600401615cc3565b60006040518083038186803b15801561312557600080fd5b505afa158015613139573d6000803e3d6000fd5b5050506000838152600760205260409020600581015490915042106131865760405162461bcd60e51b815260206004820152600360248201526245333960e81b60448201526064016108d4565b600781016131948382615d5a565b50600801805460ff191660011790555050565b600254604051632ab0cc1160e01b8152600481018490526001600160a01b0390911690632ab0cc119060240160006040518083038186803b1580156131eb57600080fd5b505afa1580156131ff573d6000803e3d6000fd5b505060025460405163bcc31c2960e01b81526001600160a01b03909116925063bcc31c2991506132359085903390600401615cc3565b60006040518083038186803b15801561324d57600080fd5b505afa158015613261573d6000803e3d6000fd5b505050600083815260076020526040902090506002600882015460ff16600481111561328f5761328f6152f8565b146132c25760405162461bcd60e51b815260206004820152600360248201526245343360e81b60448201526064016108d4565b60088101805460ff1990811660041790915560038201805490911690556132e98383614c8e565b505050565b600254604051636824366b60e01b8152600481018490526001600160a01b0390911690636824366b9060240160006040518083038186803b15801561333257600080fd5b505afa158015613346573d6000803e3d6000fd5b50506002546000858152600960209081526040808320600701548352600590915290819020600b01549051630336ded560e11b81526001600160a01b03909216935063066dbdaa925061339d913390600401615cc3565b60006040518083038186803b1580156133b557600080fd5b505afa1580156133c9573d6000803e3d6000fd5b5050506000838152600960205260409020600701546133e891506116ac565b156133f1575050565b6000828152600960205260409020816134f65760008381526009602090815260408083206001808201805460ff60a01b1916905560038601546004808401919091556006909201805460ff1916909117905560078501548452600590925291829020915163781a6d4560e11b815273__$1e60a9b757f0cdba0eab1859d8e6de91e8$__9263f034da8a9261348b9288926008019101615e61565b60006040518083038186803b1580156134a357600080fd5b505af41580156134b7573d6000803e3d6000fd5b50505060008481526009602052604080822060030154905133935081156108fc0292818181858888f19350505050158015612f95573d6000803e3d6000fd5b81156132e9576007810180546000908152600560208181526040808420600180880180546009909301805480840182559088528588200180546001600160a01b03199081166001600160a01b039586161790915597548752838720600b0154875260038552928620835495018054918201815586529290942090910180549094169190921617909155805460ff60a01b1916600160a01b179055505050565b60008180341480156135a75750600081115b6135c35760405162461bcd60e51b81526004016108d49061604b565b82600d548110156135e65760405162461bcd60e51b81526004016108d4906160a2565b60025460008781526005602052604090819020600b01549051628aee0160e21b81526001600160a01b039092169163022bb8049161362a9160040190815260200190565b60006040518083038186803b15801561364257600080fd5b505afa158015613656573d6000803e3d6000fd5b505060025460405163eecaee6b60e01b8152600481018a90526001600160a01b03909116925063eecaee6b915060240160006040518083038186803b15801561369e57600080fd5b505afa1580156136b2573d6000803e3d6000fd5b505060025460008981526005602052604090819020600b0154905163094db58d60e11b81526001600160a01b03909216935063129b6b1a92506136fb9160040190815260200190565b60006040518083038186803b15801561371357600080fd5b505afa158015613727573d6000803e3d6000fd5b505060025460405163aefa90f160e01b8152600481018a90526001600160a01b03909116925063aefa90f1915060240160006040518083038186803b15801561376f57600080fd5b505afa158015613783573d6000803e3d6000fd5b50505050613790866116ac565b1561379e5760009250613c1c565b6000868152600560209081526040808320600a54845260099092529182902082516101c081019093528154919290918390829082906137dc90615cda565b80601f016020809104026020016040519081016040528092919081815260200182805461380890615cda565b80156138555780601f1061382a57610100808354040283529160200191613855565b820191906000526020600020905b81548152906001019060200180831161383857829003601f168201915b5050505050815260200160018201548152602001600282015481526020016003820154815260200160048201604051806060016040529081600082015481526020016001820154815260200160028201548152505081526020016007820160009054906101000a900460ff1660058111156138d2576138d26152f8565b60058111156138e3576138e36152f8565b81526007820154610100900460ff161515602080830191909152600883018054604080518285028101850182528281529401939283018282801561394657602002820191906000526020600020905b815481526020019060010190808311613932575b50505050508152602001600982018054806020026020016040519081016040528092919081815260200182805480156139a857602002820191906000526020600020905b81546001600160a01b0316815260019091019060200180831161398a575b50505050508152602001600a8201805480602002602001604051908101604052809291908181526020018280548015613a0a57602002820191906000526020600020905b81546001600160a01b031681526001909101906020018083116139ec575b50505050508152602001600b8201548152602001600c8201548152602001600d8201805480602002602001604051908101604052809291908181526020018280548015613a7657602002820191906000526020600020905b815481526020019060010190808311613a62575b50505050508152602001600e8201805480602002602001604051908101604052809291908181526020018280548015613ace57602002820191906000526020600020905b815481526020019060010190808311613aba575b50505091909252505060405163bd97bd0f60e01b815273__$6a9ea02bf5ba89f52fb50f06ec914b14fc$__9263bd97bd0f9250613b0d91600401615b91565b602060405180830381865af4158015613b2a573d6000803e3d6000fd5b505050506040513d601f19601f82011682018060405250810190613b4e9190616068565b15613b815760405162461bcd60e51b815260206004820152600360248201526222999b60e91b60448201526064016108d4565b600a5460405163205b0d4f60e01b815273__$6a9ea02bf5ba89f52fb50f06ec914b14fc$__9163205b0d4f91613bc291869186918d918f91906004016160bf565b60006040518083038186803b158015613bda57600080fd5b505af4158015613bee573d6000803e3d6000fd5b5050600a8054925090506000613c0383615e2f565b91905055506001600a54613c179190615e48565b945050505b50509392505050565b60025460405163eecaee6b60e01b8152600481018690526001600160a01b039091169063eecaee6b9060240160006040518083038186803b158015613c6957600080fd5b505afa158015613c7d573d6000803e3d6000fd5b505060025460008781526005602052604090819020600b01549051630336ded560e11b81526001600160a01b03909216935063066dbdaa9250613cc4913390600401615cc3565b60006040518083038186803b158015613cdc57600080fd5b505afa158015613cf0573d6000803e3d6000fd5b5050506000858152600560208181526040808420600b810154855260038352818520948a905292909152600154905163a063d29160e01b81526004810189905292935090916001600160a01b039091169063a063d29190602401602060405180830381865afa158015613d67573d6000803e3d6000fd5b505050506040513d601f19601f82011682018060405250810190613d8b9190616068565b613da75760405162461bcd60e51b81526004016108d490616085565b8383118015613db557508484115b613de75760405162461bcd60e51b815260206004820152600360248201526222991b60e91b60448201526064016108d4565b6000805b600e830154811015613e7f57816007600085600e018481548110613e1157613e11615faa565b90600052602060002001548152602001908152602001600020600501541115613e6d576007600084600e018381548110613e4d57613e4d615faa565b906000526020600020015481526020019081526020016000206005015491505b80613e7781615e2f565b915050613deb565b50613e8d8787878785614d28565b60005b600e830154811015613fde5760006007600085600e018481548110613eb757613eb7615faa565b9060005260206000200154815260200190815260200160002060060160006101000a8154816001600160a01b0302191690836001600160a01b0316021790555082600401600001546007600085600e018481548110613f1857613f18615faa565b90600052602060002001548152602001908152602001600020600501541080613f7c575082600401600101546007600085600e018481548110613f5d57613f5d615faa565b9060005260206000200154815260200190815260200160002060050154115b15613fcc576005830154613f9290600190615e48565b6007600085600e018481548110613fab57613fab615faa565b90600052602060002001548152602001908152602001600020600501819055505b80613fd681615e2f565b915050613e90565b5060015460405163a39ecd7160e01b8152600481018990526001600160a01b039091169063a39ecd7190602401602060405180830381865afa158015614028573d6000803e3d6000fd5b505050506040513d601f19601f8201168201806040525081019061404c9190615fc0565b6002830181905560405163a06c4b2b60e01b815273__$24c8841b96aa82c356d1ab35d4b0245100$__9163a06c4b2b9161408d91600b880191600401615e61565b60006040518083038186803b1580156140a557600080fd5b505af41580156140b9573d6000803e3d6000fd5b50505050600791909101805460ff19166005179055505050505050565b600254604051632ab0cc1160e01b8152600481018390526001600160a01b0390911690632ab0cc119060240160006040518083038186803b15801561411a57600080fd5b505afa15801561412e573d6000803e3d6000fd5b5050600254600084815260076020526040908190206009015490516331f2df7d60e11b81526001600160a01b0390921693506363e5befa92506141779160040190815260200190565b60006040518083038186803b15801561418f57600080fd5b505afa1580156141a3573d6000803e3d6000fd5b505060025460008481526007602052604090819020600901549051635b403e1160e11b81526001600160a01b03909216935063b6807c2292506141ea913390600401615cc3565b60006040518083038186803b15801561420257600080fd5b505afa158015614216573d6000803e3d6000fd5b50505060009182525060076020526040902060060180546001600160a01b03191633179055565b6001546001600160a01b0316156142665760405162461bcd60e51b81526004016108d490615fd9565b600180546001600160a01b0319166001600160a01b0392909216919091179055565b60025460405163eecaee6b60e01b8152600481018490526001600160a01b039091169063eecaee6b9060240160006040518083038186803b1580156142cc57600080fd5b505afa1580156142e0573d6000803e3d6000fd5b505050506142ed826116ac565b156142f6575050565b6000828152600560209081526040808320848452600990925291829020915162f29d5b60e61b815290919073__$6a9ea02bf5ba89f52fb50f06ec914b14fc$__90633ca756c090612762908590859088906004016160f2565b600254604051628aee0160e21b8152600481018790526001600160a01b039091169063022bb8049060240160006040518083038186803b15801561439257600080fd5b505afa1580156143a6573d6000803e3d6000fd5b5050600254604051630336ded560e11b81526001600160a01b03909116925063066dbdaa91506143dc9088903390600401615cc3565b60006040518083038186803b1580156143f457600080fd5b505afa158015614408573d6000803e3d6000fd5b5050505060008251116144435760405162461bcd60e51b815260206004820152600360248201526245313960e81b60448201526064016108d4565b600085815260036020526040812090846001811115614464576144646152f8565b036145705760005b600d82015481101561450b5760006005600084600d01848154811061449357614493615faa565b6000918252602080832090910154835282019290925260400190206007015460ff1660058111156144c6576144c66152f8565b146144f95760405162461bcd60e51b815260206004820152600360248201526204532360ec1b60448201526064016108d4565b8061450381615e2f565b91505061446c565b5060405163aa7ebaed60e01b81526004810182905273__$700c4b692048d554c7f19e6c07dafefb0c$__9063aa7ebaed9060240160006040518083038186803b15801561455757600080fd5b505af415801561456b573d6000803e3d6000fd5b505050505b60405163f946e60f60e01b815273__$700c4b692048d554c7f19e6c07dafefb0c$__9063f946e60f906145af9084908990899089908990600401616108565b60006040518083038186803b1580156145c757600080fd5b505af41580156145db573d6000803e3d6000fd5b50505050505050505050565b60096020526000908152604090208054819061460290615cda565b80601f016020809104026020016040519081016040528092919081815260200182805461462e90615cda565b801561467b5780601f106146505761010080835404028352916020019161467b565b820191906000526020600020905b81548152906001019060200180831161465e57829003601f168201915b5050505060018301546040805160a08101825260028601546001600160a01b0390811682526003870154602083015260048701549282019290925260058601546060820152600686015460ff90811615156080830152600790960154949591831694600160a01b90930490911692509085565b60025460405163eecaee6b60e01b8152600481018490526001600160a01b039091169063eecaee6b9060240160006040518083038186803b15801561473257600080fd5b505afa158015614746573d6000803e3d6000fd5b505060025460008581526005602052604090819020600b01549051630336ded560e11b81526001600160a01b03909216935063066dbdaa925061478d913390600401615cc3565b60006040518083038186803b1580156147a557600080fd5b505afa1580156147b9573d6000803e3d6000fd5b505050506147c6826116ac565b156147cf575050565b60008281526005602090815260408083208484526009909252918290209151630183c74f60e21b815290919073__$6a9ea02bf5ba89f52fb50f06ec914b14fc$__9063060f1d3c90612762908590859088906004016160f2565b6148316150ab565b6000828152600560205260409081902081516101c0810190925280548290829061485a90615cda565b80601f016020809104026020016040519081016040528092919081815260200182805461488690615cda565b80156148d35780601f106148a8576101008083540402835291602001916148d3565b820191906000526020600020905b8154815290600101906020018083116148b657829003601f168201915b5050505050815260200160018201548152602001600282015481526020016003820154815260200160048201604051806060016040529081600082015481526020016001820154815260200160028201548152505081526020016007820160009054906101000a900460ff166005811115614950576149506152f8565b6005811115614961576149616152f8565b81526007820154610100900460ff16151560208083019190915260088301805460408051828502810185018252828152940193928301828280156149c457602002820191906000526020600020905b8154815260200190600101908083116149b0575b5050505050815260200160098201805480602002602001604051908101604052809291908181526020018280548015614a2657602002820191906000526020600020905b81546001600160a01b03168152600190910190602001808311614a08575b50505050508152602001600a8201805480602002602001604051908101604052809291908181526020018280548015614a8857602002820191906000526020600020905b81546001600160a01b03168152600190910190602001808311614a6a575b50505050508152602001600b8201548152602001600c8201548152602001600d8201805480602002602001604051908101604052809291908181526020018280548015614af457602002820191906000526020600020905b815481526020019060010190808311614ae0575b50505050508152602001600e8201805480602002602001604051908101604052809291908181526020018280548015612390576020028201919060005260206000209081548152602001906001019080831161237c575050505050815250509050919050565b60008181526005602052604081206004810154909190614b7c90610384615ea8565b4211156132e9576004820154614b929042615e48565b905060005b600e830154811015614c505760006007600085600e018481548110614bbe57614bbe615faa565b906000526020600020015481526020019081526020016000209050600480811115614beb57614beb6152f8565b600882015460ff166004811115614c0457614c046152f8565b14158015614c1e575060068101546001600160a01b031615155b15614c3d5782816005016000828254614c379190615ea8565b90915550505b5080614c4881615e2f565b915050614b97565b5080826004016001016000828254614c689190615ea8565b9091555050600682018054829190600090614c84908490615ea8565b9091555050505050565b60008281526007602052604090206008810180546004919060ff191660018302179055506002808201546009830154600090815260056020526040812090920154606491614cdb91615e6f565b614ce59190615e86565b90507f7276e9a9c64e575513db2161e89d0ef6ef0bb7947b55b0667a2a687e7d40b835848483604051614d1a93929190616154565b60405180910390a150505050565b6000604051806060016040528073__$1e60a9b757f0cdba0eab1859d8e6de91e8$__636d5433e688600e5442614d5e9190615ea8565b6040518363ffffffff1660e01b8152600401614d7b929190615e61565b602060405180830381865af4158015614d98573d6000803e3d6000fd5b505050506040513d601f19601f82011682018060405250810190614dbc9190615fc0565b815260200173__$1e60a9b757f0cdba0eab1859d8e6de91e8$__636d5433e687614de7876001615ea8565b6040518363ffffffff1660e01b8152600401614e04929190615e61565b602060405180830381865af4158015614e21573d6000803e3d6000fd5b505050506040513d601f19601f82011682018060405250810190614e459190615fc0565b815260200173__$1e60a9b757f0cdba0eab1859d8e6de91e8$__636d5433e686600f5473__$1e60a9b757f0cdba0eab1859d8e6de91e8$__636d5433e68b8a6001614e909190615ea8565b6040518363ffffffff1660e01b8152600401614ead929190615e61565b602060405180830381865af4158015614eca573d6000803e3d6000fd5b505050506040513d601f19601f82011682018060405250810190614eee9190615fc0565b614ef89190615ea8565b6040518363ffffffff1660e01b8152600401614f15929190615e61565b602060405180830381865af4158015614f32573d6000803e3d6000fd5b505050506040513d601f19601f82011682018060405250810190614f569190615fc0565b90526000968752600560208181526040988990208351600482015590830151918101919091559601516006909601959095555050505050565b604051806101400160405280600081526020016060815260200160008152602001600015158152602001600081526020016000815260200160006001600160a01b031681526020016060815260200160006004811115614ff157614ff16152f8565b8152602001600081525090565b6040518060a001604052806060815260200160006001600160a01b03168152602001600015158152602001614ff161513e565b60405180610160016040528060608152602001600081526020016000600181111561505e5761505e6152f8565b815260200160006001600160a01b0316815260200160608152602001606081526020016060815260200161509061513e565b81526020016060815260200160608152602001606081525090565b604051806101c00160405280606081526020016000815260200160008152602001600081526020016150f760405180606001604052806000815260200160008152602001600081525090565b815260200160008152602001600015158152602001606081526020016060815260200160608152602001600081526020016000815260200160608152602001606081525090565b6040518060a0016040528060006001600160a01b031681526020016000815260200160008152602001600081526020016000151581525090565b634e487b7160e01b600052604160045260246000fd5b604051601f8201601f191681016001600160401b03811182821017156151b6576151b6615178565b604052919050565b600082601f8301126151cf57600080fd5b81356001600160401b038111156151e8576151e8615178565b6151fb601f8201601f191660200161518e565b81815284602083860101111561521057600080fd5b816020850160208301376000918101602001919091529392505050565b6000806000806080858703121561524357600080fd5b84356001600160401b0381111561525957600080fd5b615265878288016151be565b97602087013597506040870135966060013595509350505050565b60006020828403121561529257600080fd5b5035919050565b6000815180845260005b818110156152bf576020818501810151868301820152016152a3565b506000602082860101526020601f19601f83011685010191505092915050565b8051825260208082015190830152604090810151910152565b634e487b7160e01b600052602160045260246000fd5b6006811061531e5761531e6152f8565b9052565b60006101608083526153368184018d615299565b91505089602083015288604083015287606083015261535860808301886152df565b61536560e083018761530e565b931515610100820152610120810192909252610140909101529695505050505050565b6002811061531e5761531e6152f8565b6001600160a01b03169052565b80516001600160a01b031682526020808201519083015260408082015190830152606080820151908301526080908101511515910152565b60006101208083526153f181840189615299565b9150508560208301526154076040830186615388565b6001600160a01b038416606083015261096660808301846153a5565b6000806040838503121561543657600080fd5b50508035926020909101359150565b6005811061531e5761531e6152f8565b60208152815160208201526000602083015161014080604085015261547e610160850183615299565b915060408501516060850152606085015161549d608086018215159052565b50608085015160a085015260a085015160c085015260c08501516154c460e0860182615398565b5060e0850151610100601f1986850301818701526154e28483615299565b9350808701519150506101206154fa81870183615445565b959095015193019290925250919050565b602081526000825161012080602085015261552a610140850183615299565b915060018060a01b036020860151166040850152604085015115156060850152606085015161555c60808601826153a5565b506080949094015192909301919091525090565b801515811461300757600080fd5b6000806040838503121561559157600080fd5b8235915060208301356155a381615570565b809150509250929050565b600080600080600060a086880312156155c657600080fd5b85356001600160401b038111156155dc57600080fd5b6155e8888289016151be565b95505060208601356155f981615570565b93506040860135925060608601359150608086013561561781615570565b809150509295509295909350565b600081518084526020808501945080840160005b8381101561565e5781516001600160a01b031687529582019590820190600101615639565b509495945050505050565b600081518084526020808501945080840160005b8381101561565e576156908783516153a5565b60a096909601959082019060010161567d565b600081518084526020808501945080840160005b8381101561565e578151875295820195908201906001016156b7565b60208152600082516101e08060208501526156f2610200850183615299565b91506020850151604085015260408501516157106060860182615388565b5060608501516157236080860182615398565b506080850151601f19808685030160a08701526157408483615625565b935060a08701519150808685030160c087015261575d8483615625565b935060c08701519150808685030160e087015261577a8483615625565b935060e08701519150610100615792818801846153a5565b87015186850382016101a088015291506157ac8483615669565b9350610120870151915080868503016101c08701526157cb84836156a3565b935061014087015191508086850301838701525061096683826156a3565b6001600160a01b038116811461300757600080fd5b60006020828403121561581057600080fd5b813561581b816157e9565b9392505050565b60006101408c835280602084015261583c8184018d615299565b604084018c90528a15156060850152608084018a905260a084018990526001600160a01b03881660c085015283810360e0850152905061587c8187615299565b91505061588d610100830185615445565b826101208301529b9a5050505050505050505050565b60006001600160401b038211156158bc576158bc615178565b5060051b60200190565b600082601f8301126158d757600080fd5b813560206158ec6158e7836158a3565b61518e565b82815260059290921b8401810191818101908684111561590b57600080fd5b8286015b8481101561592f578035615922816157e9565b835291830191830161590f565b509695505050505050565b600080600080600060a0868803121561595257600080fd5b85356001600160401b038082111561596957600080fd5b61597589838a016151be565b9650602088013591508082111561598b57600080fd5b61599789838a016158c6565b955060408801359150808211156159ad57600080fd5b506159ba888289016158c6565b9598949750949560608101359550608001359392505050565b600080604083850312156159e657600080fd5b8235915060208301356001600160401b03811115615a0357600080fd5b615a0f858286016151be565b9150509250929050565b600080600060608486031215615a2e57600080fd5b8335925060208401356001600160401b03811115615a4b57600080fd5b615a57868287016151be565b925050604084013590509250925092565b60008060008060808587031215615a7e57600080fd5b5050823594602084013594506040840135936060013592509050565b600080600080600060a08688031215615ab257600080fd5b8535945060208601356001600160401b0380821115615ad057600080fd5b615adc89838a016151be565b95506040880135915060028210615af257600080fd5b90935060608701359080821115615b0857600080fd5b615b1489838a016158c6565b93506080880135915080821115615b2a57600080fd5b50615b37888289016158c6565b9150509295509295909350565b6000610120808352615b5881840189615299565b6001600160a01b038816602085015286151560408501529150615b80905060608301856153a5565b826101008301529695505050505050565b6020815260008251610200806020850152615bb0610220850183615299565b91506020850151604085015260408501516060850152606085015160808501526080850151615be260a08601826152df565b5060a0850151610100615bf78187018361530e565b60c08701519150610120615c0e8188018415159052565b60e08801519250601f196101408189880301818a0152615c2e87866156a3565b9650838a0151945061016093508189880301848a0152615c4e8786615625565b9650828a0151945061018092508189880301838a0152615c6e8786615625565b9650808a01519450506101a084818a0152838a01516101c08a0152828a0151945081898803016101e08a0152615ca487866156a3565b9650808a015194505080888703018589015250505061096683826156a3565b9182526001600160a01b0316602082015260400190565b600181811c90821680615cee57607f821691505b602082108103615d0e57634e487b7160e01b600052602260045260246000fd5b50919050565b601f8211156132e957600081815260208120601f850160051c81016020861015615d3b5750805b601f850160051c820191505b8181101561145e57828155600101615d47565b81516001600160401b03811115615d7357615d73615178565b615d8781615d818454615cda565b84615d14565b602080601f831160018114615dbc5760008415615da45750858301515b600019600386901b1c1916600185901b17855561145e565b600085815260208120601f198616915b82811015615deb57888601518255948401946001909101908401615dcc565b5085821015615e095787850151600019600388901b60f8161c191681555b5050505050600190811b01905550565b634e487b7160e01b600052601160045260246000fd5b600060018201615e4157615e41615e19565b5060010190565b81810381811115615e5b57615e5b615e19565b92915050565b918252602082015260400190565b8082028115828204841417615e5b57615e5b615e19565b600082615ea357634e487b7160e01b600052601260045260246000fd5b500490565b80820180821115615e5b57615e5b615e19565b848152608060208201526000615ed46080830186615299565b9315156040830152506060015292915050565b60008060408385031215615efa57600080fd5b8251615f0581615570565b6020840151909250600681106155a357600080fd5b60006020808385031215615f2d57600080fd5b82516001600160401b03811115615f4357600080fd5b8301601f81018513615f5457600080fd5b8051615f626158e7826158a3565b81815260059190911b82018301908381019087831115615f8157600080fd5b928401925b82841015615f9f57835182529284019290840190615f86565b979650505050505050565b634e487b7160e01b600052603260045260246000fd5b600060208284031215615fd257600080fd5b5051919050565b60208082526003908201526245353160e81b604082015260600190565b86815260c06020820152600061600f60c0830188615299565b82810360408401526160218188615625565b905082810360608401526160358187615625565b6080840195909552505060a00152949350505050565b60208082526003908201526222989b60e91b604082015260600190565b60006020828403121561607a57600080fd5b815161581b81615570565b602080825260039082015262114c8d60ea1b604082015260600190565b60208082526003908201526208a62760eb1b604082015260600190565b85815284602082015260a0604082015260006160de60a0830186615299565b606083019490945250608001529392505050565b9283526020830191909152604082015260600190565b85815260a06020820152600061612160a0830187615299565b61612e6040840187615388565b82810360608401526161408186615625565b905082810360808401526116a08185615625565b83815260606020820152600061616d6060830185615299565b905082604083015294935050505056fea264697066735822122051398c68b1dc32fa4011a21a745a9580a5db653c45a2d9ee5a070c62c7952ba764736f6c63430008140033",
    "linkReferences": {
      "contracts/Libraries.sol": {
        "CampaignManager": [
          {
            "start": 3270,
            "length": 20
          },
          {
            "start": 5266,
            "length": 20
          },
          {
            "start": 9852,
            "length": 20
          },
          {
            "start": 10165,
            "length": 20
          },
          {
            "start": 17823,
            "length": 20
          },
          {
            "start": 17916,
            "length": 20
          }
        ],
        "FundingsManager": [
          {
            "start": 4746,
            "length": 20
          },
          {
            "start": 6916,
            "length": 20
          },
          {
            "start": 8022,
            "length": 20
          },
          {
            "start": 16607,
            "length": 20
          }
        ],
        "ProjectManager": [
          {
            "start": 5654,
            "length": 20
          },
          {
            "start": 11994,
            "length": 20
          },
          {
            "start": 12203,
            "length": 20
          },
          {
            "start": 15203,
            "length": 20
          },
          {
            "start": 15376,
            "length": 20
          },
          {
            "start": 17312,
            "length": 20
          },
          {
            "start": 18554,
            "length": 20
          }
        ],
        "Utilities": [
          {
            "start": 4917,
            "length": 20
          },
          {
            "start": 6321,
            "length": 20
          },
          {
            "start": 7072,
            "length": 20
          },
          {
            "start": 7470,
            "length": 20
          },
          {
            "start": 13534,
            "length": 20
          },
          {
            "start": 19892,
            "length": 20
          },
          {
            "start": 20032,
            "length": 20
          },
          {
            "start": 20169,
            "length": 20
          },
          {
            "start": 20199,
            "length": 20
          }
        ]
      }
    }
  },
  "methodIdentifiers": {
    "applicationCount()": "e2aad4a0",
    "applicationDecision(uint256,bool)": "9d709c5f",
    "applications(uint256)": "dfefadff",
    "applyToProject(uint256,string,uint256)": "9eec3654",
    "campaignCount()": "7274e30d",
    "campaigns(uint256)": "141961bc",
    "checkerMasterAddress()": "e4ffeeb6",
    "closeProject(uint256)": "93dc12e6",
    "contractMaster()": "18b952f6",
    "contractMasterDrain()": "9688008d",
    "enrolStake()": "c4e60c33",
    "fireWorker(uint256,uint256)": "e3fc3499",
    "fundCampaign(uint256,uint256)": "918eab15",
    "getApplication(uint256)": "1f2f4bfd",
    "getCampaign(uint256)": "5598f8cc",
    "getDecisionTimes()": "aa15d5f0",
    "getProject(uint256)": "f0f3f2c8",
    "getTask(uint256)": "1d65e77e",
    "goToSettledStatus(uint256,uint256,uint256,uint256)": "a7be3ba0",
    "makeCampaign(string,address[],address[],uint256,uint256)": "915a4042",
    "makeProject(string,bool,uint256,uint256,bool)": "4a502233",
    "makeTask(string,uint256,uint256,uint256)": "00c374cd",
    "minOpenCampaignStake()": "a3e366f0",
    "minStake()": "375b3c0a",
    "minimumGateTime()": "fa555842",
    "minimumSettledTime()": "73b9a5b3",
    "new_statusFixer(uint256)": "4fba1d13",
    "projectCount()": "36fbad26",
    "projects(uint256)": "107046bd",
    "raiseDeclinedSubmissionDispute(uint256,string)": "982260cf",
    "refundAllCampaignFundings(uint256)": "4a25886b",
    "refundOwnFunding(uint256,uint256)": "14271492",
    "setCheckerMasterAddress(address)": "86e45559",
    "setUpdateMasterAddress(address)": "bcd6f795",
    "submissionDecision(uint256,bool)": "33e2f1e9",
    "submitSubmission(uint256,string)": "97b1ede0",
    "taskCount()": "b6cb58a5",
    "taskSubmissionDecisionDisputeTime()": "762f485b",
    "taskSubmissionDecisionTime()": "e0a6926a",
    "tasks(uint256)": "8d977672",
    "updateCampaign(uint256,string,uint8,address[],address[])": "db08fe76",
    "updateMasterAddress()": "5c30337a",
    "workerDropOut(uint256,uint256)": "d6200404",
    "workerEnrolNoApplication(uint256,uint256)": "94fe52a8",
    "workerSelfAssignsTask(uint256)": "a87f224c"
  },
  "id": 5
}