{
  "abi": [
    {
      "inputs": [],
      "stateMutability": "payable",
      "type": "constructor"
    },
    {
      "anonymous": false,
      "inputs": [
        {
          "indexed": false,
          "internalType": "uint256",
          "name": "_id",
          "type": "uint256"
        },
        {
          "indexed": false,
          "internalType": "string",
          "name": "_metadata",
          "type": "string"
        },
        {
          "indexed": false,
          "internalType": "uint256",
          "name": "_taskReward",
          "type": "uint256"
        }
      ],
      "name": "Dispute",
      "type": "event"
    },
    {
      "stateMutability": "payable",
      "type": "fallback"
    },
    {
      "inputs": [],
      "name": "applicationCount",
      "outputs": [
        {
          "internalType": "uint256",
          "name": "",
          "type": "uint256"
        }
      ],
      "stateMutability": "view",
      "type": "function"
    },
    {
      "inputs": [
        {
          "internalType": "uint256",
          "name": "_applicationID",
          "type": "uint256"
        },
        {
          "internalType": "bool",
          "name": "_accepted",
          "type": "bool"
        }
      ],
      "name": "applicationDecision",
      "outputs": [],
      "stateMutability": "nonpayable",
      "type": "function"
    },
    {
      "inputs": [
        {
          "internalType": "uint256",
          "name": "",
          "type": "uint256"
        }
      ],
      "name": "applications",
      "outputs": [
        {
          "internalType": "string",
          "name": "metadata",
          "type": "string"
        },
        {
          "internalType": "address",
          "name": "applicant",
          "type": "address"
        },
        {
          "internalType": "bool",
          "name": "accepted",
          "type": "bool"
        },
        {
          "components": [
            {
              "internalType": "address payable",
              "name": "funder",
              "type": "address"
            },
            {
              "internalType": "uint256",
              "name": "funding",
              "type": "uint256"
            },
            {
              "internalType": "uint256",
              "name": "amountUsed",
              "type": "uint256"
            },
            {
              "internalType": "uint256",
              "name": "amountLocked",
              "type": "uint256"
            },
            {
              "internalType": "bool",
              "name": "fullyRefunded",
              "type": "bool"
            }
          ],
          "internalType": "struct FundingsManager.Fundings",
          "name": "enrolStake",
          "type": "tuple"
        },
        {
          "internalType": "uint256",
          "name": "parentProject",
          "type": "uint256"
        }
      ],
      "stateMutability": "view",
      "type": "function"
    },
    {
      "inputs": [
        {
          "internalType": "uint256",
          "name": "_projectID",
          "type": "uint256"
        },
        {
          "internalType": "string",
          "name": "_metadata",
          "type": "string"
        },
        {
          "internalType": "uint256",
          "name": "_stake",
          "type": "uint256"
        }
      ],
      "name": "applyToProject",
      "outputs": [
        {
          "internalType": "uint256",
          "name": "",
          "type": "uint256"
        }
      ],
      "stateMutability": "payable",
      "type": "function"
    },
    {
      "inputs": [],
      "name": "campaignCount",
      "outputs": [
        {
          "internalType": "uint256",
          "name": "",
          "type": "uint256"
        }
      ],
      "stateMutability": "view",
      "type": "function"
    },
    {
      "inputs": [
        {
          "internalType": "uint256",
          "name": "",
          "type": "uint256"
        }
      ],
      "name": "campaigns",
      "outputs": [
        {
          "internalType": "string",
          "name": "metadata",
          "type": "string"
        },
        {
          "internalType": "uint256",
          "name": "creationTime",
          "type": "uint256"
        },
        {
          "internalType": "enum CampaignManager.CampaignStatus",
          "name": "status",
          "type": "uint8"
        },
        {
          "internalType": "address payable",
          "name": "creator",
          "type": "address"
        },
        {
          "components": [
            {
              "internalType": "address payable",
              "name": "funder",
              "type": "address"
            },
            {
              "internalType": "uint256",
              "name": "funding",
              "type": "uint256"
            },
            {
              "internalType": "uint256",
              "name": "amountUsed",
              "type": "uint256"
            },
            {
              "internalType": "uint256",
              "name": "amountLocked",
              "type": "uint256"
            },
            {
              "internalType": "bool",
              "name": "fullyRefunded",
              "type": "bool"
            }
          ],
          "internalType": "struct FundingsManager.Fundings",
          "name": "stake",
          "type": "tuple"
        }
      ],
      "stateMutability": "view",
      "type": "function"
    },
    {
      "inputs": [],
      "name": "checkerMasterAddress",
      "outputs": [
        {
          "internalType": "address",
          "name": "",
          "type": "address"
        }
      ],
      "stateMutability": "view",
      "type": "function"
    },
    {
      "inputs": [
        {
          "internalType": "uint256",
          "name": "_projectID",
          "type": "uint256"
        }
      ],
      "name": "closeProject",
      "outputs": [],
      "stateMutability": "nonpayable",
      "type": "function"
    },
    {
      "inputs": [],
      "name": "contractMaster",
      "outputs": [
        {
          "internalType": "address",
          "name": "",
          "type": "address"
        }
      ],
      "stateMutability": "view",
      "type": "function"
    },
    {
      "inputs": [],
      "name": "contractMasterDrain",
      "outputs": [],
      "stateMutability": "nonpayable",
      "type": "function"
    },
    {
      "inputs": [],
      "name": "enrolStake",
      "outputs": [
        {
          "internalType": "uint256",
          "name": "",
          "type": "uint256"
        }
      ],
      "stateMutability": "view",
      "type": "function"
    },
    {
      "inputs": [
        {
          "internalType": "uint256",
          "name": "_projectId",
          "type": "uint256"
        },
        {
          "internalType": "uint256",
          "name": "_applicationId",
          "type": "uint256"
        }
      ],
      "name": "fireWorker",
      "outputs": [],
      "stateMutability": "nonpayable",
      "type": "function"
    },
    {
      "inputs": [
        {
          "internalType": "uint256",
          "name": "_campaignID",
          "type": "uint256"
        },
        {
          "internalType": "uint256",
          "name": "_funding",
          "type": "uint256"
        }
      ],
      "name": "fundCampaign",
      "outputs": [],
      "stateMutability": "payable",
      "type": "function"
    },
    {
      "inputs": [
        {
          "internalType": "uint256",
          "name": "_applicationID",
          "type": "uint256"
        }
      ],
      "name": "getApplication",
      "outputs": [
        {
          "components": [
            {
              "internalType": "string",
              "name": "metadata",
              "type": "string"
            },
            {
              "internalType": "address",
              "name": "applicant",
              "type": "address"
            },
            {
              "internalType": "bool",
              "name": "accepted",
              "type": "bool"
            },
            {
              "components": [
                {
                  "internalType": "address payable",
                  "name": "funder",
                  "type": "address"
                },
                {
                  "internalType": "uint256",
                  "name": "funding",
                  "type": "uint256"
                },
                {
                  "internalType": "uint256",
                  "name": "amountUsed",
                  "type": "uint256"
                },
                {
                  "internalType": "uint256",
                  "name": "amountLocked",
                  "type": "uint256"
                },
                {
                  "internalType": "bool",
                  "name": "fullyRefunded",
                  "type": "bool"
                }
              ],
              "internalType": "struct FundingsManager.Fundings",
              "name": "enrolStake",
              "type": "tuple"
            },
            {
              "internalType": "uint256",
              "name": "parentProject",
              "type": "uint256"
            }
          ],
          "internalType": "struct ProjectManager.Application",
          "name": "",
          "type": "tuple"
        }
      ],
      "stateMutability": "view",
      "type": "function"
    },
    {
      "inputs": [
        {
          "internalType": "uint256",
          "name": "_campaignID",
          "type": "uint256"
        }
      ],
      "name": "getCampaign",
      "outputs": [
        {
          "components": [
            {
              "internalType": "string",
              "name": "metadata",
              "type": "string"
            },
            {
              "internalType": "uint256",
              "name": "creationTime",
              "type": "uint256"
            },
            {
              "internalType": "enum CampaignManager.CampaignStatus",
              "name": "status",
              "type": "uint8"
            },
            {
              "internalType": "address payable",
              "name": "creator",
              "type": "address"
            },
            {
              "internalType": "address payable[]",
              "name": "owners",
              "type": "address[]"
            },
            {
              "internalType": "address payable[]",
              "name": "acceptors",
              "type": "address[]"
            },
            {
              "internalType": "address payable[]",
              "name": "allTimeStakeholders",
              "type": "address[]"
            },
            {
              "components": [
                {
                  "internalType": "address payable",
                  "name": "funder",
                  "type": "address"
                },
                {
                  "internalType": "uint256",
                  "name": "funding",
                  "type": "uint256"
                },
                {
                  "internalType": "uint256",
                  "name": "amountUsed",
                  "type": "uint256"
                },
                {
                  "internalType": "uint256",
                  "name": "amountLocked",
                  "type": "uint256"
                },
                {
                  "internalType": "bool",
                  "name": "fullyRefunded",
                  "type": "bool"
                }
              ],
              "internalType": "struct FundingsManager.Fundings",
              "name": "stake",
              "type": "tuple"
            },
            {
              "components": [
                {
                  "internalType": "address payable",
                  "name": "funder",
                  "type": "address"
                },
                {
                  "internalType": "uint256",
                  "name": "funding",
                  "type": "uint256"
                },
                {
                  "internalType": "uint256",
                  "name": "amountUsed",
                  "type": "uint256"
                },
                {
                  "internalType": "uint256",
                  "name": "amountLocked",
                  "type": "uint256"
                },
                {
                  "internalType": "bool",
                  "name": "fullyRefunded",
                  "type": "bool"
                }
              ],
              "internalType": "struct FundingsManager.Fundings[]",
              "name": "fundings",
              "type": "tuple[]"
            },
            {
              "internalType": "uint256[]",
              "name": "directChildProjects",
              "type": "uint256[]"
            }
          ],
          "internalType": "struct CampaignManager.Campaign",
          "name": "",
          "type": "tuple"
        }
      ],
      "stateMutability": "view",
      "type": "function"
    },
    {
      "inputs": [],
      "name": "getDecisionTimes",
      "outputs": [
        {
          "internalType": "uint256",
          "name": "",
          "type": "uint256"
        },
        {
          "internalType": "uint256",
          "name": "",
          "type": "uint256"
        },
        {
          "internalType": "uint256",
          "name": "",
          "type": "uint256"
        },
        {
          "internalType": "uint256",
          "name": "",
          "type": "uint256"
        }
      ],
      "stateMutability": "view",
      "type": "function"
    },
    {
      "inputs": [
        {
          "internalType": "uint256",
          "name": "_projectID",
          "type": "uint256"
        }
      ],
      "name": "getProject",
      "outputs": [
        {
          "components": [
            {
              "internalType": "string",
              "name": "metadata",
              "type": "string"
            },
            {
              "internalType": "uint256",
              "name": "weight",
              "type": "uint256"
            },
            {
              "internalType": "uint256",
              "name": "reward",
              "type": "uint256"
            },
            {
              "internalType": "uint256",
              "name": "creationTime",
              "type": "uint256"
            },
            {
              "components": [
                {
                  "internalType": "uint256",
                  "name": "startStageTimestamp",
                  "type": "uint256"
                },
                {
                  "internalType": "uint256",
                  "name": "startGateTimestamp",
                  "type": "uint256"
                },
                {
                  "internalType": "uint256",
                  "name": "startSettledTimestamp",
                  "type": "uint256"
                }
              ],
              "internalType": "struct ProjectManager.NextMilestone",
              "name": "nextMilestone",
              "type": "tuple"
            },
            {
              "internalType": "enum ProjectManager.ProjectStatus",
              "name": "status",
              "type": "uint8"
            },
            {
              "internalType": "bool",
              "name": "applicationRequired",
              "type": "bool"
            },
            {
              "internalType": "uint256[]",
              "name": "applications",
              "type": "uint256[]"
            },
            {
              "internalType": "address[]",
              "name": "workers",
              "type": "address[]"
            },
            {
              "internalType": "address[]",
              "name": "pastWorkers",
              "type": "address[]"
            },
            {
              "internalType": "uint256",
              "name": "parentCampaign",
              "type": "uint256"
            },
            {
              "internalType": "uint256",
              "name": "parentProject",
              "type": "uint256"
            },
            {
              "internalType": "uint256[]",
              "name": "childProjects",
              "type": "uint256[]"
            },
            {
              "internalType": "uint256[]",
              "name": "childTasks",
              "type": "uint256[]"
            }
          ],
          "internalType": "struct ProjectManager.Project",
          "name": "",
          "type": "tuple"
        }
      ],
      "stateMutability": "view",
      "type": "function"
    },
    {
      "inputs": [
        {
          "internalType": "uint256",
          "name": "_taskID",
          "type": "uint256"
        }
      ],
      "name": "getTask",
      "outputs": [
        {
          "components": [
            {
              "internalType": "uint256",
              "name": "id",
              "type": "uint256"
            },
            {
              "internalType": "string",
              "name": "metadata",
              "type": "string"
            },
            {
              "internalType": "uint256",
              "name": "weight",
              "type": "uint256"
            },
            {
              "internalType": "bool",
              "name": "paid",
              "type": "bool"
            },
            {
              "internalType": "uint256",
              "name": "creationTime",
              "type": "uint256"
            },
            {
              "internalType": "uint256",
              "name": "deadline",
              "type": "uint256"
            },
            {
              "internalType": "address payable",
              "name": "worker",
              "type": "address"
            },
            {
              "internalType": "string",
              "name": "submission",
              "type": "string"
            },
            {
              "internalType": "enum TaskManager.SubmissionStatus",
              "name": "submissionStatus",
              "type": "uint8"
            },
            {
              "internalType": "uint256",
              "name": "parentProject",
              "type": "uint256"
            }
          ],
          "internalType": "struct TaskManager.Task",
          "name": "",
          "type": "tuple"
        }
      ],
      "stateMutability": "view",
      "type": "function"
    },
    {
      "inputs": [
        {
          "internalType": "uint256",
          "name": "_projectID",
          "type": "uint256"
        },
        {
          "internalType": "uint256",
          "name": "_nextStageStartTimestamp",
          "type": "uint256"
        },
        {
          "internalType": "uint256",
          "name": "_nextGateStartTimestamp",
          "type": "uint256"
        },
        {
          "internalType": "uint256",
          "name": "_nextSettledStartTimestamp",
          "type": "uint256"
        }
      ],
      "name": "goToSettledStatus",
      "outputs": [],
      "stateMutability": "nonpayable",
      "type": "function"
    },
    {
      "inputs": [
        {
          "internalType": "string",
          "name": "_metadata",
          "type": "string"
        },
        {
          "internalType": "address payable[]",
          "name": "_owners",
          "type": "address[]"
        },
        {
          "internalType": "address payable[]",
          "name": "_acceptors",
          "type": "address[]"
        },
        {
          "internalType": "uint256",
          "name": "_stake",
          "type": "uint256"
        },
        {
          "internalType": "uint256",
          "name": "_funding",
          "type": "uint256"
        }
      ],
      "name": "makeCampaign",
      "outputs": [
        {
          "internalType": "uint256",
          "name": "",
          "type": "uint256"
        }
      ],
      "stateMutability": "payable",
      "type": "function"
    },
    {
      "inputs": [
        {
          "internalType": "string",
          "name": "_metadata",
          "type": "string"
        },
        {
          "internalType": "bool",
          "name": "_applicationRequired",
          "type": "bool"
        },
        {
          "internalType": "uint256",
          "name": "_parentCampaignId",
          "type": "uint256"
        },
        {
          "internalType": "uint256",
          "name": "_parentProjectId",
          "type": "uint256"
        },
        {
          "internalType": "bool",
          "name": "_topLevel",
          "type": "bool"
        }
      ],
      "name": "makeProject",
      "outputs": [
        {
          "internalType": "uint256",
          "name": "",
          "type": "uint256"
        }
      ],
      "stateMutability": "nonpayable",
      "type": "function"
    },
    {
      "inputs": [
        {
          "internalType": "string",
          "name": "_metadata",
          "type": "string"
        },
        {
          "internalType": "uint256",
          "name": "weight",
          "type": "uint256"
        },
        {
          "internalType": "uint256",
          "name": "_deadline",
          "type": "uint256"
        },
        {
          "internalType": "uint256",
          "name": "_parentProjectID",
          "type": "uint256"
        }
      ],
      "name": "makeTask",
      "outputs": [
        {
          "internalType": "uint256",
          "name": "",
          "type": "uint256"
        }
      ],
      "stateMutability": "nonpayable",
      "type": "function"
    },
    {
      "inputs": [],
      "name": "minOpenCampaignStake",
      "outputs": [
        {
          "internalType": "uint256",
          "name": "",
          "type": "uint256"
        }
      ],
      "stateMutability": "view",
      "type": "function"
    },
    {
      "inputs": [],
      "name": "minStake",
      "outputs": [
        {
          "internalType": "uint256",
          "name": "",
          "type": "uint256"
        }
      ],
      "stateMutability": "view",
      "type": "function"
    },
    {
      "inputs": [],
      "name": "minimumGateTime",
      "outputs": [
        {
          "internalType": "uint256",
          "name": "",
          "type": "uint256"
        }
      ],
      "stateMutability": "view",
      "type": "function"
    },
    {
      "inputs": [],
      "name": "minimumSettledTime",
      "outputs": [
        {
          "internalType": "uint256",
          "name": "",
          "type": "uint256"
        }
      ],
      "stateMutability": "view",
      "type": "function"
    },
    {
      "inputs": [
        {
          "internalType": "uint256",
          "name": "_projectID",
          "type": "uint256"
        }
      ],
      "name": "new_statusFixer",
      "outputs": [
        {
          "internalType": "bool",
          "name": "updated",
          "type": "bool"
        }
      ],
      "stateMutability": "nonpayable",
      "type": "function"
    },
    {
      "inputs": [],
      "name": "projectCount",
      "outputs": [
        {
          "internalType": "uint256",
          "name": "",
          "type": "uint256"
        }
      ],
      "stateMutability": "view",
      "type": "function"
    },
    {
      "inputs": [
        {
          "internalType": "uint256",
          "name": "",
          "type": "uint256"
        }
      ],
      "name": "projects",
      "outputs": [
        {
          "internalType": "string",
          "name": "metadata",
          "type": "string"
        },
        {
          "internalType": "uint256",
          "name": "weight",
          "type": "uint256"
        },
        {
          "internalType": "uint256",
          "name": "reward",
          "type": "uint256"
        },
        {
          "internalType": "uint256",
          "name": "creationTime",
          "type": "uint256"
        },
        {
          "components": [
            {
              "internalType": "uint256",
              "name": "startStageTimestamp",
              "type": "uint256"
            },
            {
              "internalType": "uint256",
              "name": "startGateTimestamp",
              "type": "uint256"
            },
            {
              "internalType": "uint256",
              "name": "startSettledTimestamp",
              "type": "uint256"
            }
          ],
          "internalType": "struct ProjectManager.NextMilestone",
          "name": "nextMilestone",
          "type": "tuple"
        },
        {
          "internalType": "enum ProjectManager.ProjectStatus",
          "name": "status",
          "type": "uint8"
        },
        {
          "internalType": "bool",
          "name": "applicationRequired",
          "type": "bool"
        },
        {
          "internalType": "uint256",
          "name": "parentCampaign",
          "type": "uint256"
        },
        {
          "internalType": "uint256",
          "name": "parentProject",
          "type": "uint256"
        }
      ],
      "stateMutability": "view",
      "type": "function"
    },
    {
      "inputs": [
        {
          "internalType": "uint256",
          "name": "_taskID",
          "type": "uint256"
        },
        {
          "internalType": "string",
          "name": "_metadata",
          "type": "string"
        }
      ],
      "name": "raiseDeclinedSubmissionDispute",
      "outputs": [],
      "stateMutability": "nonpayable",
      "type": "function"
    },
    {
      "inputs": [
        {
          "internalType": "uint256",
          "name": "_campaignID",
          "type": "uint256"
        },
        {
          "internalType": "uint256",
          "name": "_fundingID",
          "type": "uint256"
        }
      ],
      "name": "refundOwnFunding",
      "outputs": [],
      "stateMutability": "nonpayable",
      "type": "function"
    },
    {
      "inputs": [
        {
          "internalType": "address",
          "name": "_checkerMasterAddress",
          "type": "address"
        }
      ],
      "name": "setCheckerMasterAddress",
      "outputs": [],
      "stateMutability": "nonpayable",
      "type": "function"
    },
    {
      "inputs": [
        {
          "internalType": "address",
          "name": "_updateMasterAddress",
          "type": "address"
        }
      ],
      "name": "setUpdateMasterAddress",
      "outputs": [],
      "stateMutability": "nonpayable",
      "type": "function"
    },
    {
      "inputs": [
        {
          "internalType": "uint256",
          "name": "_taskID",
          "type": "uint256"
        },
        {
          "internalType": "bool",
          "name": "_accepted",
          "type": "bool"
        }
      ],
      "name": "submissionDecision",
      "outputs": [],
      "stateMutability": "nonpayable",
      "type": "function"
    },
    {
      "inputs": [
        {
          "internalType": "uint256",
          "name": "_taskID",
          "type": "uint256"
        },
        {
          "internalType": "string",
          "name": "_metadata",
          "type": "string"
        }
      ],
      "name": "submitSubmission",
      "outputs": [],
      "stateMutability": "nonpayable",
      "type": "function"
    },
    {
      "inputs": [],
      "name": "taskCount",
      "outputs": [
        {
          "internalType": "uint256",
          "name": "",
          "type": "uint256"
        }
      ],
      "stateMutability": "view",
      "type": "function"
    },
    {
      "inputs": [],
      "name": "taskSubmissionDecisionDisputeTime",
      "outputs": [
        {
          "internalType": "uint256",
          "name": "",
          "type": "uint256"
        }
      ],
      "stateMutability": "view",
      "type": "function"
    },
    {
      "inputs": [],
      "name": "taskSubmissionDecisionTime",
      "outputs": [
        {
          "internalType": "uint256",
          "name": "",
          "type": "uint256"
        }
      ],
      "stateMutability": "view",
      "type": "function"
    },
    {
      "inputs": [
        {
          "internalType": "uint256",
          "name": "",
          "type": "uint256"
        }
      ],
      "name": "tasks",
      "outputs": [
        {
          "internalType": "uint256",
          "name": "id",
          "type": "uint256"
        },
        {
          "internalType": "string",
          "name": "metadata",
          "type": "string"
        },
        {
          "internalType": "uint256",
          "name": "weight",
          "type": "uint256"
        },
        {
          "internalType": "bool",
          "name": "paid",
          "type": "bool"
        },
        {
          "internalType": "uint256",
          "name": "creationTime",
          "type": "uint256"
        },
        {
          "internalType": "uint256",
          "name": "deadline",
          "type": "uint256"
        },
        {
          "internalType": "address payable",
          "name": "worker",
          "type": "address"
        },
        {
          "internalType": "string",
          "name": "submission",
          "type": "string"
        },
        {
          "internalType": "enum TaskManager.SubmissionStatus",
          "name": "submissionStatus",
          "type": "uint8"
        },
        {
          "internalType": "uint256",
          "name": "parentProject",
          "type": "uint256"
        }
      ],
      "stateMutability": "view",
      "type": "function"
    },
    {
      "inputs": [
        {
          "internalType": "uint256",
          "name": "_campaignID",
          "type": "uint256"
        },
        {
          "internalType": "string",
          "name": "_metadata",
          "type": "string"
        },
        {
          "internalType": "enum CampaignManager.CampaignStatus",
          "name": "_status",
          "type": "uint8"
        },
        {
          "internalType": "address payable[]",
          "name": "_owners",
          "type": "address[]"
        },
        {
          "internalType": "address payable[]",
          "name": "_acceptors",
          "type": "address[]"
        }
      ],
      "name": "updateCampaign",
      "outputs": [],
      "stateMutability": "nonpayable",
      "type": "function"
    },
    {
      "inputs": [],
      "name": "updateMasterAddress",
      "outputs": [
        {
          "internalType": "address",
          "name": "",
          "type": "address"
        }
      ],
      "stateMutability": "view",
      "type": "function"
    },
    {
      "inputs": [
        {
          "internalType": "uint256",
          "name": "_projectId",
          "type": "uint256"
        },
        {
          "internalType": "uint256",
          "name": "_applicationId",
          "type": "uint256"
        }
      ],
      "name": "workerDropOut",
      "outputs": [],
      "stateMutability": "nonpayable",
      "type": "function"
    },
    {
      "inputs": [
        {
          "internalType": "uint256",
          "name": "_projectID",
          "type": "uint256"
        },
        {
          "internalType": "uint256",
          "name": "_stake",
          "type": "uint256"
        }
      ],
      "name": "workerEnrolNoApplication",
      "outputs": [],
      "stateMutability": "payable",
      "type": "function"
    },
    {
      "inputs": [
        {
          "internalType": "uint256",
          "name": "_taskID",
          "type": "uint256"
        }
      ],
      "name": "workerSelfAssignsTask",
      "outputs": [],
      "stateMutability": "nonpayable",
      "type": "function"
    },
    {
      "stateMutability": "payable",
      "type": "receive"
    }
  ],
  "bytecode": {
    "object": "0x6080604052600180546001600160a01b031990811682556002805482169055600482905560068290556008919091556608e1bc9bf04000600b8190556658d15e17628000600c55600d5562015180600e81905562034bc0600f556010556202a3006011556000805490911633179055615f1f8061007d6000396000f3fe6080604052600436106101f75760003560e01c8062c374cd14610200578063107046bd14610233578063141961bc14610268578063142714921461029957806318b952f6146102b95780631d65e77e146102f15780631f2f4bfd1461031e57806333e2f1e91461034b57806336fbad261461036b578063375b3c0a146103815780634a502233146103975780634fba1d13146103b75780635598f8cc146103e75780635c30337a146104145780637274e30d1461043457806373b9a5b31461044a578063762f485b1461046057806386e45559146104765780638d97767214610496578063915a4042146104cc578063918eab15146104df57806393dc12e6146104f257806394fe52a8146105125780639688008d1461052557806397b1ede01461053a578063982260cf1461055a5780639d709c5f1461057a5780639eec36541461059a578063a3e366f0146105ad578063a7be3ba0146105c3578063a87f224c146105e3578063aa15d5f014610603578063b6cb58a51461063c578063bcd6f79514610652578063c4e60c3314610672578063d620040414610688578063db08fe76146106a8578063dfefadff146106c8578063e0a6926a146106f9578063e2aad4a01461070f578063e3fc349914610725578063e4ffeeb614610745578063f0f3f2c814610765578063fa5558421461079257005b366101fe57005b005b34801561020c57600080fd5b5061022061021b366004614f69565b6107a8565b6040519081526020015b60405180910390f35b34801561023f57600080fd5b5061025361024e366004614fbc565b61094d565b60405161022a9998979695949392919061505e565b34801561027457600080fd5b50610288610283366004614fbc565b610a46565b60405161022a959493929190615119565b3480156102a557600080fd5b506101fe6102b4366004615169565b610b49565b3480156102c557600080fd5b506000546102d9906001600160a01b031681565b6040516001600160a01b03909116815260200161022a565b3480156102fd57600080fd5b5061031161030c366004614fbc565b610c85565b60405161022a919061519b565b34801561032a57600080fd5b5061033e610339366004614fbc565b610e62565b60405161022a9190615251565b34801561035757600080fd5b506101fe6103663660046152c4565b610f9e565b34801561037757600080fd5b5061022060065481565b34801561038d57600080fd5b50610220600b5481565b3480156103a357600080fd5b506102206103b23660046152f4565b611313565b3480156103c357600080fd5b506103d76103d2366004614fbc565b611531565b604051901515815260200161022a565b3480156103f357600080fd5b50610407610402366004614fbc565b611da2565b60405161022a9190615419565b34801561042057600080fd5b506001546102d9906001600160a01b031681565b34801561044057600080fd5b5061022060045481565b34801561045657600080fd5b50610220600e5481565b34801561046c57600080fd5b5061022060115481565b34801561048257600080fd5b506101fe610491366004615525565b612110565b3480156104a257600080fd5b506104b66104b1366004614fbc565b61215b565b60405161022a9a99989796959493929190615549565b6102206104da366004615661565b6122d1565b6101fe6104ed366004615169565b612401565b3480156104fe57600080fd5b506101fe61050d366004614fbc565b612508565b6101fe610520366004615169565b61267b565b34801561053157600080fd5b506101fe612d0b565b34801561054657600080fd5b506101fe6105553660046156fa565b612d7a565b34801561056657600080fd5b506101fe6105753660046156fa565b612eea565b34801561058657600080fd5b506101fe6105953660046152c4565b613031565b6102206105a8366004615740565b6132d8565b3480156105b957600080fd5b50610220600c5481565b3480156105cf57600080fd5b506101fe6105de36600461578f565b613968565b3480156105ef57600080fd5b506101fe6105fe366004614fbc565b613e19565b34801561060f57600080fd5b50600f54601054601154600e5460408051948552602085019390935291830152606082015260800161022a565b34801561064857600080fd5b5061022060085481565b34801561065e57600080fd5b506101fe61066d366004615525565b613f80565b34801561067e57600080fd5b50610220600d5481565b34801561069457600080fd5b506101fe6106a3366004615169565b613fcb565b3480156106b457600080fd5b506101fe6106c33660046157c1565b614092565b3480156106d457600080fd5b506106e86106e3366004614fbc565b61432a565b60405161022a95949392919061586b565b34801561070557600080fd5b5061022060105481565b34801561071b57600080fd5b50610220600a5481565b34801561073157600080fd5b506101fe610740366004615169565b614431565b34801561075157600080fd5b506002546102d9906001600160a01b031681565b34801561077157600080fd5b50610785610780366004614fbc565b61456c565b60405161022a91906158b8565b34801561079e57600080fd5b50610220600f5481565b60025460405163eecaee6b60e01b8152600481018390526000916001600160a01b03169063eecaee6b9060240160006040518083038186803b1580156107ed57600080fd5b505afa158015610801573d6000803e3d6000fd5b505060025460008581526005602052604090819020600b01549051630336ded560e11b81526001600160a01b03909216935063066dbdaa92506108489133906004016159ea565b60006040518083038186803b15801561086057600080fd5b505afa158015610874573d6000803e3d6000fd5b50506008546000818152600760205260409081902090516341a3ed9b60e01b815273__$1b22f169710f1ae88b968a711088e82344$__94506341a3ed9b93506108c892908a908a908a908a90600401615a01565b60006040518083038186803b1580156108e057600080fd5b505af41580156108f4573d6000803e3d6000fd5b5050506000838152600560209081526040822060088054600e909201805460018101825590855292842090920155805492509061093083615a54565b919050555060016008546109449190615a6d565b95945050505050565b60056020526000908152604090208054819061096890615a86565b80601f016020809104026020016040519081016040528092919081815260200182805461099490615a86565b80156109e15780601f106109b6576101008083540402835291602001916109e1565b820191906000526020600020905b8154815290600101906020018083116109c457829003601f168201915b5050506001840154600285015460038601546040805160608101825260048901548152600589015460208201526006890154918101919091526007880154600b890154600c90990154979894979396509194509260ff80831693610100909304169189565b600360205260009081526040902080548190610a6190615a86565b80601f0160208091040260200160405190810160405280929190818152602001828054610a8d90615a86565b8015610ada5780601f10610aaf57610100808354040283529160200191610ada565b820191906000526020600020905b815481529060010190602001808311610abd57829003601f168201915b505050600184015460028501546040805160a08101825260068801546001600160a01b0390811682526007890154602083015260088901549282019290925260098801546060820152600a9097015460ff90811615156080890152959692958216945061010090910416915085565b600254604051628aee0160e21b8152600481018490526001600160a01b039091169063022bb8049060240160006040518083038186803b158015610b8c57600080fd5b505afa158015610ba0573d6000803e3d6000fd5b505060025460405163206ca5a360e21b81526001600160a01b0390911692506381b2968c9150610bd690859033906004016159ea565b60006040518083038186803b158015610bee57600080fd5b505afa158015610c02573d6000803e3d6000fd5b50505060008381526003602052604090819020905163427d15e760e01b815290915073__$700c4b692048d554c7f19e6c07dafefb0c$__9063427d15e790610c509084908690600401615ac0565b60006040518083038186803b158015610c6857600080fd5b505af4158015610c7c573d6000803e3d6000fd5b50505050505050565b610c8d614cd2565b600760008381526020019081526020016000206040518061014001604052908160008201548152602001600182018054610cc690615a86565b80601f0160208091040260200160405190810160405280929190818152602001828054610cf290615a86565b8015610d3f5780601f10610d1457610100808354040283529160200191610d3f565b820191906000526020600020905b815481529060010190602001808311610d2257829003601f168201915b505050918352505060028201546020820152600382015460ff1615156040820152600482015460608201526005820154608082015260068201546001600160a01b031660a082015260078201805460c090920191610d9c90615a86565b80601f0160208091040260200160405190810160405280929190818152602001828054610dc890615a86565b8015610e155780601f10610dea57610100808354040283529160200191610e15565b820191906000526020600020905b815481529060010190602001808311610df857829003601f168201915b5050509183525050600882015460209091019060ff166004811115610e3c57610e3c615034565b6004811115610e4d57610e4d615034565b81526020016009820154815250509050919050565b610e6a614d41565b60008281526009602052604090819020815160a08101909252805482908290610e9290615a86565b80601f0160208091040260200160405190810160405280929190818152602001828054610ebe90615a86565b8015610f0b5780601f10610ee057610100808354040283529160200191610f0b565b820191906000526020600020905b815481529060010190602001808311610eee57829003601f168201915b505050918352505060018201546001600160a01b0380821660208085019190915260ff600160a01b90930483161515604080860191909152805160a081018252600287015490931683526003860154918301919091526004850154908201526005840154606082810191909152600685015490921615156080808301919091529183015260079092015491015292915050565b600254604051632ab0cc1160e01b8152600481018490526001600160a01b0390911690632ab0cc119060240160006040518083038186803b158015610fe257600080fd5b505afa158015610ff6573d6000803e3d6000fd5b50506002546000858152600760205260409081902060090154905163bfc4eddd60e01b81526001600160a01b03909216935063bfc4eddd925061103f9160040190815260200190565b60006040518083038186803b15801561105757600080fd5b505afa15801561106b573d6000803e3d6000fd5b50506002546000858152600760209081526040808320600901548352600590915290819020600b0154905163208e2d5560e11b81526001600160a01b03909216935063411c5aaa92506110c29133906004016159ea565b60006040518083038186803b1580156110da57600080fd5b505afa1580156110ee573d6000803e3d6000fd5b50505060008381526007602090815260408083206009810154845260058352818420600b810154855260039093529220919250906001600884015460ff16600481111561113d5761113d615034565b146111755760405162461bcd60e51b815260206004820152600360248201526245343160e81b60448201526064015b60405180910390fd5b83156112fc5760006064836002015485600201546111939190615ace565b61119d9190615ae5565b60088501805491925060039160ff1916600183021790555060038401805460ff191660011790556002830180548291906000906111db908490615a6d565b909155505060405163a6b4560b60e01b815273__$24c8841b96aa82c356d1ab35d4b0245100$__9063a6b4560b9061121c90600b8601908590600401615ac0565b60006040518083038186803b15801561123457600080fd5b505af4158015611248573d6000803e3d6000fd5b50505060068501546040516001600160a01b03909116915082156108fc029083906000818181858888f19350505050158015611288573d6000803e3d6000fd5b50835460405163781a6d4560e11b815273__$1e60a9b757f0cdba0eab1859d8e6de91e8$__9163f034da8a916112c69190600e880190600401615ac0565b60006040518083038186803b1580156112de57600080fd5b505af41580156112f2573d6000803e3d6000fd5b505050505061130c565b60088301805460ff191660021790555b5050505050565b600254604051628aee0160e21b8152600481018590526000916001600160a01b03169063022bb8049060240160006040518083038186803b15801561135757600080fd5b505afa15801561136b573d6000803e3d6000fd5b5050600254604051630336ded560e11b81526001600160a01b03909116925063066dbdaa91506113a190879033906004016159ea565b60006040518083038186803b1580156113b957600080fd5b505afa1580156113cd573d6000803e3d6000fd5b5050505060065460016113e09190615b07565b8311156114155760405162461bcd60e51b815260206004820152600360248201526245323160e81b604482015260640161116c565b600654600090815260056020908152604080832087845260039092529182902091516343539c7d60e11b815290919073__$6a9ea02bf5ba89f52fb50f06ec914b14fc$__906386a738fa906114749085908c908c908c90600401615b1a565b60006040518083038186803b15801561148c57600080fd5b505af41580156114a0573d6000803e3d6000fd5b5050505083156114d057600654600c80840182905582018054600181018255600091825260209091200155611501565b600c820185905560008581526005602090815260408220600654600d90910180546001810182559084529190922001555b6006805490600061151183615a54565b919050555060016006546115259190615a6d565b98975050505050505050565b60015460405163b2be86ad60e01b815260048101839052600091829182916001600160a01b03169063b2be86ad906024016040805180830381865afa15801561157e573d6000803e3d6000fd5b505050506040513d601f19601f820116820180604052508101906115a29190615b46565b91509150816115b5575060009392505050565b600084815260056020526040902060018260058111156115d7576115d7615034565b036115fe576115e58561489d565b600701805460ff19166001908117909155949350505050565b600282600581111561161257611612615034565b0361176b57600154604051637521da2f60e01b8152600481018790526000916001600160a01b031690637521da2f90602401600060405180830381865afa158015611661573d6000803e3d6000fd5b505050506040513d6000823e601f3d908101601f191682016040526116899190810190615b79565b905060005b8151811015611751578181815181106116a9576116a9615c09565b60200260200101516000031561173f5773__$1e60a9b757f0cdba0eab1859d8e6de91e8$__63f034da8a8383815181106116e5576116e5615c09565b602002602001015185600e016040518363ffffffff1660e01b815260040161170e929190615ac0565b60006040518083038186803b15801561172657600080fd5b505af415801561173a573d6000803e3d6000fd5b505050505b8061174981615a54565b91505061168e565b5050600701805460ff191660021790555060019392505050565b600382600581111561177f5761177f615034565b03611a1557600154604051631e386c0f60e21b8152600481018790526000916001600160a01b0316906378e1b03c90602401600060405180830381865afa1580156117ce573d6000803e3d6000fd5b505050506040513d6000823e601f3d908101601f191682016040526117f69190810190615b79565b600b83015460009081526003602052604081209192505b82518110156119fa5782818151811061182857611828615c09565b6020026020010151600003156119e85760006007600085848151811061185057611850615c09565b60200260200101518152602001908152602001600020905060006064826002015487600201546118809190615ace565b61188a9190615ae5565b60038301805460ff1916600117905560028701805491925082916000906118b2908490615a6d565b909155505060405163a6b4560b60e01b815273__$24c8841b96aa82c356d1ab35d4b0245100$__9063a6b4560b906118f390600b8801908590600401615ac0565b60006040518083038186803b15801561190b57600080fd5b505af415801561191f573d6000803e3d6000fd5b50505060068301546040516001600160a01b03909116915082156108fc029083906000818181858888f1935050505015801561195f573d6000803e3d6000fd5b5073__$1e60a9b757f0cdba0eab1859d8e6de91e8$__63f034da8a86858151811061198c5761198c615c09565b602002602001015188600e016040518363ffffffff1660e01b81526004016119b5929190615ac0565b60006040518083038186803b1580156119cd57600080fd5b505af41580156119e1573d6000803e3d6000fd5b5050505050505b806119f281615a54565b91505061180d565b505050600701805460ff191660031790555060019392505050565b6004826005811115611a2957611a29615034565b03611d9a5760015460405163e32eaa5f60e01b8152600481018790526000916001600160a01b03169063e32eaa5f90602401600060405180830381865afa158015611a78573d6000803e3d6000fd5b505050506040513d6000823e601f3d908101601f19168201604052611aa09190810190615b79565b905060005b8151811015611b6857818181518110611ac057611ac0615c09565b602002602001015160000315611b565773__$1e60a9b757f0cdba0eab1859d8e6de91e8$__63f034da8a838381518110611afc57611afc615c09565b602002602001015185600e016040518363ffffffff1660e01b8152600401611b25929190615ac0565b60006040518083038186803b158015611b3d57600080fd5b505af4158015611b51573d6000803e3d6000fd5b505050505b80611b6081615a54565b915050611aa5565b50600154604051638b7b766f60e01b8152600481018890526000916001600160a01b031690638b7b766f90602401600060405180830381865afa158015611bb3573d6000803e3d6000fd5b505050506040513d6000823e601f3d908101601f19168201604052611bdb9190810190615b79565b905060005b8151811015611c8757818181518110611bfb57611bfb615c09565b602002602001015160000315611c75576000606460076000858581518110611c2557611c25615c09565b60200260200101518152602001908152602001600020600201548660020154611c4e9190615ace565b611c589190615ae5565b905080856002016000828254611c6e9190615a6d565b9091555050505b80611c7f81615a54565b915050611be0565b50600b808401546000908152600360205260409081902060028601549151635b35dc8d60e11b8152909273__$24c8841b96aa82c356d1ab35d4b0245100$__9263b66bb91a92611cdd9286019190600401615ac0565b60006040518083038186803b158015611cf557600080fd5b505af4158015611d09573d6000803e3d6000fd5b505060015460405163a39ecd7160e01b8152600481018c90526001600160a01b03909116925063a39ecd719150602401602060405180830381865afa158015611d56573d6000803e3d6000fd5b505050506040513d601f19601f82011682018060405250810190611d7a9190615c1f565b6002850155505050600701805460ff191660041790555060019392505050565b505050919050565b611daa614d74565b6000828152600360205260409081902081516101408101909252805482908290611dd390615a86565b80601f0160208091040260200160405190810160405280929190818152602001828054611dff90615a86565b8015611e4c5780601f10611e2157610100808354040283529160200191611e4c565b820191906000526020600020905b815481529060010190602001808311611e2f57829003601f168201915b50505091835250506001828101546020830152600283015460409092019160ff1690811115611e7d57611e7d615034565b6001811115611e8e57611e8e615034565b8152600282015461010090046001600160a01b03166020808301919091526003830180546040805182850281018501825282815294019392830182828015611eff57602002820191906000526020600020905b81546001600160a01b03168152600190910190602001808311611ee1575b5050505050815260200160048201805480602002602001604051908101604052809291908181526020018280548015611f6157602002820191906000526020600020905b81546001600160a01b03168152600190910190602001808311611f43575b5050505050815260200160058201805480602002602001604051908101604052809291908181526020018280548015611fc357602002820191906000526020600020905b81546001600160a01b03168152600190910190602001808311611fa5575b50505091835250506040805160a08101825260068401546001600160a01b03168152600784015460208281019190915260088501548284015260098501546060830152600a85015460ff161515608083015280840191909152600b8401805483518184028101840185528181529390940193909160009084015b828210156120a95760008481526020908190206040805160a0810182526005860290920180546001600160a01b0316835260018082015484860152600282015492840192909252600381015460608401526004015460ff1615156080830152908352909201910161203d565b505050508152602001600c820180548060200260200160405190810160405280929190818152602001828054801561210057602002820191906000526020600020905b8154815260200190600101908083116120ec575b5050505050815250509050919050565b6002546001600160a01b0316156121395760405162461bcd60e51b815260040161116c90615c38565b600280546001600160a01b0319166001600160a01b0392909216919091179055565b6007602052600090815260409020805460018201805491929161217d90615a86565b80601f01602080910402602001604051908101604052809291908181526020018280546121a990615a86565b80156121f65780601f106121cb576101008083540402835291602001916121f6565b820191906000526020600020905b8154815290600101906020018083116121d957829003601f168201915b50505050600283015460038401546004850154600586015460068701546007880180549798959760ff9095169650929491936001600160a01b03909116929061223e90615a86565b80601f016020809104026020016040519081016040528092919081815260200182805461226a90615a86565b80156122b75780601f1061228c576101008083540402835291602001916122b7565b820191906000526020600020905b81548152906001019060200180831161229a57829003601f168201915b505050506008830154600990930154919260ff169190508a565b600082826122df8183615b07565b34146123135760405162461bcd60e51b815260206004820152600360248201526245313760e81b604482015260640161116c565b600b5485101561234b5760405162461bcd60e51b8152602060048201526003602482015262229a1b60e91b604482015260640161116c565b60048054600090815260036020526040908190209051637a0f939b60e11b8152909173__$700c4b692048d554c7f19e6c07dafefb0c$__9163f41f27369161239f9185918e918e918e918e918e9101615c55565b60006040518083038186803b1580156123b757600080fd5b505af41580156123cb573d6000803e3d6000fd5b5050600480549250905060006123e083615a54565b919050555060016004546123f49190615a6d565b9998505050505050505050565b8080341480156124115750600081115b61242d5760405162461bcd60e51b815260040161116c90615caa565b600254604051628aee0160e21b8152600481018590526001600160a01b039091169063022bb8049060240160006040518083038186803b15801561247057600080fd5b505afa158015612484573d6000803e3d6000fd5b5050506000848152600360205260409081902090516363790b1360e01b815290915073__$700c4b692048d554c7f19e6c07dafefb0c$__906363790b13906124d29084908790600401615ac0565b60006040518083038186803b1580156124ea57600080fd5b505af41580156124fe573d6000803e3d6000fd5b5050505050505050565b60025460405163eecaee6b60e01b8152600481018390526001600160a01b039091169063eecaee6b9060240160006040518083038186803b15801561254c57600080fd5b505afa158015612560573d6000803e3d6000fd5b505060025460008481526005602052604090819020600b01549051630336ded560e11b81526001600160a01b03909216935063066dbdaa92506125a79133906004016159ea565b60006040518083038186803b1580156125bf57600080fd5b505afa1580156125d3573d6000803e3d6000fd5b505060015460405163380a610b60e21b8152600481018590526001600160a01b03909116925063e029842c9150602401602060405180830381865afa158015612620573d6000803e3d6000fd5b505050506040513d601f19601f820116820180604052508101906126449190615cc7565b6126605760405162461bcd60e51b815260040161116c90615ce4565b6000908152600560205260409020600701805460ff19169055565b80803414801561268b5750600081115b6126a75760405162461bcd60e51b815260040161116c90615caa565b81600d548110156126ca5760405162461bcd60e51b815260040161116c90615d01565b60025460008581526005602052604090819020600b01549051628aee0160e21b81526001600160a01b039092169163022bb8049161270e9160040190815260200190565b60006040518083038186803b15801561272657600080fd5b505afa15801561273a573d6000803e3d6000fd5b505060025460405163eecaee6b60e01b8152600481018890526001600160a01b03909116925063eecaee6b915060240160006040518083038186803b15801561278257600080fd5b505afa158015612796573d6000803e3d6000fd5b505060025460008781526005602052604090819020600b0154905163094db58d60e11b81526001600160a01b03909216935063129b6b1a92506127df9160040190815260200190565b60006040518083038186803b1580156127f757600080fd5b505afa15801561280b573d6000803e3d6000fd5b505060025460405163aefa90f160e01b8152600481018890526001600160a01b03909116925063aefa90f1915060240160006040518083038186803b15801561285357600080fd5b505afa158015612867573d6000803e3d6000fd5b5050505061287484611531565b612d05576000848152600560209081526040808320600b810154845260038352818420600a54855260099093529281902081516101c0810190925283549091908490829082906128c390615a86565b80601f01602080910402602001604051908101604052809291908181526020018280546128ef90615a86565b801561293c5780601f106129115761010080835404028352916020019161293c565b820191906000526020600020905b81548152906001019060200180831161291f57829003601f168201915b5050505050815260200160018201548152602001600282015481526020016003820154815260200160048201604051806060016040529081600082015481526020016001820154815260200160028201548152505081526020016007820160009054906101000a900460ff1660058111156129b9576129b9615034565b60058111156129ca576129ca615034565b81526007820154610100900460ff1615156020808301919091526008830180546040805182850281018501825282815294019392830182828015612a2d57602002820191906000526020600020905b815481526020019060010190808311612a19575b5050505050815260200160098201805480602002602001604051908101604052809291908181526020018280548015612a8f57602002820191906000526020600020905b81546001600160a01b03168152600190910190602001808311612a71575b50505050508152602001600a8201805480602002602001604051908101604052809291908181526020018280548015612af157602002820191906000526020600020905b81546001600160a01b03168152600190910190602001808311612ad3575b50505050508152602001600b8201548152602001600c8201548152602001600d8201805480602002602001604051908101604052809291908181526020018280548015612b5d57602002820191906000526020600020905b815481526020019060010190808311612b49575b50505050508152602001600e8201805480602002602001604051908101604052809291908181526020018280548015612bb557602002820191906000526020600020905b815481526020019060010190808311612ba1575b50505091909252505060405163bd97bd0f60e01b815273__$6a9ea02bf5ba89f52fb50f06ec914b14fc$__9263bd97bd0f9250612bf4916004016158b8565b602060405180830381865af4158015612c11573d6000803e3d6000fd5b505050506040513d601f19601f82011682018060405250810190612c359190615cc7565b15612c685760405162461bcd60e51b8152602060048201526003602482015262114ccd60ea1b604482015260640161116c565b600a5460405163300d2e9560e11b815260048101859052602481018490526044810183905260648101899052608481019190915273__$6a9ea02bf5ba89f52fb50f06ec914b14fc$__9063601a5d2a9060a40160006040518083038186803b158015612cd357600080fd5b505af4158015612ce7573d6000803e3d6000fd5b5050600a8054925090506000612cfc83615a54565b91905055505050505b50505050565b6000546001600160a01b03163314612d4b5760405162461bcd60e51b815260206004820152600360248201526245343560e81b604482015260640161116c565b60405133904780156108fc02916000818181858888f19350505050158015612d77573d6000803e3d6000fd5b50565b600254604051632ab0cc1160e01b8152600481018490526001600160a01b0390911690632ab0cc119060240160006040518083038186803b158015612dbe57600080fd5b505afa158015612dd2573d6000803e3d6000fd5b5050600254600085815260076020526040908190206009015490516336fe47b160e21b81526001600160a01b03909216935063dbf91ec49250612e1b9160040190815260200190565b60006040518083038186803b158015612e3357600080fd5b505afa158015612e47573d6000803e3d6000fd5b505060025460405163bcc31c2960e01b81526001600160a01b03909116925063bcc31c299150612e7d90859033906004016159ea565b60006040518083038186803b158015612e9557600080fd5b505afa158015612ea9573d6000803e3d6000fd5b5050506000838152600760208190526040909120019050612eca8282615d6c565b50506000908152600760205260409020600801805460ff19166001179055565b600254604051632ab0cc1160e01b8152600481018490526001600160a01b0390911690632ab0cc119060240160006040518083038186803b158015612f2e57600080fd5b505afa158015612f42573d6000803e3d6000fd5b505060025460405163bcc31c2960e01b81526001600160a01b03909116925063bcc31c299150612f7890859033906004016159ea565b60006040518083038186803b158015612f9057600080fd5b505afa158015612fa4573d6000803e3d6000fd5b505050600083815260076020526040902090506002600882015460ff166004811115612fd257612fd2615034565b146130055760405162461bcd60e51b815260206004820152600360248201526245343360e81b604482015260640161116c565b60088101805460ff19908116600417909155600382018054909116905561302c83836149d1565b505050565b600254604051636824366b60e01b8152600481018490526001600160a01b0390911690636824366b9060240160006040518083038186803b15801561307557600080fd5b505afa158015613089573d6000803e3d6000fd5b50506002546000858152600960209081526040808320600701548352600590915290819020600b01549051630336ded560e11b81526001600160a01b03909216935063066dbdaa92506130e09133906004016159ea565b60006040518083038186803b1580156130f857600080fd5b505afa15801561310c573d6000803e3d6000fd5b50505060008381526009602052604090206007015461312b9150611531565b15613134575050565b6000828152600960205260409020816132395760008381526009602090815260408083206001808201805460ff60a01b1916905560038601546004808401919091556006909201805460ff1916909117905560078501548452600590925291829020915163781a6d4560e11b815273__$1e60a9b757f0cdba0eab1859d8e6de91e8$__9263f034da8a926131ce9288926008019101615ac0565b60006040518083038186803b1580156131e657600080fd5b505af41580156131fa573d6000803e3d6000fd5b50505060008481526009602052604080822060030154905133935081156108fc0292818181858888f19350505050158015612d05573d6000803e3d6000fd5b811561302c576007810180546000908152600560208181526040808420600180880180546009909301805480840182559088528588200180546001600160a01b03199081166001600160a01b039586161790915597548752838720600b0154875260038552928620835495018054918201815586529290942090910180549094169190921617909155805460ff60a01b1916600160a01b179055505050565b60008180341480156132ea5750600081115b6133065760405162461bcd60e51b815260040161116c90615caa565b82600d548110156133295760405162461bcd60e51b815260040161116c90615d01565b60025460008781526005602052604090819020600b01549051628aee0160e21b81526001600160a01b039092169163022bb8049161336d9160040190815260200190565b60006040518083038186803b15801561338557600080fd5b505afa158015613399573d6000803e3d6000fd5b505060025460405163eecaee6b60e01b8152600481018a90526001600160a01b03909116925063eecaee6b915060240160006040518083038186803b1580156133e157600080fd5b505afa1580156133f5573d6000803e3d6000fd5b505060025460008981526005602052604090819020600b0154905163094db58d60e11b81526001600160a01b03909216935063129b6b1a925061343e9160040190815260200190565b60006040518083038186803b15801561345657600080fd5b505afa15801561346a573d6000803e3d6000fd5b505060025460405163aefa90f160e01b8152600481018a90526001600160a01b03909116925063aefa90f1915060240160006040518083038186803b1580156134b257600080fd5b505afa1580156134c6573d6000803e3d6000fd5b505050506134d386611531565b156134e1576000925061395f565b6000868152600560209081526040808320600a54845260099092529182902082516101c0810190935281549192909183908290829061351f90615a86565b80601f016020809104026020016040519081016040528092919081815260200182805461354b90615a86565b80156135985780601f1061356d57610100808354040283529160200191613598565b820191906000526020600020905b81548152906001019060200180831161357b57829003601f168201915b5050505050815260200160018201548152602001600282015481526020016003820154815260200160048201604051806060016040529081600082015481526020016001820154815260200160028201548152505081526020016007820160009054906101000a900460ff16600581111561361557613615615034565b600581111561362657613626615034565b81526007820154610100900460ff161515602080830191909152600883018054604080518285028101850182528281529401939283018282801561368957602002820191906000526020600020905b815481526020019060010190808311613675575b50505050508152602001600982018054806020026020016040519081016040528092919081815260200182805480156136eb57602002820191906000526020600020905b81546001600160a01b031681526001909101906020018083116136cd575b50505050508152602001600a820180548060200260200160405190810160405280929190818152602001828054801561374d57602002820191906000526020600020905b81546001600160a01b0316815260019091019060200180831161372f575b50505050508152602001600b8201548152602001600c8201548152602001600d82018054806020026020016040519081016040528092919081815260200182805480156137b957602002820191906000526020600020905b8154815260200190600101908083116137a5575b50505050508152602001600e820180548060200260200160405190810160405280929190818152602001828054801561381157602002820191906000526020600020905b8154815260200190600101908083116137fd575b50505091909252505060405163bd97bd0f60e01b815273__$6a9ea02bf5ba89f52fb50f06ec914b14fc$__9263bd97bd0f9250613850916004016158b8565b602060405180830381865af415801561386d573d6000803e3d6000fd5b505050506040513d601f19601f820116820180604052508101906138919190615cc7565b156138c45760405162461bcd60e51b815260206004820152600360248201526222999b60e91b604482015260640161116c565b600a5460405163205b0d4f60e01b815273__$6a9ea02bf5ba89f52fb50f06ec914b14fc$__9163205b0d4f9161390591869186918d918f9190600401615e2b565b60006040518083038186803b15801561391d57600080fd5b505af4158015613931573d6000803e3d6000fd5b5050600a805492509050600061394683615a54565b91905055506001600a5461395a9190615a6d565b945050505b50509392505050565b60025460405163eecaee6b60e01b8152600481018690526001600160a01b039091169063eecaee6b9060240160006040518083038186803b1580156139ac57600080fd5b505afa1580156139c0573d6000803e3d6000fd5b505060025460008781526005602052604090819020600b01549051630336ded560e11b81526001600160a01b03909216935063066dbdaa9250613a079133906004016159ea565b60006040518083038186803b158015613a1f57600080fd5b505afa158015613a33573d6000803e3d6000fd5b5050506000858152600560208181526040808420600b810154855260038352818520948a905292909152600154905163a063d29160e01b81526004810189905292935090916001600160a01b039091169063a063d29190602401602060405180830381865afa158015613aaa573d6000803e3d6000fd5b505050506040513d601f19601f82011682018060405250810190613ace9190615cc7565b613aea5760405162461bcd60e51b815260040161116c90615ce4565b8383118015613af857508484115b613b2a5760405162461bcd60e51b815260206004820152600360248201526222991b60e91b604482015260640161116c565b6000805b600e830154811015613bc257816007600085600e018481548110613b5457613b54615c09565b90600052602060002001548152602001908152602001600020600501541115613bb0576007600084600e018381548110613b9057613b90615c09565b906000526020600020015481526020019081526020016000206005015491505b80613bba81615a54565b915050613b2e565b50613bd08787878785614a6b565b60005b600e830154811015613d215760006007600085600e018481548110613bfa57613bfa615c09565b9060005260206000200154815260200190815260200160002060060160006101000a8154816001600160a01b0302191690836001600160a01b0316021790555082600401600001546007600085600e018481548110613c5b57613c5b615c09565b90600052602060002001548152602001908152602001600020600501541080613cbf575082600401600101546007600085600e018481548110613ca057613ca0615c09565b9060005260206000200154815260200190815260200160002060050154115b15613d0f576005830154613cd590600190615a6d565b6007600085600e018481548110613cee57613cee615c09565b90600052602060002001548152602001908152602001600020600501819055505b80613d1981615a54565b915050613bd3565b5060015460405163a39ecd7160e01b8152600481018990526001600160a01b039091169063a39ecd7190602401602060405180830381865afa158015613d6b573d6000803e3d6000fd5b505050506040513d601f19601f82011682018060405250810190613d8f9190615c1f565b6002830181905560405163a06c4b2b60e01b815273__$24c8841b96aa82c356d1ab35d4b0245100$__9163a06c4b2b91613dd091600b880191600401615ac0565b60006040518083038186803b158015613de857600080fd5b505af4158015613dfc573d6000803e3d6000fd5b50505050600791909101805460ff19166005179055505050505050565b600254604051632ab0cc1160e01b8152600481018390526001600160a01b0390911690632ab0cc119060240160006040518083038186803b158015613e5d57600080fd5b505afa158015613e71573d6000803e3d6000fd5b5050600254600084815260076020526040908190206009015490516331f2df7d60e11b81526001600160a01b0390921693506363e5befa9250613eba9160040190815260200190565b60006040518083038186803b158015613ed257600080fd5b505afa158015613ee6573d6000803e3d6000fd5b505060025460008481526007602052604090819020600901549051635b403e1160e11b81526001600160a01b03909216935063b6807c229250613f2d9133906004016159ea565b60006040518083038186803b158015613f4557600080fd5b505afa158015613f59573d6000803e3d6000fd5b50505060009182525060076020526040902060060180546001600160a01b03191633179055565b6001546001600160a01b031615613fa95760405162461bcd60e51b815260040161116c90615c38565b600180546001600160a01b0319166001600160a01b0392909216919091179055565b60025460405163eecaee6b60e01b8152600481018490526001600160a01b039091169063eecaee6b9060240160006040518083038186803b15801561400f57600080fd5b505afa158015614023573d6000803e3d6000fd5b5050505061403082611531565b15614039575050565b6000828152600560209081526040808320848452600990925291829020915162f29d5b60e61b815290919073__$6a9ea02bf5ba89f52fb50f06ec914b14fc$__90633ca756c0906124d290859085908890600401615e5e565b600254604051628aee0160e21b8152600481018790526001600160a01b039091169063022bb8049060240160006040518083038186803b1580156140d557600080fd5b505afa1580156140e9573d6000803e3d6000fd5b5050600254604051630336ded560e11b81526001600160a01b03909116925063066dbdaa915061411f90889033906004016159ea565b60006040518083038186803b15801561413757600080fd5b505afa15801561414b573d6000803e3d6000fd5b5050505060008251116141865760405162461bcd60e51b815260206004820152600360248201526245313960e81b604482015260640161116c565b6000858152600360205260408120908460018111156141a7576141a7615034565b036142b35760005b600c82015481101561424e5760006005600084600c0184815481106141d6576141d6615c09565b6000918252602080832090910154835282019290925260400190206007015460ff16600581111561420957614209615034565b1461423c5760405162461bcd60e51b815260206004820152600360248201526204532360ec1b604482015260640161116c565b8061424681615a54565b9150506141af565b5060405163aa7ebaed60e01b81526004810182905273__$700c4b692048d554c7f19e6c07dafefb0c$__9063aa7ebaed9060240160006040518083038186803b15801561429a57600080fd5b505af41580156142ae573d6000803e3d6000fd5b505050505b60405163f946e60f60e01b815273__$700c4b692048d554c7f19e6c07dafefb0c$__9063f946e60f906142f29084908990899089908990600401615e74565b60006040518083038186803b15801561430a57600080fd5b505af415801561431e573d6000803e3d6000fd5b50505050505050505050565b60096020526000908152604090208054819061434590615a86565b80601f016020809104026020016040519081016040528092919081815260200182805461437190615a86565b80156143be5780601f10614393576101008083540402835291602001916143be565b820191906000526020600020905b8154815290600101906020018083116143a157829003601f168201915b5050505060018301546040805160a08101825260028601546001600160a01b0390811682526003870154602083015260048701549282019290925260058601546060820152600686015460ff90811615156080830152600790960154949591831694600160a01b90930490911692509085565b60025460405163eecaee6b60e01b8152600481018490526001600160a01b039091169063eecaee6b9060240160006040518083038186803b15801561447557600080fd5b505afa158015614489573d6000803e3d6000fd5b505060025460008581526005602052604090819020600b01549051630336ded560e11b81526001600160a01b03909216935063066dbdaa92506144d09133906004016159ea565b60006040518083038186803b1580156144e857600080fd5b505afa1580156144fc573d6000803e3d6000fd5b5050505061450982611531565b15614512575050565b60008281526005602090815260408083208484526009909252918290209151630183c74f60e21b815290919073__$6a9ea02bf5ba89f52fb50f06ec914b14fc$__9063060f1d3c906124d290859085908890600401615e5e565b614574614de7565b6000828152600560205260409081902081516101c0810190925280548290829061459d90615a86565b80601f01602080910402602001604051908101604052809291908181526020018280546145c990615a86565b80156146165780601f106145eb57610100808354040283529160200191614616565b820191906000526020600020905b8154815290600101906020018083116145f957829003601f168201915b5050505050815260200160018201548152602001600282015481526020016003820154815260200160048201604051806060016040529081600082015481526020016001820154815260200160028201548152505081526020016007820160009054906101000a900460ff16600581111561469357614693615034565b60058111156146a4576146a4615034565b81526007820154610100900460ff161515602080830191909152600883018054604080518285028101850182528281529401939283018282801561470757602002820191906000526020600020905b8154815260200190600101908083116146f3575b505050505081526020016009820180548060200260200160405190810160405280929190818152602001828054801561476957602002820191906000526020600020905b81546001600160a01b0316815260019091019060200180831161474b575b50505050508152602001600a82018054806020026020016040519081016040528092919081815260200182805480156147cb57602002820191906000526020600020905b81546001600160a01b031681526001909101906020018083116147ad575b50505050508152602001600b8201548152602001600c8201548152602001600d820180548060200260200160405190810160405280929190818152602001828054801561483757602002820191906000526020600020905b815481526020019060010190808311614823575b50505050508152602001600e820180548060200260200160405190810160405280929190818152602001828054801561210057602002820191906000526020600020908154815260200190600101908083116120ec575050505050815250509050919050565b600081815260056020526040812060048101549091906148bf90610384615b07565b42111561302c5760048201546148d59042615a6d565b905060005b600e8301548110156149935760006007600085600e01848154811061490157614901615c09565b90600052602060002001548152602001908152602001600020905060048081111561492e5761492e615034565b600882015460ff16600481111561494757614947615034565b14158015614961575060068101546001600160a01b031615155b15614980578281600501600082825461497a9190615b07565b90915550505b508061498b81615a54565b9150506148da565b50808260040160010160008282546149ab9190615b07565b90915550506006820180548291906000906149c7908490615b07565b9091555050505050565b60008281526007602052604090206008810180546004919060ff191660018302179055506002808201546009830154600090815260056020526040812090920154606491614a1e91615ace565b614a289190615ae5565b90507f7276e9a9c64e575513db2161e89d0ef6ef0bb7947b55b0667a2a687e7d40b835848483604051614a5d93929190615ec0565b60405180910390a150505050565b6000604051806060016040528073__$1e60a9b757f0cdba0eab1859d8e6de91e8$__636d5433e688600e5442614aa19190615b07565b6040518363ffffffff1660e01b8152600401614abe929190615ac0565b602060405180830381865af4158015614adb573d6000803e3d6000fd5b505050506040513d601f19601f82011682018060405250810190614aff9190615c1f565b815260200173__$1e60a9b757f0cdba0eab1859d8e6de91e8$__636d5433e687614b2a876001615b07565b6040518363ffffffff1660e01b8152600401614b47929190615ac0565b602060405180830381865af4158015614b64573d6000803e3d6000fd5b505050506040513d601f19601f82011682018060405250810190614b889190615c1f565b815260200173__$1e60a9b757f0cdba0eab1859d8e6de91e8$__636d5433e686600f5473__$1e60a9b757f0cdba0eab1859d8e6de91e8$__636d5433e68b8a6001614bd39190615b07565b6040518363ffffffff1660e01b8152600401614bf0929190615ac0565b602060405180830381865af4158015614c0d573d6000803e3d6000fd5b505050506040513d601f19601f82011682018060405250810190614c319190615c1f565b614c3b9190615b07565b6040518363ffffffff1660e01b8152600401614c58929190615ac0565b602060405180830381865af4158015614c75573d6000803e3d6000fd5b505050506040513d601f19601f82011682018060405250810190614c999190615c1f565b90526000968752600560208181526040988990208351600482015590830151918101919091559601516006909601959095555050505050565b604051806101400160405280600081526020016060815260200160008152602001600015158152602001600081526020016000815260200160006001600160a01b031681526020016060815260200160006004811115614d3457614d34615034565b8152602001600081525090565b6040518060a001604052806060815260200160006001600160a01b03168152602001600015158152602001614d34614e7a565b604051806101400160405280606081526020016000815260200160006001811115614da157614da1615034565b815260200160006001600160a01b03168152602001606081526020016060815260200160608152602001614dd3614e7a565b815260200160608152602001606081525090565b604051806101c0016040528060608152602001600081526020016000815260200160008152602001614e3360405180606001604052806000815260200160008152602001600081525090565b815260200160008152602001600015158152602001606081526020016060815260200160608152602001600081526020016000815260200160608152602001606081525090565b6040518060a0016040528060006001600160a01b031681526020016000815260200160008152602001600081526020016000151581525090565b634e487b7160e01b600052604160045260246000fd5b604051601f8201601f191681016001600160401b0381118282101715614ef257614ef2614eb4565b604052919050565b600082601f830112614f0b57600080fd5b81356001600160401b03811115614f2457614f24614eb4565b614f37601f8201601f1916602001614eca565b818152846020838601011115614f4c57600080fd5b816020850160208301376000918101602001919091529392505050565b60008060008060808587031215614f7f57600080fd5b84356001600160401b03811115614f9557600080fd5b614fa187828801614efa565b97602087013597506040870135966060013595509350505050565b600060208284031215614fce57600080fd5b5035919050565b6000815180845260005b81811015614ffb57602081850181015186830182015201614fdf565b506000602082860101526020601f19601f83011685010191505092915050565b8051825260208082015190830152604090810151910152565b634e487b7160e01b600052602160045260246000fd5b6006811061505a5761505a615034565b9052565b60006101608083526150728184018d614fd5565b915050896020830152886040830152876060830152615094608083018861501b565b6150a160e083018761504a565b931515610100820152610120810192909252610140909101529695505050505050565b6002811061505a5761505a615034565b6001600160a01b03169052565b80516001600160a01b031682526020808201519083015260408082015190830152606080820151908301526080908101511515910152565b600061012080835261512d81840189614fd5565b91505085602083015261514360408301866150c4565b6001600160a01b038416606083015261515f60808301846150e1565b9695505050505050565b6000806040838503121561517c57600080fd5b50508035926020909101359150565b6005811061505a5761505a615034565b6020815281516020820152600060208301516101408060408501526151c4610160850183614fd5565b91506040850151606085015260608501516151e3608086018215159052565b50608085015160a085015260a085015160c085015260c085015161520a60e08601826150d4565b5060e0850151610100601f1986850301818701526152288483614fd5565b9350808701519150506101206152408187018361518b565b959095015193019290925250919050565b6020815260008251610120806020850152615270610140850183614fd5565b915060018060a01b03602086015116604085015260408501511515606085015260608501516152a260808601826150e1565b506080949094015192909301919091525090565b8015158114612d7757600080fd5b600080604083850312156152d757600080fd5b8235915060208301356152e9816152b6565b809150509250929050565b600080600080600060a0868803121561530c57600080fd5b85356001600160401b0381111561532257600080fd5b61532e88828901614efa565b955050602086013561533f816152b6565b93506040860135925060608601359150608086013561535d816152b6565b809150509295509295909350565b600081518084526020808501945080840160005b838110156153a45781516001600160a01b03168752958201959082019060010161537f565b509495945050505050565b600081518084526020808501945080840160005b838110156153a4576153d68783516150e1565b60a09690960195908201906001016153c3565b600081518084526020808501945080840160005b838110156153a4578151875295820195908201906001016153fd565b60208152600082516101c08060208501526154386101e0850183614fd5565b915060208501516040850152604085015161545660608601826150c4565b50606085015161546960808601826150d4565b506080850151601f19808685030160a0870152615486848361536b565b935060a08701519150808685030160c08701526154a3848361536b565b935060c08701519150808685030160e08701526154c0848361536b565b935060e087015191506101006154d8818801846150e1565b87015186850382016101a088015291506154f284836153af565b935061012087015191508086850301838701525061515f83826153e9565b6001600160a01b0381168114612d7757600080fd5b60006020828403121561553757600080fd5b813561554281615510565b9392505050565b60006101408c83528060208401526155638184018d614fd5565b604084018c90528a15156060850152608084018a905260a084018990526001600160a01b03881660c085015283810360e085015290506155a38187614fd5565b9150506155b461010083018561518b565b826101208301529b9a5050505050505050505050565b60006001600160401b038211156155e3576155e3614eb4565b5060051b60200190565b600082601f8301126155fe57600080fd5b8135602061561361560e836155ca565b614eca565b82815260059290921b8401810191818101908684111561563257600080fd5b8286015b8481101561565657803561564981615510565b8352918301918301615636565b509695505050505050565b600080600080600060a0868803121561567957600080fd5b85356001600160401b038082111561569057600080fd5b61569c89838a01614efa565b965060208801359150808211156156b257600080fd5b6156be89838a016155ed565b955060408801359150808211156156d457600080fd5b506156e1888289016155ed565b9598949750949560608101359550608001359392505050565b6000806040838503121561570d57600080fd5b8235915060208301356001600160401b0381111561572a57600080fd5b61573685828601614efa565b9150509250929050565b60008060006060848603121561575557600080fd5b8335925060208401356001600160401b0381111561577257600080fd5b61577e86828701614efa565b925050604084013590509250925092565b600080600080608085870312156157a557600080fd5b5050823594602084013594506040840135936060013592509050565b600080600080600060a086880312156157d957600080fd5b8535945060208601356001600160401b03808211156157f757600080fd5b61580389838a01614efa565b9550604088013591506002821061581957600080fd5b9093506060870135908082111561582f57600080fd5b61583b89838a016155ed565b9350608088013591508082111561585157600080fd5b5061585e888289016155ed565b9150509295509295909350565b600061012080835261587f81840189614fd5565b6001600160a01b0388166020850152861515604085015291506158a7905060608301856150e1565b826101008301529695505050505050565b60208152600082516102008060208501526158d7610220850183614fd5565b9150602085015160408501526040850151606085015260608501516080850152608085015161590960a086018261501b565b5060a085015161010061591e8187018361504a565b60c087015191506101206159358188018415159052565b60e08801519250601f196101408189880301818a015261595587866153e9565b9650838a0151945061016093508189880301848a0152615975878661536b565b9650828a0151945061018092508189880301838a0152615995878661536b565b9650808a01519450506101a084818a0152838a01516101c08a0152828a0151945081898803016101e08a01526159cb87866153e9565b9650808a015194505080888703018589015250505061515f83826153e9565b9182526001600160a01b0316602082015260400190565b86815285602082015260c060408201526000615a2060c0830187614fd5565b606083019590955250608081019290925260a0909101529392505050565b634e487b7160e01b600052601160045260246000fd5b600060018201615a6657615a66615a3e565b5060010190565b81810381811115615a8057615a80615a3e565b92915050565b600181811c90821680615a9a57607f821691505b602082108103615aba57634e487b7160e01b600052602260045260246000fd5b50919050565b918252602082015260400190565b8082028115828204841417615a8057615a80615a3e565b600082615b0257634e487b7160e01b600052601260045260246000fd5b500490565b80820180821115615a8057615a80615a3e565b848152608060208201526000615b336080830186614fd5565b9315156040830152506060015292915050565b60008060408385031215615b5957600080fd5b8251615b64816152b6565b6020840151909250600681106152e957600080fd5b60006020808385031215615b8c57600080fd5b82516001600160401b03811115615ba257600080fd5b8301601f81018513615bb357600080fd5b8051615bc161560e826155ca565b81815260059190911b82018301908381019087831115615be057600080fd5b928401925b82841015615bfe57835182529284019290840190615be5565b979650505050505050565b634e487b7160e01b600052603260045260246000fd5b600060208284031215615c3157600080fd5b5051919050565b60208082526003908201526245353160e81b604082015260600190565b86815260c060208201526000615c6e60c0830188614fd5565b8281036040840152615c80818861536b565b90508281036060840152615c94818761536b565b6080840195909552505060a00152949350505050565b60208082526003908201526222989b60e91b604082015260600190565b600060208284031215615cd957600080fd5b8151615542816152b6565b602080825260039082015262114c8d60ea1b604082015260600190565b60208082526003908201526208a62760eb1b604082015260600190565b601f82111561302c57600081815260208120601f850160051c81016020861015615d455750805b601f850160051c820191505b81811015615d6457828155600101615d51565b505050505050565b81516001600160401b03811115615d8557615d85614eb4565b615d9981615d938454615a86565b84615d1e565b602080601f831160018114615dce5760008415615db65750858301515b600019600386901b1c1916600185901b178555615d64565b600085815260208120601f198616915b82811015615dfd57888601518255948401946001909101908401615dde565b5085821015615e1b5787850151600019600388901b60f8161c191681555b5050505050600190811b01905550565b85815284602082015260a060408201526000615e4a60a0830186614fd5565b606083019490945250608001529392505050565b9283526020830191909152604082015260600190565b85815260a060208201526000615e8d60a0830187614fd5565b615e9a60408401876150c4565b8281036060840152615eac818661536b565b90508281036080840152611525818561536b565b838152606060208201526000615ed96060830185614fd5565b905082604083015294935050505056fea2646970667358221220cb5fedbff2f2f42b6c974339b1766ed1a9d0d2e51f10f5fccf6d2f0ce2f1af9364736f6c63430008140033",
    "linkReferences": {
      "contracts/Libraries.sol": {
        "CampaignManager": [
          {
            "start": 3235,
            "length": 20
          },
          {
            "start": 9196,
            "length": 20
          },
          {
            "start": 9509,
            "length": 20
          },
          {
            "start": 17122,
            "length": 20
          },
          {
            "start": 17215,
            "length": 20
          }
        ],
        "FundingsManager": [
          {
            "start": 4716,
            "length": 20
          },
          {
            "start": 6467,
            "length": 20
          },
          {
            "start": 7472,
            "length": 20
          },
          {
            "start": 15906,
            "length": 20
          }
        ],
        "ProjectManager": [
          {
            "start": 5315,
            "length": 20
          },
          {
            "start": 11338,
            "length": 20
          },
          {
            "start": 11547,
            "length": 20
          },
          {
            "start": 14502,
            "length": 20
          },
          {
            "start": 14675,
            "length": 20
          },
          {
            "start": 16611,
            "length": 20
          },
          {
            "start": 17853,
            "length": 20
          }
        ],
        "TaskManager": [
          {
            "start": 2324,
            "length": 20
          }
        ],
        "Utilities": [
          {
            "start": 4887,
            "length": 20
          },
          {
            "start": 5944,
            "length": 20
          },
          {
            "start": 6623,
            "length": 20
          },
          {
            "start": 6991,
            "length": 20
          },
          {
            "start": 12833,
            "length": 20
          },
          {
            "start": 19191,
            "length": 20
          },
          {
            "start": 19331,
            "length": 20
          },
          {
            "start": 19468,
            "length": 20
          },
          {
            "start": 19498,
            "length": 20
          }
        ]
      }
    }
  },
  "methodIdentifiers": {
    "applicationCount()": "e2aad4a0",
    "applicationDecision(uint256,bool)": "9d709c5f",
    "applications(uint256)": "dfefadff",
    "applyToProject(uint256,string,uint256)": "9eec3654",
    "campaignCount()": "7274e30d",
    "campaigns(uint256)": "141961bc",
    "checkerMasterAddress()": "e4ffeeb6",
    "closeProject(uint256)": "93dc12e6",
    "contractMaster()": "18b952f6",
    "contractMasterDrain()": "9688008d",
    "enrolStake()": "c4e60c33",
    "fireWorker(uint256,uint256)": "e3fc3499",
    "fundCampaign(uint256,uint256)": "918eab15",
    "getApplication(uint256)": "1f2f4bfd",
    "getCampaign(uint256)": "5598f8cc",
    "getDecisionTimes()": "aa15d5f0",
    "getProject(uint256)": "f0f3f2c8",
    "getTask(uint256)": "1d65e77e",
    "goToSettledStatus(uint256,uint256,uint256,uint256)": "a7be3ba0",
    "makeCampaign(string,address[],address[],uint256,uint256)": "915a4042",
    "makeProject(string,bool,uint256,uint256,bool)": "4a502233",
    "makeTask(string,uint256,uint256,uint256)": "00c374cd",
    "minOpenCampaignStake()": "a3e366f0",
    "minStake()": "375b3c0a",
    "minimumGateTime()": "fa555842",
    "minimumSettledTime()": "73b9a5b3",
    "new_statusFixer(uint256)": "4fba1d13",
    "projectCount()": "36fbad26",
    "projects(uint256)": "107046bd",
    "raiseDeclinedSubmissionDispute(uint256,string)": "982260cf",
    "refundOwnFunding(uint256,uint256)": "14271492",
    "setCheckerMasterAddress(address)": "86e45559",
    "setUpdateMasterAddress(address)": "bcd6f795",
    "submissionDecision(uint256,bool)": "33e2f1e9",
    "submitSubmission(uint256,string)": "97b1ede0",
    "taskCount()": "b6cb58a5",
    "taskSubmissionDecisionDisputeTime()": "762f485b",
    "taskSubmissionDecisionTime()": "e0a6926a",
    "tasks(uint256)": "8d977672",
    "updateCampaign(uint256,string,uint8,address[],address[])": "db08fe76",
    "updateMasterAddress()": "5c30337a",
    "workerDropOut(uint256,uint256)": "d6200404",
    "workerEnrolNoApplication(uint256,uint256)": "94fe52a8",
    "workerSelfAssignsTask(uint256)": "a87f224c"
  },
  "id": 5
}