{
  "abi": [
    {
      "inputs": [],
      "stateMutability": "payable",
      "type": "constructor"
    },
    {
      "anonymous": false,
      "inputs": [
        {
          "indexed": false,
          "internalType": "uint256",
          "name": "_id",
          "type": "uint256"
        },
        {
          "indexed": false,
          "internalType": "string",
          "name": "_metadata",
          "type": "string"
        },
        {
          "indexed": false,
          "internalType": "uint256",
          "name": "_taskReward",
          "type": "uint256"
        }
      ],
      "name": "Dispute",
      "type": "event"
    },
    {
      "stateMutability": "payable",
      "type": "fallback"
    },
    {
      "inputs": [],
      "name": "applicationCount",
      "outputs": [
        {
          "internalType": "uint256",
          "name": "",
          "type": "uint256"
        }
      ],
      "stateMutability": "view",
      "type": "function"
    },
    {
      "inputs": [
        {
          "internalType": "uint256",
          "name": "_applicationID",
          "type": "uint256"
        },
        {
          "internalType": "bool",
          "name": "_accepted",
          "type": "bool"
        }
      ],
      "name": "applicationDecision",
      "outputs": [],
      "stateMutability": "nonpayable",
      "type": "function"
    },
    {
      "inputs": [
        {
          "internalType": "uint256",
          "name": "",
          "type": "uint256"
        }
      ],
      "name": "applications",
      "outputs": [
        {
          "internalType": "string",
          "name": "metadata",
          "type": "string"
        },
        {
          "internalType": "address",
          "name": "applicant",
          "type": "address"
        },
        {
          "internalType": "bool",
          "name": "accepted",
          "type": "bool"
        },
        {
          "components": [
            {
              "internalType": "address payable",
              "name": "funder",
              "type": "address"
            },
            {
              "internalType": "uint256",
              "name": "funding",
              "type": "uint256"
            },
            {
              "internalType": "uint256",
              "name": "amountUsed",
              "type": "uint256"
            },
            {
              "internalType": "uint256",
              "name": "amountLocked",
              "type": "uint256"
            },
            {
              "internalType": "bool",
              "name": "fullyRefunded",
              "type": "bool"
            }
          ],
          "internalType": "struct FundingsManager.Fundings",
          "name": "enrolStake",
          "type": "tuple"
        },
        {
          "internalType": "uint256",
          "name": "parentProject",
          "type": "uint256"
        }
      ],
      "stateMutability": "view",
      "type": "function"
    },
    {
      "inputs": [
        {
          "internalType": "uint256",
          "name": "_projectID",
          "type": "uint256"
        },
        {
          "internalType": "string",
          "name": "_metadata",
          "type": "string"
        },
        {
          "internalType": "uint256",
          "name": "_stake",
          "type": "uint256"
        }
      ],
      "name": "applyToProject",
      "outputs": [
        {
          "internalType": "uint256",
          "name": "",
          "type": "uint256"
        }
      ],
      "stateMutability": "payable",
      "type": "function"
    },
    {
      "inputs": [],
      "name": "campaignCount",
      "outputs": [
        {
          "internalType": "uint256",
          "name": "",
          "type": "uint256"
        }
      ],
      "stateMutability": "view",
      "type": "function"
    },
    {
      "inputs": [
        {
          "internalType": "uint256",
          "name": "",
          "type": "uint256"
        }
      ],
      "name": "campaigns",
      "outputs": [
        {
          "internalType": "string",
          "name": "metadata",
          "type": "string"
        },
        {
          "internalType": "uint256",
          "name": "creationTime",
          "type": "uint256"
        },
        {
          "internalType": "enum CampaignManager.CampaignStatus",
          "name": "status",
          "type": "uint8"
        },
        {
          "internalType": "address payable",
          "name": "creator",
          "type": "address"
        },
        {
          "components": [
            {
              "internalType": "address payable",
              "name": "funder",
              "type": "address"
            },
            {
              "internalType": "uint256",
              "name": "funding",
              "type": "uint256"
            },
            {
              "internalType": "uint256",
              "name": "amountUsed",
              "type": "uint256"
            },
            {
              "internalType": "uint256",
              "name": "amountLocked",
              "type": "uint256"
            },
            {
              "internalType": "bool",
              "name": "fullyRefunded",
              "type": "bool"
            }
          ],
          "internalType": "struct FundingsManager.Fundings",
          "name": "stake",
          "type": "tuple"
        }
      ],
      "stateMutability": "view",
      "type": "function"
    },
    {
      "inputs": [],
      "name": "checkerMasterAddress",
      "outputs": [
        {
          "internalType": "address",
          "name": "",
          "type": "address"
        }
      ],
      "stateMutability": "view",
      "type": "function"
    },
    {
      "inputs": [
        {
          "internalType": "uint256",
          "name": "_projectID",
          "type": "uint256"
        }
      ],
      "name": "closeProject",
      "outputs": [],
      "stateMutability": "nonpayable",
      "type": "function"
    },
    {
      "inputs": [],
      "name": "contractMaster",
      "outputs": [
        {
          "internalType": "address",
          "name": "",
          "type": "address"
        }
      ],
      "stateMutability": "view",
      "type": "function"
    },
    {
      "inputs": [],
      "name": "contractMasterDrain",
      "outputs": [],
      "stateMutability": "nonpayable",
      "type": "function"
    },
    {
      "inputs": [],
      "name": "enrolStake",
      "outputs": [
        {
          "internalType": "uint256",
          "name": "",
          "type": "uint256"
        }
      ],
      "stateMutability": "view",
      "type": "function"
    },
    {
      "inputs": [
        {
          "internalType": "uint256",
          "name": "_projectId",
          "type": "uint256"
        },
        {
          "internalType": "uint256",
          "name": "_applicationId",
          "type": "uint256"
        }
      ],
      "name": "fireWorker",
      "outputs": [],
      "stateMutability": "nonpayable",
      "type": "function"
    },
    {
      "inputs": [
        {
          "internalType": "uint256",
          "name": "_campaignID",
          "type": "uint256"
        },
        {
          "internalType": "uint256",
          "name": "_funding",
          "type": "uint256"
        }
      ],
      "name": "fundCampaign",
      "outputs": [],
      "stateMutability": "payable",
      "type": "function"
    },
    {
      "inputs": [
        {
          "internalType": "uint256",
          "name": "_applicationID",
          "type": "uint256"
        }
      ],
      "name": "getApplication",
      "outputs": [
        {
          "components": [
            {
              "internalType": "string",
              "name": "metadata",
              "type": "string"
            },
            {
              "internalType": "address",
              "name": "applicant",
              "type": "address"
            },
            {
              "internalType": "bool",
              "name": "accepted",
              "type": "bool"
            },
            {
              "components": [
                {
                  "internalType": "address payable",
                  "name": "funder",
                  "type": "address"
                },
                {
                  "internalType": "uint256",
                  "name": "funding",
                  "type": "uint256"
                },
                {
                  "internalType": "uint256",
                  "name": "amountUsed",
                  "type": "uint256"
                },
                {
                  "internalType": "uint256",
                  "name": "amountLocked",
                  "type": "uint256"
                },
                {
                  "internalType": "bool",
                  "name": "fullyRefunded",
                  "type": "bool"
                }
              ],
              "internalType": "struct FundingsManager.Fundings",
              "name": "enrolStake",
              "type": "tuple"
            },
            {
              "internalType": "uint256",
              "name": "parentProject",
              "type": "uint256"
            }
          ],
          "internalType": "struct ProjectManager.Application",
          "name": "",
          "type": "tuple"
        }
      ],
      "stateMutability": "view",
      "type": "function"
    },
    {
      "inputs": [
        {
          "internalType": "uint256",
          "name": "_campaignID",
          "type": "uint256"
        }
      ],
      "name": "getCampaign",
      "outputs": [
        {
          "components": [
            {
              "internalType": "string",
              "name": "metadata",
              "type": "string"
            },
            {
              "internalType": "uint256",
              "name": "creationTime",
              "type": "uint256"
            },
            {
              "internalType": "enum CampaignManager.CampaignStatus",
              "name": "status",
              "type": "uint8"
            },
            {
              "internalType": "address payable",
              "name": "creator",
              "type": "address"
            },
            {
              "internalType": "address payable[]",
              "name": "owners",
              "type": "address[]"
            },
            {
              "internalType": "address payable[]",
              "name": "acceptors",
              "type": "address[]"
            },
            {
              "internalType": "address payable[]",
              "name": "allTimeStakeholders",
              "type": "address[]"
            },
            {
              "components": [
                {
                  "internalType": "address payable",
                  "name": "funder",
                  "type": "address"
                },
                {
                  "internalType": "uint256",
                  "name": "funding",
                  "type": "uint256"
                },
                {
                  "internalType": "uint256",
                  "name": "amountUsed",
                  "type": "uint256"
                },
                {
                  "internalType": "uint256",
                  "name": "amountLocked",
                  "type": "uint256"
                },
                {
                  "internalType": "bool",
                  "name": "fullyRefunded",
                  "type": "bool"
                }
              ],
              "internalType": "struct FundingsManager.Fundings",
              "name": "stake",
              "type": "tuple"
            },
            {
              "components": [
                {
                  "internalType": "address payable",
                  "name": "funder",
                  "type": "address"
                },
                {
                  "internalType": "uint256",
                  "name": "funding",
                  "type": "uint256"
                },
                {
                  "internalType": "uint256",
                  "name": "amountUsed",
                  "type": "uint256"
                },
                {
                  "internalType": "uint256",
                  "name": "amountLocked",
                  "type": "uint256"
                },
                {
                  "internalType": "bool",
                  "name": "fullyRefunded",
                  "type": "bool"
                }
              ],
              "internalType": "struct FundingsManager.Fundings[]",
              "name": "fundings",
              "type": "tuple[]"
            },
            {
              "internalType": "uint256[]",
              "name": "directChildProjects",
              "type": "uint256[]"
            }
          ],
          "internalType": "struct CampaignManager.Campaign",
          "name": "",
          "type": "tuple"
        }
      ],
      "stateMutability": "view",
      "type": "function"
    },
    {
      "inputs": [],
      "name": "getDecisionTimes",
      "outputs": [
        {
          "internalType": "uint256",
          "name": "",
          "type": "uint256"
        },
        {
          "internalType": "uint256",
          "name": "",
          "type": "uint256"
        },
        {
          "internalType": "uint256",
          "name": "",
          "type": "uint256"
        },
        {
          "internalType": "uint256",
          "name": "",
          "type": "uint256"
        }
      ],
      "stateMutability": "view",
      "type": "function"
    },
    {
      "inputs": [
        {
          "internalType": "uint256",
          "name": "_projectID",
          "type": "uint256"
        }
      ],
      "name": "getProject",
      "outputs": [
        {
          "components": [
            {
              "internalType": "string",
              "name": "metadata",
              "type": "string"
            },
            {
              "internalType": "uint256",
              "name": "weight",
              "type": "uint256"
            },
            {
              "internalType": "uint256",
              "name": "reward",
              "type": "uint256"
            },
            {
              "internalType": "uint256",
              "name": "creationTime",
              "type": "uint256"
            },
            {
              "components": [
                {
                  "internalType": "uint256",
                  "name": "startStageTimestamp",
                  "type": "uint256"
                },
                {
                  "internalType": "uint256",
                  "name": "startGateTimestamp",
                  "type": "uint256"
                },
                {
                  "internalType": "uint256",
                  "name": "startSettledTimestamp",
                  "type": "uint256"
                }
              ],
              "internalType": "struct ProjectManager.NextMilestone",
              "name": "nextMilestone",
              "type": "tuple"
            },
            {
              "internalType": "enum ProjectManager.ProjectStatus",
              "name": "status",
              "type": "uint8"
            },
            {
              "internalType": "bool",
              "name": "applicationRequired",
              "type": "bool"
            },
            {
              "internalType": "uint256[]",
              "name": "applications",
              "type": "uint256[]"
            },
            {
              "internalType": "address[]",
              "name": "workers",
              "type": "address[]"
            },
            {
              "internalType": "address[]",
              "name": "pastWorkers",
              "type": "address[]"
            },
            {
              "internalType": "uint256",
              "name": "parentCampaign",
              "type": "uint256"
            },
            {
              "internalType": "uint256",
              "name": "parentProject",
              "type": "uint256"
            },
            {
              "internalType": "uint256[]",
              "name": "childProjects",
              "type": "uint256[]"
            },
            {
              "internalType": "uint256[]",
              "name": "childTasks",
              "type": "uint256[]"
            }
          ],
          "internalType": "struct ProjectManager.Project",
          "name": "",
          "type": "tuple"
        }
      ],
      "stateMutability": "view",
      "type": "function"
    },
    {
      "inputs": [
        {
          "internalType": "uint256",
          "name": "_taskID",
          "type": "uint256"
        }
      ],
      "name": "getTask",
      "outputs": [
        {
          "components": [
            {
              "internalType": "uint256",
              "name": "id",
              "type": "uint256"
            },
            {
              "internalType": "string",
              "name": "metadata",
              "type": "string"
            },
            {
              "internalType": "uint256",
              "name": "weight",
              "type": "uint256"
            },
            {
              "internalType": "bool",
              "name": "paid",
              "type": "bool"
            },
            {
              "internalType": "uint256",
              "name": "creationTime",
              "type": "uint256"
            },
            {
              "internalType": "uint256",
              "name": "deadline",
              "type": "uint256"
            },
            {
              "internalType": "address payable",
              "name": "worker",
              "type": "address"
            },
            {
              "internalType": "string",
              "name": "submission",
              "type": "string"
            },
            {
              "internalType": "enum TaskManager.SubmissionStatus",
              "name": "submissionStatus",
              "type": "uint8"
            },
            {
              "internalType": "uint256",
              "name": "parentProject",
              "type": "uint256"
            }
          ],
          "internalType": "struct TaskManager.Task",
          "name": "",
          "type": "tuple"
        }
      ],
      "stateMutability": "view",
      "type": "function"
    },
    {
      "inputs": [
        {
          "internalType": "uint256",
          "name": "_projectID",
          "type": "uint256"
        },
        {
          "internalType": "uint256",
          "name": "_nextStageStartTimestamp",
          "type": "uint256"
        },
        {
          "internalType": "uint256",
          "name": "_nextGateStartTimestamp",
          "type": "uint256"
        },
        {
          "internalType": "uint256",
          "name": "_nextSettledStartTimestamp",
          "type": "uint256"
        }
      ],
      "name": "goToSettledStatus",
      "outputs": [],
      "stateMutability": "nonpayable",
      "type": "function"
    },
    {
      "inputs": [
        {
          "internalType": "string",
          "name": "_metadata",
          "type": "string"
        },
        {
          "internalType": "address payable[]",
          "name": "_owners",
          "type": "address[]"
        },
        {
          "internalType": "address payable[]",
          "name": "_acceptors",
          "type": "address[]"
        },
        {
          "internalType": "uint256",
          "name": "_stake",
          "type": "uint256"
        },
        {
          "internalType": "uint256",
          "name": "_funding",
          "type": "uint256"
        }
      ],
      "name": "makeCampaign",
      "outputs": [
        {
          "internalType": "uint256",
          "name": "",
          "type": "uint256"
        }
      ],
      "stateMutability": "payable",
      "type": "function"
    },
    {
      "inputs": [
        {
          "internalType": "string",
          "name": "_metadata",
          "type": "string"
        },
        {
          "internalType": "bool",
          "name": "_applicationRequired",
          "type": "bool"
        },
        {
          "internalType": "uint256",
          "name": "_parentCampaignId",
          "type": "uint256"
        },
        {
          "internalType": "uint256",
          "name": "_parentProjectId",
          "type": "uint256"
        },
        {
          "internalType": "bool",
          "name": "_topLevel",
          "type": "bool"
        }
      ],
      "name": "makeProject",
      "outputs": [
        {
          "internalType": "uint256",
          "name": "",
          "type": "uint256"
        }
      ],
      "stateMutability": "nonpayable",
      "type": "function"
    },
    {
      "inputs": [
        {
          "internalType": "string",
          "name": "_metadata",
          "type": "string"
        },
        {
          "internalType": "uint256",
          "name": "weight",
          "type": "uint256"
        },
        {
          "internalType": "uint256",
          "name": "_deadline",
          "type": "uint256"
        },
        {
          "internalType": "uint256",
          "name": "_parentProjectID",
          "type": "uint256"
        }
      ],
      "name": "makeTask",
      "outputs": [
        {
          "internalType": "uint256",
          "name": "",
          "type": "uint256"
        }
      ],
      "stateMutability": "nonpayable",
      "type": "function"
    },
    {
      "inputs": [],
      "name": "minOpenCampaignStake",
      "outputs": [
        {
          "internalType": "uint256",
          "name": "",
          "type": "uint256"
        }
      ],
      "stateMutability": "view",
      "type": "function"
    },
    {
      "inputs": [],
      "name": "minStake",
      "outputs": [
        {
          "internalType": "uint256",
          "name": "",
          "type": "uint256"
        }
      ],
      "stateMutability": "view",
      "type": "function"
    },
    {
      "inputs": [],
      "name": "minimumGateTime",
      "outputs": [
        {
          "internalType": "uint256",
          "name": "",
          "type": "uint256"
        }
      ],
      "stateMutability": "view",
      "type": "function"
    },
    {
      "inputs": [],
      "name": "minimumSettledTime",
      "outputs": [
        {
          "internalType": "uint256",
          "name": "",
          "type": "uint256"
        }
      ],
      "stateMutability": "view",
      "type": "function"
    },
    {
      "inputs": [
        {
          "internalType": "uint256",
          "name": "_projectID",
          "type": "uint256"
        }
      ],
      "name": "new_statusFixer",
      "outputs": [
        {
          "internalType": "bool",
          "name": "updated",
          "type": "bool"
        }
      ],
      "stateMutability": "nonpayable",
      "type": "function"
    },
    {
      "inputs": [],
      "name": "projectCount",
      "outputs": [
        {
          "internalType": "uint256",
          "name": "",
          "type": "uint256"
        }
      ],
      "stateMutability": "view",
      "type": "function"
    },
    {
      "inputs": [
        {
          "internalType": "uint256",
          "name": "",
          "type": "uint256"
        }
      ],
      "name": "projects",
      "outputs": [
        {
          "internalType": "string",
          "name": "metadata",
          "type": "string"
        },
        {
          "internalType": "uint256",
          "name": "weight",
          "type": "uint256"
        },
        {
          "internalType": "uint256",
          "name": "reward",
          "type": "uint256"
        },
        {
          "internalType": "uint256",
          "name": "creationTime",
          "type": "uint256"
        },
        {
          "components": [
            {
              "internalType": "uint256",
              "name": "startStageTimestamp",
              "type": "uint256"
            },
            {
              "internalType": "uint256",
              "name": "startGateTimestamp",
              "type": "uint256"
            },
            {
              "internalType": "uint256",
              "name": "startSettledTimestamp",
              "type": "uint256"
            }
          ],
          "internalType": "struct ProjectManager.NextMilestone",
          "name": "nextMilestone",
          "type": "tuple"
        },
        {
          "internalType": "enum ProjectManager.ProjectStatus",
          "name": "status",
          "type": "uint8"
        },
        {
          "internalType": "bool",
          "name": "applicationRequired",
          "type": "bool"
        },
        {
          "internalType": "uint256",
          "name": "parentCampaign",
          "type": "uint256"
        },
        {
          "internalType": "uint256",
          "name": "parentProject",
          "type": "uint256"
        }
      ],
      "stateMutability": "view",
      "type": "function"
    },
    {
      "inputs": [
        {
          "internalType": "uint256",
          "name": "_taskID",
          "type": "uint256"
        },
        {
          "internalType": "string",
          "name": "_metadata",
          "type": "string"
        }
      ],
      "name": "raiseDeclinedSubmissionDispute",
      "outputs": [],
      "stateMutability": "nonpayable",
      "type": "function"
    },
    {
      "inputs": [
        {
          "internalType": "uint256",
          "name": "_campaignID",
          "type": "uint256"
        },
        {
          "internalType": "uint256",
          "name": "_fundingID",
          "type": "uint256"
        }
      ],
      "name": "refundOwnFunding",
      "outputs": [],
      "stateMutability": "nonpayable",
      "type": "function"
    },
    {
      "inputs": [
        {
          "internalType": "address",
          "name": "_checkerMasterAddress",
          "type": "address"
        }
      ],
      "name": "setCheckerMasterAddress",
      "outputs": [],
      "stateMutability": "nonpayable",
      "type": "function"
    },
    {
      "inputs": [
        {
          "internalType": "address",
          "name": "_updateMasterAddress",
          "type": "address"
        }
      ],
      "name": "setUpdateMasterAddress",
      "outputs": [],
      "stateMutability": "nonpayable",
      "type": "function"
    },
    {
      "inputs": [
        {
          "internalType": "uint256",
          "name": "_taskID",
          "type": "uint256"
        },
        {
          "internalType": "bool",
          "name": "_accepted",
          "type": "bool"
        }
      ],
      "name": "submissionDecision",
      "outputs": [],
      "stateMutability": "nonpayable",
      "type": "function"
    },
    {
      "inputs": [
        {
          "internalType": "uint256",
          "name": "_taskID",
          "type": "uint256"
        },
        {
          "internalType": "string",
          "name": "_metadata",
          "type": "string"
        }
      ],
      "name": "submitSubmission",
      "outputs": [],
      "stateMutability": "nonpayable",
      "type": "function"
    },
    {
      "inputs": [],
      "name": "taskCount",
      "outputs": [
        {
          "internalType": "uint256",
          "name": "",
          "type": "uint256"
        }
      ],
      "stateMutability": "view",
      "type": "function"
    },
    {
      "inputs": [],
      "name": "taskSubmissionDecisionDisputeTime",
      "outputs": [
        {
          "internalType": "uint256",
          "name": "",
          "type": "uint256"
        }
      ],
      "stateMutability": "view",
      "type": "function"
    },
    {
      "inputs": [],
      "name": "taskSubmissionDecisionTime",
      "outputs": [
        {
          "internalType": "uint256",
          "name": "",
          "type": "uint256"
        }
      ],
      "stateMutability": "view",
      "type": "function"
    },
    {
      "inputs": [
        {
          "internalType": "uint256",
          "name": "",
          "type": "uint256"
        }
      ],
      "name": "tasks",
      "outputs": [
        {
          "internalType": "uint256",
          "name": "id",
          "type": "uint256"
        },
        {
          "internalType": "string",
          "name": "metadata",
          "type": "string"
        },
        {
          "internalType": "uint256",
          "name": "weight",
          "type": "uint256"
        },
        {
          "internalType": "bool",
          "name": "paid",
          "type": "bool"
        },
        {
          "internalType": "uint256",
          "name": "creationTime",
          "type": "uint256"
        },
        {
          "internalType": "uint256",
          "name": "deadline",
          "type": "uint256"
        },
        {
          "internalType": "address payable",
          "name": "worker",
          "type": "address"
        },
        {
          "internalType": "string",
          "name": "submission",
          "type": "string"
        },
        {
          "internalType": "enum TaskManager.SubmissionStatus",
          "name": "submissionStatus",
          "type": "uint8"
        },
        {
          "internalType": "uint256",
          "name": "parentProject",
          "type": "uint256"
        }
      ],
      "stateMutability": "view",
      "type": "function"
    },
    {
      "inputs": [
        {
          "internalType": "uint256",
          "name": "_campaignID",
          "type": "uint256"
        },
        {
          "internalType": "string",
          "name": "_metadata",
          "type": "string"
        },
        {
          "internalType": "enum CampaignManager.CampaignStatus",
          "name": "_status",
          "type": "uint8"
        },
        {
          "internalType": "address payable[]",
          "name": "_owners",
          "type": "address[]"
        },
        {
          "internalType": "address payable[]",
          "name": "_acceptors",
          "type": "address[]"
        }
      ],
      "name": "updateCampaign",
      "outputs": [],
      "stateMutability": "nonpayable",
      "type": "function"
    },
    {
      "inputs": [],
      "name": "updateMasterAddress",
      "outputs": [
        {
          "internalType": "address",
          "name": "",
          "type": "address"
        }
      ],
      "stateMutability": "view",
      "type": "function"
    },
    {
      "inputs": [
        {
          "internalType": "uint256",
          "name": "_projectId",
          "type": "uint256"
        },
        {
          "internalType": "uint256",
          "name": "_applicationId",
          "type": "uint256"
        }
      ],
      "name": "workerDropOut",
      "outputs": [],
      "stateMutability": "nonpayable",
      "type": "function"
    },
    {
      "inputs": [
        {
          "internalType": "uint256",
          "name": "_projectID",
          "type": "uint256"
        },
        {
          "internalType": "uint256",
          "name": "_stake",
          "type": "uint256"
        }
      ],
      "name": "workerEnrolNoApplication",
      "outputs": [
        {
          "internalType": "uint256",
          "name": "",
          "type": "uint256"
        }
      ],
      "stateMutability": "payable",
      "type": "function"
    },
    {
      "inputs": [
        {
          "internalType": "uint256",
          "name": "_taskID",
          "type": "uint256"
        }
      ],
      "name": "workerSelfAssignsTask",
      "outputs": [],
      "stateMutability": "nonpayable",
      "type": "function"
    },
    {
      "stateMutability": "payable",
      "type": "receive"
    }
  ],
  "bytecode": {
    "object": "0x6080604052600180546001600160a01b031990811682556002805482169055600482905560068290556008919091556608e1bc9bf04000600b8190556658d15e17628000600c55600d5562015180600e81905562034bc0600f556010556202a3006011556000805490911633179055615f448061007d6000396000f3fe6080604052600436106101f75760003560e01c8062c374cd14610200578063107046bd14610233578063141961bc14610268578063142714921461029957806318b952f6146102b95780631d65e77e146102f15780631f2f4bfd1461031e57806333e2f1e91461034b57806336fbad261461036b578063375b3c0a146103815780634a502233146103975780634fba1d13146103b75780635598f8cc146103e75780635c30337a146104145780637274e30d1461043457806373b9a5b31461044a578063762f485b1461046057806386e45559146104765780638d97767214610496578063915a4042146104cc578063918eab15146104df57806393dc12e6146104f257806394fe52a8146105125780639688008d1461052557806397b1ede01461053a578063982260cf1461055a5780639d709c5f1461057a5780639eec36541461059a578063a3e366f0146105ad578063a7be3ba0146105c3578063a87f224c146105e3578063aa15d5f014610603578063b6cb58a51461063c578063bcd6f79514610652578063c4e60c3314610672578063d620040414610688578063db08fe76146106a8578063dfefadff146106c8578063e0a6926a146106f9578063e2aad4a01461070f578063e3fc349914610725578063e4ffeeb614610745578063f0f3f2c814610765578063fa5558421461079257005b366101fe57005b005b34801561020c57600080fd5b5061022061021b366004614f8e565b6107a8565b6040519081526020015b60405180910390f35b34801561023f57600080fd5b5061025361024e366004614fe1565b61094d565b60405161022a99989796959493929190615083565b34801561027457600080fd5b50610288610283366004614fe1565b610a46565b60405161022a95949392919061513e565b3480156102a557600080fd5b506101fe6102b436600461518e565b610b49565b3480156102c557600080fd5b506000546102d9906001600160a01b031681565b6040516001600160a01b03909116815260200161022a565b3480156102fd57600080fd5b5061031161030c366004614fe1565b610c85565b60405161022a91906151c0565b34801561032a57600080fd5b5061033e610339366004614fe1565b610e62565b60405161022a9190615276565b34801561035757600080fd5b506101fe6103663660046152e9565b610f9e565b34801561037757600080fd5b5061022060065481565b34801561038d57600080fd5b50610220600b5481565b3480156103a357600080fd5b506102206103b2366004615319565b611313565b3480156103c357600080fd5b506103d76103d2366004614fe1565b611531565b604051901515815260200161022a565b3480156103f357600080fd5b50610407610402366004614fe1565b611da2565b60405161022a919061543e565b34801561042057600080fd5b506001546102d9906001600160a01b031681565b34801561044057600080fd5b5061022060045481565b34801561045657600080fd5b50610220600e5481565b34801561046c57600080fd5b5061022060115481565b34801561048257600080fd5b506101fe61049136600461554a565b612110565b3480156104a257600080fd5b506104b66104b1366004614fe1565b61215b565b60405161022a9a9998979695949392919061556e565b6102206104da366004615686565b6122d1565b6101fe6104ed36600461518e565b612401565b3480156104fe57600080fd5b506101fe61050d366004614fe1565b612508565b61022061052036600461518e565b61267b565b34801561053157600080fd5b506101fe612d2a565b34801561054657600080fd5b506101fe61055536600461571f565b612d99565b34801561056657600080fd5b506101fe61057536600461571f565b612f09565b34801561058657600080fd5b506101fe6105953660046152e9565b613050565b6102206105a8366004615765565b6132fd565b3480156105b957600080fd5b50610220600c5481565b3480156105cf57600080fd5b506101fe6105de3660046157b4565b61398d565b3480156105ef57600080fd5b506101fe6105fe366004614fe1565b613e3e565b34801561060f57600080fd5b50600f54601054601154600e5460408051948552602085019390935291830152606082015260800161022a565b34801561064857600080fd5b5061022060085481565b34801561065e57600080fd5b506101fe61066d36600461554a565b613fa5565b34801561067e57600080fd5b50610220600d5481565b34801561069457600080fd5b506101fe6106a336600461518e565b613ff0565b3480156106b457600080fd5b506101fe6106c33660046157e6565b6140b7565b3480156106d457600080fd5b506106e86106e3366004614fe1565b61434f565b60405161022a959493929190615890565b34801561070557600080fd5b5061022060105481565b34801561071b57600080fd5b50610220600a5481565b34801561073157600080fd5b506101fe61074036600461518e565b614456565b34801561075157600080fd5b506002546102d9906001600160a01b031681565b34801561077157600080fd5b50610785610780366004614fe1565b614591565b60405161022a91906158dd565b34801561079e57600080fd5b50610220600f5481565b60025460405163eecaee6b60e01b8152600481018390526000916001600160a01b03169063eecaee6b9060240160006040518083038186803b1580156107ed57600080fd5b505afa158015610801573d6000803e3d6000fd5b505060025460008581526005602052604090819020600b01549051630336ded560e11b81526001600160a01b03909216935063066dbdaa9250610848913390600401615a0f565b60006040518083038186803b15801561086057600080fd5b505afa158015610874573d6000803e3d6000fd5b50506008546000818152600760205260409081902090516341a3ed9b60e01b815273__$1b22f169710f1ae88b968a711088e82344$__94506341a3ed9b93506108c892908a908a908a908a90600401615a26565b60006040518083038186803b1580156108e057600080fd5b505af41580156108f4573d6000803e3d6000fd5b5050506000838152600560209081526040822060088054600e909201805460018101825590855292842090920155805492509061093083615a79565b919050555060016008546109449190615a92565b95945050505050565b60056020526000908152604090208054819061096890615aab565b80601f016020809104026020016040519081016040528092919081815260200182805461099490615aab565b80156109e15780601f106109b6576101008083540402835291602001916109e1565b820191906000526020600020905b8154815290600101906020018083116109c457829003601f168201915b5050506001840154600285015460038601546040805160608101825260048901548152600589015460208201526006890154918101919091526007880154600b890154600c90990154979894979396509194509260ff80831693610100909304169189565b600360205260009081526040902080548190610a6190615aab565b80601f0160208091040260200160405190810160405280929190818152602001828054610a8d90615aab565b8015610ada5780601f10610aaf57610100808354040283529160200191610ada565b820191906000526020600020905b815481529060010190602001808311610abd57829003601f168201915b505050600184015460028501546040805160a08101825260068801546001600160a01b0390811682526007890154602083015260088901549282019290925260098801546060820152600a9097015460ff90811615156080890152959692958216945061010090910416915085565b600254604051628aee0160e21b8152600481018490526001600160a01b039091169063022bb8049060240160006040518083038186803b158015610b8c57600080fd5b505afa158015610ba0573d6000803e3d6000fd5b505060025460405163206ca5a360e21b81526001600160a01b0390911692506381b2968c9150610bd69085903390600401615a0f565b60006040518083038186803b158015610bee57600080fd5b505afa158015610c02573d6000803e3d6000fd5b50505060008381526003602052604090819020905163427d15e760e01b815290915073__$700c4b692048d554c7f19e6c07dafefb0c$__9063427d15e790610c509084908690600401615ae5565b60006040518083038186803b158015610c6857600080fd5b505af4158015610c7c573d6000803e3d6000fd5b50505050505050565b610c8d614cf7565b600760008381526020019081526020016000206040518061014001604052908160008201548152602001600182018054610cc690615aab565b80601f0160208091040260200160405190810160405280929190818152602001828054610cf290615aab565b8015610d3f5780601f10610d1457610100808354040283529160200191610d3f565b820191906000526020600020905b815481529060010190602001808311610d2257829003601f168201915b505050918352505060028201546020820152600382015460ff1615156040820152600482015460608201526005820154608082015260068201546001600160a01b031660a082015260078201805460c090920191610d9c90615aab565b80601f0160208091040260200160405190810160405280929190818152602001828054610dc890615aab565b8015610e155780601f10610dea57610100808354040283529160200191610e15565b820191906000526020600020905b815481529060010190602001808311610df857829003601f168201915b5050509183525050600882015460209091019060ff166004811115610e3c57610e3c615059565b6004811115610e4d57610e4d615059565b81526020016009820154815250509050919050565b610e6a614d66565b60008281526009602052604090819020815160a08101909252805482908290610e9290615aab565b80601f0160208091040260200160405190810160405280929190818152602001828054610ebe90615aab565b8015610f0b5780601f10610ee057610100808354040283529160200191610f0b565b820191906000526020600020905b815481529060010190602001808311610eee57829003601f168201915b505050918352505060018201546001600160a01b0380821660208085019190915260ff600160a01b90930483161515604080860191909152805160a081018252600287015490931683526003860154918301919091526004850154908201526005840154606082810191909152600685015490921615156080808301919091529183015260079092015491015292915050565b600254604051632ab0cc1160e01b8152600481018490526001600160a01b0390911690632ab0cc119060240160006040518083038186803b158015610fe257600080fd5b505afa158015610ff6573d6000803e3d6000fd5b50506002546000858152600760205260409081902060090154905163bfc4eddd60e01b81526001600160a01b03909216935063bfc4eddd925061103f9160040190815260200190565b60006040518083038186803b15801561105757600080fd5b505afa15801561106b573d6000803e3d6000fd5b50506002546000858152600760209081526040808320600901548352600590915290819020600b0154905163208e2d5560e11b81526001600160a01b03909216935063411c5aaa92506110c2913390600401615a0f565b60006040518083038186803b1580156110da57600080fd5b505afa1580156110ee573d6000803e3d6000fd5b50505060008381526007602090815260408083206009810154845260058352818420600b810154855260039093529220919250906001600884015460ff16600481111561113d5761113d615059565b146111755760405162461bcd60e51b815260206004820152600360248201526245343160e81b60448201526064015b60405180910390fd5b83156112fc5760006064836002015485600201546111939190615af3565b61119d9190615b0a565b60088501805491925060039160ff1916600183021790555060038401805460ff191660011790556002830180548291906000906111db908490615a92565b909155505060405163a6b4560b60e01b815273__$24c8841b96aa82c356d1ab35d4b0245100$__9063a6b4560b9061121c90600b8601908590600401615ae5565b60006040518083038186803b15801561123457600080fd5b505af4158015611248573d6000803e3d6000fd5b50505060068501546040516001600160a01b03909116915082156108fc029083906000818181858888f19350505050158015611288573d6000803e3d6000fd5b50835460405163781a6d4560e11b815273__$1e60a9b757f0cdba0eab1859d8e6de91e8$__9163f034da8a916112c69190600e880190600401615ae5565b60006040518083038186803b1580156112de57600080fd5b505af41580156112f2573d6000803e3d6000fd5b505050505061130c565b60088301805460ff191660021790555b5050505050565b600254604051628aee0160e21b8152600481018590526000916001600160a01b03169063022bb8049060240160006040518083038186803b15801561135757600080fd5b505afa15801561136b573d6000803e3d6000fd5b5050600254604051630336ded560e11b81526001600160a01b03909116925063066dbdaa91506113a19087903390600401615a0f565b60006040518083038186803b1580156113b957600080fd5b505afa1580156113cd573d6000803e3d6000fd5b5050505060065460016113e09190615b2c565b8311156114155760405162461bcd60e51b815260206004820152600360248201526245323160e81b604482015260640161116c565b600654600090815260056020908152604080832087845260039092529182902091516343539c7d60e11b815290919073__$6a9ea02bf5ba89f52fb50f06ec914b14fc$__906386a738fa906114749085908c908c908c90600401615b3f565b60006040518083038186803b15801561148c57600080fd5b505af41580156114a0573d6000803e3d6000fd5b5050505083156114d057600654600c80840182905582018054600181018255600091825260209091200155611501565b600c820185905560008581526005602090815260408220600654600d90910180546001810182559084529190922001555b6006805490600061151183615a79565b919050555060016006546115259190615a92565b98975050505050505050565b60015460405163b2be86ad60e01b815260048101839052600091829182916001600160a01b03169063b2be86ad906024016040805180830381865afa15801561157e573d6000803e3d6000fd5b505050506040513d601f19601f820116820180604052508101906115a29190615b6b565b91509150816115b5575060009392505050565b600084815260056020526040902060018260058111156115d7576115d7615059565b036115fe576115e5856148c2565b600701805460ff19166001908117909155949350505050565b600282600581111561161257611612615059565b0361176b57600154604051637521da2f60e01b8152600481018790526000916001600160a01b031690637521da2f90602401600060405180830381865afa158015611661573d6000803e3d6000fd5b505050506040513d6000823e601f3d908101601f191682016040526116899190810190615b9e565b905060005b8151811015611751578181815181106116a9576116a9615c2e565b60200260200101516000031561173f5773__$1e60a9b757f0cdba0eab1859d8e6de91e8$__63f034da8a8383815181106116e5576116e5615c2e565b602002602001015185600e016040518363ffffffff1660e01b815260040161170e929190615ae5565b60006040518083038186803b15801561172657600080fd5b505af415801561173a573d6000803e3d6000fd5b505050505b8061174981615a79565b91505061168e565b5050600701805460ff191660021790555060019392505050565b600382600581111561177f5761177f615059565b03611a1557600154604051631e386c0f60e21b8152600481018790526000916001600160a01b0316906378e1b03c90602401600060405180830381865afa1580156117ce573d6000803e3d6000fd5b505050506040513d6000823e601f3d908101601f191682016040526117f69190810190615b9e565b600b83015460009081526003602052604081209192505b82518110156119fa5782818151811061182857611828615c2e565b6020026020010151600003156119e85760006007600085848151811061185057611850615c2e565b60200260200101518152602001908152602001600020905060006064826002015487600201546118809190615af3565b61188a9190615b0a565b60038301805460ff1916600117905560028701805491925082916000906118b2908490615a92565b909155505060405163a6b4560b60e01b815273__$24c8841b96aa82c356d1ab35d4b0245100$__9063a6b4560b906118f390600b8801908590600401615ae5565b60006040518083038186803b15801561190b57600080fd5b505af415801561191f573d6000803e3d6000fd5b50505060068301546040516001600160a01b03909116915082156108fc029083906000818181858888f1935050505015801561195f573d6000803e3d6000fd5b5073__$1e60a9b757f0cdba0eab1859d8e6de91e8$__63f034da8a86858151811061198c5761198c615c2e565b602002602001015188600e016040518363ffffffff1660e01b81526004016119b5929190615ae5565b60006040518083038186803b1580156119cd57600080fd5b505af41580156119e1573d6000803e3d6000fd5b5050505050505b806119f281615a79565b91505061180d565b505050600701805460ff191660031790555060019392505050565b6004826005811115611a2957611a29615059565b03611d9a5760015460405163e32eaa5f60e01b8152600481018790526000916001600160a01b03169063e32eaa5f90602401600060405180830381865afa158015611a78573d6000803e3d6000fd5b505050506040513d6000823e601f3d908101601f19168201604052611aa09190810190615b9e565b905060005b8151811015611b6857818181518110611ac057611ac0615c2e565b602002602001015160000315611b565773__$1e60a9b757f0cdba0eab1859d8e6de91e8$__63f034da8a838381518110611afc57611afc615c2e565b602002602001015185600e016040518363ffffffff1660e01b8152600401611b25929190615ae5565b60006040518083038186803b158015611b3d57600080fd5b505af4158015611b51573d6000803e3d6000fd5b505050505b80611b6081615a79565b915050611aa5565b50600154604051638b7b766f60e01b8152600481018890526000916001600160a01b031690638b7b766f90602401600060405180830381865afa158015611bb3573d6000803e3d6000fd5b505050506040513d6000823e601f3d908101601f19168201604052611bdb9190810190615b9e565b905060005b8151811015611c8757818181518110611bfb57611bfb615c2e565b602002602001015160000315611c75576000606460076000858581518110611c2557611c25615c2e565b60200260200101518152602001908152602001600020600201548660020154611c4e9190615af3565b611c589190615b0a565b905080856002016000828254611c6e9190615a92565b9091555050505b80611c7f81615a79565b915050611be0565b50600b808401546000908152600360205260409081902060028601549151635b35dc8d60e11b8152909273__$24c8841b96aa82c356d1ab35d4b0245100$__9263b66bb91a92611cdd9286019190600401615ae5565b60006040518083038186803b158015611cf557600080fd5b505af4158015611d09573d6000803e3d6000fd5b505060015460405163a39ecd7160e01b8152600481018c90526001600160a01b03909116925063a39ecd719150602401602060405180830381865afa158015611d56573d6000803e3d6000fd5b505050506040513d601f19601f82011682018060405250810190611d7a9190615c44565b6002850155505050600701805460ff191660041790555060019392505050565b505050919050565b611daa614d99565b6000828152600360205260409081902081516101408101909252805482908290611dd390615aab565b80601f0160208091040260200160405190810160405280929190818152602001828054611dff90615aab565b8015611e4c5780601f10611e2157610100808354040283529160200191611e4c565b820191906000526020600020905b815481529060010190602001808311611e2f57829003601f168201915b50505091835250506001828101546020830152600283015460409092019160ff1690811115611e7d57611e7d615059565b6001811115611e8e57611e8e615059565b8152600282015461010090046001600160a01b03166020808301919091526003830180546040805182850281018501825282815294019392830182828015611eff57602002820191906000526020600020905b81546001600160a01b03168152600190910190602001808311611ee1575b5050505050815260200160048201805480602002602001604051908101604052809291908181526020018280548015611f6157602002820191906000526020600020905b81546001600160a01b03168152600190910190602001808311611f43575b5050505050815260200160058201805480602002602001604051908101604052809291908181526020018280548015611fc357602002820191906000526020600020905b81546001600160a01b03168152600190910190602001808311611fa5575b50505091835250506040805160a08101825260068401546001600160a01b03168152600784015460208281019190915260088501548284015260098501546060830152600a85015460ff161515608083015280840191909152600b8401805483518184028101840185528181529390940193909160009084015b828210156120a95760008481526020908190206040805160a0810182526005860290920180546001600160a01b0316835260018082015484860152600282015492840192909252600381015460608401526004015460ff1615156080830152908352909201910161203d565b505050508152602001600c820180548060200260200160405190810160405280929190818152602001828054801561210057602002820191906000526020600020905b8154815260200190600101908083116120ec575b5050505050815250509050919050565b6002546001600160a01b0316156121395760405162461bcd60e51b815260040161116c90615c5d565b600280546001600160a01b0319166001600160a01b0392909216919091179055565b6007602052600090815260409020805460018201805491929161217d90615aab565b80601f01602080910402602001604051908101604052809291908181526020018280546121a990615aab565b80156121f65780601f106121cb576101008083540402835291602001916121f6565b820191906000526020600020905b8154815290600101906020018083116121d957829003601f168201915b50505050600283015460038401546004850154600586015460068701546007880180549798959760ff9095169650929491936001600160a01b03909116929061223e90615aab565b80601f016020809104026020016040519081016040528092919081815260200182805461226a90615aab565b80156122b75780601f1061228c576101008083540402835291602001916122b7565b820191906000526020600020905b81548152906001019060200180831161229a57829003601f168201915b505050506008830154600990930154919260ff169190508a565b600082826122df8183615b2c565b34146123135760405162461bcd60e51b815260206004820152600360248201526245313760e81b604482015260640161116c565b600b5485101561234b5760405162461bcd60e51b8152602060048201526003602482015262229a1b60e91b604482015260640161116c565b60048054600090815260036020526040908190209051637a0f939b60e11b8152909173__$700c4b692048d554c7f19e6c07dafefb0c$__9163f41f27369161239f9185918e918e918e918e918e9101615c7a565b60006040518083038186803b1580156123b757600080fd5b505af41580156123cb573d6000803e3d6000fd5b5050600480549250905060006123e083615a79565b919050555060016004546123f49190615a92565b9998505050505050505050565b8080341480156124115750600081115b61242d5760405162461bcd60e51b815260040161116c90615ccf565b600254604051628aee0160e21b8152600481018590526001600160a01b039091169063022bb8049060240160006040518083038186803b15801561247057600080fd5b505afa158015612484573d6000803e3d6000fd5b5050506000848152600360205260409081902090516363790b1360e01b815290915073__$700c4b692048d554c7f19e6c07dafefb0c$__906363790b13906124d29084908790600401615ae5565b60006040518083038186803b1580156124ea57600080fd5b505af41580156124fe573d6000803e3d6000fd5b5050505050505050565b60025460405163eecaee6b60e01b8152600481018390526001600160a01b039091169063eecaee6b9060240160006040518083038186803b15801561254c57600080fd5b505afa158015612560573d6000803e3d6000fd5b505060025460008481526005602052604090819020600b01549051630336ded560e11b81526001600160a01b03909216935063066dbdaa92506125a7913390600401615a0f565b60006040518083038186803b1580156125bf57600080fd5b505afa1580156125d3573d6000803e3d6000fd5b505060015460405163380a610b60e21b8152600481018590526001600160a01b03909116925063e029842c9150602401602060405180830381865afa158015612620573d6000803e3d6000fd5b505050506040513d601f19601f820116820180604052508101906126449190615cec565b6126605760405162461bcd60e51b815260040161116c90615d09565b6000908152600560205260409020600701805460ff19169055565b600081803414801561268d5750600081115b6126a95760405162461bcd60e51b815260040161116c90615ccf565b82600d548110156126cc5760405162461bcd60e51b815260040161116c90615d26565b60025460008681526005602052604090819020600b01549051628aee0160e21b81526001600160a01b039092169163022bb804916127109160040190815260200190565b60006040518083038186803b15801561272857600080fd5b505afa15801561273c573d6000803e3d6000fd5b505060025460405163eecaee6b60e01b8152600481018990526001600160a01b03909116925063eecaee6b915060240160006040518083038186803b15801561278457600080fd5b505afa158015612798573d6000803e3d6000fd5b505060025460008881526005602052604090819020600b0154905163094db58d60e11b81526001600160a01b03909216935063129b6b1a92506127e19160040190815260200190565b60006040518083038186803b1580156127f957600080fd5b505afa15801561280d573d6000803e3d6000fd5b505060025460405163aefa90f160e01b8152600481018990526001600160a01b03909116925063aefa90f1915060240160006040518083038186803b15801561285557600080fd5b505afa158015612869573d6000803e3d6000fd5b5050505061287685611531565b156128845760009250612d22565b6000858152600560209081526040808320600b810154845260038352818420600a54855260099093529281902081516101c0810190925283549091908490829082906128cf90615aab565b80601f01602080910402602001604051908101604052809291908181526020018280546128fb90615aab565b80156129485780601f1061291d57610100808354040283529160200191612948565b820191906000526020600020905b81548152906001019060200180831161292b57829003601f168201915b5050505050815260200160018201548152602001600282015481526020016003820154815260200160048201604051806060016040529081600082015481526020016001820154815260200160028201548152505081526020016007820160009054906101000a900460ff1660058111156129c5576129c5615059565b60058111156129d6576129d6615059565b81526007820154610100900460ff1615156020808301919091526008830180546040805182850281018501825282815294019392830182828015612a3957602002820191906000526020600020905b815481526020019060010190808311612a25575b5050505050815260200160098201805480602002602001604051908101604052809291908181526020018280548015612a9b57602002820191906000526020600020905b81546001600160a01b03168152600190910190602001808311612a7d575b50505050508152602001600a8201805480602002602001604051908101604052809291908181526020018280548015612afd57602002820191906000526020600020905b81546001600160a01b03168152600190910190602001808311612adf575b50505050508152602001600b8201548152602001600c8201548152602001600d8201805480602002602001604051908101604052809291908181526020018280548015612b6957602002820191906000526020600020905b815481526020019060010190808311612b55575b50505050508152602001600e8201805480602002602001604051908101604052809291908181526020018280548015612bc157602002820191906000526020600020905b815481526020019060010190808311612bad575b50505091909252505060405163bd97bd0f60e01b815273__$6a9ea02bf5ba89f52fb50f06ec914b14fc$__9263bd97bd0f9250612c00916004016158dd565b602060405180830381865af4158015612c1d573d6000803e3d6000fd5b505050506040513d601f19601f82011682018060405250810190612c419190615cec565b15612c745760405162461bcd60e51b8152602060048201526003602482015262114ccd60ea1b604482015260640161116c565b600a5460405163300d2e9560e11b8152600481018590526024810184905260448101839052606481018a9052608481019190915273__$6a9ea02bf5ba89f52fb50f06ec914b14fc$__9063601a5d2a9060a40160006040518083038186803b158015612cdf57600080fd5b505af4158015612cf3573d6000803e3d6000fd5b5050600a8054925090506000612d0883615a79565b91905055506001600a54612d1c9190615a92565b95505050505b505092915050565b6000546001600160a01b03163314612d6a5760405162461bcd60e51b815260206004820152600360248201526245343560e81b604482015260640161116c565b60405133904780156108fc02916000818181858888f19350505050158015612d96573d6000803e3d6000fd5b50565b600254604051632ab0cc1160e01b8152600481018490526001600160a01b0390911690632ab0cc119060240160006040518083038186803b158015612ddd57600080fd5b505afa158015612df1573d6000803e3d6000fd5b5050600254600085815260076020526040908190206009015490516336fe47b160e21b81526001600160a01b03909216935063dbf91ec49250612e3a9160040190815260200190565b60006040518083038186803b158015612e5257600080fd5b505afa158015612e66573d6000803e3d6000fd5b505060025460405163bcc31c2960e01b81526001600160a01b03909116925063bcc31c299150612e9c9085903390600401615a0f565b60006040518083038186803b158015612eb457600080fd5b505afa158015612ec8573d6000803e3d6000fd5b5050506000838152600760208190526040909120019050612ee98282615d91565b50506000908152600760205260409020600801805460ff19166001179055565b600254604051632ab0cc1160e01b8152600481018490526001600160a01b0390911690632ab0cc119060240160006040518083038186803b158015612f4d57600080fd5b505afa158015612f61573d6000803e3d6000fd5b505060025460405163bcc31c2960e01b81526001600160a01b03909116925063bcc31c299150612f979085903390600401615a0f565b60006040518083038186803b158015612faf57600080fd5b505afa158015612fc3573d6000803e3d6000fd5b505050600083815260076020526040902090506002600882015460ff166004811115612ff157612ff1615059565b146130245760405162461bcd60e51b815260206004820152600360248201526245343360e81b604482015260640161116c565b60088101805460ff19908116600417909155600382018054909116905561304b83836149f6565b505050565b600254604051636824366b60e01b8152600481018490526001600160a01b0390911690636824366b9060240160006040518083038186803b15801561309457600080fd5b505afa1580156130a8573d6000803e3d6000fd5b50506002546000858152600960209081526040808320600701548352600590915290819020600b01549051630336ded560e11b81526001600160a01b03909216935063066dbdaa92506130ff913390600401615a0f565b60006040518083038186803b15801561311757600080fd5b505afa15801561312b573d6000803e3d6000fd5b50505060008381526009602052604090206007015461314a9150611531565b15613153575050565b60008281526009602052604090208161325e5760008381526009602090815260408083206001808201805460ff60a01b1916905560038601546004808401919091556006909201805460ff1916909117905560078501548452600590925291829020915163781a6d4560e11b815273__$1e60a9b757f0cdba0eab1859d8e6de91e8$__9263f034da8a926131ed9288926008019101615ae5565b60006040518083038186803b15801561320557600080fd5b505af4158015613219573d6000803e3d6000fd5b50505060008481526009602052604080822060030154905133935081156108fc0292818181858888f19350505050158015613258573d6000803e3d6000fd5b50505050565b811561304b576007810180546000908152600560208181526040808420600180880180546009909301805480840182559088528588200180546001600160a01b03199081166001600160a01b039586161790915597548752838720600b0154875260038552928620835495018054918201815586529290942090910180549094169190921617909155805460ff60a01b1916600160a01b179055505050565b600081803414801561330f5750600081115b61332b5760405162461bcd60e51b815260040161116c90615ccf565b82600d5481101561334e5760405162461bcd60e51b815260040161116c90615d26565b60025460008781526005602052604090819020600b01549051628aee0160e21b81526001600160a01b039092169163022bb804916133929160040190815260200190565b60006040518083038186803b1580156133aa57600080fd5b505afa1580156133be573d6000803e3d6000fd5b505060025460405163eecaee6b60e01b8152600481018a90526001600160a01b03909116925063eecaee6b915060240160006040518083038186803b15801561340657600080fd5b505afa15801561341a573d6000803e3d6000fd5b505060025460008981526005602052604090819020600b0154905163094db58d60e11b81526001600160a01b03909216935063129b6b1a92506134639160040190815260200190565b60006040518083038186803b15801561347b57600080fd5b505afa15801561348f573d6000803e3d6000fd5b505060025460405163aefa90f160e01b8152600481018a90526001600160a01b03909116925063aefa90f1915060240160006040518083038186803b1580156134d757600080fd5b505afa1580156134eb573d6000803e3d6000fd5b505050506134f886611531565b156135065760009250613984565b6000868152600560209081526040808320600a54845260099092529182902082516101c0810190935281549192909183908290829061354490615aab565b80601f016020809104026020016040519081016040528092919081815260200182805461357090615aab565b80156135bd5780601f10613592576101008083540402835291602001916135bd565b820191906000526020600020905b8154815290600101906020018083116135a057829003601f168201915b5050505050815260200160018201548152602001600282015481526020016003820154815260200160048201604051806060016040529081600082015481526020016001820154815260200160028201548152505081526020016007820160009054906101000a900460ff16600581111561363a5761363a615059565b600581111561364b5761364b615059565b81526007820154610100900460ff16151560208083019190915260088301805460408051828502810185018252828152940193928301828280156136ae57602002820191906000526020600020905b81548152602001906001019080831161369a575b505050505081526020016009820180548060200260200160405190810160405280929190818152602001828054801561371057602002820191906000526020600020905b81546001600160a01b031681526001909101906020018083116136f2575b50505050508152602001600a820180548060200260200160405190810160405280929190818152602001828054801561377257602002820191906000526020600020905b81546001600160a01b03168152600190910190602001808311613754575b50505050508152602001600b8201548152602001600c8201548152602001600d82018054806020026020016040519081016040528092919081815260200182805480156137de57602002820191906000526020600020905b8154815260200190600101908083116137ca575b50505050508152602001600e820180548060200260200160405190810160405280929190818152602001828054801561383657602002820191906000526020600020905b815481526020019060010190808311613822575b50505091909252505060405163bd97bd0f60e01b815273__$6a9ea02bf5ba89f52fb50f06ec914b14fc$__9263bd97bd0f9250613875916004016158dd565b602060405180830381865af4158015613892573d6000803e3d6000fd5b505050506040513d601f19601f820116820180604052508101906138b69190615cec565b156138e95760405162461bcd60e51b815260206004820152600360248201526222999b60e91b604482015260640161116c565b600a5460405163205b0d4f60e01b815273__$6a9ea02bf5ba89f52fb50f06ec914b14fc$__9163205b0d4f9161392a91869186918d918f9190600401615e50565b60006040518083038186803b15801561394257600080fd5b505af4158015613956573d6000803e3d6000fd5b5050600a805492509050600061396b83615a79565b91905055506001600a5461397f9190615a92565b945050505b50509392505050565b60025460405163eecaee6b60e01b8152600481018690526001600160a01b039091169063eecaee6b9060240160006040518083038186803b1580156139d157600080fd5b505afa1580156139e5573d6000803e3d6000fd5b505060025460008781526005602052604090819020600b01549051630336ded560e11b81526001600160a01b03909216935063066dbdaa9250613a2c913390600401615a0f565b60006040518083038186803b158015613a4457600080fd5b505afa158015613a58573d6000803e3d6000fd5b5050506000858152600560208181526040808420600b810154855260038352818520948a905292909152600154905163a063d29160e01b81526004810189905292935090916001600160a01b039091169063a063d29190602401602060405180830381865afa158015613acf573d6000803e3d6000fd5b505050506040513d601f19601f82011682018060405250810190613af39190615cec565b613b0f5760405162461bcd60e51b815260040161116c90615d09565b8383118015613b1d57508484115b613b4f5760405162461bcd60e51b815260206004820152600360248201526222991b60e91b604482015260640161116c565b6000805b600e830154811015613be757816007600085600e018481548110613b7957613b79615c2e565b90600052602060002001548152602001908152602001600020600501541115613bd5576007600084600e018381548110613bb557613bb5615c2e565b906000526020600020015481526020019081526020016000206005015491505b80613bdf81615a79565b915050613b53565b50613bf58787878785614a90565b60005b600e830154811015613d465760006007600085600e018481548110613c1f57613c1f615c2e565b9060005260206000200154815260200190815260200160002060060160006101000a8154816001600160a01b0302191690836001600160a01b0316021790555082600401600001546007600085600e018481548110613c8057613c80615c2e565b90600052602060002001548152602001908152602001600020600501541080613ce4575082600401600101546007600085600e018481548110613cc557613cc5615c2e565b9060005260206000200154815260200190815260200160002060050154115b15613d34576005830154613cfa90600190615a92565b6007600085600e018481548110613d1357613d13615c2e565b90600052602060002001548152602001908152602001600020600501819055505b80613d3e81615a79565b915050613bf8565b5060015460405163a39ecd7160e01b8152600481018990526001600160a01b039091169063a39ecd7190602401602060405180830381865afa158015613d90573d6000803e3d6000fd5b505050506040513d601f19601f82011682018060405250810190613db49190615c44565b6002830181905560405163a06c4b2b60e01b815273__$24c8841b96aa82c356d1ab35d4b0245100$__9163a06c4b2b91613df591600b880191600401615ae5565b60006040518083038186803b158015613e0d57600080fd5b505af4158015613e21573d6000803e3d6000fd5b50505050600791909101805460ff19166005179055505050505050565b600254604051632ab0cc1160e01b8152600481018390526001600160a01b0390911690632ab0cc119060240160006040518083038186803b158015613e8257600080fd5b505afa158015613e96573d6000803e3d6000fd5b5050600254600084815260076020526040908190206009015490516331f2df7d60e11b81526001600160a01b0390921693506363e5befa9250613edf9160040190815260200190565b60006040518083038186803b158015613ef757600080fd5b505afa158015613f0b573d6000803e3d6000fd5b505060025460008481526007602052604090819020600901549051635b403e1160e11b81526001600160a01b03909216935063b6807c229250613f52913390600401615a0f565b60006040518083038186803b158015613f6a57600080fd5b505afa158015613f7e573d6000803e3d6000fd5b50505060009182525060076020526040902060060180546001600160a01b03191633179055565b6001546001600160a01b031615613fce5760405162461bcd60e51b815260040161116c90615c5d565b600180546001600160a01b0319166001600160a01b0392909216919091179055565b60025460405163eecaee6b60e01b8152600481018490526001600160a01b039091169063eecaee6b9060240160006040518083038186803b15801561403457600080fd5b505afa158015614048573d6000803e3d6000fd5b5050505061405582611531565b1561405e575050565b6000828152600560209081526040808320848452600990925291829020915162f29d5b60e61b815290919073__$6a9ea02bf5ba89f52fb50f06ec914b14fc$__90633ca756c0906124d290859085908890600401615e83565b600254604051628aee0160e21b8152600481018790526001600160a01b039091169063022bb8049060240160006040518083038186803b1580156140fa57600080fd5b505afa15801561410e573d6000803e3d6000fd5b5050600254604051630336ded560e11b81526001600160a01b03909116925063066dbdaa91506141449088903390600401615a0f565b60006040518083038186803b15801561415c57600080fd5b505afa158015614170573d6000803e3d6000fd5b5050505060008251116141ab5760405162461bcd60e51b815260206004820152600360248201526245313960e81b604482015260640161116c565b6000858152600360205260408120908460018111156141cc576141cc615059565b036142d85760005b600c8201548110156142735760006005600084600c0184815481106141fb576141fb615c2e565b6000918252602080832090910154835282019290925260400190206007015460ff16600581111561422e5761422e615059565b146142615760405162461bcd60e51b815260206004820152600360248201526204532360ec1b604482015260640161116c565b8061426b81615a79565b9150506141d4565b5060405163aa7ebaed60e01b81526004810182905273__$700c4b692048d554c7f19e6c07dafefb0c$__9063aa7ebaed9060240160006040518083038186803b1580156142bf57600080fd5b505af41580156142d3573d6000803e3d6000fd5b505050505b60405163f946e60f60e01b815273__$700c4b692048d554c7f19e6c07dafefb0c$__9063f946e60f906143179084908990899089908990600401615e99565b60006040518083038186803b15801561432f57600080fd5b505af4158015614343573d6000803e3d6000fd5b50505050505050505050565b60096020526000908152604090208054819061436a90615aab565b80601f016020809104026020016040519081016040528092919081815260200182805461439690615aab565b80156143e35780601f106143b8576101008083540402835291602001916143e3565b820191906000526020600020905b8154815290600101906020018083116143c657829003601f168201915b5050505060018301546040805160a08101825260028601546001600160a01b0390811682526003870154602083015260048701549282019290925260058601546060820152600686015460ff90811615156080830152600790960154949591831694600160a01b90930490911692509085565b60025460405163eecaee6b60e01b8152600481018490526001600160a01b039091169063eecaee6b9060240160006040518083038186803b15801561449a57600080fd5b505afa1580156144ae573d6000803e3d6000fd5b505060025460008581526005602052604090819020600b01549051630336ded560e11b81526001600160a01b03909216935063066dbdaa92506144f5913390600401615a0f565b60006040518083038186803b15801561450d57600080fd5b505afa158015614521573d6000803e3d6000fd5b5050505061452e82611531565b15614537575050565b60008281526005602090815260408083208484526009909252918290209151630183c74f60e21b815290919073__$6a9ea02bf5ba89f52fb50f06ec914b14fc$__9063060f1d3c906124d290859085908890600401615e83565b614599614e0c565b6000828152600560205260409081902081516101c081019092528054829082906145c290615aab565b80601f01602080910402602001604051908101604052809291908181526020018280546145ee90615aab565b801561463b5780601f106146105761010080835404028352916020019161463b565b820191906000526020600020905b81548152906001019060200180831161461e57829003601f168201915b5050505050815260200160018201548152602001600282015481526020016003820154815260200160048201604051806060016040529081600082015481526020016001820154815260200160028201548152505081526020016007820160009054906101000a900460ff1660058111156146b8576146b8615059565b60058111156146c9576146c9615059565b81526007820154610100900460ff161515602080830191909152600883018054604080518285028101850182528281529401939283018282801561472c57602002820191906000526020600020905b815481526020019060010190808311614718575b505050505081526020016009820180548060200260200160405190810160405280929190818152602001828054801561478e57602002820191906000526020600020905b81546001600160a01b03168152600190910190602001808311614770575b50505050508152602001600a82018054806020026020016040519081016040528092919081815260200182805480156147f057602002820191906000526020600020905b81546001600160a01b031681526001909101906020018083116147d2575b50505050508152602001600b8201548152602001600c8201548152602001600d820180548060200260200160405190810160405280929190818152602001828054801561485c57602002820191906000526020600020905b815481526020019060010190808311614848575b50505050508152602001600e820180548060200260200160405190810160405280929190818152602001828054801561210057602002820191906000526020600020908154815260200190600101908083116120ec575050505050815250509050919050565b600081815260056020526040812060048101549091906148e490610384615b2c565b42111561304b5760048201546148fa9042615a92565b905060005b600e8301548110156149b85760006007600085600e01848154811061492657614926615c2e565b90600052602060002001548152602001908152602001600020905060048081111561495357614953615059565b600882015460ff16600481111561496c5761496c615059565b14158015614986575060068101546001600160a01b031615155b156149a5578281600501600082825461499f9190615b2c565b90915550505b50806149b081615a79565b9150506148ff565b50808260040160010160008282546149d09190615b2c565b90915550506006820180548291906000906149ec908490615b2c565b9091555050505050565b60008281526007602052604090206008810180546004919060ff191660018302179055506002808201546009830154600090815260056020526040812090920154606491614a4391615af3565b614a4d9190615b0a565b90507f7276e9a9c64e575513db2161e89d0ef6ef0bb7947b55b0667a2a687e7d40b835848483604051614a8293929190615ee5565b60405180910390a150505050565b6000604051806060016040528073__$1e60a9b757f0cdba0eab1859d8e6de91e8$__636d5433e688600e5442614ac69190615b2c565b6040518363ffffffff1660e01b8152600401614ae3929190615ae5565b602060405180830381865af4158015614b00573d6000803e3d6000fd5b505050506040513d601f19601f82011682018060405250810190614b249190615c44565b815260200173__$1e60a9b757f0cdba0eab1859d8e6de91e8$__636d5433e687614b4f876001615b2c565b6040518363ffffffff1660e01b8152600401614b6c929190615ae5565b602060405180830381865af4158015614b89573d6000803e3d6000fd5b505050506040513d601f19601f82011682018060405250810190614bad9190615c44565b815260200173__$1e60a9b757f0cdba0eab1859d8e6de91e8$__636d5433e686600f5473__$1e60a9b757f0cdba0eab1859d8e6de91e8$__636d5433e68b8a6001614bf89190615b2c565b6040518363ffffffff1660e01b8152600401614c15929190615ae5565b602060405180830381865af4158015614c32573d6000803e3d6000fd5b505050506040513d601f19601f82011682018060405250810190614c569190615c44565b614c609190615b2c565b6040518363ffffffff1660e01b8152600401614c7d929190615ae5565b602060405180830381865af4158015614c9a573d6000803e3d6000fd5b505050506040513d601f19601f82011682018060405250810190614cbe9190615c44565b90526000968752600560208181526040988990208351600482015590830151918101919091559601516006909601959095555050505050565b604051806101400160405280600081526020016060815260200160008152602001600015158152602001600081526020016000815260200160006001600160a01b031681526020016060815260200160006004811115614d5957614d59615059565b8152602001600081525090565b6040518060a001604052806060815260200160006001600160a01b03168152602001600015158152602001614d59614e9f565b604051806101400160405280606081526020016000815260200160006001811115614dc657614dc6615059565b815260200160006001600160a01b03168152602001606081526020016060815260200160608152602001614df8614e9f565b815260200160608152602001606081525090565b604051806101c0016040528060608152602001600081526020016000815260200160008152602001614e5860405180606001604052806000815260200160008152602001600081525090565b815260200160008152602001600015158152602001606081526020016060815260200160608152602001600081526020016000815260200160608152602001606081525090565b6040518060a0016040528060006001600160a01b031681526020016000815260200160008152602001600081526020016000151581525090565b634e487b7160e01b600052604160045260246000fd5b604051601f8201601f191681016001600160401b0381118282101715614f1757614f17614ed9565b604052919050565b600082601f830112614f3057600080fd5b81356001600160401b03811115614f4957614f49614ed9565b614f5c601f8201601f1916602001614eef565b818152846020838601011115614f7157600080fd5b816020850160208301376000918101602001919091529392505050565b60008060008060808587031215614fa457600080fd5b84356001600160401b03811115614fba57600080fd5b614fc687828801614f1f565b97602087013597506040870135966060013595509350505050565b600060208284031215614ff357600080fd5b5035919050565b6000815180845260005b8181101561502057602081850181015186830182015201615004565b506000602082860101526020601f19601f83011685010191505092915050565b8051825260208082015190830152604090810151910152565b634e487b7160e01b600052602160045260246000fd5b6006811061507f5761507f615059565b9052565b60006101608083526150978184018d614ffa565b9150508960208301528860408301528760608301526150b96080830188615040565b6150c660e083018761506f565b931515610100820152610120810192909252610140909101529695505050505050565b6002811061507f5761507f615059565b6001600160a01b03169052565b80516001600160a01b031682526020808201519083015260408082015190830152606080820151908301526080908101511515910152565b600061012080835261515281840189614ffa565b91505085602083015261516860408301866150e9565b6001600160a01b03841660608301526151846080830184615106565b9695505050505050565b600080604083850312156151a157600080fd5b50508035926020909101359150565b6005811061507f5761507f615059565b6020815281516020820152600060208301516101408060408501526151e9610160850183614ffa565b9150604085015160608501526060850151615208608086018215159052565b50608085015160a085015260a085015160c085015260c085015161522f60e08601826150f9565b5060e0850151610100601f19868503018187015261524d8483614ffa565b935080870151915050610120615265818701836151b0565b959095015193019290925250919050565b6020815260008251610120806020850152615295610140850183614ffa565b915060018060a01b03602086015116604085015260408501511515606085015260608501516152c76080860182615106565b506080949094015192909301919091525090565b8015158114612d9657600080fd5b600080604083850312156152fc57600080fd5b82359150602083013561530e816152db565b809150509250929050565b600080600080600060a0868803121561533157600080fd5b85356001600160401b0381111561534757600080fd5b61535388828901614f1f565b9550506020860135615364816152db565b935060408601359250606086013591506080860135615382816152db565b809150509295509295909350565b600081518084526020808501945080840160005b838110156153c95781516001600160a01b0316875295820195908201906001016153a4565b509495945050505050565b600081518084526020808501945080840160005b838110156153c9576153fb878351615106565b60a09690960195908201906001016153e8565b600081518084526020808501945080840160005b838110156153c957815187529582019590820190600101615422565b60208152600082516101c080602085015261545d6101e0850183614ffa565b915060208501516040850152604085015161547b60608601826150e9565b50606085015161548e60808601826150f9565b506080850151601f19808685030160a08701526154ab8483615390565b935060a08701519150808685030160c08701526154c88483615390565b935060c08701519150808685030160e08701526154e58483615390565b935060e087015191506101006154fd81880184615106565b87015186850382016101a0880152915061551784836153d4565b9350610120870151915080868503018387015250615184838261540e565b6001600160a01b0381168114612d9657600080fd5b60006020828403121561555c57600080fd5b813561556781615535565b9392505050565b60006101408c83528060208401526155888184018d614ffa565b604084018c90528a15156060850152608084018a905260a084018990526001600160a01b03881660c085015283810360e085015290506155c88187614ffa565b9150506155d96101008301856151b0565b826101208301529b9a5050505050505050505050565b60006001600160401b0382111561560857615608614ed9565b5060051b60200190565b600082601f83011261562357600080fd5b81356020615638615633836155ef565b614eef565b82815260059290921b8401810191818101908684111561565757600080fd5b8286015b8481101561567b57803561566e81615535565b835291830191830161565b565b509695505050505050565b600080600080600060a0868803121561569e57600080fd5b85356001600160401b03808211156156b557600080fd5b6156c189838a01614f1f565b965060208801359150808211156156d757600080fd5b6156e389838a01615612565b955060408801359150808211156156f957600080fd5b5061570688828901615612565b9598949750949560608101359550608001359392505050565b6000806040838503121561573257600080fd5b8235915060208301356001600160401b0381111561574f57600080fd5b61575b85828601614f1f565b9150509250929050565b60008060006060848603121561577a57600080fd5b8335925060208401356001600160401b0381111561579757600080fd5b6157a386828701614f1f565b925050604084013590509250925092565b600080600080608085870312156157ca57600080fd5b5050823594602084013594506040840135936060013592509050565b600080600080600060a086880312156157fe57600080fd5b8535945060208601356001600160401b038082111561581c57600080fd5b61582889838a01614f1f565b9550604088013591506002821061583e57600080fd5b9093506060870135908082111561585457600080fd5b61586089838a01615612565b9350608088013591508082111561587657600080fd5b5061588388828901615612565b9150509295509295909350565b60006101208083526158a481840189614ffa565b6001600160a01b0388166020850152861515604085015291506158cc90506060830185615106565b826101008301529695505050505050565b60208152600082516102008060208501526158fc610220850183614ffa565b9150602085015160408501526040850151606085015260608501516080850152608085015161592e60a0860182615040565b5060a08501516101006159438187018361506f565b60c0870151915061012061595a8188018415159052565b60e08801519250601f196101408189880301818a015261597a878661540e565b9650838a0151945061016093508189880301848a015261599a8786615390565b9650828a0151945061018092508189880301838a01526159ba8786615390565b9650808a01519450506101a084818a0152838a01516101c08a0152828a0151945081898803016101e08a01526159f0878661540e565b9650808a0151945050808887030185890152505050615184838261540e565b9182526001600160a01b0316602082015260400190565b86815285602082015260c060408201526000615a4560c0830187614ffa565b606083019590955250608081019290925260a0909101529392505050565b634e487b7160e01b600052601160045260246000fd5b600060018201615a8b57615a8b615a63565b5060010190565b81810381811115615aa557615aa5615a63565b92915050565b600181811c90821680615abf57607f821691505b602082108103615adf57634e487b7160e01b600052602260045260246000fd5b50919050565b918252602082015260400190565b8082028115828204841417615aa557615aa5615a63565b600082615b2757634e487b7160e01b600052601260045260246000fd5b500490565b80820180821115615aa557615aa5615a63565b848152608060208201526000615b586080830186614ffa565b9315156040830152506060015292915050565b60008060408385031215615b7e57600080fd5b8251615b89816152db565b60208401519092506006811061530e57600080fd5b60006020808385031215615bb157600080fd5b82516001600160401b03811115615bc757600080fd5b8301601f81018513615bd857600080fd5b8051615be6615633826155ef565b81815260059190911b82018301908381019087831115615c0557600080fd5b928401925b82841015615c2357835182529284019290840190615c0a565b979650505050505050565b634e487b7160e01b600052603260045260246000fd5b600060208284031215615c5657600080fd5b5051919050565b60208082526003908201526245353160e81b604082015260600190565b86815260c060208201526000615c9360c0830188614ffa565b8281036040840152615ca58188615390565b90508281036060840152615cb98187615390565b6080840195909552505060a00152949350505050565b60208082526003908201526222989b60e91b604082015260600190565b600060208284031215615cfe57600080fd5b8151615567816152db565b602080825260039082015262114c8d60ea1b604082015260600190565b60208082526003908201526208a62760eb1b604082015260600190565b601f82111561304b57600081815260208120601f850160051c81016020861015615d6a5750805b601f850160051c820191505b81811015615d8957828155600101615d76565b505050505050565b81516001600160401b03811115615daa57615daa614ed9565b615dbe81615db88454615aab565b84615d43565b602080601f831160018114615df35760008415615ddb5750858301515b600019600386901b1c1916600185901b178555615d89565b600085815260208120601f198616915b82811015615e2257888601518255948401946001909101908401615e03565b5085821015615e405787850151600019600388901b60f8161c191681555b5050505050600190811b01905550565b85815284602082015260a060408201526000615e6f60a0830186614ffa565b606083019490945250608001529392505050565b9283526020830191909152604082015260600190565b85815260a060208201526000615eb260a0830187614ffa565b615ebf60408401876150e9565b8281036060840152615ed18186615390565b905082810360808401526115258185615390565b838152606060208201526000615efe6060830185614ffa565b905082604083015294935050505056fea264697066735822122062d0cf2be25e641c0c7a1a88cda55bff3fa60a2465d957d1550689a45cbfaee664736f6c63430008140033",
    "linkReferences": {
      "contracts/Libraries.sol": {
        "CampaignManager": [
          {
            "start": 3235,
            "length": 20
          },
          {
            "start": 9196,
            "length": 20
          },
          {
            "start": 9509,
            "length": 20
          },
          {
            "start": 17159,
            "length": 20
          },
          {
            "start": 17252,
            "length": 20
          }
        ],
        "FundingsManager": [
          {
            "start": 4716,
            "length": 20
          },
          {
            "start": 6467,
            "length": 20
          },
          {
            "start": 7472,
            "length": 20
          },
          {
            "start": 15943,
            "length": 20
          }
        ],
        "ProjectManager": [
          {
            "start": 5315,
            "length": 20
          },
          {
            "start": 11350,
            "length": 20
          },
          {
            "start": 11559,
            "length": 20
          },
          {
            "start": 14539,
            "length": 20
          },
          {
            "start": 14712,
            "length": 20
          },
          {
            "start": 16648,
            "length": 20
          },
          {
            "start": 17890,
            "length": 20
          }
        ],
        "TaskManager": [
          {
            "start": 2324,
            "length": 20
          }
        ],
        "Utilities": [
          {
            "start": 4887,
            "length": 20
          },
          {
            "start": 5944,
            "length": 20
          },
          {
            "start": 6623,
            "length": 20
          },
          {
            "start": 6991,
            "length": 20
          },
          {
            "start": 12864,
            "length": 20
          },
          {
            "start": 19228,
            "length": 20
          },
          {
            "start": 19368,
            "length": 20
          },
          {
            "start": 19505,
            "length": 20
          },
          {
            "start": 19535,
            "length": 20
          }
        ]
      }
    }
  },
  "methodIdentifiers": {
    "applicationCount()": "e2aad4a0",
    "applicationDecision(uint256,bool)": "9d709c5f",
    "applications(uint256)": "dfefadff",
    "applyToProject(uint256,string,uint256)": "9eec3654",
    "campaignCount()": "7274e30d",
    "campaigns(uint256)": "141961bc",
    "checkerMasterAddress()": "e4ffeeb6",
    "closeProject(uint256)": "93dc12e6",
    "contractMaster()": "18b952f6",
    "contractMasterDrain()": "9688008d",
    "enrolStake()": "c4e60c33",
    "fireWorker(uint256,uint256)": "e3fc3499",
    "fundCampaign(uint256,uint256)": "918eab15",
    "getApplication(uint256)": "1f2f4bfd",
    "getCampaign(uint256)": "5598f8cc",
    "getDecisionTimes()": "aa15d5f0",
    "getProject(uint256)": "f0f3f2c8",
    "getTask(uint256)": "1d65e77e",
    "goToSettledStatus(uint256,uint256,uint256,uint256)": "a7be3ba0",
    "makeCampaign(string,address[],address[],uint256,uint256)": "915a4042",
    "makeProject(string,bool,uint256,uint256,bool)": "4a502233",
    "makeTask(string,uint256,uint256,uint256)": "00c374cd",
    "minOpenCampaignStake()": "a3e366f0",
    "minStake()": "375b3c0a",
    "minimumGateTime()": "fa555842",
    "minimumSettledTime()": "73b9a5b3",
    "new_statusFixer(uint256)": "4fba1d13",
    "projectCount()": "36fbad26",
    "projects(uint256)": "107046bd",
    "raiseDeclinedSubmissionDispute(uint256,string)": "982260cf",
    "refundOwnFunding(uint256,uint256)": "14271492",
    "setCheckerMasterAddress(address)": "86e45559",
    "setUpdateMasterAddress(address)": "bcd6f795",
    "submissionDecision(uint256,bool)": "33e2f1e9",
    "submitSubmission(uint256,string)": "97b1ede0",
    "taskCount()": "b6cb58a5",
    "taskSubmissionDecisionDisputeTime()": "762f485b",
    "taskSubmissionDecisionTime()": "e0a6926a",
    "tasks(uint256)": "8d977672",
    "updateCampaign(uint256,string,uint8,address[],address[])": "db08fe76",
    "updateMasterAddress()": "5c30337a",
    "workerDropOut(uint256,uint256)": "d6200404",
    "workerEnrolNoApplication(uint256,uint256)": "94fe52a8",
    "workerSelfAssignsTask(uint256)": "a87f224c"
  },
  "id": 5
}