{
  "abi": [
    {
      "inputs": [
        {
          "components": [
            {
              "internalType": "string",
              "name": "metadata",
              "type": "string"
            },
            {
              "internalType": "uint256",
              "name": "creationTime",
              "type": "uint256"
            },
            {
              "internalType": "enum CampaignManager.CampaignStatus",
              "name": "status",
              "type": "CampaignManager.CampaignStatus"
            },
            {
              "internalType": "address payable",
              "name": "creator",
              "type": "address"
            },
            {
              "internalType": "address payable[]",
              "name": "owners",
              "type": "address[]"
            },
            {
              "internalType": "address payable[]",
              "name": "acceptors",
              "type": "address[]"
            },
            {
              "internalType": "address payable[]",
              "name": "allTimeStakeholders",
              "type": "address[]"
            },
            {
              "components": [
                {
                  "internalType": "address payable",
                  "name": "funder",
                  "type": "address"
                },
                {
                  "internalType": "uint256",
                  "name": "funding",
                  "type": "uint256"
                },
                {
                  "internalType": "uint256",
                  "name": "amountUsed",
                  "type": "uint256"
                },
                {
                  "internalType": "uint256",
                  "name": "amountLocked",
                  "type": "uint256"
                },
                {
                  "internalType": "bool",
                  "name": "fullyRefunded",
                  "type": "bool"
                }
              ],
              "internalType": "struct FundingsManager.Fundings",
              "name": "stake",
              "type": "tuple"
            },
            {
              "components": [
                {
                  "internalType": "address payable",
                  "name": "funder",
                  "type": "address"
                },
                {
                  "internalType": "uint256",
                  "name": "funding",
                  "type": "uint256"
                },
                {
                  "internalType": "uint256",
                  "name": "amountUsed",
                  "type": "uint256"
                },
                {
                  "internalType": "uint256",
                  "name": "amountLocked",
                  "type": "uint256"
                },
                {
                  "internalType": "bool",
                  "name": "fullyRefunded",
                  "type": "bool"
                }
              ],
              "internalType": "struct FundingsManager.Fundings[]",
              "name": "fundings",
              "type": "tuple[]"
            },
            {
              "internalType": "uint256[]",
              "name": "directChildProjects",
              "type": "uint256[]"
            }
          ],
          "internalType": "struct CampaignManager.Campaign",
          "name": "_campaign",
          "type": "tuple"
        },
        {
          "internalType": "address",
          "name": "_address",
          "type": "address"
        }
      ],
      "name": "checkIsCampaignAcceptor",
      "outputs": [
        {
          "internalType": "bool",
          "name": "",
          "type": "bool"
        }
      ],
      "stateMutability": "pure",
      "type": "function"
    },
    {
      "inputs": [
        {
          "components": [
            {
              "internalType": "string",
              "name": "metadata",
              "type": "string"
            },
            {
              "internalType": "uint256",
              "name": "creationTime",
              "type": "uint256"
            },
            {
              "internalType": "enum CampaignManager.CampaignStatus",
              "name": "status",
              "type": "CampaignManager.CampaignStatus"
            },
            {
              "internalType": "address payable",
              "name": "creator",
              "type": "address"
            },
            {
              "internalType": "address payable[]",
              "name": "owners",
              "type": "address[]"
            },
            {
              "internalType": "address payable[]",
              "name": "acceptors",
              "type": "address[]"
            },
            {
              "internalType": "address payable[]",
              "name": "allTimeStakeholders",
              "type": "address[]"
            },
            {
              "components": [
                {
                  "internalType": "address payable",
                  "name": "funder",
                  "type": "address"
                },
                {
                  "internalType": "uint256",
                  "name": "funding",
                  "type": "uint256"
                },
                {
                  "internalType": "uint256",
                  "name": "amountUsed",
                  "type": "uint256"
                },
                {
                  "internalType": "uint256",
                  "name": "amountLocked",
                  "type": "uint256"
                },
                {
                  "internalType": "bool",
                  "name": "fullyRefunded",
                  "type": "bool"
                }
              ],
              "internalType": "struct FundingsManager.Fundings",
              "name": "stake",
              "type": "tuple"
            },
            {
              "components": [
                {
                  "internalType": "address payable",
                  "name": "funder",
                  "type": "address"
                },
                {
                  "internalType": "uint256",
                  "name": "funding",
                  "type": "uint256"
                },
                {
                  "internalType": "uint256",
                  "name": "amountUsed",
                  "type": "uint256"
                },
                {
                  "internalType": "uint256",
                  "name": "amountLocked",
                  "type": "uint256"
                },
                {
                  "internalType": "bool",
                  "name": "fullyRefunded",
                  "type": "bool"
                }
              ],
              "internalType": "struct FundingsManager.Fundings[]",
              "name": "fundings",
              "type": "tuple[]"
            },
            {
              "internalType": "uint256[]",
              "name": "directChildProjects",
              "type": "uint256[]"
            }
          ],
          "internalType": "struct CampaignManager.Campaign",
          "name": "_campaign",
          "type": "tuple"
        }
      ],
      "name": "checkIsCampaignAcceptor",
      "outputs": [
        {
          "internalType": "bool",
          "name": "",
          "type": "bool"
        }
      ],
      "stateMutability": "view",
      "type": "function"
    },
    {
      "inputs": [
        {
          "components": [
            {
              "internalType": "string",
              "name": "metadata",
              "type": "string"
            },
            {
              "internalType": "uint256",
              "name": "creationTime",
              "type": "uint256"
            },
            {
              "internalType": "enum CampaignManager.CampaignStatus",
              "name": "status",
              "type": "CampaignManager.CampaignStatus"
            },
            {
              "internalType": "address payable",
              "name": "creator",
              "type": "address"
            },
            {
              "internalType": "address payable[]",
              "name": "owners",
              "type": "address[]"
            },
            {
              "internalType": "address payable[]",
              "name": "acceptors",
              "type": "address[]"
            },
            {
              "internalType": "address payable[]",
              "name": "allTimeStakeholders",
              "type": "address[]"
            },
            {
              "components": [
                {
                  "internalType": "address payable",
                  "name": "funder",
                  "type": "address"
                },
                {
                  "internalType": "uint256",
                  "name": "funding",
                  "type": "uint256"
                },
                {
                  "internalType": "uint256",
                  "name": "amountUsed",
                  "type": "uint256"
                },
                {
                  "internalType": "uint256",
                  "name": "amountLocked",
                  "type": "uint256"
                },
                {
                  "internalType": "bool",
                  "name": "fullyRefunded",
                  "type": "bool"
                }
              ],
              "internalType": "struct FundingsManager.Fundings",
              "name": "stake",
              "type": "tuple"
            },
            {
              "components": [
                {
                  "internalType": "address payable",
                  "name": "funder",
                  "type": "address"
                },
                {
                  "internalType": "uint256",
                  "name": "funding",
                  "type": "uint256"
                },
                {
                  "internalType": "uint256",
                  "name": "amountUsed",
                  "type": "uint256"
                },
                {
                  "internalType": "uint256",
                  "name": "amountLocked",
                  "type": "uint256"
                },
                {
                  "internalType": "bool",
                  "name": "fullyRefunded",
                  "type": "bool"
                }
              ],
              "internalType": "struct FundingsManager.Fundings[]",
              "name": "fundings",
              "type": "tuple[]"
            },
            {
              "internalType": "uint256[]",
              "name": "directChildProjects",
              "type": "uint256[]"
            }
          ],
          "internalType": "struct CampaignManager.Campaign",
          "name": "_campaign",
          "type": "tuple"
        },
        {
          "internalType": "address",
          "name": "_address",
          "type": "address"
        }
      ],
      "name": "checkIsCampaignOwner",
      "outputs": [
        {
          "internalType": "bool",
          "name": "",
          "type": "bool"
        }
      ],
      "stateMutability": "pure",
      "type": "function"
    },
    {
      "inputs": [
        {
          "components": [
            {
              "internalType": "string",
              "name": "metadata",
              "type": "string"
            },
            {
              "internalType": "uint256",
              "name": "creationTime",
              "type": "uint256"
            },
            {
              "internalType": "enum CampaignManager.CampaignStatus",
              "name": "status",
              "type": "CampaignManager.CampaignStatus"
            },
            {
              "internalType": "address payable",
              "name": "creator",
              "type": "address"
            },
            {
              "internalType": "address payable[]",
              "name": "owners",
              "type": "address[]"
            },
            {
              "internalType": "address payable[]",
              "name": "acceptors",
              "type": "address[]"
            },
            {
              "internalType": "address payable[]",
              "name": "allTimeStakeholders",
              "type": "address[]"
            },
            {
              "components": [
                {
                  "internalType": "address payable",
                  "name": "funder",
                  "type": "address"
                },
                {
                  "internalType": "uint256",
                  "name": "funding",
                  "type": "uint256"
                },
                {
                  "internalType": "uint256",
                  "name": "amountUsed",
                  "type": "uint256"
                },
                {
                  "internalType": "uint256",
                  "name": "amountLocked",
                  "type": "uint256"
                },
                {
                  "internalType": "bool",
                  "name": "fullyRefunded",
                  "type": "bool"
                }
              ],
              "internalType": "struct FundingsManager.Fundings",
              "name": "stake",
              "type": "tuple"
            },
            {
              "components": [
                {
                  "internalType": "address payable",
                  "name": "funder",
                  "type": "address"
                },
                {
                  "internalType": "uint256",
                  "name": "funding",
                  "type": "uint256"
                },
                {
                  "internalType": "uint256",
                  "name": "amountUsed",
                  "type": "uint256"
                },
                {
                  "internalType": "uint256",
                  "name": "amountLocked",
                  "type": "uint256"
                },
                {
                  "internalType": "bool",
                  "name": "fullyRefunded",
                  "type": "bool"
                }
              ],
              "internalType": "struct FundingsManager.Fundings[]",
              "name": "fundings",
              "type": "tuple[]"
            },
            {
              "internalType": "uint256[]",
              "name": "directChildProjects",
              "type": "uint256[]"
            }
          ],
          "internalType": "struct CampaignManager.Campaign",
          "name": "_campaign",
          "type": "tuple"
        }
      ],
      "name": "checkIsCampaignOwner",
      "outputs": [
        {
          "internalType": "bool",
          "name": "",
          "type": "bool"
        }
      ],
      "stateMutability": "view",
      "type": "function"
    },
    {
      "inputs": [
        {
          "components": [
            {
              "internalType": "string",
              "name": "metadata",
              "type": "string"
            },
            {
              "internalType": "uint256",
              "name": "creationTime",
              "type": "uint256"
            },
            {
              "internalType": "enum CampaignManager.CampaignStatus",
              "name": "status",
              "type": "CampaignManager.CampaignStatus"
            },
            {
              "internalType": "address payable",
              "name": "creator",
              "type": "address"
            },
            {
              "internalType": "address payable[]",
              "name": "owners",
              "type": "address[]"
            },
            {
              "internalType": "address payable[]",
              "name": "acceptors",
              "type": "address[]"
            },
            {
              "internalType": "address payable[]",
              "name": "allTimeStakeholders",
              "type": "address[]"
            },
            {
              "components": [
                {
                  "internalType": "address payable",
                  "name": "funder",
                  "type": "address"
                },
                {
                  "internalType": "uint256",
                  "name": "funding",
                  "type": "uint256"
                },
                {
                  "internalType": "uint256",
                  "name": "amountUsed",
                  "type": "uint256"
                },
                {
                  "internalType": "uint256",
                  "name": "amountLocked",
                  "type": "uint256"
                },
                {
                  "internalType": "bool",
                  "name": "fullyRefunded",
                  "type": "bool"
                }
              ],
              "internalType": "struct FundingsManager.Fundings",
              "name": "stake",
              "type": "tuple"
            },
            {
              "components": [
                {
                  "internalType": "address payable",
                  "name": "funder",
                  "type": "address"
                },
                {
                  "internalType": "uint256",
                  "name": "funding",
                  "type": "uint256"
                },
                {
                  "internalType": "uint256",
                  "name": "amountUsed",
                  "type": "uint256"
                },
                {
                  "internalType": "uint256",
                  "name": "amountLocked",
                  "type": "uint256"
                },
                {
                  "internalType": "bool",
                  "name": "fullyRefunded",
                  "type": "bool"
                }
              ],
              "internalType": "struct FundingsManager.Fundings[]",
              "name": "fundings",
              "type": "tuple[]"
            },
            {
              "internalType": "uint256[]",
              "name": "directChildProjects",
              "type": "uint256[]"
            }
          ],
          "internalType": "struct CampaignManager.Campaign",
          "name": "_campaign",
          "type": "tuple"
        }
      ],
      "name": "getEffectiveBalance",
      "outputs": [
        {
          "internalType": "uint256",
          "name": "",
          "type": "uint256"
        }
      ],
      "stateMutability": "pure",
      "type": "function"
    },
    {
      "inputs": [
        {
          "components": [
            {
              "internalType": "string",
              "name": "metadata",
              "type": "string"
            },
            {
              "internalType": "uint256",
              "name": "creationTime",
              "type": "uint256"
            },
            {
              "internalType": "enum CampaignManager.CampaignStatus",
              "name": "status",
              "type": "CampaignManager.CampaignStatus"
            },
            {
              "internalType": "address payable",
              "name": "creator",
              "type": "address"
            },
            {
              "internalType": "address payable[]",
              "name": "owners",
              "type": "address[]"
            },
            {
              "internalType": "address payable[]",
              "name": "acceptors",
              "type": "address[]"
            },
            {
              "internalType": "address payable[]",
              "name": "allTimeStakeholders",
              "type": "address[]"
            },
            {
              "components": [
                {
                  "internalType": "address payable",
                  "name": "funder",
                  "type": "address"
                },
                {
                  "internalType": "uint256",
                  "name": "funding",
                  "type": "uint256"
                },
                {
                  "internalType": "uint256",
                  "name": "amountUsed",
                  "type": "uint256"
                },
                {
                  "internalType": "uint256",
                  "name": "amountLocked",
                  "type": "uint256"
                },
                {
                  "internalType": "bool",
                  "name": "fullyRefunded",
                  "type": "bool"
                }
              ],
              "internalType": "struct FundingsManager.Fundings",
              "name": "stake",
              "type": "tuple"
            },
            {
              "components": [
                {
                  "internalType": "address payable",
                  "name": "funder",
                  "type": "address"
                },
                {
                  "internalType": "uint256",
                  "name": "funding",
                  "type": "uint256"
                },
                {
                  "internalType": "uint256",
                  "name": "amountUsed",
                  "type": "uint256"
                },
                {
                  "internalType": "uint256",
                  "name": "amountLocked",
                  "type": "uint256"
                },
                {
                  "internalType": "bool",
                  "name": "fullyRefunded",
                  "type": "bool"
                }
              ],
              "internalType": "struct FundingsManager.Fundings[]",
              "name": "fundings",
              "type": "tuple[]"
            },
            {
              "internalType": "uint256[]",
              "name": "directChildProjects",
              "type": "uint256[]"
            }
          ],
          "internalType": "struct CampaignManager.Campaign",
          "name": "_campaign",
          "type": "tuple"
        }
      ],
      "name": "getLockedRewards",
      "outputs": [
        {
          "internalType": "uint256",
          "name": "",
          "type": "uint256"
        }
      ],
      "stateMutability": "pure",
      "type": "function"
    },
    {
      "inputs": [
        {
          "components": [
            {
              "internalType": "string",
              "name": "metadata",
              "type": "string"
            },
            {
              "internalType": "uint256",
              "name": "creationTime",
              "type": "uint256"
            },
            {
              "internalType": "enum CampaignManager.CampaignStatus",
              "name": "status",
              "type": "CampaignManager.CampaignStatus"
            },
            {
              "internalType": "address payable",
              "name": "creator",
              "type": "address"
            },
            {
              "internalType": "address payable[]",
              "name": "owners",
              "type": "address[]"
            },
            {
              "internalType": "address payable[]",
              "name": "acceptors",
              "type": "address[]"
            },
            {
              "internalType": "address payable[]",
              "name": "allTimeStakeholders",
              "type": "address[]"
            },
            {
              "components": [
                {
                  "internalType": "address payable",
                  "name": "funder",
                  "type": "address"
                },
                {
                  "internalType": "uint256",
                  "name": "funding",
                  "type": "uint256"
                },
                {
                  "internalType": "uint256",
                  "name": "amountUsed",
                  "type": "uint256"
                },
                {
                  "internalType": "uint256",
                  "name": "amountLocked",
                  "type": "uint256"
                },
                {
                  "internalType": "bool",
                  "name": "fullyRefunded",
                  "type": "bool"
                }
              ],
              "internalType": "struct FundingsManager.Fundings",
              "name": "stake",
              "type": "tuple"
            },
            {
              "components": [
                {
                  "internalType": "address payable",
                  "name": "funder",
                  "type": "address"
                },
                {
                  "internalType": "uint256",
                  "name": "funding",
                  "type": "uint256"
                },
                {
                  "internalType": "uint256",
                  "name": "amountUsed",
                  "type": "uint256"
                },
                {
                  "internalType": "uint256",
                  "name": "amountLocked",
                  "type": "uint256"
                },
                {
                  "internalType": "bool",
                  "name": "fullyRefunded",
                  "type": "bool"
                }
              ],
              "internalType": "struct FundingsManager.Fundings[]",
              "name": "fundings",
              "type": "tuple[]"
            },
            {
              "internalType": "uint256[]",
              "name": "directChildProjects",
              "type": "uint256[]"
            }
          ],
          "internalType": "struct CampaignManager.Campaign",
          "name": "_campaign",
          "type": "tuple"
        }
      ],
      "name": "getTotalFunding",
      "outputs": [
        {
          "internalType": "uint256",
          "name": "",
          "type": "uint256"
        }
      ],
      "stateMutability": "pure",
      "type": "function"
    },
    {
      "inputs": [
        {
          "components": [
            {
              "internalType": "string",
              "name": "metadata",
              "type": "string"
            },
            {
              "internalType": "uint256",
              "name": "creationTime",
              "type": "uint256"
            },
            {
              "internalType": "enum CampaignManager.CampaignStatus",
              "name": "status",
              "type": "CampaignManager.CampaignStatus"
            },
            {
              "internalType": "address payable",
              "name": "creator",
              "type": "address"
            },
            {
              "internalType": "address payable[]",
              "name": "owners",
              "type": "address[]"
            },
            {
              "internalType": "address payable[]",
              "name": "acceptors",
              "type": "address[]"
            },
            {
              "internalType": "address payable[]",
              "name": "allTimeStakeholders",
              "type": "address[]"
            },
            {
              "components": [
                {
                  "internalType": "address payable",
                  "name": "funder",
                  "type": "address"
                },
                {
                  "internalType": "uint256",
                  "name": "funding",
                  "type": "uint256"
                },
                {
                  "internalType": "uint256",
                  "name": "amountUsed",
                  "type": "uint256"
                },
                {
                  "internalType": "uint256",
                  "name": "amountLocked",
                  "type": "uint256"
                },
                {
                  "internalType": "bool",
                  "name": "fullyRefunded",
                  "type": "bool"
                }
              ],
              "internalType": "struct FundingsManager.Fundings",
              "name": "stake",
              "type": "tuple"
            },
            {
              "components": [
                {
                  "internalType": "address payable",
                  "name": "funder",
                  "type": "address"
                },
                {
                  "internalType": "uint256",
                  "name": "funding",
                  "type": "uint256"
                },
                {
                  "internalType": "uint256",
                  "name": "amountUsed",
                  "type": "uint256"
                },
                {
                  "internalType": "uint256",
                  "name": "amountLocked",
                  "type": "uint256"
                },
                {
                  "internalType": "bool",
                  "name": "fullyRefunded",
                  "type": "bool"
                }
              ],
              "internalType": "struct FundingsManager.Fundings[]",
              "name": "fundings",
              "type": "tuple[]"
            },
            {
              "internalType": "uint256[]",
              "name": "directChildProjects",
              "type": "uint256[]"
            }
          ],
          "internalType": "struct CampaignManager.Campaign",
          "name": "_campaign",
          "type": "tuple"
        }
      ],
      "name": "getUnusedBalance",
      "outputs": [
        {
          "internalType": "uint256",
          "name": "",
          "type": "uint256"
        }
      ],
      "stateMutability": "pure",
      "type": "function"
    }
  ],
  "bytecode": {
    "object": "0x611a3761003a600b82828239805160001a60731461002d57634e487b7160e01b600052600060045260246000fd5b30600052607381538281f3fe73000000000000000000000000000000000000000030146080604052600436106100cf5760003560e01c8063211d3716146100d4578063427d15e7146100fa5780634d06c5a01461011c57806363790b131461012f5780636cf0b7d31461014f5780638e3e756114610172578063a08a128c14610185578063aa7ebaed14610198578063abc9671a146101b8578063d00698d2146101d8578063d1d892d9146101eb578063f32ba056146101fe578063f41f273614610211578063f946e60f14610231578063fa947a3f14610251575b600080fd5b6100e76100e23660046113b4565b610271565b6040519081526020015b60405180910390f35b81801561010657600080fd5b5061011a6101153660046113f0565b6102f5565b005b6100e761012a3660046113b4565b610468565b81801561013b57600080fd5b5061011a61014a3660046113f0565b610516565b61016261015d366004611412565b6105c6565b60405190151581526020016100f1565b6100e76101803660046113b4565b610635565b6100e76101933660046113b4565b61070b565b8180156101a457600080fd5b5061011a6101b3366004611463565b610760565b8180156101c457600080fd5b5061011a6101d3366004611463565b6107e0565b6101626101e63660046113b4565b6108c3565b6101626101f9366004611412565b61092e565b61016261020c3660046113b4565b610991565b81801561021d57600080fd5b5061011a61022c36600461147c565b6109f3565b81801561023d57600080fd5b5061011a61024c36600461151f565b610cc2565b81801561025d57600080fd5b5061011a61026c36600461168f565b610dfe565b600080805b836101000151518110156102ee57836101000151818151811061029b5761029b61183c565b6020026020010151608001516102dc5783610100015181815181106102c2576102c261183c565b602002602001015160600151826102d99190611868565b91505b806102e68161187b565b915050610276565b5092915050565b600082600b01828154811061030c5761030c61183c565b60009182526020909120600590910201600481015490915060ff16156103845760405162461bcd60e51b815260206004820152602260248201527f46756e64696e67206d757374206e6f742062652066756c6c7920726566756e64604482015261195960f21b60648201526084015b60405180910390fd5b80546001600160a01b031633146103d95760405162461bcd60e51b815260206004820152601960248201527829b2b73232b91036bab9ba103132903a343290333ab73232b960391b604482015260640161037b565b60008160030154826002015483600101546103f49190611894565b6103fe9190611894565b9050808260020160008282546104149190611868565b90915550506001820154600283015460048401805460ff191691909214179055604051339082156108fc029083906000818181858888f19350505050158015610461573d6000803e3d6000fd5b5050505050565b600080805b836101000151518110156102ee5783610100015181815181106104925761049261183c565b60200260200101516080015161050457600084610100015182815181106104bb576104bb61183c565b60200260200101516040015185610100015183815181106104de576104de61183c565b6020026020010151602001516104f49190611894565b90506105008184611868565b9250505b8061050e8161187b565b91505061046d565b61051e610e95565b33808252602080830193845260006008860181905560808401818152600b87018054600181810183559184528484208751600592830290910180546001600160a01b03929092166001600160a01b0319928316178155985189840155604088015160028a0155606090970151600389015591516004909701805497151560ff199098169790971790965590950180549485018155855290932090910180549091169091179055565b6000805b8360a001515181101561062957826001600160a01b03168460a0015182815181106105f7576105f761183c565b60200260200101516001600160a01b03160361061757600191505061062f565b806106218161187b565b9150506105ca565b50600090505b92915050565b600080805b836101000151518110156102ee57836101000151818151811061065f5761065f61183c565b6020026020010151608001516106f95783610100015181815181106106865761068661183c565b60200260200101516040015184610100015182815181106106a9576106a961183c565b60200260200101516060015185610100015183815181106106cc576106cc61183c565b6020026020010151602001516106e29190611894565b6106ec9190611894565b6106f69083611868565b91505b806107038161187b565b91505061063a565b600080805b836101000151518110156102ee5783610100015181815181106107355761073561183c565b6020026020010151602001518261074c9190611868565b9150806107588161187b565b915050610710565b6000600282015460ff16600181111561077b5761077b6118a7565b036107dd57600781015460088201819055600a82018054600160ff1990911617905560028201546040516101009091046001600160a01b0316916108fc811502916000818181858888f193505050501580156107db573d6000803e3d6000fd5b505b50565b60005b600b8201548110156107db57600082600b0182815481106108065761080661183c565b60009182526020909120600590910201600481015490915060ff166108b05760008160030154826002015483600101546108409190611894565b61084a9190611894565b9050808260020160008282546108609190611868565b90915550506001820154600283015460048401805460ff191691909214179055604051339082156108fc029083906000818181858888f193505050501580156108ad573d6000803e3d6000fd5b50505b50806108bb8161187b565b9150506107e3565b6000805b8260a0015151811015610925578260a0015181815181106108ea576108ea61183c565b60200260200101516001600160a01b0316336001600160a01b0316036109135750600192915050565b8061091d8161187b565b9150506108c7565b50600092915050565b6000805b83608001515181101561062957826001600160a01b03168460800151828151811061095f5761095f61183c565b60200260200101516001600160a01b03160361097f57600191505061062f565b806109898161187b565b915050610932565b6000805b82608001515181101561092557826080015181815181106109b8576109b861183c565b60200260200101516001600160a01b0316336001600160a01b0316036109e15750600192915050565b806109eb8161187b565b915050610995565b856109fe8682611942565b50426001878101919091556002870180546001600160a81b031916336101008102919091178317909155600388018054928301815560009081526020812090920180546001600160a01b03191690911790555b8451811015610b115786600301858281518110610a7057610a7061183c565b60209081029190910181015182546001810184556000938452919092200180546001600160a01b0319166001600160a01b0390921691909117905584516005880190869083908110610ac457610ac461183c565b60209081029190910181015182546001810184556000938452919092200180546001600160a01b0319166001600160a01b0390921691909117905580610b098161187b565b915050610a51565b5060005b8351811015610bd55786600401848281518110610b3457610b3461183c565b60209081029190910181015182546001810184556000938452919092200180546001600160a01b0319166001600160a01b0390921691909117905583516005880190859083908110610b8857610b8861183c565b60209081029190910181015182546001810184556000938452919092200180546001600160a01b0319166001600160a01b0390921691909117905580610bcd8161187b565b915050610b15565b50600586018054600181018255600091825260208220018054336001600160a01b031991821681179092556006890180549091169091179055600787018390556008870155600a8601805460ff191690558015610cba57610c34610e95565b3381526020808201838152600060088a0181905560808401818152600b8b0180546001808201835591845294909220855160059095020180546001600160a01b0319166001600160a01b0390951694909417845591519083015560408301516002830155606090920151600382015590516004909101805460ff19169115159190911790555b505050505050565b84610ccd8582611942565b5060028501805484919060ff191660018381811115610cee57610cee6118a7565b02179055508151610d089060038701906020850190610ecf565b5060005b8251811015610d785785600501838281518110610d2b57610d2b61183c565b60209081029190910181015182546001810184556000938452919092200180546001600160a01b0319166001600160a01b0390921691909117905580610d708161187b565b915050610d0c565b508051610d8e9060048701906020840190610ecf565b5060005b8151811015610cba5785600501828281518110610db157610db161183c565b60209081029190910181015182546001810184556000938452919092200180546001600160a01b0319166001600160a01b0390921691909117905580610df68161187b565b915050610d92565b80826080015160200151610e129190611868565b421015610e1e57600080fd5b6040828101519051635b35dc8d60e11b8152600b85016004820152602481019190915273__$24c8841b96aa82c356d1ab35d4b0245100$__9063b66bb91a9060440160006040518083038186803b158015610e7857600080fd5b505af4158015610e8c573d6000803e3d6000fd5b50505050505050565b6040518060a0016040528060006001600160a01b031681526020016000815260200160008152602001600081526020016000151581525090565b828054828255906000526020600020908101928215610f24579160200282015b82811115610f2457825182546001600160a01b0319166001600160a01b03909116178255602090920191600190910190610eef565b50610f30929150610f34565b5090565b5b80821115610f305760008155600101610f35565b634e487b7160e01b600052604160045260246000fd5b60405161014081016001600160401b0381118282101715610f8257610f82610f49565b60405290565b6040516101c081016001600160401b0381118282101715610f8257610f82610f49565b604051601f8201601f191681016001600160401b0381118282101715610fd357610fd3610f49565b604052919050565b600082601f830112610fec57600080fd5b81356001600160401b0381111561100557611005610f49565b611018601f8201601f1916602001610fab565b81815284602083860101111561102d57600080fd5b816020850160208301376000918101602001919091529392505050565b80356002811061105957600080fd5b919050565b6001600160a01b03811681146107dd57600080fd5b80356110598161105e565b60006001600160401b0382111561109757611097610f49565b5060051b60200190565b600082601f8301126110b257600080fd5b813560206110c76110c28361107e565b610fab565b82815260059290921b840181019181810190868411156110e657600080fd5b8286015b8481101561110a5780356110fd8161105e565b83529183019183016110ea565b509695505050505050565b8035801515811461105957600080fd5b600060a0828403121561113757600080fd5b60405160a081016001600160401b038111828210171561115957611159610f49565b604052905080823561116a8161105e565b8082525060208301356020820152604083013560408201526060830135606082015261119860808401611115565b60808201525092915050565b600082601f8301126111b557600080fd5b813560206111c56110c28361107e565b82815260a092830285018201928282019190878511156111e457600080fd5b8387015b85811015611207576111fa8982611125565b84529284019281016111e8565b5090979650505050505050565b600082601f83011261122557600080fd5b813560206112356110c28361107e565b82815260059290921b8401810191818101908684111561125457600080fd5b8286015b8481101561110a5780358352918301918301611258565b60006101c0828403121561128257600080fd5b61128a610f5f565b905081356001600160401b03808211156112a357600080fd5b6112af85838601610fdb565b8352602084013560208401526112c76040850161104a565b60408401526112d860608501611073565b606084015260808401359150808211156112f157600080fd5b6112fd858386016110a1565b608084015260a084013591508082111561131657600080fd5b611322858386016110a1565b60a084015260c084013591508082111561133b57600080fd5b611347858386016110a1565b60c08401526113598560e08601611125565b60e084015261018084013591508082111561137357600080fd5b61137f858386016111a4565b6101008401526101a084013591508082111561139a57600080fd5b506113a784828501611214565b6101208301525092915050565b6000602082840312156113c657600080fd5b81356001600160401b038111156113dc57600080fd5b6113e88482850161126f565b949350505050565b6000806040838503121561140357600080fd5b50508035926020909101359150565b6000806040838503121561142557600080fd5b82356001600160401b0381111561143b57600080fd5b6114478582860161126f565b92505060208301356114588161105e565b809150509250929050565b60006020828403121561147557600080fd5b5035919050565b60008060008060008060c0878903121561149557600080fd5b8635955060208701356001600160401b03808211156114b357600080fd5b6114bf8a838b01610fdb565b965060408901359150808211156114d557600080fd5b6114e18a838b016110a1565b955060608901359150808211156114f757600080fd5b5061150489828a016110a1565b9350506080870135915060a087013590509295509295509295565b600080600080600060a0868803121561153757600080fd5b8535945060208601356001600160401b038082111561155557600080fd5b61156189838a01610fdb565b955061156f6040890161104a565b9450606088013591508082111561158557600080fd5b61159189838a016110a1565b935060808801359150808211156115a757600080fd5b506115b4888289016110a1565b9150509295509295909350565b6000606082840312156115d357600080fd5b604051606081016001600160401b03811182821017156115f5576115f5610f49565b80604052508091508235815260208301356020820152604083013560408201525092915050565b80356006811061105957600080fd5b600082601f83011261163c57600080fd5b8135602061164c6110c28361107e565b82815260059290921b8401810191818101908684111561166b57600080fd5b8286015b8481101561110a5780356116828161105e565b835291830191830161166f565b6000806000606084860312156116a457600080fd5b8335925060208401356001600160401b03808211156116c257600080fd5b9085019061020082880312156116d757600080fd5b6116df610f88565b8235828111156116ee57600080fd5b6116fa89828601610fdb565b82525060208301356020820152604083013560408201526060830135606082015261172888608085016115c1565b608082015261173960e0840161161c565b60a082015261010061174c818501611115565b60c0830152610120808501358481111561176557600080fd5b6117718b828801611214565b60e085015250610140808601358581111561178b57600080fd5b6117978c82890161162b565b8486015250610160925082860135858111156117b257600080fd5b6117be8c82890161162b565b838601525061018091508186013581850152506101a080860135838501526101c08601359250848311156117f157600080fd5b6117fd8b848801611214565b828501526101e086013592508483111561181657600080fd5b6118228b848801611214565b908401525095989097506040969096013595945050505050565b634e487b7160e01b600052603260045260246000fd5b634e487b7160e01b600052601160045260246000fd5b8082018082111561062f5761062f611852565b60006001820161188d5761188d611852565b5060010190565b8181038181111561062f5761062f611852565b634e487b7160e01b600052602160045260246000fd5b600181811c908216806118d157607f821691505b6020821081036118f157634e487b7160e01b600052602260045260246000fd5b50919050565b601f82111561193d57600081815260208120601f850160051c8101602086101561191e5750805b601f850160051c820191505b81811015610cba5782815560010161192a565b505050565b81516001600160401b0381111561195b5761195b610f49565b61196f8161196984546118bd565b846118f7565b602080601f8311600181146119a4576000841561198c5750858301515b600019600386901b1c1916600185901b178555610cba565b600085815260208120601f198616915b828110156119d3578886015182559484019460019091019084016119b4565b50858210156119f15787850151600019600388901b60f8161c191681555b5050505050600190811b0190555056fea264697066735822122070290db9fd7ed87528fa7fd42b26808ef5ca7c9ecbf546f22b79d3e4afa3813d64736f6c63430008140033",
    "linkReferences": {
      "contracts/Libraries.sol": {
        "FundingsManager": [
          {
            "start": 3709,
            "length": 20
          }
        ]
      }
    }
  },
  "methodIdentifiers": {
    "checkIsCampaignAcceptor(CampaignManager.Campaign)": "d00698d2",
    "checkIsCampaignAcceptor(CampaignManager.Campaign,address)": "6cf0b7d3",
    "checkIsCampaignOwner(CampaignManager.Campaign)": "f32ba056",
    "checkIsCampaignOwner(CampaignManager.Campaign,address)": "d1d892d9",
    "fundCampaign(CampaignManager.Campaign storage,uint256)": "63790b13",
    "getEffectiveBalance(CampaignManager.Campaign)": "8e3e7561",
    "getLockedRewards(CampaignManager.Campaign)": "211d3716",
    "getTotalFunding(CampaignManager.Campaign)": "a08a128c",
    "getUnusedBalance(CampaignManager.Campaign)": "4d06c5a0",
    "makeCampaign(CampaignManager.Campaign storage,string,address[],address[],uint256,uint256)": "f41f2736",
    "refundAllCampaignFundings(CampaignManager.Campaign storage)": "abc9671a",
    "refundOwnFunding(CampaignManager.Campaign storage,uint256)": "427d15e7",
    "refundStake(CampaignManager.Campaign storage)": "aa7ebaed",
    "unlockProjectRewardPostCleanup(CampaignManager.Campaign storage,ProjectManager.Project,uint256)": "fa947a3f",
    "updateCampaign(CampaignManager.Campaign storage,string,CampaignManager.CampaignStatus,address[],address[])": "f946e60f"
  },
  "id": 4
}