{
  "abi": [
    {
      "inputs": [
        {
          "components": [
            {
              "internalType": "string",
              "name": "metadata",
              "type": "string"
            },
            {
              "internalType": "uint256",
              "name": "weight",
              "type": "uint256"
            },
            {
              "internalType": "uint256",
              "name": "reward",
              "type": "uint256"
            },
            {
              "internalType": "uint256",
              "name": "creationTime",
              "type": "uint256"
            },
            {
              "components": [
                {
                  "internalType": "uint256",
                  "name": "startStageTimestamp",
                  "type": "uint256"
                },
                {
                  "internalType": "uint256",
                  "name": "startGateTimestamp",
                  "type": "uint256"
                },
                {
                  "internalType": "uint256",
                  "name": "startSettledTimestamp",
                  "type": "uint256"
                }
              ],
              "internalType": "struct ProjectManager.NextMilestone",
              "name": "nextMilestone",
              "type": "tuple"
            },
            {
              "internalType": "enum ProjectManager.ProjectStatus",
              "name": "status",
              "type": "ProjectManager.ProjectStatus"
            },
            {
              "internalType": "bool",
              "name": "applicationRequired",
              "type": "bool"
            },
            {
              "internalType": "uint256[]",
              "name": "applications",
              "type": "uint256[]"
            },
            {
              "internalType": "address[]",
              "name": "workers",
              "type": "address[]"
            },
            {
              "internalType": "address[]",
              "name": "pastWorkers",
              "type": "address[]"
            },
            {
              "internalType": "uint256",
              "name": "parentCampaign",
              "type": "uint256"
            },
            {
              "internalType": "uint256",
              "name": "parentProject",
              "type": "uint256"
            },
            {
              "internalType": "uint256[]",
              "name": "childProjects",
              "type": "uint256[]"
            },
            {
              "internalType": "uint256[]",
              "name": "childTasks",
              "type": "uint256[]"
            }
          ],
          "internalType": "struct ProjectManager.Project",
          "name": "_project",
          "type": "tuple"
        },
        {
          "internalType": "address",
          "name": "_worker",
          "type": "address"
        }
      ],
      "name": "checkIsProjectWorker",
      "outputs": [
        {
          "internalType": "bool",
          "name": "",
          "type": "bool"
        }
      ],
      "stateMutability": "pure",
      "type": "function"
    },
    {
      "inputs": [
        {
          "components": [
            {
              "internalType": "string",
              "name": "metadata",
              "type": "string"
            },
            {
              "internalType": "uint256",
              "name": "weight",
              "type": "uint256"
            },
            {
              "internalType": "uint256",
              "name": "reward",
              "type": "uint256"
            },
            {
              "internalType": "uint256",
              "name": "creationTime",
              "type": "uint256"
            },
            {
              "components": [
                {
                  "internalType": "uint256",
                  "name": "startStageTimestamp",
                  "type": "uint256"
                },
                {
                  "internalType": "uint256",
                  "name": "startGateTimestamp",
                  "type": "uint256"
                },
                {
                  "internalType": "uint256",
                  "name": "startSettledTimestamp",
                  "type": "uint256"
                }
              ],
              "internalType": "struct ProjectManager.NextMilestone",
              "name": "nextMilestone",
              "type": "tuple"
            },
            {
              "internalType": "enum ProjectManager.ProjectStatus",
              "name": "status",
              "type": "ProjectManager.ProjectStatus"
            },
            {
              "internalType": "bool",
              "name": "applicationRequired",
              "type": "bool"
            },
            {
              "internalType": "uint256[]",
              "name": "applications",
              "type": "uint256[]"
            },
            {
              "internalType": "address[]",
              "name": "workers",
              "type": "address[]"
            },
            {
              "internalType": "address[]",
              "name": "pastWorkers",
              "type": "address[]"
            },
            {
              "internalType": "uint256",
              "name": "parentCampaign",
              "type": "uint256"
            },
            {
              "internalType": "uint256",
              "name": "parentProject",
              "type": "uint256"
            },
            {
              "internalType": "uint256[]",
              "name": "childProjects",
              "type": "uint256[]"
            },
            {
              "internalType": "uint256[]",
              "name": "childTasks",
              "type": "uint256[]"
            }
          ],
          "internalType": "struct ProjectManager.Project",
          "name": "_project",
          "type": "tuple"
        }
      ],
      "name": "checkIsProjectWorker",
      "outputs": [
        {
          "internalType": "bool",
          "name": "",
          "type": "bool"
        }
      ],
      "stateMutability": "view",
      "type": "function"
    }
  ],
  "bytecode": {
    "object": "0x61155a61003a600b82828239805160001a60731461002d57634e487b7160e01b600052600060045260246000fd5b30600052607381538281f3fe73000000000000000000000000000000000000000030146080604052600436106100a35760003560e01c8063060f1d3c146100a8578063205b0d4f146100ca5780632dc22173146100ea5780633b498102146101125780633c9b55a1146101255780633ca756c014610145578063601a5d2a1461016557806386a738fa14610185578063bd97bd0f146101a5578063dc95ae03146101b8578063ebd78d4c146101cb575b600080fd5b8180156100b457600080fd5b506100c86100c3366004610b82565b6101de565b005b8180156100d657600080fd5b506100c86100e5366004610caf565b610437565b6100fd6100f836600461100b565b61050f565b60405190151581526020015b60405180910390f35b6100fd61012036600461105c565b610580565b610138610133366004611081565b6105e5565b60405161010991906110b0565b81801561015157600080fd5b506100c8610160366004610b82565b61067d565b81801561017157600080fd5b506100c86101803660046110d8565b610858565b81801561019157600080fd5b506100c86101a0366004611113565b610977565b6100fd6101b3366004611171565b6109e2565b6100fd6101c63660046111c7565b610a4f565b6100fd6101d9366004611349565b610b12565b6000805b600985015481101561024a5760018401546009860180546001600160a01b0390921691839081106102155761021561136b565b6000918252602090912001546001600160a01b031603610238576001915061024a565b8061024281611397565b9150506101e2565b508015156001600786015460ff1660058111156102695761026961109a565b1415146102a35760405162461bcd60e51b815260206004820152600360248201526204533360ec1b60448201526064015b60405180910390fd5b600683015460ff161580156102c357506001830154600160a01b900460ff165b6102cc57600080fd5b6001830154604051637f557fa360e01b815273__$1e60a9b757f0cdba0eab1859d8e6de91e8$__91637f557fa391610315916001600160a01b03169060098901906004016113b0565b60006040518083038186803b15801561032d57600080fd5b505af4158015610341573d6000803e3d6000fd5b505050600180850154600a8701805480840182556000918252602082200180546001600160a01b0319166001600160a01b039093169290921790915560038601546004870181905560068701805460ff191690931790925560405133935082156108fc029291818181858888f193505050501580156103c4573d6000803e3d6000fd5b5060405163781a6d4560e11b81526004810183905260088501602482015273__$1e60a9b757f0cdba0eab1859d8e6de91e8$__9063f034da8a9060440160006040518083038186803b15801561041957600080fd5b505af415801561042d573d6000803e3d6000fd5b5050505050505050565b6007850154610100900460ff1661048b5760405162461bcd60e51b8152602060048201526018602482015277105c1c1b1a58d85d1a5bdb881b9bdd081c995c5d5a5c995960421b604482015260640161029a565b836104968482611452565b50600184810180546001600160a81b0319163360ff60a01b198116919091179091556002860180546001600160a01b031916909117905534600386015560006004860181905560068601805460ff1916905560079095019290925560089490940180549182018155835260209092209091019190915550565b6000805b8361010001515181101561057457826001600160a01b031684610100015182815181106105425761054261136b565b60200260200101516001600160a01b03160361056257600191505061057a565b8061056c81611397565b915050610513565b50600090505b92915050565b6000805b600984015481101561057457826001600160a01b03168460090182815481106105af576105af61136b565b6000918252602090912001546001600160a01b0316036105d357600191505061057a565b806105dd81611397565b915050610584565b600080600783015460ff1660058111156106015761060161109a565b036106345760405162461bcd60e51b815260206004820152600360248201526245333760e81b604482015260640161029a565b600482015442101561064857506005919050565b600582015442101561065c57506001919050565b600682015442101561067057506002919050565b506005919050565b919050565b6000805b60098501548110156106e157336001600160a01b03168560090182815481106106ac576106ac61136b565b6000918252602090912001546001600160a01b0316036106cf57600191506106e1565b806106d981611397565b915050610681565b506001600785015460ff1660058111156106fd576106fd61109a565b141580156107085750805b61073a5760405162461bcd60e51b815260206004820152600360248201526208a64760eb1b604482015260640161029a565b60018301546001600160a01b03163314801561075b5750600683015460ff16155b801561077257506001830154600160a01b900460ff165b61077b57600080fd5b604051637f557fa360e01b815273__$1e60a9b757f0cdba0eab1859d8e6de91e8$__90637f557fa3906107b790339060098901906004016113b0565b60006040518083038186803b1580156107cf57600080fd5b505af41580156107e3573d6000803e3d6000fd5b505050600a850180546001818101835560009283526020832090910180546001600160a01b0319163390811790915560038701546004880181905560068801805460ff191690931790925560405190935081156108fc0292818181858888f193505050501580156103c4573d6000803e3d6000fd5b6007850154610100900460ff16156108985760405162461bcd60e51b815260206004820152600360248201526245333360e81b604482015260640161029a565b6040805180820190915260018152605f60f81b602082015283906108bc9082611452565b506001808401805460ff60a01b19339081166001600160a81b031990921691909117600160a01b179091556002850180546001600160a01b0319908116831790915534600387015560006004870181905560068701805460ff191690556007909601949094556008870180548084018255908652602080872090910193909355600990960180548083018255908552828520018054841687179055600590940180549485018155835290912090910180549091169091179055565b836109828482611452565b5042600385015560078401805460408051606081018252600080825260208201819052910181905260048088018290556005880182905560068801919091559315156101000261ffff1990911617909217909155600b9092019190915550565b6000805b82610100015151811015610a4657336001600160a01b03168361010001518281518110610a1557610a1561136b565b60200260200101516001600160a01b031603610a345750600192915050565b80610a3e81611397565b9150506109e6565b50600092915050565b6000806005600785015460ff166005811115610a6d57610a6d61109a565b6009860154600487015492909114925015159060019042101560005b8651811015610aea5760006001600160a01b0316878281518110610aaf57610aaf61136b565b602002602001015160c001516001600160a01b031603610ad857506000945061057a9350505050565b80610ae281611397565b915050610a89565b50818015610af55750835b8015610afe5750825b8015610b075750805b979650505050505050565b6000806002600785015460ff166005811115610b3057610b3061109a565b1480610b5457506000600785015460ff166005811115610b5257610b5261109a565b145b90506000838560040160010154610b6b9190611511565b42119050818015610b795750805b95945050505050565b600080600060608486031215610b9757600080fd5b505081359360208301359350604090920135919050565b634e487b7160e01b600052604160045260246000fd5b6040516101c081016001600160401b0381118282101715610be757610be7610bae565b60405290565b60405161014081016001600160401b0381118282101715610be757610be7610bae565b604051601f8201601f191681016001600160401b0381118282101715610c3857610c38610bae565b604052919050565b600082601f830112610c5157600080fd5b81356001600160401b03811115610c6a57610c6a610bae565b610c7d601f8201601f1916602001610c10565b818152846020838601011115610c9257600080fd5b816020850160208301376000918101602001919091529392505050565b600080600080600060a08688031215610cc757600080fd5b853594506020860135935060408601356001600160401b03811115610ceb57600080fd5b610cf788828901610c40565b9598949750949560608101359550608001359392505050565b600060608284031215610d2257600080fd5b604051606081016001600160401b0381118282101715610d4457610d44610bae565b80604052508091508235815260208301356020820152604083013560408201525092915050565b80356006811061067857600080fd5b8035801515811461067857600080fd5b60006001600160401b03821115610da357610da3610bae565b5060051b60200190565b600082601f830112610dbe57600080fd5b81356020610dd3610dce83610d8a565b610c10565b82815260059290921b84018101918181019086841115610df257600080fd5b8286015b84811015610e0d5780358352918301918301610df6565b509695505050505050565b6001600160a01b0381168114610e2d57600080fd5b50565b600082601f830112610e4157600080fd5b81356020610e51610dce83610d8a565b82815260059290921b84018101918181019086841115610e7057600080fd5b8286015b84811015610e0d578035610e8781610e18565b8352918301918301610e74565b60006102008284031215610ea757600080fd5b610eaf610bc4565b905081356001600160401b0380821115610ec857600080fd5b610ed485838601610c40565b8352602084013560208401526040840135604084015260608401356060840152610f018560808601610d10565b6080840152610f1260e08501610d6b565b60a08401526101009150610f27828501610d7a565b60c08401526101208085013582811115610f4057600080fd5b610f4c87828801610dad565b60e0860152506101408086013583811115610f6657600080fd5b610f7288828901610e30565b858701525061016093508386013583811115610f8d57600080fd5b610f9988828901610e30565b838701525061018091508186013581860152506101a080860135848601526101c0860135935082841115610fcc57600080fd5b610fd887858801610dad565b828601526101e0860135935082841115610ff157600080fd5b610ffd87858801610dad565b818601525050505092915050565b6000806040838503121561101e57600080fd5b82356001600160401b0381111561103457600080fd5b61104085828601610e94565b925050602083013561105181610e18565b809150509250929050565b6000806040838503121561106f57600080fd5b82359150602083013561105181610e18565b60006020828403121561109357600080fd5b5035919050565b634e487b7160e01b600052602160045260246000fd5b60208101600683106110d257634e487b7160e01b600052602160045260246000fd5b91905290565b600080600080600060a086880312156110f057600080fd5b505083359560208501359550604085013594606081013594506080013592509050565b6000806000806080858703121561112957600080fd5b8435935060208501356001600160401b0381111561114657600080fd5b61115287828801610c40565b93505061116160408601610d7a565b9396929550929360600135925050565b60006020828403121561118357600080fd5b81356001600160401b0381111561119957600080fd5b6111a584828501610e94565b949350505050565b803561067881610e18565b80356005811061067857600080fd5b600080604083850312156111da57600080fd5b823591506020808401356001600160401b03808211156111f957600080fd5b818601915086601f83011261120d57600080fd5b813561121b610dce82610d8a565b81815260059190911b8301840190848101908983111561123a57600080fd5b8585015b838110156113385780358581111561125557600080fd5b8601610140818d03601f1901121561126c57600080fd5b611274610bed565b88820135815260408201358781111561128c57600080fd5b61129a8e8b83860101610c40565b8a83015250606082013560408201526112b560808301610d7a565b606082015260a0820135608082015260c082013560a08201526112da60e083016111ad565b60c082015261010080830135888111156112f357600080fd5b6113018f8c83870101610c40565b60e0840152506101206113158185016111b8565b91830191909152610140929092013591810191909152835291860191860161123e565b508096505050505050509250929050565b6000806040838503121561135c57600080fd5b50508035926020909101359150565b634e487b7160e01b600052603260045260246000fd5b634e487b7160e01b600052601160045260246000fd5b6000600182016113a9576113a9611381565b5060010190565b6001600160a01b03929092168252602082015260400190565b600181811c908216806113dd57607f821691505b6020821081036113fd57634e487b7160e01b600052602260045260246000fd5b50919050565b601f82111561144d57600081815260208120601f850160051c8101602086101561142a5750805b601f850160051c820191505b8181101561144957828155600101611436565b5050505b505050565b81516001600160401b0381111561146b5761146b610bae565b61147f8161147984546113c9565b84611403565b602080601f8311600181146114b4576000841561149c5750858301515b600019600386901b1c1916600185901b178555611449565b600085815260208120601f198616915b828110156114e3578886015182559484019460019091019084016114c4565b50858210156115015787850151600019600388901b60f8161c191681555b5050505050600190811b01905550565b8082018082111561057a5761057a61138156fea2646970667358221220053832360ad951c0ed0e4638f4b8a172f10a85bc43a17009f8152839e4d5818e64736f6c63430008140033",
    "linkReferences": {
      "contracts/Libraries.sol": {
        "Utilities": [
          {
            "start": 794,
            "length": 20
          },
          {
            "start": 1054,
            "length": 20
          },
          {
            "start": 1988,
            "length": 20
          }
        ]
      }
    }
  },
  "methodIdentifiers": {
    "applyToProject(ProjectManager.Project storage,ProjectManager.Application storage,string,uint256,uint256)": "205b0d4f",
    "checkIsProjectWorker(ProjectManager.Project storage,address)": "3b498102",
    "checkIsProjectWorker(ProjectManager.Project)": "bd97bd0f",
    "checkIsProjectWorker(ProjectManager.Project,address)": "2dc22173",
    "fireWorker(ProjectManager.Project storage,ProjectManager.Application storage,uint256)": "060f1d3c",
    "makeProject(ProjectManager.Project storage,string,bool,uint256)": "86a738fa",
    "toStageConditionsWithNotClosedTasks(ProjectManager.Project storage,TaskManager.Task[])": "dc95ae03",
    "updateProjectRewardsConditions(ProjectManager.Project storage,uint256)": "ebd78d4c",
    "whatStatusProjectShouldBeAt(ProjectManager.Project storage)": "3c9b55a1",
    "workerDropOut(ProjectManager.Project storage,ProjectManager.Application storage,uint256)": "3ca756c0",
    "workerEnrolNoApplication(ProjectManager.Project storage,CampaignManager.Campaign storage,ProjectManager.Application storage,uint256,uint256)": "601a5d2a"
  },
  "id": 4
}