{
  "abi": [
    {
      "inputs": [
        {
          "internalType": "address",
          "name": "_standardSubstrateAddress",
          "type": "address"
        }
      ],
      "stateMutability": "nonpayable",
      "type": "constructor"
    },
    {
      "inputs": [
        {
          "internalType": "uint256",
          "name": "_id",
          "type": "uint256"
        },
        {
          "internalType": "address",
          "name": "_address",
          "type": "address"
        }
      ],
      "name": "checkIsCampaignAcceptor",
      "outputs": [
        {
          "internalType": "bool",
          "name": "",
          "type": "bool"
        }
      ],
      "stateMutability": "view",
      "type": "function"
    },
    {
      "inputs": [
        {
          "internalType": "uint256",
          "name": "_id",
          "type": "uint256"
        },
        {
          "internalType": "address",
          "name": "_address",
          "type": "address"
        }
      ],
      "name": "checkIsCampaignOwner",
      "outputs": [
        {
          "internalType": "bool",
          "name": "",
          "type": "bool"
        }
      ],
      "stateMutability": "view",
      "type": "function"
    },
    {
      "inputs": [
        {
          "internalType": "uint256",
          "name": "_id",
          "type": "uint256"
        },
        {
          "internalType": "address",
          "name": "_address",
          "type": "address"
        }
      ],
      "name": "checkIsProjectWorker",
      "outputs": [
        {
          "internalType": "bool",
          "name": "",
          "type": "bool"
        }
      ],
      "stateMutability": "view",
      "type": "function"
    },
    {
      "inputs": [
        {
          "internalType": "uint256",
          "name": "_projectID",
          "type": "uint256"
        }
      ],
      "name": "computeProjectReward",
      "outputs": [
        {
          "internalType": "uint256",
          "name": "",
          "type": "uint256"
        }
      ],
      "stateMutability": "view",
      "type": "function"
    },
    {
      "inputs": [
        {
          "internalType": "uint256",
          "name": "_projectID",
          "type": "uint256"
        }
      ],
      "name": "getDeclinedTasksIDs",
      "outputs": [
        {
          "internalType": "uint256[]",
          "name": "",
          "type": "uint256[]"
        }
      ],
      "stateMutability": "view",
      "type": "function"
    },
    {
      "inputs": [
        {
          "internalType": "uint256",
          "name": "_projectID",
          "type": "uint256"
        }
      ],
      "name": "getDisputedTasksIDs",
      "outputs": [
        {
          "internalType": "uint256[]",
          "name": "",
          "type": "uint256[]"
        }
      ],
      "stateMutability": "view",
      "type": "function"
    },
    {
      "inputs": [
        {
          "internalType": "uint256",
          "name": "_projectID",
          "type": "uint256"
        }
      ],
      "name": "getNoneTasksIDs",
      "outputs": [
        {
          "internalType": "uint256[]",
          "name": "",
          "type": "uint256[]"
        }
      ],
      "stateMutability": "view",
      "type": "function"
    },
    {
      "inputs": [
        {
          "internalType": "uint256",
          "name": "_projectID",
          "type": "uint256"
        }
      ],
      "name": "getPendingTasksIDs",
      "outputs": [
        {
          "internalType": "uint256[]",
          "name": "",
          "type": "uint256[]"
        }
      ],
      "stateMutability": "view",
      "type": "function"
    },
    {
      "inputs": [],
      "name": "standardSubstrateAddress",
      "outputs": [
        {
          "internalType": "address",
          "name": "",
          "type": "address"
        }
      ],
      "stateMutability": "view",
      "type": "function"
    },
    {
      "inputs": [
        {
          "internalType": "uint256",
          "name": "_projectID",
          "type": "uint256"
        }
      ],
      "name": "toClosedConditions",
      "outputs": [
        {
          "internalType": "bool",
          "name": "",
          "type": "bool"
        }
      ],
      "stateMutability": "view",
      "type": "function"
    },
    {
      "inputs": [
        {
          "internalType": "uint256",
          "name": "_projectID",
          "type": "uint256"
        }
      ],
      "name": "toGateConditions",
      "outputs": [
        {
          "internalType": "bool",
          "name": "",
          "type": "bool"
        }
      ],
      "stateMutability": "view",
      "type": "function"
    },
    {
      "inputs": [
        {
          "internalType": "uint256",
          "name": "_projectID",
          "type": "uint256"
        }
      ],
      "name": "toPostDispConditions",
      "outputs": [
        {
          "internalType": "bool",
          "name": "",
          "type": "bool"
        }
      ],
      "stateMutability": "view",
      "type": "function"
    },
    {
      "inputs": [
        {
          "internalType": "uint256",
          "name": "_projectID",
          "type": "uint256"
        }
      ],
      "name": "toPostSubConditions",
      "outputs": [
        {
          "internalType": "bool",
          "name": "",
          "type": "bool"
        }
      ],
      "stateMutability": "view",
      "type": "function"
    },
    {
      "inputs": [
        {
          "internalType": "uint256",
          "name": "_projectID",
          "type": "uint256"
        }
      ],
      "name": "toSettledConditions",
      "outputs": [
        {
          "internalType": "bool",
          "name": "",
          "type": "bool"
        }
      ],
      "stateMutability": "view",
      "type": "function"
    },
    {
      "inputs": [
        {
          "internalType": "uint256",
          "name": "_projectID",
          "type": "uint256"
        }
      ],
      "name": "toStageConditions",
      "outputs": [
        {
          "internalType": "bool",
          "name": "",
          "type": "bool"
        }
      ],
      "stateMutability": "view",
      "type": "function"
    },
    {
      "inputs": [
        {
          "internalType": "uint256",
          "name": "_projectID",
          "type": "uint256"
        }
      ],
      "name": "whereToGo",
      "outputs": [
        {
          "internalType": "bool",
          "name": "isGoing",
          "type": "bool"
        },
        {
          "internalType": "enum ProjectManager.ProjectStatus",
          "name": "goingTo",
          "type": "uint8"
        }
      ],
      "stateMutability": "view",
      "type": "function"
    }
  ],
  "bytecode": {
    "object": "0x6080604052600080546001600160a01b03191690553480156200002157600080fd5b5060405162002414380380620024148339810160408190526200004491620000da565b6000546001600160a01b031615620000b45760405162461bcd60e51b815260206004820152602960248201527f7374616e6461726453756273747261746541646472657373206d75737420626560448201526820736574206f6e636560b81b606482015260840160405180910390fd5b600080546001600160a01b0319166001600160a01b03929092169190911790556200010c565b600060208284031215620000ed57600080fd5b81516001600160a01b03811681146200010557600080fd5b9392505050565b6122f8806200011c6000396000f3fe608060405234801561001057600080fd5b50600436106100d05760003560e01c806314b541ae146100d557806319d801e6146100fd5780633e685a36146101105780633fedd4b51461012357806368365f54146101365780637521da2f1461014957806378e1b03c146101695780638b7b766f1461017c578063a063d2911461018f578063a39ecd71146101a2578063b2be86ad146101c3578063ce875740146101e4578063d24f932d146101f7578063e029842c1461020a578063e32eaa5f1461021d578063f235b34e14610230575b600080fd5b6100e86100e3366004611623565b61025b565b60405190151581526020015b60405180910390f35b6100e861010b366004611623565b6103a3565b6100e861011e366004611654565b610454565b6100e8610131366004611654565b610535565b6100e8610144366004611623565b61060d565b61015c610157366004611623565b6106d1565b6040516100f49190611684565b61015c610177366004611623565b6108c2565b61015c61018a366004611623565b610aab565b6100e861019d366004611623565b610c94565b6101b56101b0366004611623565b610d42565b6040519081526020016100f4565b6101d66101d1366004611623565b610f8b565b6040516100f49291906116de565b6100e86101f2366004611623565b6110f1565b6100e8610205366004611654565b61121d565b6100e8610218366004611623565b6112f3565b61015c61022b366004611623565b611477565b600054610243906001600160a01b031681565b6040516001600160a01b0390911681526020016100f4565b60008054604051631e1e7e5960e31b81526004810184905282916001600160a01b03169063f0f3f2c890602401600060405180830381865afa1580156102a5573d6000803e3d6000fd5b505050506040513d6000823e601f3d908101601f191682016040526102cd9190810190611996565b905060008060008060008054906101000a90046001600160a01b03166001600160a01b031663aa15d5f06040518163ffffffff1660e01b8152600401608060405180830381865afa158015610326573d6000803e3d6000fd5b505050506040513d601f19601f8201168201806040525081019061034a9190611b2f565b92965090945092509050600060038660a00151600581111561036e5761036e6116c8565b1490506000838760800151602001516103879190611b7b565b42101590508180156103965750805b9998505050505050505050565b60008054604051631e1e7e5960e31b81526004810184905282916001600160a01b03169063f0f3f2c890602401600060405180830381865afa1580156103ed573d6000803e3d6000fd5b505050506040513d6000823e601f3d908101601f191682016040526104159190810190611996565b9050600060018260a001516005811115610431576104316116c8565b6080840151602001519114915042101581801561044b5750805b95945050505050565b600080546040516315663e3360e21b81526004810185905282916001600160a01b031690635598f8cc90602401600060405180830381865afa15801561049e573d6000803e3d6000fd5b505050506040513d6000823e601f3d908101601f191682016040526104c69190810190611c99565b90506000805b82608001515181101561052a57826080015181815181106104ef576104ef611dfc565b60200260200101516001600160a01b0316856001600160a01b031603610518576001915061052a565b8061052281611e12565b9150506104cc565b509150505b92915050565b60008054604051631e1e7e5960e31b81526004810185905282916001600160a01b03169063f0f3f2c890602401600060405180830381865afa15801561057f573d6000803e3d6000fd5b505050506040513d6000823e601f3d908101601f191682016040526105a79190810190611996565b90506000805b8261010001515181101561052a5782610100015181815181106105d2576105d2611dfc565b60200260200101516001600160a01b0316856001600160a01b0316036105fb576001915061052a565b8061060581611e12565b9150506105ad565b60008054604051631e1e7e5960e31b81526004810184905282916001600160a01b03169063f0f3f2c890602401600060405180830381865afa158015610657573d6000803e3d6000fd5b505050506040513d6000823e601f3d908101601f1916820160405261067f9190810190611996565b9050600060058260a00151600581111561069b5761069b6116c8565b610100840151516080850151519290911492501515904210158280156106be5750815b80156106c75750805b9695505050505050565b60008054604051631e1e7e5960e31b815260048101849052606092916001600160a01b03169063f0f3f2c890602401600060405180830381865afa15801561071d573d6000803e3d6000fd5b505050506040513d6000823e601f3d908101601f191682016040526107459190810190611996565b90506000816101a00151516001600160401b0381111561076757610767611704565b604051908082528060200260200182016040528015610790578160200160208202803683370190505b50905060005b826101a00151518110156108ba57600080546101a085015180516001600160a01b0390921691631d65e77e9190859081106107d3576107d3611dfc565b60200260200101516040518263ffffffff1660e01b81526004016107f991815260200190565b600060405180830381865afa158015610816573d6000803e3d6000fd5b505050506040513d6000823e601f3d908101601f1916820160405261083e9190810190611e3a565b905060008161010001516004811115610859576108596116c8565b0361088657806000015183838151811061087557610875611dfc565b6020026020010181815250506108a7565b600083838151811061089a5761089a611dfc565b6020026020010181815250505b50806108b281611e12565b915050610796565b509392505050565b60008054604051631e1e7e5960e31b815260048101849052606092916001600160a01b03169063f0f3f2c890602401600060405180830381865afa15801561090e573d6000803e3d6000fd5b505050506040513d6000823e601f3d908101601f191682016040526109369190810190611996565b90506000816101a00151516001600160401b0381111561095857610958611704565b604051908082528060200260200182016040528015610981578160200160208202803683370190505b50905060005b826101a00151518110156108ba57600080546101a085015180516001600160a01b0390921691631d65e77e9190859081106109c4576109c4611dfc565b60200260200101516040518263ffffffff1660e01b81526004016109ea91815260200190565b600060405180830381865afa158015610a07573d6000803e3d6000fd5b505050506040513d6000823e601f3d908101601f19168201604052610a2f9190810190611e3a565b905060018161010001516004811115610a4a57610a4a6116c8565b03610a77578060000151838381518110610a6657610a66611dfc565b602002602001018181525050610a98565b6000838381518110610a8b57610a8b611dfc565b6020026020010181815250505b5080610aa381611e12565b915050610987565b60008054604051631e1e7e5960e31b815260048101849052606092916001600160a01b03169063f0f3f2c890602401600060405180830381865afa158015610af7573d6000803e3d6000fd5b505050506040513d6000823e601f3d908101601f19168201604052610b1f9190810190611996565b90506000816101a00151516001600160401b03811115610b4157610b41611704565b604051908082528060200260200182016040528015610b6a578160200160208202803683370190505b50905060005b826101a00151518110156108ba57600080546101a085015180516001600160a01b0390921691631d65e77e919085908110610bad57610bad611dfc565b60200260200101516040518263ffffffff1660e01b8152600401610bd391815260200190565b600060405180830381865afa158015610bf0573d6000803e3d6000fd5b505050506040513d6000823e601f3d908101601f19168201604052610c189190810190611e3a565b905060048161010001516004811115610c3357610c336116c8565b03610c60578060000151838381518110610c4f57610c4f611dfc565b602002602001018181525050610c81565b6000838381518110610c7457610c74611dfc565b6020026020010181815250505b5080610c8c81611e12565b915050610b70565b60008054604051631e1e7e5960e31b81526004810184905282916001600160a01b03169063f0f3f2c890602401600060405180830381865afa158015610cde573d6000803e3d6000fd5b505050506040513d6000823e601f3d908101601f19168201604052610d069190810190611996565b9050600060048260a001516005811115610d2257610d226116c8565b6080840151604001519114915042101581801561044b5750949350505050565b60008054604051631e1e7e5960e31b81526004810184905282916001600160a01b03169063f0f3f2c890602401600060405180830381865afa158015610d8c573d6000803e3d6000fd5b505050506040513d6000823e601f3d908101601f19168201604052610db49190810190611996565b600080546101408301516040516315663e3360e21b8152600481019190915292935090916001600160a01b0390911690635598f8cc90602401600060405180830381865afa158015610e0a573d6000803e3d6000fd5b505050506040513d6000823e601f3d908101601f19168201604052610e329190810190611c99565b9050600073__$700c4b692048d554c7f19e6c07dafefb0c$__638e3e7561836040518263ffffffff1660e01b8152600401610e6d919061205e565b602060405180830381865af4158015610e8a573d6000803e3d6000fd5b505050506040513d601f19601f82011682018060405250810190610eae9190612157565b602084015161016085015191925090869060015b818314610f6c5760008054604051631e1e7e5960e31b8152600481018590526001600160a01b039091169063f0f3f2c890602401600060405180830381865afa158015610f13573d6000803e3d6000fd5b505050506040513d6000823e601f3d908101601f19168201604052610f3b9190810190611996565b9050806020015185610f4d9190612170565b61016082015190955092935081610f6381612187565b92505050610ec2565b610f7781606461228a565b610f818686612170565b61039691906122a0565b60008054604051631e1e7e5960e31b815260048101849052829182916001600160a01b039091169063f0f3f2c890602401600060405180830381865afa158015610fd9573d6000803e3d6000fd5b505050506040513d6000823e601f3d908101601f191682016040526110019190810190611996565b905060058160a00151600581111561101b5761101b6116c8565b03611049576110298461060d565b1561103a5750600193849350915050565b60a00151600094909350915050565b60018160a001516005811115611061576110616116c8565b036110815761106f846103a3565b1561103a575060019360029350915050565b60028160a001516005811115611099576110996116c8565b036110b9576110a7846110f1565b1561103a575060019360039350915050565b60038160a0015160058111156110d1576110d16116c8565b0361103a576110df8461025b565b1561103a575060019360049350915050565b60008054604051631e1e7e5960e31b81526004810184905282916001600160a01b03169063f0f3f2c890602401600060405180830381865afa15801561113b573d6000803e3d6000fd5b505050506040513d6000823e601f3d908101601f191682016040526111639190810190611996565b905060008060008060008054906101000a90046001600160a01b03166001600160a01b031663aa15d5f06040518163ffffffff1660e01b8152600401608060405180830381865afa1580156111bc573d6000803e3d6000fd5b505050506040513d601f19601f820116820180604052508101906111e09190611b2f565b92965090945092509050600060028660a001516005811115611204576112046116c8565b1490506000848760800151602001516103879190611b7b565b600080546040516315663e3360e21b81526004810185905282916001600160a01b031690635598f8cc90602401600060405180830381865afa158015611267573d6000803e3d6000fd5b505050506040513d6000823e601f3d908101601f1916820160405261128f9190810190611c99565b90506000805b8260a001515181101561052a578260a0015181815181106112b8576112b8611dfc565b60200260200101516001600160a01b0316856001600160a01b0316036112e1576001915061052a565b806112eb81611e12565b915050611295565b60008054604051631e1e7e5960e31b81526004810184905282916001600160a01b03169063f0f3f2c890602401600060405180830381865afa15801561133d573d6000803e3d6000fd5b505050506040513d6000823e601f3d908101601f191682016040526113659190810190611996565b9050600060048260a001516005811115611381576113816116c8565b149050600160005b83610180015151811015611466576000805461018086015180516001600160a01b039092169163f0f3f2c89190859081106113c6576113c6611dfc565b60200260200101516040518263ffffffff1660e01b81526004016113ec91815260200190565b600060405180830381865afa158015611409573d6000803e3d6000fd5b505050506040513d6000823e601f3d908101601f191682016040526114319190810190611996565b60a001516005811115611446576114466116c8565b146114545760009150611466565b8061145e81611e12565b915050611389565b5081801561044b5750949350505050565b60008054604051631e1e7e5960e31b815260048101849052606092916001600160a01b03169063f0f3f2c890602401600060405180830381865afa1580156114c3573d6000803e3d6000fd5b505050506040513d6000823e601f3d908101601f191682016040526114eb9190810190611996565b604080516000808252602082019092529192505b826101a00151518110156108ba57600080546101a085015180516001600160a01b0390921691631d65e77e91908590811061153c5761153c611dfc565b60200260200101516040518263ffffffff1660e01b815260040161156291815260200190565b600060405180830381865afa15801561157f573d6000803e3d6000fd5b505050506040513d6000823e601f3d908101601f191682016040526115a79190810190611e3a565b9050600281610100015160048111156115c2576115c26116c8565b036115ef5780600001518383815181106115de576115de611dfc565b602002602001018181525050611610565b600083838151811061160357611603611dfc565b6020026020010181815250505b508061161b81611e12565b9150506114ff565b60006020828403121561163557600080fd5b5035919050565b6001600160a01b038116811461165157600080fd5b50565b6000806040838503121561166757600080fd5b8235915060208301356116798161163c565b809150509250929050565b6020808252825182820181905260009190848201906040850190845b818110156116bc578351835292840192918401916001016116a0565b50909695505050505050565b634e487b7160e01b600052602160045260246000fd5b821515815260408101600683106116f7576116f76116c8565b8260208301529392505050565b634e487b7160e01b600052604160045260246000fd5b6040516101c081016001600160401b038111828210171561173d5761173d611704565b60405290565b60405161014081016001600160401b038111828210171561173d5761173d611704565b604051601f8201601f191681016001600160401b038111828210171561178e5761178e611704565b604052919050565b60005b838110156117b1578181015183820152602001611799565b50506000910152565b600082601f8301126117cb57600080fd5b81516001600160401b038111156117e4576117e4611704565b6117f7601f8201601f1916602001611766565b81815284602083860101111561180c57600080fd5b61181d826020830160208701611796565b949350505050565b60006060828403121561183757600080fd5b604051606081016001600160401b038111828210171561185957611859611704565b80604052508091508251815260208301516020820152604083015160408201525092915050565b80516006811061188f57600080fd5b919050565b8051801515811461188f57600080fd5b60006001600160401b038211156118bd576118bd611704565b5060051b60200190565b600082601f8301126118d857600080fd5b815160206118ed6118e8836118a4565b611766565b82815260059290921b8401810191818101908684111561190c57600080fd5b8286015b848110156119275780518352918301918301611910565b509695505050505050565b600082601f83011261194357600080fd5b815160206119536118e8836118a4565b82815260059290921b8401810191818101908684111561197257600080fd5b8286015b848110156119275780516119898161163c565b8352918301918301611976565b6000602082840312156119a857600080fd5b81516001600160401b03808211156119bf57600080fd5b9083019061020082860312156119d457600080fd5b6119dc61171a565b8251828111156119eb57600080fd5b6119f7878286016117ba565b825250602083015160208201526040830151604082015260608301516060820152611a258660808501611825565b6080820152611a3660e08401611880565b60a0820152610100611a49818501611894565b60c08301526101208085015184811115611a6257600080fd5b611a6e898288016118c7565b60e0850152506101408086015185811115611a8857600080fd5b611a948a828901611932565b848601525061016092508286015185811115611aaf57600080fd5b611abb8a828901611932565b838601525061018091508186015181850152506101a080860151838501526101c0860151925084831115611aee57600080fd5b611afa898488016118c7565b828501526101e0860151925084831115611b1357600080fd5b611b1f898488016118c7565b9084015250909695505050505050565b60008060008060808587031215611b4557600080fd5b505082516020840151604085015160609095015191969095509092509050565b634e487b7160e01b600052601160045260246000fd5b8082018082111561052f5761052f611b65565b80516002811061188f57600080fd5b805161188f8161163c565b600060a08284031215611bba57600080fd5b60405160a081016001600160401b0381118282101715611bdc57611bdc611704565b80604052508091508251611bef8161163c565b80825250602083015160208201526040830151604082015260608301516060820152611c1d60808401611894565b60808201525092915050565b600082601f830112611c3a57600080fd5b81516020611c4a6118e8836118a4565b82815260a09283028501820192828201919087851115611c6957600080fd5b8387015b85811015611c8c57611c7f8982611ba8565b8452928401928101611c6d565b5090979650505050505050565b600060208284031215611cab57600080fd5b81516001600160401b0380821115611cc257600080fd5b908301906101c08286031215611cd757600080fd5b611cdf611743565b825182811115611cee57600080fd5b611cfa878286016117ba565b82525060208301516020820152611d1360408401611b8e565b6040820152611d2460608401611b9d565b6060820152608083015182811115611d3b57600080fd5b611d4787828601611932565b60808301525060a083015182811115611d5f57600080fd5b611d6b87828601611932565b60a08301525060c083015182811115611d8357600080fd5b611d8f87828601611932565b60c083015250611da28660e08501611ba8565b60e082015261018083015182811115611dba57600080fd5b611dc687828601611c29565b610100830152506101a083015182811115611de057600080fd5b611dec878286016118c7565b6101208301525095945050505050565b634e487b7160e01b600052603260045260246000fd5b600060018201611e2457611e24611b65565b5060010190565b80516005811061188f57600080fd5b600060208284031215611e4c57600080fd5b81516001600160401b0380821115611e6357600080fd5b908301906101408286031215611e7857600080fd5b611e80611743565b82518152602083015182811115611e9657600080fd5b611ea2878286016117ba565b60208301525060408301516040820152611ebe60608401611894565b60608201526080830151608082015260a083015160a0820152611ee360c08401611b9d565b60c082015260e083015182811115611efa57600080fd5b611f06878286016117ba565b60e0830152506101009150611f1c828401611e2b565b9181019190915261012091820151918101919091529392505050565b60008151808452611f50816020860160208601611796565b601f01601f19169290920160200192915050565b60028110611f7457611f746116c8565b9052565b600081518084526020808501945080840160005b83811015611fb15781516001600160a01b031687529582019590820190600101611f8c565b509495945050505050565b80516001600160a01b031682526020808201519083015260408082015190830152606080820151908301526080908101511515910152565b600081518084526020808501945080840160005b83811015611fb15761201b878351611fbc565b60a0969096019590820190600101612008565b600081518084526020808501945080840160005b83811015611fb157815187529582019590820190600101612042565b60208152600082516101c080602085015261207d6101e0850183611f38565b915060208501516040850152604085015161209b6060860182611f64565b5060608501516001600160a01b0381166080860152506080850151601f19808685030160a08701526120cd8483611f78565b935060a08701519150808685030160c08701526120ea8483611f78565b935060c08701519150808685030160e08701526121078483611f78565b935060e0870151915061010061211f81880184611fbc565b87015186850382016101a088015291506121398483611ff4565b93506101208701519150808685030183870152506106c7838261202e565b60006020828403121561216957600080fd5b5051919050565b808202811582820484141761052f5761052f611b65565b600060ff821660ff810361219d5761219d611b65565b60010192915050565b600181815b808511156121e15781600019048211156121c7576121c7611b65565b808516156121d457918102915b93841c93908002906121ab565b509250929050565b6000826121f85750600161052f565b816122055750600061052f565b816001811461221b576002811461222557612241565b600191505061052f565b60ff84111561223657612236611b65565b50506001821b61052f565b5060208310610133831016604e8410600b8410161715612264575081810a61052f565b61226e83836121a6565b806000190482111561228257612282611b65565b029392505050565b600061229960ff8416836121e9565b9392505050565b6000826122bd57634e487b7160e01b600052601260045260246000fd5b50049056fea264697066735822122052ee690cfbb1aa45977cfa5cadbbaf21b30599d5bba47e3793c4a75692ef66e564736f6c63430008140033",
    "linkReferences": {
      "contracts/Libraries.sol": {
        "CampaignManager": [
          {
            "start": 3924,
            "length": 20
          }
        ]
      }
    }
  },
  "methodIdentifiers": {
    "checkIsCampaignAcceptor(uint256,address)": "d24f932d",
    "checkIsCampaignOwner(uint256,address)": "3e685a36",
    "checkIsProjectWorker(uint256,address)": "3fedd4b5",
    "computeProjectReward(uint256)": "a39ecd71",
    "getDeclinedTasksIDs(uint256)": "e32eaa5f",
    "getDisputedTasksIDs(uint256)": "8b7b766f",
    "getNoneTasksIDs(uint256)": "7521da2f",
    "getPendingTasksIDs(uint256)": "78e1b03c",
    "standardSubstrateAddress()": "f235b34e",
    "toClosedConditions(uint256)": "e029842c",
    "toGateConditions(uint256)": "19d801e6",
    "toPostDispConditions(uint256)": "14b541ae",
    "toPostSubConditions(uint256)": "ce875740",
    "toSettledConditions(uint256)": "a063d291",
    "toStageConditions(uint256)": "68365f54",
    "whereToGo(uint256)": "b2be86ad"
  },
  "id": 6
}