{
  "abi": [
    {
      "inputs": [
        {
          "internalType": "address",
          "name": "_standardCampaignAddress",
          "type": "address"
        }
      ],
      "stateMutability": "nonpayable",
      "type": "constructor"
    },
    {
      "inputs": [
        {
          "internalType": "uint256",
          "name": "_id",
          "type": "uint256"
        },
        {
          "internalType": "address",
          "name": "_address",
          "type": "address"
        }
      ],
      "name": "checkIsCampaignAcceptor",
      "outputs": [
        {
          "internalType": "bool",
          "name": "",
          "type": "bool"
        }
      ],
      "stateMutability": "view",
      "type": "function"
    },
    {
      "inputs": [
        {
          "internalType": "uint256",
          "name": "_id",
          "type": "uint256"
        },
        {
          "internalType": "address",
          "name": "_address",
          "type": "address"
        }
      ],
      "name": "checkIsCampaignOwner",
      "outputs": [
        {
          "internalType": "bool",
          "name": "",
          "type": "bool"
        }
      ],
      "stateMutability": "view",
      "type": "function"
    },
    {
      "inputs": [
        {
          "internalType": "uint256",
          "name": "_id",
          "type": "uint256"
        },
        {
          "internalType": "address",
          "name": "_address",
          "type": "address"
        }
      ],
      "name": "checkIsProjectWorker",
      "outputs": [
        {
          "internalType": "bool",
          "name": "",
          "type": "bool"
        }
      ],
      "stateMutability": "view",
      "type": "function"
    },
    {
      "inputs": [
        {
          "internalType": "uint256",
          "name": "_projectID",
          "type": "uint256"
        }
      ],
      "name": "computeProjectReward",
      "outputs": [
        {
          "internalType": "uint256",
          "name": "",
          "type": "uint256"
        }
      ],
      "stateMutability": "view",
      "type": "function"
    },
    {
      "inputs": [
        {
          "internalType": "uint256",
          "name": "_projectID",
          "type": "uint256"
        }
      ],
      "name": "getDeclinedTasksIDs",
      "outputs": [
        {
          "internalType": "uint256[]",
          "name": "",
          "type": "uint256[]"
        }
      ],
      "stateMutability": "view",
      "type": "function"
    },
    {
      "inputs": [
        {
          "internalType": "uint256",
          "name": "_projectID",
          "type": "uint256"
        }
      ],
      "name": "getDisputedTasksIDs",
      "outputs": [
        {
          "internalType": "uint256[]",
          "name": "",
          "type": "uint256[]"
        }
      ],
      "stateMutability": "view",
      "type": "function"
    },
    {
      "inputs": [
        {
          "internalType": "uint256",
          "name": "_projectID",
          "type": "uint256"
        }
      ],
      "name": "getNoneTasksIDs",
      "outputs": [
        {
          "internalType": "uint256[]",
          "name": "",
          "type": "uint256[]"
        }
      ],
      "stateMutability": "view",
      "type": "function"
    },
    {
      "inputs": [
        {
          "internalType": "uint256",
          "name": "_projectID",
          "type": "uint256"
        }
      ],
      "name": "getPendingTasksIDs",
      "outputs": [
        {
          "internalType": "uint256[]",
          "name": "",
          "type": "uint256[]"
        }
      ],
      "stateMutability": "view",
      "type": "function"
    },
    {
      "inputs": [],
      "name": "standardCampaignAddress",
      "outputs": [
        {
          "internalType": "address",
          "name": "",
          "type": "address"
        }
      ],
      "stateMutability": "view",
      "type": "function"
    },
    {
      "inputs": [
        {
          "internalType": "uint256",
          "name": "_projectID",
          "type": "uint256"
        }
      ],
      "name": "toClosedConditions",
      "outputs": [
        {
          "internalType": "bool",
          "name": "",
          "type": "bool"
        }
      ],
      "stateMutability": "view",
      "type": "function"
    },
    {
      "inputs": [
        {
          "internalType": "uint256",
          "name": "_projectID",
          "type": "uint256"
        }
      ],
      "name": "toGateConditions",
      "outputs": [
        {
          "internalType": "bool",
          "name": "",
          "type": "bool"
        }
      ],
      "stateMutability": "view",
      "type": "function"
    },
    {
      "inputs": [
        {
          "internalType": "uint256",
          "name": "_projectID",
          "type": "uint256"
        }
      ],
      "name": "toPostDispConditions",
      "outputs": [
        {
          "internalType": "bool",
          "name": "",
          "type": "bool"
        }
      ],
      "stateMutability": "view",
      "type": "function"
    },
    {
      "inputs": [
        {
          "internalType": "uint256",
          "name": "_projectID",
          "type": "uint256"
        }
      ],
      "name": "toPostSubConditions",
      "outputs": [
        {
          "internalType": "bool",
          "name": "",
          "type": "bool"
        }
      ],
      "stateMutability": "view",
      "type": "function"
    },
    {
      "inputs": [
        {
          "internalType": "uint256",
          "name": "_projectID",
          "type": "uint256"
        }
      ],
      "name": "toSettledConditions",
      "outputs": [
        {
          "internalType": "bool",
          "name": "",
          "type": "bool"
        }
      ],
      "stateMutability": "view",
      "type": "function"
    },
    {
      "inputs": [
        {
          "internalType": "uint256",
          "name": "_projectID",
          "type": "uint256"
        }
      ],
      "name": "toStageConditions",
      "outputs": [
        {
          "internalType": "bool",
          "name": "",
          "type": "bool"
        }
      ],
      "stateMutability": "view",
      "type": "function"
    },
    {
      "inputs": [
        {
          "internalType": "uint256",
          "name": "_projectID",
          "type": "uint256"
        }
      ],
      "name": "whereToGo",
      "outputs": [
        {
          "internalType": "bool",
          "name": "isGoing",
          "type": "bool"
        },
        {
          "internalType": "enum ProjectManager.ProjectStatus",
          "name": "goingTo",
          "type": "uint8"
        }
      ],
      "stateMutability": "view",
      "type": "function"
    }
  ],
  "bytecode": {
    "object": "0x6080604052600080546001600160a01b03191690553480156200002157600080fd5b506040516200247b3803806200247b8339810160408190526200004491620000d9565b6000546001600160a01b031615620000b35760405162461bcd60e51b815260206004820152602860248201527f7374616e6461726443616d706169676e41646472657373206d75737420626520604482015267736574206f6e636560c01b606482015260840160405180910390fd5b600080546001600160a01b0319166001600160a01b03929092169190911790556200010b565b600060208284031215620000ec57600080fd5b81516001600160a01b03811681146200010457600080fd5b9392505050565b612360806200011b6000396000f3fe608060405234801561001057600080fd5b50600436106100d05760003560e01c806314b541ae146100d557806319d801e6146100fd5780633e685a36146101105780633fedd4b51461012357806368365f54146101365780637521da2f1461014957806378e1b03c1461016957806380bdec651461017c5780638b7b766f146101a7578063a063d291146101ba578063a39ecd71146101cd578063b2be86ad146101ee578063ce8757401461020f578063d24f932d14610222578063e029842c14610235578063e32eaa5f14610248575b600080fd5b6100e86100e3366004611623565b61025b565b60405190151581526020015b60405180910390f35b6100e861010b366004611623565b6103a3565b6100e861011e366004611654565b610454565b6100e8610131366004611654565b610535565b6100e8610144366004611623565b61060d565b61015c610157366004611623565b6106d1565b6040516100f49190611684565b61015c610177366004611623565b6108c2565b60005461018f906001600160a01b031681565b6040516001600160a01b0390911681526020016100f4565b61015c6101b5366004611623565b610aab565b6100e86101c8366004611623565b610c94565b6101e06101db366004611623565b610d42565b6040519081526020016100f4565b6102016101fc366004611623565b610f8b565b6040516100f49291906116de565b6100e861021d366004611623565b6110f1565b6100e8610230366004611654565b61121d565b6100e8610243366004611623565b6112f3565b61015c610256366004611623565b611477565b60008054604051631e1e7e5960e31b81526004810184905282916001600160a01b03169063f0f3f2c890602401600060405180830381865afa1580156102a5573d6000803e3d6000fd5b505050506040513d6000823e601f3d908101601f191682016040526102cd91908101906119b9565b905060008060008060008054906101000a90046001600160a01b03166001600160a01b031663aa15d5f06040518163ffffffff1660e01b8152600401608060405180830381865afa158015610326573d6000803e3d6000fd5b505050506040513d601f19601f8201168201806040525081019061034a9190611b52565b92965090945092509050600060038660a00151600581111561036e5761036e6116c8565b1490506000838760800151602001516103879190611b9e565b42101590508180156103965750805b9998505050505050505050565b60008054604051631e1e7e5960e31b81526004810184905282916001600160a01b03169063f0f3f2c890602401600060405180830381865afa1580156103ed573d6000803e3d6000fd5b505050506040513d6000823e601f3d908101601f1916820160405261041591908101906119b9565b9050600060018260a001516005811115610431576104316116c8565b6080840151602001519114915042101581801561044b5750805b95945050505050565b600080546040516315663e3360e21b81526004810185905282916001600160a01b031690635598f8cc90602401600060405180830381865afa15801561049e573d6000803e3d6000fd5b505050506040513d6000823e601f3d908101601f191682016040526104c69190810190611cbc565b90506000805b82608001515181101561052a57826080015181815181106104ef576104ef611e45565b60200260200101516001600160a01b0316856001600160a01b031603610518576001915061052a565b8061052281611e5b565b9150506104cc565b509150505b92915050565b60008054604051631e1e7e5960e31b81526004810185905282916001600160a01b03169063f0f3f2c890602401600060405180830381865afa15801561057f573d6000803e3d6000fd5b505050506040513d6000823e601f3d908101601f191682016040526105a791908101906119b9565b90506000805b8261010001515181101561052a5782610100015181815181106105d2576105d2611e45565b60200260200101516001600160a01b0316856001600160a01b0316036105fb576001915061052a565b8061060581611e5b565b9150506105ad565b60008054604051631e1e7e5960e31b81526004810184905282916001600160a01b03169063f0f3f2c890602401600060405180830381865afa158015610657573d6000803e3d6000fd5b505050506040513d6000823e601f3d908101601f1916820160405261067f91908101906119b9565b9050600060058260a00151600581111561069b5761069b6116c8565b610100840151516080850151519290911492501515904210158280156106be5750815b80156106c75750805b9695505050505050565b60008054604051631e1e7e5960e31b815260048101849052606092916001600160a01b03169063f0f3f2c890602401600060405180830381865afa15801561071d573d6000803e3d6000fd5b505050506040513d6000823e601f3d908101601f1916820160405261074591908101906119b9565b90506000816101a00151516001600160401b0381111561076757610767611704565b604051908082528060200260200182016040528015610790578160200160208202803683370190505b50905060005b826101a00151518110156108ba57600080546101a085015180516001600160a01b0390921691631d65e77e9190859081106107d3576107d3611e45565b60200260200101516040518263ffffffff1660e01b81526004016107f991815260200190565b600060405180830381865afa158015610816573d6000803e3d6000fd5b505050506040513d6000823e601f3d908101601f1916820160405261083e9190810190611e83565b905060008161010001516004811115610859576108596116c8565b0361088657806000015183838151811061087557610875611e45565b6020026020010181815250506108a7565b600083838151811061089a5761089a611e45565b6020026020010181815250505b50806108b281611e5b565b915050610796565b509392505050565b60008054604051631e1e7e5960e31b815260048101849052606092916001600160a01b03169063f0f3f2c890602401600060405180830381865afa15801561090e573d6000803e3d6000fd5b505050506040513d6000823e601f3d908101601f1916820160405261093691908101906119b9565b90506000816101a00151516001600160401b0381111561095857610958611704565b604051908082528060200260200182016040528015610981578160200160208202803683370190505b50905060005b826101a00151518110156108ba57600080546101a085015180516001600160a01b0390921691631d65e77e9190859081106109c4576109c4611e45565b60200260200101516040518263ffffffff1660e01b81526004016109ea91815260200190565b600060405180830381865afa158015610a07573d6000803e3d6000fd5b505050506040513d6000823e601f3d908101601f19168201604052610a2f9190810190611e83565b905060018161010001516004811115610a4a57610a4a6116c8565b03610a77578060000151838381518110610a6657610a66611e45565b602002602001018181525050610a98565b6000838381518110610a8b57610a8b611e45565b6020026020010181815250505b5080610aa381611e5b565b915050610987565b60008054604051631e1e7e5960e31b815260048101849052606092916001600160a01b03169063f0f3f2c890602401600060405180830381865afa158015610af7573d6000803e3d6000fd5b505050506040513d6000823e601f3d908101601f19168201604052610b1f91908101906119b9565b90506000816101a00151516001600160401b03811115610b4157610b41611704565b604051908082528060200260200182016040528015610b6a578160200160208202803683370190505b50905060005b826101a00151518110156108ba57600080546101a085015180516001600160a01b0390921691631d65e77e919085908110610bad57610bad611e45565b60200260200101516040518263ffffffff1660e01b8152600401610bd391815260200190565b600060405180830381865afa158015610bf0573d6000803e3d6000fd5b505050506040513d6000823e601f3d908101601f19168201604052610c189190810190611e83565b905060048161010001516004811115610c3357610c336116c8565b03610c60578060000151838381518110610c4f57610c4f611e45565b602002602001018181525050610c81565b6000838381518110610c7457610c74611e45565b6020026020010181815250505b5080610c8c81611e5b565b915050610b70565b60008054604051631e1e7e5960e31b81526004810184905282916001600160a01b03169063f0f3f2c890602401600060405180830381865afa158015610cde573d6000803e3d6000fd5b505050506040513d6000823e601f3d908101601f19168201604052610d0691908101906119b9565b9050600060048260a001516005811115610d2257610d226116c8565b6080840151604001519114915042101581801561044b5750949350505050565b60008054604051631e1e7e5960e31b81526004810184905282916001600160a01b03169063f0f3f2c890602401600060405180830381865afa158015610d8c573d6000803e3d6000fd5b505050506040513d6000823e601f3d908101601f19168201604052610db491908101906119b9565b600080546101408301516040516315663e3360e21b8152600481019190915292935090916001600160a01b0390911690635598f8cc90602401600060405180830381865afa158015610e0a573d6000803e3d6000fd5b505050506040513d6000823e601f3d908101601f19168201604052610e329190810190611cbc565b9050600073__$700c4b692048d554c7f19e6c07dafefb0c$__638e3e7561836040518263ffffffff1660e01b8152600401610e6d91906120a7565b602060405180830381865af4158015610e8a573d6000803e3d6000fd5b505050506040513d601f19601f82011682018060405250810190610eae91906121bf565b602084015161016085015191925090869060015b818314610f6c5760008054604051631e1e7e5960e31b8152600481018590526001600160a01b039091169063f0f3f2c890602401600060405180830381865afa158015610f13573d6000803e3d6000fd5b505050506040513d6000823e601f3d908101601f19168201604052610f3b91908101906119b9565b9050806020015185610f4d91906121d8565b61016082015190955092935081610f63816121ef565b92505050610ec2565b610f778160646122f2565b610f8186866121d8565b6103969190612308565b60008054604051631e1e7e5960e31b815260048101849052829182916001600160a01b039091169063f0f3f2c890602401600060405180830381865afa158015610fd9573d6000803e3d6000fd5b505050506040513d6000823e601f3d908101601f1916820160405261100191908101906119b9565b905060058160a00151600581111561101b5761101b6116c8565b03611049576110298461060d565b1561103a5750600193849350915050565b60a00151600094909350915050565b60018160a001516005811115611061576110616116c8565b036110815761106f846103a3565b1561103a575060019360029350915050565b60028160a001516005811115611099576110996116c8565b036110b9576110a7846110f1565b1561103a575060019360039350915050565b60038160a0015160058111156110d1576110d16116c8565b0361103a576110df8461025b565b1561103a575060019360049350915050565b60008054604051631e1e7e5960e31b81526004810184905282916001600160a01b03169063f0f3f2c890602401600060405180830381865afa15801561113b573d6000803e3d6000fd5b505050506040513d6000823e601f3d908101601f1916820160405261116391908101906119b9565b905060008060008060008054906101000a90046001600160a01b03166001600160a01b031663aa15d5f06040518163ffffffff1660e01b8152600401608060405180830381865afa1580156111bc573d6000803e3d6000fd5b505050506040513d601f19601f820116820180604052508101906111e09190611b52565b92965090945092509050600060028660a001516005811115611204576112046116c8565b1490506000848760800151602001516103879190611b9e565b600080546040516315663e3360e21b81526004810185905282916001600160a01b031690635598f8cc90602401600060405180830381865afa158015611267573d6000803e3d6000fd5b505050506040513d6000823e601f3d908101601f1916820160405261128f9190810190611cbc565b90506000805b8260a001515181101561052a578260a0015181815181106112b8576112b8611e45565b60200260200101516001600160a01b0316856001600160a01b0316036112e1576001915061052a565b806112eb81611e5b565b915050611295565b60008054604051631e1e7e5960e31b81526004810184905282916001600160a01b03169063f0f3f2c890602401600060405180830381865afa15801561133d573d6000803e3d6000fd5b505050506040513d6000823e601f3d908101601f1916820160405261136591908101906119b9565b9050600060048260a001516005811115611381576113816116c8565b149050600160005b83610180015151811015611466576000805461018086015180516001600160a01b039092169163f0f3f2c89190859081106113c6576113c6611e45565b60200260200101516040518263ffffffff1660e01b81526004016113ec91815260200190565b600060405180830381865afa158015611409573d6000803e3d6000fd5b505050506040513d6000823e601f3d908101601f1916820160405261143191908101906119b9565b60a001516005811115611446576114466116c8565b146114545760009150611466565b8061145e81611e5b565b915050611389565b5081801561044b5750949350505050565b60008054604051631e1e7e5960e31b815260048101849052606092916001600160a01b03169063f0f3f2c890602401600060405180830381865afa1580156114c3573d6000803e3d6000fd5b505050506040513d6000823e601f3d908101601f191682016040526114eb91908101906119b9565b604080516000808252602082019092529192505b826101a00151518110156108ba57600080546101a085015180516001600160a01b0390921691631d65e77e91908590811061153c5761153c611e45565b60200260200101516040518263ffffffff1660e01b815260040161156291815260200190565b600060405180830381865afa15801561157f573d6000803e3d6000fd5b505050506040513d6000823e601f3d908101601f191682016040526115a79190810190611e83565b9050600281610100015160048111156115c2576115c26116c8565b036115ef5780600001518383815181106115de576115de611e45565b602002602001018181525050611610565b600083838151811061160357611603611e45565b6020026020010181815250505b508061161b81611e5b565b9150506114ff565b60006020828403121561163557600080fd5b5035919050565b6001600160a01b038116811461165157600080fd5b50565b6000806040838503121561166757600080fd5b8235915060208301356116798161163c565b809150509250929050565b6020808252825182820181905260009190848201906040850190845b818110156116bc578351835292840192918401916001016116a0565b50909695505050505050565b634e487b7160e01b600052602160045260246000fd5b821515815260408101600683106116f7576116f76116c8565b8260208301529392505050565b634e487b7160e01b600052604160045260246000fd5b6040516101c081016001600160401b038111828210171561173d5761173d611704565b60405290565b60405161016081016001600160401b038111828210171561173d5761173d611704565b60405161014081016001600160401b038111828210171561173d5761173d611704565b604051601f8201601f191681016001600160401b03811182821017156117b1576117b1611704565b604052919050565b60005b838110156117d45781810151838201526020016117bc565b50506000910152565b600082601f8301126117ee57600080fd5b81516001600160401b0381111561180757611807611704565b61181a601f8201601f1916602001611789565b81815284602083860101111561182f57600080fd5b6118408260208301602087016117b9565b949350505050565b60006060828403121561185a57600080fd5b604051606081016001600160401b038111828210171561187c5761187c611704565b80604052508091508251815260208301516020820152604083015160408201525092915050565b8051600681106118b257600080fd5b919050565b805180151581146118b257600080fd5b60006001600160401b038211156118e0576118e0611704565b5060051b60200190565b600082601f8301126118fb57600080fd5b8151602061191061190b836118c7565b611789565b82815260059290921b8401810191818101908684111561192f57600080fd5b8286015b8481101561194a5780518352918301918301611933565b509695505050505050565b600082601f83011261196657600080fd5b8151602061197661190b836118c7565b82815260059290921b8401810191818101908684111561199557600080fd5b8286015b8481101561194a5780516119ac8161163c565b8352918301918301611999565b6000602082840312156119cb57600080fd5b81516001600160401b03808211156119e257600080fd5b9083019061020082860312156119f757600080fd5b6119ff61171a565b825182811115611a0e57600080fd5b611a1a878286016117dd565b825250602083015160208201526040830151604082015260608301516060820152611a488660808501611848565b6080820152611a5960e084016118a3565b60a0820152610100611a6c8185016118b7565b60c08301526101208085015184811115611a8557600080fd5b611a91898288016118ea565b60e0850152506101408086015185811115611aab57600080fd5b611ab78a828901611955565b848601525061016092508286015185811115611ad257600080fd5b611ade8a828901611955565b838601525061018091508186015181850152506101a080860151838501526101c0860151925084831115611b1157600080fd5b611b1d898488016118ea565b828501526101e0860151925084831115611b3657600080fd5b611b42898488016118ea565b9084015250909695505050505050565b60008060008060808587031215611b6857600080fd5b505082516020840151604085015160609095015191969095509092509050565b634e487b7160e01b600052601160045260246000fd5b8082018082111561052f5761052f611b88565b8051600281106118b257600080fd5b80516118b28161163c565b600060a08284031215611bdd57600080fd5b60405160a081016001600160401b0381118282101715611bff57611bff611704565b80604052508091508251611c128161163c565b80825250602083015160208201526040830151604082015260608301516060820152611c40608084016118b7565b60808201525092915050565b600082601f830112611c5d57600080fd5b81516020611c6d61190b836118c7565b82815260a09283028501820192828201919087851115611c8c57600080fd5b8387015b85811015611caf57611ca28982611bcb565b8452928401928101611c90565b5090979650505050505050565b600060208284031215611cce57600080fd5b81516001600160401b0380821115611ce557600080fd5b908301906101e08286031215611cfa57600080fd5b611d02611743565b825182811115611d1157600080fd5b611d1d878286016117dd565b82525060208301516020820152611d3660408401611bb1565b6040820152611d4760608401611bc0565b6060820152608083015182811115611d5e57600080fd5b611d6a87828601611955565b60808301525060a083015182811115611d8257600080fd5b611d8e87828601611955565b60a08301525060c083015182811115611da657600080fd5b611db287828601611955565b60c083015250611dc58660e08501611bcb565b60e082015261018083015182811115611ddd57600080fd5b611de987828601611c4c565b610100830152506101a083015182811115611e0357600080fd5b611e0f878286016118ea565b610120830152506101c083015182811115611e2957600080fd5b611e35878286016118ea565b6101408301525095945050505050565b634e487b7160e01b600052603260045260246000fd5b600060018201611e6d57611e6d611b88565b5060010190565b8051600581106118b257600080fd5b600060208284031215611e9557600080fd5b81516001600160401b0380821115611eac57600080fd5b908301906101408286031215611ec157600080fd5b611ec9611766565b82518152602083015182811115611edf57600080fd5b611eeb878286016117dd565b60208301525060408301516040820152611f07606084016118b7565b60608201526080830151608082015260a083015160a0820152611f2c60c08401611bc0565b60c082015260e083015182811115611f4357600080fd5b611f4f878286016117dd565b60e0830152506101009150611f65828401611e74565b9181019190915261012091820151918101919091529392505050565b60008151808452611f998160208601602086016117b9565b601f01601f19169290920160200192915050565b60028110611fbd57611fbd6116c8565b9052565b600081518084526020808501945080840160005b83811015611ffa5781516001600160a01b031687529582019590820190600101611fd5565b509495945050505050565b80516001600160a01b031682526020808201519083015260408082015190830152606080820151908301526080908101511515910152565b600081518084526020808501945080840160005b83811015611ffa57612064878351612005565b60a0969096019590820190600101612051565b600081518084526020808501945080840160005b83811015611ffa5781518752958201959082019060010161208b565b60208152600082516101e08060208501526120c6610200850183611f81565b91506020850151604085015260408501516120e46060860182611fad565b5060608501516001600160a01b0381166080860152506080850151601f19808685030160a08701526121168483611fc1565b935060a08701519150808685030160c08701526121338483611fc1565b935060c08701519150808685030160e08701526121508483611fc1565b935060e0870151915061010061216881880184612005565b87015186850382016101a08801529150612182848361203d565b9350610120870151915080868503016101c08701526121a18483612077565b93506101408701519150808685030183870152506106c78382612077565b6000602082840312156121d157600080fd5b5051919050565b808202811582820484141761052f5761052f611b88565b600060ff821660ff810361220557612205611b88565b60010192915050565b600181815b8085111561224957816000190482111561222f5761222f611b88565b8085161561223c57918102915b93841c9390800290612213565b509250929050565b6000826122605750600161052f565b8161226d5750600061052f565b8160018114612283576002811461228d576122a9565b600191505061052f565b60ff84111561229e5761229e611b88565b50506001821b61052f565b5060208310610133831016604e8410600b84101617156122cc575081810a61052f565b6122d6838361220e565b80600019048211156122ea576122ea611b88565b029392505050565b600061230160ff841683612251565b9392505050565b60008261232557634e487b7160e01b600052601260045260246000fd5b50049056fea2646970667358221220d9bd3ca2644d8e8a709e85dac0ff2ac5363099dc09b611cfb2aa84c8febb98e064736f6c63430008140033",
    "linkReferences": {
      "contracts/Libraries.sol": {
        "CampaignManager": [
          {
            "start": 3923,
            "length": 20
          }
        ]
      }
    }
  },
  "methodIdentifiers": {
    "checkIsCampaignAcceptor(uint256,address)": "d24f932d",
    "checkIsCampaignOwner(uint256,address)": "3e685a36",
    "checkIsProjectWorker(uint256,address)": "3fedd4b5",
    "computeProjectReward(uint256)": "a39ecd71",
    "getDeclinedTasksIDs(uint256)": "e32eaa5f",
    "getDisputedTasksIDs(uint256)": "8b7b766f",
    "getNoneTasksIDs(uint256)": "7521da2f",
    "getPendingTasksIDs(uint256)": "78e1b03c",
    "standardCampaignAddress()": "80bdec65",
    "toClosedConditions(uint256)": "e029842c",
    "toGateConditions(uint256)": "19d801e6",
    "toPostDispConditions(uint256)": "14b541ae",
    "toPostSubConditions(uint256)": "ce875740",
    "toSettledConditions(uint256)": "a063d291",
    "toStageConditions(uint256)": "68365f54",
    "whereToGo(uint256)": "b2be86ad"
  },
  "id": 6
}