{
  "abi": [
    {
      "inputs": [
        {
          "internalType": "address",
          "name": "_standardSubstrateAddress",
          "type": "address"
        }
      ],
      "stateMutability": "nonpayable",
      "type": "constructor"
    },
    {
      "inputs": [
        {
          "internalType": "uint256",
          "name": "_id",
          "type": "uint256"
        },
        {
          "internalType": "address",
          "name": "_address",
          "type": "address"
        }
      ],
      "name": "checkIsCampaignAcceptor",
      "outputs": [
        {
          "internalType": "bool",
          "name": "",
          "type": "bool"
        }
      ],
      "stateMutability": "view",
      "type": "function"
    },
    {
      "inputs": [
        {
          "internalType": "uint256",
          "name": "_id",
          "type": "uint256"
        },
        {
          "internalType": "address",
          "name": "_address",
          "type": "address"
        }
      ],
      "name": "checkIsCampaignOwner",
      "outputs": [
        {
          "internalType": "bool",
          "name": "",
          "type": "bool"
        }
      ],
      "stateMutability": "view",
      "type": "function"
    },
    {
      "inputs": [
        {
          "internalType": "uint256",
          "name": "_id",
          "type": "uint256"
        },
        {
          "internalType": "address",
          "name": "_address",
          "type": "address"
        }
      ],
      "name": "checkIsProjectWorker",
      "outputs": [
        {
          "internalType": "bool",
          "name": "",
          "type": "bool"
        }
      ],
      "stateMutability": "view",
      "type": "function"
    },
    {
      "inputs": [
        {
          "internalType": "uint256",
          "name": "_projectID",
          "type": "uint256"
        }
      ],
      "name": "computeProjectReward",
      "outputs": [
        {
          "internalType": "uint256",
          "name": "",
          "type": "uint256"
        }
      ],
      "stateMutability": "view",
      "type": "function"
    },
    {
      "inputs": [
        {
          "internalType": "uint256",
          "name": "_projectID",
          "type": "uint256"
        }
      ],
      "name": "getDeclinedTasksIDs",
      "outputs": [
        {
          "internalType": "uint256[]",
          "name": "",
          "type": "uint256[]"
        }
      ],
      "stateMutability": "view",
      "type": "function"
    },
    {
      "inputs": [
        {
          "internalType": "uint256",
          "name": "_projectID",
          "type": "uint256"
        }
      ],
      "name": "getDisputedTasksIDs",
      "outputs": [
        {
          "internalType": "uint256[]",
          "name": "",
          "type": "uint256[]"
        }
      ],
      "stateMutability": "view",
      "type": "function"
    },
    {
      "inputs": [
        {
          "internalType": "uint256",
          "name": "_projectID",
          "type": "uint256"
        }
      ],
      "name": "getNoneTasksIDs",
      "outputs": [
        {
          "internalType": "uint256[]",
          "name": "",
          "type": "uint256[]"
        }
      ],
      "stateMutability": "view",
      "type": "function"
    },
    {
      "inputs": [
        {
          "internalType": "uint256",
          "name": "_projectID",
          "type": "uint256"
        }
      ],
      "name": "getPendingTasksIDs",
      "outputs": [
        {
          "internalType": "uint256[]",
          "name": "",
          "type": "uint256[]"
        }
      ],
      "stateMutability": "view",
      "type": "function"
    },
    {
      "inputs": [],
      "name": "standardSubstrateAddress",
      "outputs": [
        {
          "internalType": "address",
          "name": "",
          "type": "address"
        }
      ],
      "stateMutability": "view",
      "type": "function"
    },
    {
      "inputs": [
        {
          "internalType": "uint256",
          "name": "_projectID",
          "type": "uint256"
        }
      ],
      "name": "toClosedConditions",
      "outputs": [
        {
          "internalType": "bool",
          "name": "",
          "type": "bool"
        }
      ],
      "stateMutability": "view",
      "type": "function"
    },
    {
      "inputs": [
        {
          "internalType": "uint256",
          "name": "_projectID",
          "type": "uint256"
        }
      ],
      "name": "toGateConditions",
      "outputs": [
        {
          "internalType": "bool",
          "name": "",
          "type": "bool"
        }
      ],
      "stateMutability": "view",
      "type": "function"
    },
    {
      "inputs": [
        {
          "internalType": "uint256",
          "name": "_projectID",
          "type": "uint256"
        }
      ],
      "name": "toPostDispConditions",
      "outputs": [
        {
          "internalType": "bool",
          "name": "",
          "type": "bool"
        }
      ],
      "stateMutability": "view",
      "type": "function"
    },
    {
      "inputs": [
        {
          "internalType": "uint256",
          "name": "_projectID",
          "type": "uint256"
        }
      ],
      "name": "toPostSubConditions",
      "outputs": [
        {
          "internalType": "bool",
          "name": "",
          "type": "bool"
        }
      ],
      "stateMutability": "view",
      "type": "function"
    },
    {
      "inputs": [
        {
          "internalType": "uint256",
          "name": "_projectID",
          "type": "uint256"
        }
      ],
      "name": "toSettledConditions",
      "outputs": [
        {
          "internalType": "bool",
          "name": "",
          "type": "bool"
        }
      ],
      "stateMutability": "view",
      "type": "function"
    },
    {
      "inputs": [
        {
          "internalType": "uint256",
          "name": "_projectID",
          "type": "uint256"
        }
      ],
      "name": "toStageConditions",
      "outputs": [
        {
          "internalType": "bool",
          "name": "",
          "type": "bool"
        }
      ],
      "stateMutability": "view",
      "type": "function"
    },
    {
      "inputs": [
        {
          "internalType": "uint256",
          "name": "_projectID",
          "type": "uint256"
        }
      ],
      "name": "whereToGo",
      "outputs": [
        {
          "internalType": "bool",
          "name": "isGoing",
          "type": "bool"
        },
        {
          "internalType": "enum ProjectManager.ProjectStatus",
          "name": "goingTo",
          "type": "uint8"
        }
      ],
      "stateMutability": "view",
      "type": "function"
    }
  ],
  "bytecode": {
    "object": "0x6080604052600080546001600160a01b03191690553480156200002157600080fd5b5060405162002451380380620024518339810160408190526200004491620000da565b6000546001600160a01b031615620000b45760405162461bcd60e51b815260206004820152602960248201527f7374616e6461726453756273747261746541646472657373206d75737420626560448201526820736574206f6e636560b81b606482015260840160405180910390fd5b600080546001600160a01b0319166001600160a01b03929092169190911790556200010c565b600060208284031215620000ed57600080fd5b81516001600160a01b03811681146200010557600080fd5b9392505050565b612335806200011c6000396000f3fe608060405234801561001057600080fd5b50600436106100d05760003560e01c806314b541ae146100d557806319d801e6146100fd5780633e685a36146101105780633fedd4b51461012357806368365f54146101365780637521da2f1461014957806378e1b03c146101695780638b7b766f1461017c578063a063d2911461018f578063a39ecd71146101a2578063b2be86ad146101c3578063ce875740146101e4578063d24f932d146101f7578063e029842c1461020a578063e32eaa5f1461021d578063f235b34e14610230575b600080fd5b6100e86100e3366004611660565b61025b565b60405190151581526020015b60405180910390f35b6100e861010b366004611660565b6103a3565b6100e861011e366004611691565b610454565b6100e8610131366004611691565b610535565b6100e8610144366004611660565b61060d565b61015c610157366004611660565b6106d1565b6040516100f491906116c1565b61015c610177366004611660565b6108c2565b61015c61018a366004611660565b610aab565b6100e861019d366004611660565b610c94565b6101b56101b0366004611660565b610d42565b6040519081526020016100f4565b6101d66101d1366004611660565b610f8b565b6040516100f492919061171b565b6100e86101f2366004611660565b6110f1565b6100e8610205366004611691565b61121d565b6100e8610218366004611660565b6112f3565b61015c61022b366004611660565b611477565b600054610243906001600160a01b031681565b6040516001600160a01b0390911681526020016100f4565b60008054604051631e1e7e5960e31b81526004810184905282916001600160a01b03169063f0f3f2c890602401600060405180830381865afa1580156102a5573d6000803e3d6000fd5b505050506040513d6000823e601f3d908101601f191682016040526102cd91908101906119d3565b905060008060008060008054906101000a90046001600160a01b03166001600160a01b031663aa15d5f06040518163ffffffff1660e01b8152600401608060405180830381865afa158015610326573d6000803e3d6000fd5b505050506040513d601f19601f8201168201806040525081019061034a9190611b6c565b92965090945092509050600060038660a00151600581111561036e5761036e611705565b1490506000838760800151602001516103879190611bb8565b42101590508180156103965750805b9998505050505050505050565b60008054604051631e1e7e5960e31b81526004810184905282916001600160a01b03169063f0f3f2c890602401600060405180830381865afa1580156103ed573d6000803e3d6000fd5b505050506040513d6000823e601f3d908101601f1916820160405261041591908101906119d3565b9050600060018260a00151600581111561043157610431611705565b6080840151602001519114915042101581801561044b5750805b95945050505050565b600080546040516315663e3360e21b81526004810185905282916001600160a01b031690635598f8cc90602401600060405180830381865afa15801561049e573d6000803e3d6000fd5b505050506040513d6000823e601f3d908101601f191682016040526104c69190810190611cd6565b90506000805b82608001515181101561052a57826080015181815181106104ef576104ef611e39565b60200260200101516001600160a01b0316856001600160a01b031603610518576001915061052a565b8061052281611e4f565b9150506104cc565b509150505b92915050565b60008054604051631e1e7e5960e31b81526004810185905282916001600160a01b03169063f0f3f2c890602401600060405180830381865afa15801561057f573d6000803e3d6000fd5b505050506040513d6000823e601f3d908101601f191682016040526105a791908101906119d3565b90506000805b8261010001515181101561052a5782610100015181815181106105d2576105d2611e39565b60200260200101516001600160a01b0316856001600160a01b0316036105fb576001915061052a565b8061060581611e4f565b9150506105ad565b60008054604051631e1e7e5960e31b81526004810184905282916001600160a01b03169063f0f3f2c890602401600060405180830381865afa158015610657573d6000803e3d6000fd5b505050506040513d6000823e601f3d908101601f1916820160405261067f91908101906119d3565b9050600060058260a00151600581111561069b5761069b611705565b610100840151516080850151519290911492501515904210158280156106be5750815b80156106c75750805b9695505050505050565b60008054604051631e1e7e5960e31b815260048101849052606092916001600160a01b03169063f0f3f2c890602401600060405180830381865afa15801561071d573d6000803e3d6000fd5b505050506040513d6000823e601f3d908101601f1916820160405261074591908101906119d3565b90506000816101a00151516001600160401b0381111561076757610767611741565b604051908082528060200260200182016040528015610790578160200160208202803683370190505b50905060005b826101a00151518110156108ba57600080546101a085015180516001600160a01b0390921691631d65e77e9190859081106107d3576107d3611e39565b60200260200101516040518263ffffffff1660e01b81526004016107f991815260200190565b600060405180830381865afa158015610816573d6000803e3d6000fd5b505050506040513d6000823e601f3d908101601f1916820160405261083e9190810190611e77565b90506000816101000151600481111561085957610859611705565b0361088657806000015183838151811061087557610875611e39565b6020026020010181815250506108a7565b600083838151811061089a5761089a611e39565b6020026020010181815250505b50806108b281611e4f565b915050610796565b509392505050565b60008054604051631e1e7e5960e31b815260048101849052606092916001600160a01b03169063f0f3f2c890602401600060405180830381865afa15801561090e573d6000803e3d6000fd5b505050506040513d6000823e601f3d908101601f1916820160405261093691908101906119d3565b90506000816101a00151516001600160401b0381111561095857610958611741565b604051908082528060200260200182016040528015610981578160200160208202803683370190505b50905060005b826101a00151518110156108ba57600080546101a085015180516001600160a01b0390921691631d65e77e9190859081106109c4576109c4611e39565b60200260200101516040518263ffffffff1660e01b81526004016109ea91815260200190565b600060405180830381865afa158015610a07573d6000803e3d6000fd5b505050506040513d6000823e601f3d908101601f19168201604052610a2f9190810190611e77565b905060018161010001516004811115610a4a57610a4a611705565b03610a77578060000151838381518110610a6657610a66611e39565b602002602001018181525050610a98565b6000838381518110610a8b57610a8b611e39565b6020026020010181815250505b5080610aa381611e4f565b915050610987565b60008054604051631e1e7e5960e31b815260048101849052606092916001600160a01b03169063f0f3f2c890602401600060405180830381865afa158015610af7573d6000803e3d6000fd5b505050506040513d6000823e601f3d908101601f19168201604052610b1f91908101906119d3565b90506000816101a00151516001600160401b03811115610b4157610b41611741565b604051908082528060200260200182016040528015610b6a578160200160208202803683370190505b50905060005b826101a00151518110156108ba57600080546101a085015180516001600160a01b0390921691631d65e77e919085908110610bad57610bad611e39565b60200260200101516040518263ffffffff1660e01b8152600401610bd391815260200190565b600060405180830381865afa158015610bf0573d6000803e3d6000fd5b505050506040513d6000823e601f3d908101601f19168201604052610c189190810190611e77565b905060048161010001516004811115610c3357610c33611705565b03610c60578060000151838381518110610c4f57610c4f611e39565b602002602001018181525050610c81565b6000838381518110610c7457610c74611e39565b6020026020010181815250505b5080610c8c81611e4f565b915050610b70565b60008054604051631e1e7e5960e31b81526004810184905282916001600160a01b03169063f0f3f2c890602401600060405180830381865afa158015610cde573d6000803e3d6000fd5b505050506040513d6000823e601f3d908101601f19168201604052610d0691908101906119d3565b9050600060048260a001516005811115610d2257610d22611705565b6080840151604001519114915042101581801561044b5750949350505050565b60008054604051631e1e7e5960e31b81526004810184905282916001600160a01b03169063f0f3f2c890602401600060405180830381865afa158015610d8c573d6000803e3d6000fd5b505050506040513d6000823e601f3d908101601f19168201604052610db491908101906119d3565b600080546101408301516040516315663e3360e21b8152600481019190915292935090916001600160a01b0390911690635598f8cc90602401600060405180830381865afa158015610e0a573d6000803e3d6000fd5b505050506040513d6000823e601f3d908101601f19168201604052610e329190810190611cd6565b9050600073__$700c4b692048d554c7f19e6c07dafefb0c$__638e3e7561836040518263ffffffff1660e01b8152600401610e6d919061209b565b602060405180830381865af4158015610e8a573d6000803e3d6000fd5b505050506040513d601f19601f82011682018060405250810190610eae9190612194565b602084015161016085015191925090869060015b818314610f6c5760008054604051631e1e7e5960e31b8152600481018590526001600160a01b039091169063f0f3f2c890602401600060405180830381865afa158015610f13573d6000803e3d6000fd5b505050506040513d6000823e601f3d908101601f19168201604052610f3b91908101906119d3565b9050806020015185610f4d91906121ad565b61016082015190955092935081610f63816121c4565b92505050610ec2565b610f778160646122c7565b610f8186866121ad565b61039691906122dd565b60008054604051631e1e7e5960e31b815260048101849052829182916001600160a01b039091169063f0f3f2c890602401600060405180830381865afa158015610fd9573d6000803e3d6000fd5b505050506040513d6000823e601f3d908101601f1916820160405261100191908101906119d3565b905060058160a00151600581111561101b5761101b611705565b03611049576110298461060d565b1561103a5750600193849350915050565b60a00151600094909350915050565b60018160a00151600581111561106157611061611705565b036110815761106f846103a3565b1561103a575060019360029350915050565b60028160a00151600581111561109957611099611705565b036110b9576110a7846110f1565b1561103a575060019360039350915050565b60038160a0015160058111156110d1576110d1611705565b0361103a576110df8461025b565b1561103a575060019360049350915050565b60008054604051631e1e7e5960e31b81526004810184905282916001600160a01b03169063f0f3f2c890602401600060405180830381865afa15801561113b573d6000803e3d6000fd5b505050506040513d6000823e601f3d908101601f1916820160405261116391908101906119d3565b905060008060008060008054906101000a90046001600160a01b03166001600160a01b031663aa15d5f06040518163ffffffff1660e01b8152600401608060405180830381865afa1580156111bc573d6000803e3d6000fd5b505050506040513d601f19601f820116820180604052508101906111e09190611b6c565b92965090945092509050600060028660a00151600581111561120457611204611705565b1490506000848760800151602001516103879190611bb8565b600080546040516315663e3360e21b81526004810185905282916001600160a01b031690635598f8cc90602401600060405180830381865afa158015611267573d6000803e3d6000fd5b505050506040513d6000823e601f3d908101601f1916820160405261128f9190810190611cd6565b90506000805b8260a001515181101561052a578260a0015181815181106112b8576112b8611e39565b60200260200101516001600160a01b0316856001600160a01b0316036112e1576001915061052a565b806112eb81611e4f565b915050611295565b60008054604051631e1e7e5960e31b81526004810184905282916001600160a01b03169063f0f3f2c890602401600060405180830381865afa15801561133d573d6000803e3d6000fd5b505050506040513d6000823e601f3d908101601f1916820160405261136591908101906119d3565b9050600060048260a00151600581111561138157611381611705565b149050600160005b83610180015151811015611466576000805461018086015180516001600160a01b039092169163f0f3f2c89190859081106113c6576113c6611e39565b60200260200101516040518263ffffffff1660e01b81526004016113ec91815260200190565b600060405180830381865afa158015611409573d6000803e3d6000fd5b505050506040513d6000823e601f3d908101601f1916820160405261143191908101906119d3565b60a00151600581111561144657611446611705565b146114545760009150611466565b8061145e81611e4f565b915050611389565b5081801561044b5750949350505050565b60008054604051631e1e7e5960e31b815260048101849052606092916001600160a01b03169063f0f3f2c890602401600060405180830381865afa1580156114c3573d6000803e3d6000fd5b505050506040513d6000823e601f3d908101601f191682016040526114eb91908101906119d3565b90506000816101a00151516001600160401b0381111561150d5761150d611741565b604051908082528060200260200182016040528015611536578160200160208202803683370190505b50905060005b826101a00151518110156108ba57600080546101a085015180516001600160a01b0390921691631d65e77e91908590811061157957611579611e39565b60200260200101516040518263ffffffff1660e01b815260040161159f91815260200190565b600060405180830381865afa1580156115bc573d6000803e3d6000fd5b505050506040513d6000823e601f3d908101601f191682016040526115e49190810190611e77565b9050600281610100015160048111156115ff576115ff611705565b0361162c57806000015183838151811061161b5761161b611e39565b60200260200101818152505061164d565b600083838151811061164057611640611e39565b6020026020010181815250505b508061165881611e4f565b91505061153c565b60006020828403121561167257600080fd5b5035919050565b6001600160a01b038116811461168e57600080fd5b50565b600080604083850312156116a457600080fd5b8235915060208301356116b681611679565b809150509250929050565b6020808252825182820181905260009190848201906040850190845b818110156116f9578351835292840192918401916001016116dd565b50909695505050505050565b634e487b7160e01b600052602160045260246000fd5b8215158152604081016006831061173457611734611705565b8260208301529392505050565b634e487b7160e01b600052604160045260246000fd5b6040516101c081016001600160401b038111828210171561177a5761177a611741565b60405290565b60405161014081016001600160401b038111828210171561177a5761177a611741565b604051601f8201601f191681016001600160401b03811182821017156117cb576117cb611741565b604052919050565b60005b838110156117ee5781810151838201526020016117d6565b50506000910152565b600082601f83011261180857600080fd5b81516001600160401b0381111561182157611821611741565b611834601f8201601f19166020016117a3565b81815284602083860101111561184957600080fd5b61185a8260208301602087016117d3565b949350505050565b60006060828403121561187457600080fd5b604051606081016001600160401b038111828210171561189657611896611741565b80604052508091508251815260208301516020820152604083015160408201525092915050565b8051600681106118cc57600080fd5b919050565b805180151581146118cc57600080fd5b60006001600160401b038211156118fa576118fa611741565b5060051b60200190565b600082601f83011261191557600080fd5b8151602061192a611925836118e1565b6117a3565b82815260059290921b8401810191818101908684111561194957600080fd5b8286015b84811015611964578051835291830191830161194d565b509695505050505050565b600082601f83011261198057600080fd5b81516020611990611925836118e1565b82815260059290921b840181019181810190868411156119af57600080fd5b8286015b848110156119645780516119c681611679565b83529183019183016119b3565b6000602082840312156119e557600080fd5b81516001600160401b03808211156119fc57600080fd5b908301906102008286031215611a1157600080fd5b611a19611757565b825182811115611a2857600080fd5b611a34878286016117f7565b825250602083015160208201526040830151604082015260608301516060820152611a628660808501611862565b6080820152611a7360e084016118bd565b60a0820152610100611a868185016118d1565b60c08301526101208085015184811115611a9f57600080fd5b611aab89828801611904565b60e0850152506101408086015185811115611ac557600080fd5b611ad18a82890161196f565b848601525061016092508286015185811115611aec57600080fd5b611af88a82890161196f565b838601525061018091508186015181850152506101a080860151838501526101c0860151925084831115611b2b57600080fd5b611b3789848801611904565b828501526101e0860151925084831115611b5057600080fd5b611b5c89848801611904565b9084015250909695505050505050565b60008060008060808587031215611b8257600080fd5b505082516020840151604085015160609095015191969095509092509050565b634e487b7160e01b600052601160045260246000fd5b8082018082111561052f5761052f611ba2565b8051600281106118cc57600080fd5b80516118cc81611679565b600060a08284031215611bf757600080fd5b60405160a081016001600160401b0381118282101715611c1957611c19611741565b80604052508091508251611c2c81611679565b80825250602083015160208201526040830151604082015260608301516060820152611c5a608084016118d1565b60808201525092915050565b600082601f830112611c7757600080fd5b81516020611c87611925836118e1565b82815260a09283028501820192828201919087851115611ca657600080fd5b8387015b85811015611cc957611cbc8982611be5565b8452928401928101611caa565b5090979650505050505050565b600060208284031215611ce857600080fd5b81516001600160401b0380821115611cff57600080fd5b908301906101c08286031215611d1457600080fd5b611d1c611780565b825182811115611d2b57600080fd5b611d37878286016117f7565b82525060208301516020820152611d5060408401611bcb565b6040820152611d6160608401611bda565b6060820152608083015182811115611d7857600080fd5b611d848782860161196f565b60808301525060a083015182811115611d9c57600080fd5b611da88782860161196f565b60a08301525060c083015182811115611dc057600080fd5b611dcc8782860161196f565b60c083015250611ddf8660e08501611be5565b60e082015261018083015182811115611df757600080fd5b611e0387828601611c66565b610100830152506101a083015182811115611e1d57600080fd5b611e2987828601611904565b6101208301525095945050505050565b634e487b7160e01b600052603260045260246000fd5b600060018201611e6157611e61611ba2565b5060010190565b8051600581106118cc57600080fd5b600060208284031215611e8957600080fd5b81516001600160401b0380821115611ea057600080fd5b908301906101408286031215611eb557600080fd5b611ebd611780565b82518152602083015182811115611ed357600080fd5b611edf878286016117f7565b60208301525060408301516040820152611efb606084016118d1565b60608201526080830151608082015260a083015160a0820152611f2060c08401611bda565b60c082015260e083015182811115611f3757600080fd5b611f43878286016117f7565b60e0830152506101009150611f59828401611e68565b9181019190915261012091820151918101919091529392505050565b60008151808452611f8d8160208601602086016117d3565b601f01601f19169290920160200192915050565b60028110611fb157611fb1611705565b9052565b600081518084526020808501945080840160005b83811015611fee5781516001600160a01b031687529582019590820190600101611fc9565b509495945050505050565b80516001600160a01b031682526020808201519083015260408082015190830152606080820151908301526080908101511515910152565b600081518084526020808501945080840160005b83811015611fee57612058878351611ff9565b60a0969096019590820190600101612045565b600081518084526020808501945080840160005b83811015611fee5781518752958201959082019060010161207f565b60208152600082516101c08060208501526120ba6101e0850183611f75565b91506020850151604085015260408501516120d86060860182611fa1565b5060608501516001600160a01b0381166080860152506080850151601f19808685030160a087015261210a8483611fb5565b935060a08701519150808685030160c08701526121278483611fb5565b935060c08701519150808685030160e08701526121448483611fb5565b935060e0870151915061010061215c81880184611ff9565b87015186850382016101a088015291506121768483612031565b93506101208701519150808685030183870152506106c7838261206b565b6000602082840312156121a657600080fd5b5051919050565b808202811582820484141761052f5761052f611ba2565b600060ff821660ff81036121da576121da611ba2565b60010192915050565b600181815b8085111561221e57816000190482111561220457612204611ba2565b8085161561221157918102915b93841c93908002906121e8565b509250929050565b6000826122355750600161052f565b816122425750600061052f565b816001811461225857600281146122625761227e565b600191505061052f565b60ff84111561227357612273611ba2565b50506001821b61052f565b5060208310610133831016604e8410600b84101617156122a1575081810a61052f565b6122ab83836121e3565b80600019048211156122bf576122bf611ba2565b029392505050565b60006122d660ff841683612226565b9392505050565b6000826122fa57634e487b7160e01b600052601260045260246000fd5b50049056fea26469706673582212201a80c219dab2462cee18660cf8da735f53b1a5625a98f771212ddda2c3ccdd2164736f6c63430008140033",
    "linkReferences": {
      "contracts/Libraries.sol": {
        "CampaignManager": [
          {
            "start": 3924,
            "length": 20
          }
        ]
      }
    }
  },
  "methodIdentifiers": {
    "checkIsCampaignAcceptor(uint256,address)": "d24f932d",
    "checkIsCampaignOwner(uint256,address)": "3e685a36",
    "checkIsProjectWorker(uint256,address)": "3fedd4b5",
    "computeProjectReward(uint256)": "a39ecd71",
    "getDeclinedTasksIDs(uint256)": "e32eaa5f",
    "getDisputedTasksIDs(uint256)": "8b7b766f",
    "getNoneTasksIDs(uint256)": "7521da2f",
    "getPendingTasksIDs(uint256)": "78e1b03c",
    "standardSubstrateAddress()": "f235b34e",
    "toClosedConditions(uint256)": "e029842c",
    "toGateConditions(uint256)": "19d801e6",
    "toPostDispConditions(uint256)": "14b541ae",
    "toPostSubConditions(uint256)": "ce875740",
    "toSettledConditions(uint256)": "a063d291",
    "toStageConditions(uint256)": "68365f54",
    "whereToGo(uint256)": "b2be86ad"
  },
  "id": 6
}