{
  "abi": [
    {
      "inputs": [
        {
          "internalType": "address",
          "name": "_standardCampaignAddress",
          "type": "address"
        }
      ],
      "stateMutability": "nonpayable",
      "type": "constructor"
    },
    {
      "inputs": [
        {
          "internalType": "uint256",
          "name": "_applicationID",
          "type": "uint256"
        }
      ],
      "name": "isApplicationExisting",
      "outputs": [
        {
          "internalType": "bool",
          "name": "",
          "type": "bool"
        }
      ],
      "stateMutability": "view",
      "type": "function"
    },
    {
      "inputs": [
        {
          "internalType": "uint256",
          "name": "_campaignID",
          "type": "uint256"
        },
        {
          "internalType": "address",
          "name": "_address",
          "type": "address"
        }
      ],
      "name": "isCampaignAcceptor",
      "outputs": [
        {
          "internalType": "bool",
          "name": "",
          "type": "bool"
        }
      ],
      "stateMutability": "view",
      "type": "function"
    },
    {
      "inputs": [
        {
          "internalType": "uint256",
          "name": "_campaignID",
          "type": "uint256"
        },
        {
          "internalType": "address",
          "name": "_address",
          "type": "address"
        }
      ],
      "name": "isCampaignCreator",
      "outputs": [
        {
          "internalType": "bool",
          "name": "",
          "type": "bool"
        }
      ],
      "stateMutability": "view",
      "type": "function"
    },
    {
      "inputs": [
        {
          "internalType": "uint256",
          "name": "_campaignID",
          "type": "uint256"
        }
      ],
      "name": "isCampaignExisting",
      "outputs": [
        {
          "internalType": "bool",
          "name": "",
          "type": "bool"
        }
      ],
      "stateMutability": "view",
      "type": "function"
    },
    {
      "inputs": [
        {
          "internalType": "uint256",
          "name": "_campaignID",
          "type": "uint256"
        },
        {
          "internalType": "address",
          "name": "_address",
          "type": "address"
        }
      ],
      "name": "isCampaignFunder",
      "outputs": [
        {
          "internalType": "bool",
          "name": "",
          "type": "bool"
        }
      ],
      "stateMutability": "view",
      "type": "function"
    },
    {
      "inputs": [
        {
          "internalType": "uint256",
          "name": "_campaignID",
          "type": "uint256"
        },
        {
          "internalType": "address",
          "name": "_address",
          "type": "address"
        }
      ],
      "name": "isCampaignOwner",
      "outputs": [
        {
          "internalType": "bool",
          "name": "",
          "type": "bool"
        }
      ],
      "stateMutability": "view",
      "type": "function"
    },
    {
      "inputs": [
        {
          "internalType": "uint256",
          "name": "_campaignID",
          "type": "uint256"
        }
      ],
      "name": "isCampaignRunning",
      "outputs": [
        {
          "internalType": "bool",
          "name": "",
          "type": "bool"
        }
      ],
      "stateMutability": "view",
      "type": "function"
    },
    {
      "inputs": [
        {
          "internalType": "uint256",
          "name": "_campaignID",
          "type": "uint256"
        },
        {
          "internalType": "address",
          "name": "_address",
          "type": "address"
        }
      ],
      "name": "isCampaignStakeholder",
      "outputs": [
        {
          "internalType": "bool",
          "name": "",
          "type": "bool"
        }
      ],
      "stateMutability": "view",
      "type": "function"
    },
    {
      "inputs": [
        {
          "internalType": "uint256",
          "name": "_projectID",
          "type": "uint256"
        },
        {
          "internalType": "address",
          "name": "_address",
          "type": "address"
        }
      ],
      "name": "isPastWorkerOnProject",
      "outputs": [
        {
          "internalType": "bool",
          "name": "",
          "type": "bool"
        }
      ],
      "stateMutability": "view",
      "type": "function"
    },
    {
      "inputs": [
        {
          "internalType": "uint256",
          "name": "_projectID",
          "type": "uint256"
        }
      ],
      "name": "isProjectClosed",
      "outputs": [
        {
          "internalType": "bool",
          "name": "",
          "type": "bool"
        }
      ],
      "stateMutability": "view",
      "type": "function"
    },
    {
      "inputs": [
        {
          "internalType": "uint256",
          "name": "_projectID",
          "type": "uint256"
        }
      ],
      "name": "isProjectExisting",
      "outputs": [
        {
          "internalType": "bool",
          "name": "",
          "type": "bool"
        }
      ],
      "stateMutability": "view",
      "type": "function"
    },
    {
      "inputs": [
        {
          "internalType": "uint256",
          "name": "_projectID",
          "type": "uint256"
        }
      ],
      "name": "isProjectGate",
      "outputs": [
        {
          "internalType": "bool",
          "name": "",
          "type": "bool"
        }
      ],
      "stateMutability": "view",
      "type": "function"
    },
    {
      "inputs": [
        {
          "internalType": "uint256",
          "name": "_projectID",
          "type": "uint256"
        }
      ],
      "name": "isProjectPostDisp",
      "outputs": [
        {
          "internalType": "bool",
          "name": "",
          "type": "bool"
        }
      ],
      "stateMutability": "view",
      "type": "function"
    },
    {
      "inputs": [
        {
          "internalType": "uint256",
          "name": "_projectID",
          "type": "uint256"
        }
      ],
      "name": "isProjectPostSub",
      "outputs": [
        {
          "internalType": "bool",
          "name": "",
          "type": "bool"
        }
      ],
      "stateMutability": "view",
      "type": "function"
    },
    {
      "inputs": [
        {
          "internalType": "uint256",
          "name": "_projectID",
          "type": "uint256"
        }
      ],
      "name": "isProjectRunning",
      "outputs": [
        {
          "internalType": "bool",
          "name": "",
          "type": "bool"
        }
      ],
      "stateMutability": "view",
      "type": "function"
    },
    {
      "inputs": [
        {
          "internalType": "uint256",
          "name": "_projectID",
          "type": "uint256"
        }
      ],
      "name": "isProjectSettled",
      "outputs": [
        {
          "internalType": "bool",
          "name": "",
          "type": "bool"
        }
      ],
      "stateMutability": "view",
      "type": "function"
    },
    {
      "inputs": [
        {
          "internalType": "uint256",
          "name": "_projectID",
          "type": "uint256"
        }
      ],
      "name": "isProjectStage",
      "outputs": [
        {
          "internalType": "bool",
          "name": "",
          "type": "bool"
        }
      ],
      "stateMutability": "view",
      "type": "function"
    },
    {
      "inputs": [
        {
          "internalType": "uint256",
          "name": "_taskID",
          "type": "uint256"
        }
      ],
      "name": "isTaskExisting",
      "outputs": [
        {
          "internalType": "bool",
          "name": "",
          "type": "bool"
        }
      ],
      "stateMutability": "view",
      "type": "function"
    },
    {
      "inputs": [
        {
          "internalType": "uint256",
          "name": "_projectID",
          "type": "uint256"
        },
        {
          "internalType": "address",
          "name": "_address",
          "type": "address"
        }
      ],
      "name": "isWorkerOnProject",
      "outputs": [
        {
          "internalType": "bool",
          "name": "",
          "type": "bool"
        }
      ],
      "stateMutability": "view",
      "type": "function"
    },
    {
      "inputs": [
        {
          "internalType": "uint256",
          "name": "_taskID",
          "type": "uint256"
        },
        {
          "internalType": "address",
          "name": "_address",
          "type": "address"
        }
      ],
      "name": "isWorkerOnTask",
      "outputs": [
        {
          "internalType": "bool",
          "name": "",
          "type": "bool"
        }
      ],
      "stateMutability": "view",
      "type": "function"
    },
    {
      "inputs": [
        {
          "internalType": "uint256",
          "name": "_applicationID",
          "type": "uint256"
        }
      ],
      "name": "requireApplicationExisting",
      "outputs": [],
      "stateMutability": "view",
      "type": "function"
    },
    {
      "inputs": [
        {
          "internalType": "uint256",
          "name": "_campaignID",
          "type": "uint256"
        },
        {
          "internalType": "address",
          "name": "_address",
          "type": "address"
        }
      ],
      "name": "requireCampaignAcceptor",
      "outputs": [],
      "stateMutability": "view",
      "type": "function"
    },
    {
      "inputs": [
        {
          "internalType": "uint256",
          "name": "_campaignID",
          "type": "uint256"
        },
        {
          "internalType": "address",
          "name": "_address",
          "type": "address"
        }
      ],
      "name": "requireCampaignCreator",
      "outputs": [],
      "stateMutability": "view",
      "type": "function"
    },
    {
      "inputs": [
        {
          "internalType": "uint256",
          "name": "_campaignID",
          "type": "uint256"
        }
      ],
      "name": "requireCampaignExisting",
      "outputs": [],
      "stateMutability": "view",
      "type": "function"
    },
    {
      "inputs": [
        {
          "internalType": "uint256",
          "name": "_campaignID",
          "type": "uint256"
        },
        {
          "internalType": "address",
          "name": "_address",
          "type": "address"
        }
      ],
      "name": "requireCampaignFunder",
      "outputs": [],
      "stateMutability": "view",
      "type": "function"
    },
    {
      "inputs": [
        {
          "internalType": "uint256",
          "name": "_campaignID",
          "type": "uint256"
        },
        {
          "internalType": "address",
          "name": "_address",
          "type": "address"
        }
      ],
      "name": "requireCampaignOwner",
      "outputs": [],
      "stateMutability": "view",
      "type": "function"
    },
    {
      "inputs": [
        {
          "internalType": "uint256",
          "name": "_campaignID",
          "type": "uint256"
        }
      ],
      "name": "requireCampaignRunning",
      "outputs": [],
      "stateMutability": "view",
      "type": "function"
    },
    {
      "inputs": [
        {
          "internalType": "uint256",
          "name": "_campaignID",
          "type": "uint256"
        },
        {
          "internalType": "address",
          "name": "_address",
          "type": "address"
        }
      ],
      "name": "requireCampaignStakeholder",
      "outputs": [],
      "stateMutability": "view",
      "type": "function"
    },
    {
      "inputs": [
        {
          "internalType": "uint256",
          "name": "_projectID",
          "type": "uint256"
        },
        {
          "internalType": "address",
          "name": "_address",
          "type": "address"
        }
      ],
      "name": "requirePastWorkerOnProject",
      "outputs": [],
      "stateMutability": "view",
      "type": "function"
    },
    {
      "inputs": [
        {
          "internalType": "uint256",
          "name": "_projectID",
          "type": "uint256"
        }
      ],
      "name": "requireProjectClosed",
      "outputs": [],
      "stateMutability": "view",
      "type": "function"
    },
    {
      "inputs": [
        {
          "internalType": "uint256",
          "name": "_projectID",
          "type": "uint256"
        }
      ],
      "name": "requireProjectExisting",
      "outputs": [],
      "stateMutability": "view",
      "type": "function"
    },
    {
      "inputs": [
        {
          "internalType": "uint256",
          "name": "_projectID",
          "type": "uint256"
        }
      ],
      "name": "requireProjectGate",
      "outputs": [],
      "stateMutability": "view",
      "type": "function"
    },
    {
      "inputs": [
        {
          "internalType": "uint256",
          "name": "_projectID",
          "type": "uint256"
        }
      ],
      "name": "requireProjectPostDisp",
      "outputs": [],
      "stateMutability": "view",
      "type": "function"
    },
    {
      "inputs": [
        {
          "internalType": "uint256",
          "name": "_projectID",
          "type": "uint256"
        }
      ],
      "name": "requireProjectPostSub",
      "outputs": [],
      "stateMutability": "view",
      "type": "function"
    },
    {
      "inputs": [
        {
          "internalType": "uint256",
          "name": "_projectID",
          "type": "uint256"
        }
      ],
      "name": "requireProjectRunning",
      "outputs": [],
      "stateMutability": "view",
      "type": "function"
    },
    {
      "inputs": [
        {
          "internalType": "uint256",
          "name": "_projectID",
          "type": "uint256"
        }
      ],
      "name": "requireProjectSettled",
      "outputs": [],
      "stateMutability": "view",
      "type": "function"
    },
    {
      "inputs": [
        {
          "internalType": "uint256",
          "name": "_projectID",
          "type": "uint256"
        }
      ],
      "name": "requireProjectStage",
      "outputs": [],
      "stateMutability": "view",
      "type": "function"
    },
    {
      "inputs": [
        {
          "internalType": "uint256",
          "name": "_taskID",
          "type": "uint256"
        }
      ],
      "name": "requireTaskExisting",
      "outputs": [],
      "stateMutability": "view",
      "type": "function"
    },
    {
      "inputs": [
        {
          "internalType": "uint256",
          "name": "_projectID",
          "type": "uint256"
        },
        {
          "internalType": "address",
          "name": "_address",
          "type": "address"
        }
      ],
      "name": "requireWorkerOnProject",
      "outputs": [],
      "stateMutability": "view",
      "type": "function"
    },
    {
      "inputs": [
        {
          "internalType": "uint256",
          "name": "_taskID",
          "type": "uint256"
        },
        {
          "internalType": "address",
          "name": "_address",
          "type": "address"
        }
      ],
      "name": "requireWorkerOnTask",
      "outputs": [],
      "stateMutability": "view",
      "type": "function"
    },
    {
      "inputs": [],
      "name": "standardCampaignAddress",
      "outputs": [
        {
          "internalType": "address",
          "name": "",
          "type": "address"
        }
      ],
      "stateMutability": "view",
      "type": "function"
    }
  ],
  "bytecode": {
    "object": "0x6080604052600080546001600160a01b031916905534801561002057600080fd5b506040516200215f3803806200215f833981016040819052610041916100d4565b6000546001600160a01b0316156100af5760405162461bcd60e51b815260206004820152602860248201527f7374616e6461726443616d706169676e41646472657373206d75737420626520604482015267736574206f6e636560c01b606482015260840160405180910390fd5b600080546001600160a01b0319166001600160a01b0392909216919091179055610104565b6000602082840312156100e657600080fd5b81516001600160a01b03811681146100fd57600080fd5b9392505050565b61204b80620001146000396000f3fe608060405234801561001057600080fd5b50600436106101e35760003560e01c8063022bb804146101e857806303cfe9a7146101fd578063066dbdaa1461021057806311c60eaf14610223578063129b6b1a1461023657806315c59a961461024957806316075103146102715780631afa02e8146102845780631e5a7cec1461029757806321bd177d146102aa57806325579ae9146102bd5780632ab0cc11146102d05780632bfbbd83146102e357806334ca22cc146102f65780633bdb547614610309578063411c5aaa1461031c57806347c98fd41461032f57806363e5befa146103425780636824366b146103555780636de401d114610368578063769d59031461037b57806380bdec651461038e57806381b2968c146103b9578063829b1625146103cc578063991c57c5146103df578063a3eddc6d146103f2578063ad09dd9a14610405578063adfbefc614610418578063aefa90f11461042b578063af3906e91461043e578063b6807c2214610451578063bcc31c2914610464578063bfc4eddd14610477578063ce7dcf7c1461048a578063dbf91ec41461049d578063e156946e146104b0578063e50ca11b146104c3578063ee7cfc76146104d6578063eecaee6b146104e9578063f0aa8150146104fc578063ff87f9561461050f575b600080fd5b6101fb6101f6366004611677565b610522565b005b6101fb61020b366004611677565b610579565b6101fb61021e3660046116a5565b6105d6565b6101fb6102313660046116a5565b610630565b6101fb610244366004611677565b610692565b61025c610257366004611677565b6106f8565b60405190151581526020015b60405180910390f35b61025c61027f366004611677565b610791565b61025c6102923660046116a5565b610816565b61025c6102a5366004611677565b6108f6565b6101fb6102b8366004611677565b610993565b61025c6102cb366004611677565b6109f3565b6101fb6102de366004611677565b610a87565b61025c6102f1366004611677565b610ad2565b6101fb6103043660046116a5565b610b5d565b61025c610317366004611677565b610bb3565b6101fb61032a3660046116a5565b610bbc565b61025c61033d3660046116a5565b610c12565b6101fb610350366004611677565b610ce5565b6101fb610363366004611677565b610d3d565b61025c610376366004611677565b610d8f565b61025c6103893660046116a5565b610d97565b6000546103a1906001600160a01b031681565b6040516001600160a01b039091168152602001610268565b6101fb6103c73660046116a5565b610e6b565b61025c6103da3660046116a5565b610ec1565b61025c6103ed3660046116a5565b610f57565b61025c610400366004611677565b610ffc565b61025c610413366004611677565b611081565b61025c6104263660046116a5565b611106565b6101fb610439366004611677565b6111de565b61025c61044c366004611677565b611243565b6101fb61045f3660046116a5565b61124c565b6101fb6104723660046116a5565b6112a2565b6101fb610485366004611677565b6112f8565b61025c6104983660046116a5565b611359565b6101fb6104ab366004611677565b61142d565b6101fb6104be366004611677565b61147c565b6101fb6104d13660046116a5565b6114e0565b61025c6104e43660046116a5565b611544565b6101fb6104f7366004611677565b611617565b61025c61050a366004611677565b611665565b61025c61051d366004611677565b61166e565b61052b81610791565b6105765760405162461bcd60e51b815260206004820152601760248201527610d85b5c185a59db88191bd95cc81b9bdd08195e1a5cdd604a1b60448201526064015b60405180910390fd5b50565b61058281610ad2565b6105765760405162461bcd60e51b81526020600482015260316024820152600080516020611ff68339815191526044820152706f73742d6469737075746520737461676560781b606482015260840161056d565b6105e08282611544565b61062c5760405162461bcd60e51b815260206004820152601d60248201527f41646472657373206973206e6f742063616d706169676e206f776e6572000000604482015260640161056d565b5050565b61063a8282610c12565b61062c5760405162461bcd60e51b815260206004820152602360248201527f41646472657373206973206e6f742063616d706169676e207374616b65686f6c6044820152623232b960e91b606482015260840161056d565b61069b816108f6565b6105765760405162461bcd60e51b815260206004820152602860248201527f43616d706169676e206973206e6f742072756e6e696e67206f72206973206e6f6044820152671d08199d5b99195960c21b606482015260840161056d565b60008054604051631f2f4bfd60e01b81526004810184905282916001600160a01b031690631f2f4bfd90602401600060405180830381865afa158015610742573d6000803e3d6000fd5b505050506040513d6000823e601f3d908101601f1916820160405261076a9190810190611888565b602001516001600160a01b03160361078457506000919050565b506001919050565b919050565b600080546040516315663e3360e21b8152600481018490526001600160a01b0390911690635598f8cc90602401600060405180830381865afa1580156107db573d6000803e3d6000fd5b505050506040513d6000823e601f3d908101601f191682016040526108039190810190611aab565b6020015160000361078457506000919050565b600080546040516315663e3360e21b81526004810185905282916001600160a01b031690635598f8cc90602401600060405180830381865afa158015610860573d6000803e3d6000fd5b505050506040513d6000823e601f3d908101601f191682016040526108889190810190611aab565b60a00151905060005b81518110156108e957836001600160a01b03168282815181106108b6576108b6611c0e565b60200260200101516001600160a01b0316036108d7576001925050506108f0565b806108e181611c24565b915050610891565b5060009150505b92915050565b600080546040516315663e3360e21b8152600481018490526001916001600160a01b031690635598f8cc90602401600060405180830381865afa158015610941573d6000803e3d6000fd5b505050506040513d6000823e601f3d908101601f191682016040526109699190810190611aab565b60400151600181111561097e5761097e611c4b565b0361098b57506001919050565b506000919050565b61099c81611665565b6105765760405162461bcd60e51b81526020600482015260346024820152600080516020611ff68339815191526044820152736f73742d7375626d697373696f6e20737461676560601b606482015260840161056d565b60008054604051631e1e7e5960e31b81526004810184905282916001600160a01b03169063f0f3f2c890602401600060405180830381865afa158015610a3d573d6000803e3d6000fd5b505050506040513d6000823e601f3d908101601f19168201604052610a659190810190611d2f565b60a001516005811115610a7a57610a7a611c4b565b1461098b57506001919050565b610a9081610ffc565b6105765760405162461bcd60e51b815260206004820152601360248201527215185cdac8191bd95cc81b9bdd08195e1a5cdd606a1b604482015260640161056d565b600060045b600054604051631e1e7e5960e31b8152600481018590526001600160a01b039091169063f0f3f2c890602401600060405180830381865afa158015610b20573d6000803e3d6000fd5b505050506040513d6000823e601f3d908101601f19168201604052610b489190810190611d2f565b60a00151600581111561097e5761097e611c4b565b610b678282610ec1565b61062c5760405162461bcd60e51b815260206004820152601f60248201527f41646472657373206973206e6f742063616d706169676e2063726561746f7200604482015260640161056d565b60006001610ad7565b610bc68282610816565b61062c5760405162461bcd60e51b815260206004820181905260248201527f41646472657373206973206e6f742063616d706169676e206163636570746f72604482015260640161056d565b600080546040516315663e3360e21b81526004810185905282916001600160a01b031690635598f8cc90602401600060405180830381865afa158015610c5c573d6000803e3d6000fd5b505050506040513d6000823e601f3d908101601f19168201604052610c849190810190611aab565b60c00151905060005b81518110156108e957836001600160a01b0316828281518110610cb257610cb2611c0e565b60200260200101516001600160a01b031603610cd3576001925050506108f0565b80610cdd81611c24565b915050610c8d565b610cee8161166e565b6105765760405162461bcd60e51b815260206004820152602c6024820152600080516020611fd683398151915260448201526b6574746c656420737461676560a01b606482015260840161056d565b610d46816106f8565b6105765760405162461bcd60e51b815260206004820152601a602482015279105c1c1b1a58d85d1a5bdb88191bd95cc81b9bdd08195e1a5cdd60321b604482015260640161056d565b600080610ad7565b60008054604051631e1e7e5960e31b81526004810185905282916001600160a01b03169063f0f3f2c890602401600060405180830381865afa158015610de1573d6000803e3d6000fd5b505050506040513d6000823e601f3d908101601f19168201604052610e099190810190611d2f565b6101000151905060005b81518110156108e957836001600160a01b0316828281518110610e3857610e38611c0e565b60200260200101516001600160a01b031603610e59576001925050506108f0565b80610e6381611c24565b915050610e13565b610e758282611106565b61062c5760405162461bcd60e51b815260206004820152601e60248201527f41646472657373206973206e6f742063616d706169676e2066756e6465720000604482015260640161056d565b600080546040516315663e3360e21b8152600481018590526001600160a01b03848116921690635598f8cc90602401600060405180830381865afa158015610f0d573d6000803e3d6000fd5b505050506040513d6000823e601f3d908101601f19168201604052610f359190810190611aab565b606001516001600160a01b031603610f4f575060016108f0565b5060006108f0565b60008054604051630eb2f3bf60e11b81526004810185905282916001600160a01b031690631d65e77e90602401600060405180830381865afa158015610fa1573d6000803e3d6000fd5b505050506040513d6000823e601f3d908101601f19168201604052610fc99190810190611ed7565b60c001519050826001600160a01b0316816001600160a01b031603610ff25760019150506108f0565b5060009392505050565b60008054604051630eb2f3bf60e11b8152600481018490526001600160a01b0390911690631d65e77e90602401600060405180830381865afa158015611046573d6000803e3d6000fd5b505050506040513d6000823e601f3d908101601f1916820160405261106e9190810190611ed7565b6080015160000361078457506000919050565b60008054604051631e1e7e5960e31b8152600481018490526001600160a01b039091169063f0f3f2c890602401600060405180830381865afa1580156110cb573d6000803e3d6000fd5b505050506040513d6000823e601f3d908101601f191682016040526110f39190810190611d2f565b6060015160000361078457506000919050565b600080546040516315663e3360e21b81526004810185905282916001600160a01b031690635598f8cc90602401600060405180830381865afa158015611150573d6000803e3d6000fd5b505050506040513d6000823e601f3d908101601f191682016040526111789190810190611aab565b6101000151905060005b81518110156108e957836001600160a01b03168282815181106111a7576111a7611c0e565b6020026020010151600001516001600160a01b0316036111cc576001925050506108f0565b806111d681611c24565b915050611182565b6111e7816109f3565b6105765760405162461bcd60e51b815260206004820152602760248201527f50726f6a656374206973206e6f742072756e6e696e67206f72206973206e6f7460448201526608199d5b99195960ca1b606482015260840161056d565b60006002610ad7565b6112568282610d97565b61062c5760405162461bcd60e51b815260206004820181905260248201527f41646472657373206973206e6f7420776f726b6572206f6e2070726f6a656374604482015260640161056d565b6112ac8282610f57565b61062c5760405162461bcd60e51b815260206004820152601d60248201527f41646472657373206973206e6f7420776f726b6572206f6e207461736b000000604482015260640161056d565b61130181611243565b6105765760405162461bcd60e51b815260206004820152602360248201527f50726f6a656374206973206e6f7420696e20746865207265717569726564206760448201526261746560e81b606482015260840161056d565b60008054604051631e1e7e5960e31b81526004810185905282916001600160a01b03169063f0f3f2c890602401600060405180830381865afa1580156113a3573d6000803e3d6000fd5b505050506040513d6000823e601f3d908101601f191682016040526113cb9190810190611d2f565b6101200151905060005b81518110156108e957836001600160a01b03168282815181106113fa576113fa611c0e565b60200260200101516001600160a01b03160361141b576001925050506108f0565b8061142581611c24565b9150506113d5565b61143681610bb3565b6105765760405162461bcd60e51b815260206004820152602480820152600080516020611fd68339815191526044820152637461676560e01b606482015260840161056d565b61148581610d8f565b6105765760405162461bcd60e51b815260206004820152602660248201527f50726f6a656374206973206e6f7420636c6f736564206f72206973206e6f7420604482015265199d5b99195960d21b606482015260840161056d565b6114ea8282611359565b61062c5760405162461bcd60e51b815260206004820152602560248201527f41646472657373206973206e6f74207061737420776f726b6572206f6e2070726044820152641bda9958dd60da1b606482015260840161056d565b600080546040516315663e3360e21b81526004810185905282916001600160a01b031690635598f8cc90602401600060405180830381865afa15801561158e573d6000803e3d6000fd5b505050506040513d6000823e601f3d908101601f191682016040526115b69190810190611aab565b60800151905060005b81518110156108e957836001600160a01b03168282815181106115e4576115e4611c0e565b60200260200101516001600160a01b031603611605576001925050506108f0565b8061160f81611c24565b9150506115bf565b61162081611081565b6105765760405162461bcd60e51b8152602060048201526016602482015275141c9bda9958dd08191bd95cc81b9bdd08195e1a5cdd60521b604482015260640161056d565b60006003610ad7565b60006005610ad7565b60006020828403121561168957600080fd5b5035919050565b6001600160a01b038116811461057657600080fd5b600080604083850312156116b857600080fd5b8235915060208301356116ca81611690565b809150509250929050565b634e487b7160e01b600052604160045260246000fd5b60405160a081016001600160401b038111828210171561170d5761170d6116d5565b60405290565b60405161014081016001600160401b038111828210171561170d5761170d6116d5565b6040516101c081016001600160401b038111828210171561170d5761170d6116d5565b604051601f8201601f191681016001600160401b0381118282101715611781576117816116d5565b604052919050565b600082601f83011261179a57600080fd5b81516001600160401b038111156117b3576117b36116d5565b60206117c7601f8301601f19168201611759565b82815285828487010111156117db57600080fd5b60005b838110156117f95785810183015182820184015282016117de565b506000928101909101919091529392505050565b8051801515811461078c57600080fd5b805161078c81611690565b600060a0828403121561183a57600080fd5b6118426116eb565b9050815161184f81611690565b8082525060208201516020820152604082015160408201526060820151606082015261187d6080830161180d565b608082015292915050565b60006020828403121561189a57600080fd5b81516001600160401b03808211156118b157600080fd5b9083019061012082860312156118c657600080fd5b6118ce6116eb565b8251828111156118dd57600080fd5b6118e987828601611789565b825250602083015191506118fc82611690565b81602082015261190e6040840161180d565b60408201526119208660608501611828565b606082015261010092909201516080830152509392505050565b80516002811061078c57600080fd5b60006001600160401b03821115611962576119626116d5565b5060051b60200190565b600082601f83011261197d57600080fd5b8151602061199261198d83611949565b611759565b82815260059290921b840181019181810190868411156119b157600080fd5b8286015b848110156119d55780516119c881611690565b83529183019183016119b5565b509695505050505050565b600082601f8301126119f157600080fd5b81516020611a0161198d83611949565b82815260a09283028501820192828201919087851115611a2057600080fd5b8387015b85811015611a4357611a368982611828565b8452928401928101611a24565b5090979650505050505050565b600082601f830112611a6157600080fd5b81516020611a7161198d83611949565b82815260059290921b84018101918181019086841115611a9057600080fd5b8286015b848110156119d55780518352918301918301611a94565b600060208284031215611abd57600080fd5b81516001600160401b0380821115611ad457600080fd5b908301906101c08286031215611ae957600080fd5b611af1611713565b825182811115611b0057600080fd5b611b0c87828601611789565b82525060208301516020820152611b256040840161193a565b6040820152611b366060840161181d565b6060820152608083015182811115611b4d57600080fd5b611b598782860161196c565b60808301525060a083015182811115611b7157600080fd5b611b7d8782860161196c565b60a08301525060c083015182811115611b9557600080fd5b611ba18782860161196c565b60c083015250611bb48660e08501611828565b60e082015261018083015182811115611bcc57600080fd5b611bd8878286016119e0565b610100830152506101a083015182811115611bf257600080fd5b611bfe87828601611a50565b6101208301525095945050505050565b634e487b7160e01b600052603260045260246000fd5b600060018201611c4457634e487b7160e01b600052601160045260246000fd5b5060010190565b634e487b7160e01b600052602160045260246000fd5b600060608284031215611c7357600080fd5b604051606081016001600160401b0381118282101715611c9557611c956116d5565b80604052508091508251815260208301516020820152604083015160408201525092915050565b80516006811061078c57600080fd5b600082601f830112611cdc57600080fd5b81516020611cec61198d83611949565b82815260059290921b84018101918181019086841115611d0b57600080fd5b8286015b848110156119d5578051611d2281611690565b8352918301918301611d0f565b600060208284031215611d4157600080fd5b81516001600160401b0380821115611d5857600080fd5b908301906102008286031215611d6d57600080fd5b611d75611736565b825182811115611d8457600080fd5b611d9087828601611789565b825250602083015160208201526040830151604082015260608301516060820152611dbe8660808501611c61565b6080820152611dcf60e08401611cbc565b60a0820152610100611de281850161180d565b60c08301526101208085015184811115611dfb57600080fd5b611e0789828801611a50565b60e0850152506101408086015185811115611e2157600080fd5b611e2d8a828901611ccb565b848601525061016092508286015185811115611e4857600080fd5b611e548a828901611ccb565b838601525061018091508186015181850152506101a080860151838501526101c0860151925084831115611e8757600080fd5b611e9389848801611a50565b828501526101e0860151925084831115611eac57600080fd5b611eb889848801611a50565b9084015250909695505050505050565b80516005811061078c57600080fd5b600060208284031215611ee957600080fd5b81516001600160401b0380821115611f0057600080fd5b908301906101408286031215611f1557600080fd5b611f1d611713565b82518152602083015182811115611f3357600080fd5b611f3f87828601611789565b60208301525060408301516040820152611f5b6060840161180d565b60608201526080830151608082015260a083015160a0820152611f8060c0840161181d565b60c082015260e083015182811115611f9757600080fd5b611fa387828601611789565b60e0830152506101009150611fb9828401611ec8565b918101919091526101209182015191810191909152939250505056fe50726f6a656374206973206e6f7420696e20746865207265717569726564207350726f6a656374206973206e6f7420696e207468652072657175697265642070a2646970667358221220e493d203b03f97efa750251bcfce003aa2d67b7e1d3c8ad8d6ef11d21c3a053d64736f6c63430008140033",
    "linkReferences": {}
  },
  "methodIdentifiers": {
    "isApplicationExisting(uint256)": "15c59a96",
    "isCampaignAcceptor(uint256,address)": "1afa02e8",
    "isCampaignCreator(uint256,address)": "829b1625",
    "isCampaignExisting(uint256)": "16075103",
    "isCampaignFunder(uint256,address)": "adfbefc6",
    "isCampaignOwner(uint256,address)": "ee7cfc76",
    "isCampaignRunning(uint256)": "1e5a7cec",
    "isCampaignStakeholder(uint256,address)": "47c98fd4",
    "isPastWorkerOnProject(uint256,address)": "ce7dcf7c",
    "isProjectClosed(uint256)": "6de401d1",
    "isProjectExisting(uint256)": "ad09dd9a",
    "isProjectGate(uint256)": "af3906e9",
    "isProjectPostDisp(uint256)": "2bfbbd83",
    "isProjectPostSub(uint256)": "f0aa8150",
    "isProjectRunning(uint256)": "25579ae9",
    "isProjectSettled(uint256)": "ff87f956",
    "isProjectStage(uint256)": "3bdb5476",
    "isTaskExisting(uint256)": "a3eddc6d",
    "isWorkerOnProject(uint256,address)": "769d5903",
    "isWorkerOnTask(uint256,address)": "991c57c5",
    "requireApplicationExisting(uint256)": "6824366b",
    "requireCampaignAcceptor(uint256,address)": "411c5aaa",
    "requireCampaignCreator(uint256,address)": "34ca22cc",
    "requireCampaignExisting(uint256)": "022bb804",
    "requireCampaignFunder(uint256,address)": "81b2968c",
    "requireCampaignOwner(uint256,address)": "066dbdaa",
    "requireCampaignRunning(uint256)": "129b6b1a",
    "requireCampaignStakeholder(uint256,address)": "11c60eaf",
    "requirePastWorkerOnProject(uint256,address)": "e50ca11b",
    "requireProjectClosed(uint256)": "e156946e",
    "requireProjectExisting(uint256)": "eecaee6b",
    "requireProjectGate(uint256)": "bfc4eddd",
    "requireProjectPostDisp(uint256)": "03cfe9a7",
    "requireProjectPostSub(uint256)": "21bd177d",
    "requireProjectRunning(uint256)": "aefa90f1",
    "requireProjectSettled(uint256)": "63e5befa",
    "requireProjectStage(uint256)": "dbf91ec4",
    "requireTaskExisting(uint256)": "2ab0cc11",
    "requireWorkerOnProject(uint256,address)": "b6807c22",
    "requireWorkerOnTask(uint256,address)": "bcc31c29",
    "standardCampaignAddress()": "80bdec65"
  },
  "id": 0
}